:10200000008000203D2B0000252B0000252B000028
:1020100000000000000000000000000000000000C0
:10202000000000000000000000000000252B000060
:102030000000000000000000252B0000912B000094
:10204000252B0000252B0000252B0000ED2800008B
:10205000252B0000252B0000252B0000292B00003C
:10206000252B0000252B0000252B0000BD2800009B
:10207000252B0000752A0000652A0000252B000092
:10208000252B0000252B0000252B0000252B000010
:1020900000000000252B0000252B0000252B000050
:1020A000252B0000252B0000252B0000252B0000F0
:1020B0000000000010B5064C2378002B07D1054B1B
:1020C000002B02D0044800E000BF0123237010BDA4
:1020D000C002002000000000D0AC0000044B10B58E
:1020E000002B03D00349044800E000BF10BDC046E8
:1020F00000000000C4020020D0AC00004523437063
:10210000034B0170436000230372024BC3607047AE
:102110009A99993F000400200B00103BDBB270B588
:1021200004000D00132B1DD801229A401300184AF9
:10213000134217D00178C06800F0B2FAE068217A43
:1021400003681B689847E06800F01FFB06000A2040
:1021500000F062FD042E09D8300004F0F7FA090CF3
:10216000121416000B490C4801F07CF90B4903E0EE
:102170000120257270BD0A49074801F073F900205B
:10218000F8E70849F8E70849F6E70849F4E7C046E0
:102190000B000B004CA20000D80A002019A300007D
:1021A00069A2000096A20000CBA20000FDA20000E0
:1021B00010B5002B00D0C360002A00D00270FFF7DA
:1021C000ABFF10BD030010B51B790068002B01D0D8
:1021D0000123594001F054F810BD10B50400080067
:1021E00021602271012100F0FFFF20000021FFF794
:1021F000E9FF200010BD0000030010B51B79006846
:10220000002B01D0024B591A00F004FF10BDC0464C
:10221000FF03000037B5082003F0F4F804000122A2
:102220000021FFF7DAFF224B08201C6003F0EAF8D8
:10223000042100220400FFF7D0FF96211D4D1E4B04
:10224000890128001C6001F0C3FD280001F0C2FDD7
:102250000028FAD000242800184901F00DF90121C6
:10226000062000F0C1FF10231522032101940094E1
:10227000142000F0ADF800F0C5F80121052000F0B1
:10228000FFFF0F4800F0ECF92300232210210D4836
:10229000FFF78EFF0C49280001F0E4F80B4B0A20F1
:1022A0001C600B4B1C600B4B1C6000F00FFE37BD1D
:1022B000E8020020D80A0020EC02002039A3000028
:1022C00000040020F002002045A3000000030020CD
:1022D000E40200200403002073B50E0006F044F968
:1022E000144A154B05F016FB040030000D0006F0F3
:1022F0003BF902000B002000290004F001FF0F4A07
:102300000F4B04F0E1FB03F02DF900220D4B05F01B
:1023100001FB00220B4B04F0D7FB03F087F806F01B
:10232000B3F87D238022009300235200190003F0AC
:102330003DF876BD182D4454FB211940D221337F3E
:102340007CD9124000009040124B70B51B68002BE6
:102350001FD100F02BFC104C2368834219D20F4B85
:10236000FA211A68501C1860FFF7B6FF05000A2210
:1023700001000B4801F0CDF80A4B29001868FFF75F
:102380003BFF094B29001868FFF736FF2368FA3333
:10239000236070BDE402002000030020040300203D
:1023A000D80A0020E8020020EC02002007B5002136
:1023B00005480B000A00009101F010F823210348A2
:1023C000FFF79CFE07BDC046DC020020F0020020A3
:1023D00070B58AB0039301230EAC094E25780FAC7B
:1023E0002478801906905B42013901A80591049276
:1023F00002950194099306F02DFB0AB070BDC0460A
:1024000094F8FFFF10B50100014800F07DFA10BDFF
:102410000803002010B5024800F064FA10BDC04661
:102420000803002007B50021034800910B000A00B3
:1024300000F0D4FF07BDC0460C030020114A124B28
:1024400012491360002353711371114A116011492D
:10245000D3609180092191710639537413741375F7
:10246000D37111720C4AD3605374137413750B4BF0
:10247000D17113600A4B93801D2393711C3B13721F
:102480007047C0464C03002000093D00B40A0020FC
:10249000140300200A08000030030020C00A0020B6
:1024A0001B1A000007B5002104480B000A00009128
:1024B00000F094FF024B034A1A6007BD5803002046
:1024C0005403002050C300000020704707B50021CE
:1024D000034800910B000A0000F080FF07BDC046D2
:1024E0006003002007B50021034800910B000A009B
:1024F00000F074FF07BDC0466803002007B5002147
:10250000034800910B000A0000F068FF07BDC046B9
:102510007003002007B50021034800910B000A005A
:1025200000F05CFF07BDC0467803002010B5040032
:102530007822002106F0BBF9200010BD10B50C2454
:102540004C4304192068002805D006F08BF90023BD
:1025500063602360A36010BD70B5050000242100F6
:1025600028000134FFF7EAFF0A2CF8D1280070BDDB
:1025700010B5054C2000FFF7D9FF044A044920009C
:1025800002F048FF10BDC04680030020000000207C
:102590005925000007B50021034800910B000A00EF
:1025A00000F01CFF07BDC046F8030020F8B5050089
:1025B0000E0017000024BC4208D02B68315D1B6858
:1025C00028009847002801D00134F4E72000F8BD26
:1025D00070470300FC33196ADA69914203D01B6A21
:1025E000C018007E704701204042FBE70300FC3327
:1025F000D8691B6AC01A01D50130FF30704700004E
:10260000F7B50193FA238026002504009B00836020
:10261000124B760008330F004560290000920360DA
:102620003200183006F043F923002000FC3321303B
:10263000DD6132001D622900FF3006F038F9872382
:102640009B00E3185D609D606B461B7827612375D6
:102650006B461B79A57520006375FEBD54A3000071
:1026600070B5060018250C49006901F0B7F930690A
:1026700001F04EF82B000821307D084C4343E3184D
:10268000595600F029FE0821707D454364196156B2
:1026900000F022FE70BDC046A086010078A30000B5
:1026A0008A2300229B00C1540C3BC3185A609A60D5
:1026B000012383757047020010B5FC32536894689B
:1026C0000133DBB29C4202D054680155536010BD07
:1026D000002210B5837D93420DD087239B00C41840
:1026E0006368A4680133DBB2A34204D02130FF3019
:1026F000FFF7E1FF0122100010BD0300FC339968D1
:102700005A68914206D09A68805C9A680132D2B2C7
:102710009A60704701204042FBE700228A2370B58F
:102720009B00827505000E00C15C006901F038F85D
:10273000002806D10321286901F01CF8022420009A
:1027400070BD872328009B00EA18536894682130E5
:10275000FF301C1B01D50134FF34002C0ED02C6936
:10276000FFF7CBFFC1B2200001F05CF80028E8D1F0
:102770000321286900F0FEFF0324E0E7002EDED0ED
:102780000321286900F0F6FFD9E710B50121FFF712
:10279000C4FF10BD10B51830FFF7AFFF10BD70B506
:1027A0000400006901F05EF8002814D0206901F0EF
:1027B00067F8002810D0206900F0D2FF03212069BB
:1027C00000F0D8FF8C239B00E558002D39D1002361
:1027D000FC34E361236270BD206901F05BF80028DE
:1027E00009D0206901F051F8002804D0206901F0D7
:1027F00056F80028DFD0206901F04CF8002826D1D7
:10280000206901F038F80028E5D0206901F047F888
:10281000002837D087239B00E218536892689B1AE0
:1028200001D50133FF33FF21002B05D020002130DB
:10283000FF30FFF762FFC1B2206901F005F8A07513
:10284000C9E7236820001B699847A847BFE72069AC
:1028500000F086FF2069032100F08CFF206901F061
:102860001EF80028B7D0872300229B00E3185A6087
:102870009A600123A3758B239B00E3589342AAD04F
:102880009847A8E72200FC32D369126A0133DBB211
:102890002069934206D100F05AFF0321206900F01D
:1028A00069FF98E701F000F8010020001830FFF7F9
:1028B00002FF206900F054FFEFE7000010B5024866
:1028C000FFF76DFF10BDC0460004002010B50C23BB
:1028D0000B2202490248FFF793FE10BDB80A002000
:1028E000000400200023037070470000044B10B563
:1028F0001B68002B00D098470122024B1A7210BDB2
:102900003406002000140040037813B5002B28D0B3
:10291000144B994200D2190000236846009101939C
:1029200005F080FE0F2102694369C46801320A4044
:10293000643B103192050C409B066404134323430F
:102940003F248268114042680903224092010B43F0
:102950001343026822401343034A1361937ADB094D
:10296000FCD113BD80436D380014004070B50121C7
:10297000202000F039FC0021202000F081FC0A20FA
:1029800000F04AF90021202000F02EFC642000F025
:1029900043F9202000F0D2FA962305009B002F4C2B
:1029A000984222D92E49200001F018F8200000F0AA
:1029B000AFFE03210B2000F08FFC03210C2000F060
:1029C0008BFC00226B21200000F0EAFE0121200098
:1029D00000F028FF1B21200000F024FF200003212D
:1029E00000F0C8FE200000F0A8FE1D49200000F005
:1029F000F5FF200000F08CFE03210B2000F06CFCA2
:102A000003210C2000F068FC00226B21200000F064
:102A1000C7FE0721200000F005FF96232B219B0015
:102A20009D4200D92039200000F0FCFE0321200047
:102A300000F0A0FE200000F080FE01211E2000F02A
:102A4000D3FB01211E2000F01BFC01211F2000F000
:102A5000CBFB01211F2000F013FC70BDB80A002041
:102A6000A086010010B5024802F0B9FB10BDC046B7
:102A70003806002010B5024802F0B1FB10BDC04678
:102A8000740800207FB51949194800F0ABFD1949B9
:102A9000194800F0A7FD1949194800F0A3FD19498C
:102AA000194800F09FFD194C1949200000F09AFDCB
:102AB000184E1949300000F095FD0125032331001F
:102AC000019500930D220B33144802F01DFB1D23CA
:102AD0000393013B02931A3B0193009518331B2289
:102AE00021000F4802F0CCFA7FBDC046000800422A
:102AF000B00A0020000C0042B40A0020001000427E
:102B0000B80A002000140042BC0A0020C00A0020BD
:102B100000180042C40A0020001C004238060020B1
:102B200074080020FEE70000034B10B51B68002B63
:102B300000D0984710BDC046C80A002070B50F49A4
:102B40000F4CA14204D100F08FF802F03BFCFEE7ED
:102B50000C4D00238D42F6D0CA18E818A24205D3C6
:102B6000094B8242EFD00949002204E00068043397
:102B70001060F1E704C38B42FCD3E4E700000020BF
:102B8000C0020020DCAC0000C00200203411002094
:102B900010B500F066F8002801D100F057F810BD1C
:102BA000014B18607047C046C80A0020014B1868E6
:102BB0007047C046CC0A0020F7B51348012284466E
:102BC0001249134C8E68636805689B0E134001928E
:102BD00088686268019F920E3A4067463F68934258
:102BE0000ED1BD420CD186420AD35B19FA25486842
:102BF000AD00861B07486B437043000DC018FEBD37
:102C00003D0013000600E3E7CC0A002010E000E0DE
:102C100000ED00E05555000070B5041E10D0FFF720
:102C2000CBFF050000F01CF8FFF7C6FF054B401B6B
:102C30009842F7D9FA23013C9B00ED18002CF3D100
:102C400070BDC046E70300007047000010B5034A9E
:102C500013680133136000F089FC10BDCC0A00201A
:102C600070470020704700001E2270B54648474953
:102C7000436893431C3A1343436008238C692343FE
:102C80008B61434C434B9C829C8A14439C82DC683E
:102C90001442FCD00124404A14701578254203D018
:102CA00055786DB2002DF8DB01249460547864B23D
:102CB000002CFBDB394C5460547864B2002CFBDBF5
:102CC0008224E4015480547864B2002CFBDB02249B
:102CD0009C840E34DD682542FCD0314CDC6210242B
:102CE000DD682542FCD09D8C2E4C2C439C84102406
:102CF000DD682542FCD002249D8C80262C439C84D8
:102D00004024DD683542FCD0DD682542F9D010242E
:102D1000DD682542FCD000249460547864B2002C15
:102D2000FBDB214C5460547864B2002CFBDB1C6A42
:102D30001E4D2C4080251C621C6AAC431C62032380
:102D400093601B4B536053785BB2002BFBDB00237B
:102D5000FF240B72174A4B728B72CB72164B1A60A0
:102D6000164B174A1B6811689A065B01C90E23406F
:102D7000520F12020B431343124A138580234268F9
:102D80001343436070BDC046004000410004004052
:102D90000C06000000080040000C00400105010086
:102DA000B905FF7D040A000000070300FFFCFFFFD8
:102DB00003060100006CDC021C000020246080007F
:102DC0002060800000400042FA21314B10B51868A5
:102DD000890003F0C5FC2F4B0138984256D82E4984
:102DE0002E4A4860C020136A00061B021B0A0343D8
:102DF0001362002407238C600B608021136A09068C
:102E00001B021B0A0B431362FC22254B196A0A435F
:102E10001A62FC22196A92010A431A62A022196AF4
:102E2000D2020A431A6220000021013400F0DCF9CA
:102E30000F2CF8D11B4B1C005A7852B2002AFBDB36
:102E4000194A5A80194B1A00597EC9090129FBD029
:102E5000E421C90099803F21D970537EDB09012B01
:102E6000FBD0C02300205B011361907000F034F8A8
:102E700063785BB2002BFBDB0D4B0E4A6380D3798A
:102E8000DB09012BFBD04123537010BDFEE7C04688
:102E90001C000020FFFFFF0010E000E000ED00E05C
:102EA00000040040000C00401E40000000400042B2
:102EB0002140000000480042914202D002D98A1A03
:102EC000D0407047521A9040FBE70000014B186059
:102ED0007047C04628000020164A00B51300517EF6
:102EE000C9090129FBD00138042816D81969124AEA
:102EF0000A400F211A615A788A4303F027FC03081D
:102F0000060B0300110001220A435A7000BD110094
:102F10000322F9E711000222F6E7F02311691B05ED
:102F20000B430F21136153788B43190002230B438A
:102F30005370EBE700400042FFFFFFF010B50400C4
:102F40000E2800D80F340121200000F0C5F9182305
:102F5000102163432A4CE4186156002901D014293A
:102F60000DD1284B1800DA79D209012AFBD00224AE
:102F70001A78A2431A70C379DB09012BFBD02248CF
:102F80000300427ED209012AFBD01F24026921409E
:102F9000A2430A4302615A7ED209012AFBD00222CF
:102FA00019780A431A705A7ED209012AFBD00222EC
:102FB000197B0A431A731A7ED207FCD501221A76AE
:102FC0005A7ED209012AFBD00222197B0A431A73C6
:102FD0001A7ED207FCD5588B80B25A7ED209012ABC
:102FE000FBD002211A788A431A705A7ED209012A2C
:102FF000FBD0064B1A68064B1968FFF75DFF10BD42
:1030000078A3000000480042004000422400002055
:103010002000002018234343F0B56A4A87B09B186C
:10302000DA6806000C000092920722D51B7C5BB286
:10303000002B01D0142B1AD1634B0A2219682000EF
:10304000FFF73AFF614A1300D179C9090129FBD082
:103050008005800D1081DA79D209012AFBD0022285
:1030600019780A431A70DA79D209012AFBD007B01D
:10307000F0BD0827009A544D3A40019200D191E0EA
:1030800012229B5E2968200010220193FFF714FF93
:10309000019B05001F126B461C79009B0421DB0677
:1030A00000D40521300000F017F9494BBA00D6587A
:1030B000484BDA5D002A54D10132DA5546490F32C5
:1030C00002A805F0EBFB02AA7B009B5A8022D201EA
:1030D0001A43424B5A805A78D209012AFBD0022265
:1030E00097421BD9338893433380F37BDB09FCD1B0
:1030F0003288403313433380F37BDB09FCD10C343B
:10310000ADB26400A553F37BDB09FCD132880233F6
:1031100013433380F37BDB09FCD1A8E73368934387
:103120002F4A33601300B1681142FCD10222F16BC7
:103130000A43F263B2681A42FCD11034A400341975
:103140006560B2681A42FCD1264A3264B2681A42FB
:10315000FCD1022231680A433260B2681A42FCD1C3
:1031600085E7022F07D90C34ADB26400A553F37B79
:10317000DB09FCD17BE70223727913437371184B8F
:103180001A00B1681942FCD11C34A400A551B368DF
:103190001342FCD1022331790B433371B3681342DC
:1031A000FCD164E7012100F01FF829683A002000F3
:1031B000FFF782FE01997F2800D90121300000F03D
:1031C0005FF854E778A30000280000200048004280
:1031D00004000020D00A0020D8A60000000C004007
:1031E000FF0F7F00FFFF0000182330B51D00040013
:1031F00045430820204A55192856013014D0032988
:1032000012D808006343D156D31803F09FFA02285E
:103210000E1B5868CB010221184A9B181A1840321D
:103220001170012282405A6030BD5868CB010621DE
:10323000124A9B181A1840321170012282405A60BB
:103240009A61F1E75868CB0106210C4A9B181A18BD
:1032500040321170012282405A605A61E4E7586896
:10326000CB010221054A9B181A1840321170012225
:1032700082409A60D8E7C04678A30000004400412D
:103280001823F0B508245843114A13181C57013469
:103290001BD0012635005F688356BD400D4ADB0117
:1032A0009A18906805420BD10C00601E8441D21917
:1032B0004032107834400336A400B04320431070ED
:1032C000044A9B18002901D15D61F0BD9D61FCE7B6
:1032D00078A300000044004118224243F8B52C4E68
:1032E0000300B218127A52B2140001320ED0481CF8
:1032F00000240C280AD803F029FA071F1F1F1F1FDC
:103300001F1F1F0B0B0B0B00012464422000F8BD94
:10331000092905D100211800FFF766FF0024F5E711
:103320000A2901D10839F6E700240B29EED10A3920
:103330001800FFF759FFE9E718225343F2185568C0
:1033400001202C00F356134ADB016E089B18C9B20A
:1033500004409E19002C0DD00F243036327809011C
:1033600022401143C9B25B19317040331A781043BF
:103370001870D3E732000F27303216785B19BE433E
:103380003143117040331A7810431870BEE7C046BD
:1033900078A3000000440041F7B5C31D019300234A
:1033A00006000D00041D009321780A22280000F079
:1033B000C6F82E210700280000F047F8009B3F18B0
:1033C000DB190093019B01349C42EDD1F179280077
:1033D0000A2200F0B4F8009B1818FEBD30B503AC0B
:1033E0002578044CC5710834046001714271837101
:1033F00030BDC046E8A60000F7B506000D000C0081
:103400008B180193019B671B9C4207D0336821787E
:103410001B683000984701340028F3D13800FEBD06
:1034200070B5040008000D0005F09CFD2368020043
:1034300029005B682000984770BD10B50B1E02D0B4
:10344000FFF7EEFF0300180010BD10B503681B68FE
:10345000984710BD10B50249FFF7E2FF10BDC04606
:10346000F4A6000070B50400FFF7E7FF0500200098
:10347000FFF7F0FF401970BD70B50400FFF7DDFFE6
:1034800005002000FFF7E6FF401970BDF0B58BB0D6
:103490006B461500002205330600DA770800012D7F
:1034A00000D80A2509AC290003F0E0F9CAB21300DC
:1034B00037330700DBB2092902D813003033DBB2FF
:1034C000013C2370002FEED121003000FFF7B5FF43
:1034D0000BB0F0BDF8B506000C00151E04D1036852
:1034E000C9B21B689847F8BD0A2A0CD100290BDA2B
:1034F0002D21FFF7AAFF614207002A003000FFF7E5
:10350000C5FF3818EFE7D2B221003000FFF7BEFF49
:10351000E9E770B50400FFF7DDFF05002000FFF7C5
:1035200099FF401970BD10B5002A04D10368C9B2D3
:103530001B68984710BDD2B2FFF7A8FFFAE710B595
:10354000FFF7F1FF10BD000010B50400FFF77CFB92
:10355000014B1C6010BDC0462C0000200122024B14
:1035600052421A607047C0462C000020164A10B51F
:103570001368591C26D0013B1360002B22D172B670
:10358000124B134A0433934213D9124A01211000FB
:10359000147D0C42FCD02021148BFF319B085B0072
:1035A00021431183D3610C4B13800123027D1A4206
:1035B000FCD0BFF34F8F094B094ADA60BFF34F8F3E
:1035C000C046FDE710BDC0462C00002000200000D2
:1035D000030200000040004102A5FFFF00ED00E0F3
:1035E0000400FA05016070479446F0B59E1E721EF5
:1035F00096416246056892072F6836063A43324381
:103600002A60072505AC24780068A40129402143DD
:1036100042680024022B00D05C0311432143416027
:10362000F0BD30B5C0250368AD031C6812052A4003
:103630002243C0240904A4022140114319600368F5
:103640005A6814435C6030BD0123026811680B4363
:10365000136003681A68D207FCD4DA69D207F9D478
:1036600070470223026811680B4313600268D36934
:103670009B07FCD4704703681A7ED20702D41A7ED7
:103680009207FCD57047002203685A83704703688D
:10369000187E4007C00F70470368187EC009704746
:1036A000802302685B42117E0B43137670470368E8
:1036B000588B8007C00F704702230268518B0B4361
:1036C000538370470368187EC007C00F70470368B4
:1036D000188DC0B2704703681A7ED207FCD589B234
:1036E000012019857047012203689A7570470122ED
:1036F00003681A7570470123026811680B43136051
:1037000003681A68D207FCD4DA69D207F9D4704783
:103710000223026811680B4313600368DA69920799
:10372000FCD430215A8B8A43110010220A435A8359
:103730000268D3695B07FCD47047022102681368F2
:103740008B4313600268D3699B07FCD470478023C6
:103750000268DB02116851680B4353607047000038
:10376000036803491A685A680A405A607047C0469D
:10377000FFFFFBFF032230B5036811401C68074DB3
:103780005A6809042A40E4061143640F5960052C65
:1037900003D10268D3695B07FCD430BDFFFFFCFF97
:1037A00070B5056804006B8B9B069B0F022B0DD038
:1037B0006B8B00209B069B0F032B32D06B8B9B07E0
:1037C00004D56B8B9B069B0F012B2AD16B6A49009A
:1037D0001143DB0AC9B2DB020B436B622368002A88
:1037E00013D11A7ED207FCD55B8B9B069B0F022B55
:1037F00004D0490800222000FFF7D2FF2368588B2D
:103800004007C30F012058400BE0187E8007C00F0F
:10381000F4D11A7ED207F8D5C022596892020A4321
:103820005A6070BD0368283319700368187EC0079A
:10383000C00F03D15A8BD207F8D57047588B400779
:10384000C30F01205840F8E7036828331970036854
:1038500000201A7E520704D5588B01234007C00F61
:103860005840704703681868C006400F0438434248
:103870005841C0B270470368187E4007C00F7047B8
:103880000368187EC007C00F70470368588BC006D6
:10389000C00F70470368187E8007C00F7047036829
:1038A000588B0007C00F704703681A68D206520F82
:1038B000052A05D11A7E920702D41A7ED207F9D5BD
:1038C00028331878C0B270470368214A30B5934254
:1038D0002FD0204A93422FD01F4A93422FD01F4A05
:1038E00093422FD01E4A93422FD01E4A93421FD19B
:1038F0000E2319220121032599401B48C024016091
:1039000099082B40AB40FC359D4089000918A40064
:103910000859A843C0259D402B0003430B51802329
:10392000DB011A43114B5A805A7852B2002AFBDB52
:1039300030BD09231422DDE70A231522DAE70B2321
:103940001622D7E70C231722D4E70D231822D1E73C
:1039500000080042000C0042001000420014004227
:1039600000180042001C004200E100E0000C004092
:10397000F8B504000F0016001D00FFF7A5FF20009A
:10398000FFF762FE1C21BB000B4071072268090C87
:103990000B431360842322689375012F1AD11021E1
:1039A000012E00D008390C4B69431868C00002F0A2
:1039B000D7FE0722216802408B895203DB04DB0C0F
:1039C00013438B81226803049089DB0C400B400376
:1039D00018439081F8BDC0461C000020F8B50400D3
:1039E0000F00FFF771FF2000FFF785FE1422236808
:1039F00079001A600C4B25681E68300002F0B0FE9A
:103A00000A490400300002F0ABFE7D23FA2158433E
:103A1000C90002F0A5FEFF23241AE868053C1C40FB
:103A200098430443EC60F8BD1C00002040420F00A6
:103A30000020704770B50F26CB1D013902003240BF
:103A4000D5B22C0000093034092A00DD07341C707F
:103A5000013B8B42F2D170BD10B50C000B4B1868C6
:103A6000FFF7E8FF21000A4B08311868FFF7E2FF73
:103A70002100084B10311868FFF7DCFF2100064BCE
:103A800018311868FFF7D6FF202010BD0CA0800069
:103A900040A0800044A0800048A0800008B4024BF1
:103AA0009C46103808BC6047593A000070473F20D8
:103AB000704713B56B460268D97107335468190013
:103AC0000122A04716BD000070B50A260B7892B0FF
:103AD0006E44023305000B703C220021300004F0DC
:103AE000E6FE394801AC06903848242107900620AC
:103AF00020776846364AA1742281364A364BA28125
:103B0000FD3AFF3A8018C177684623390630C177FD
:103B100068460730C17702A8C1770720F2770326ED
:103B200008316944C87703A9CE7710212B366E443B
:103B30003170092621851F3169440E700CA9053E9C
:103B40000E7033212380022369440B7006360DA9C1
:103B50000E7022493536A1863B216E44307010A884
:103B60006274E27702703D3269446A440B701370EC
:103B700040210022E37023716371A37341336B44CE
:103B8000218719705A702B7DC039A370A372637797
:103B90000133DBB2A3776A7D0B200D006844154327
:103BA000C5773120684403703A23501C6B44187069
:103BB000412302320A436B441A7021004222084812
:103BC00000F064FF12B070BD100104240206052449
:103BD0000904000001020000080B000007050000B6
:103BE000400B002008B4024B9C46103808BC6047CC
:103BF000C93A000070B5027D0B790C0000259A428D
:103C00000BD10B784E78A12B09D1212E05D107229B
:103C10001F49204800F03AFF0135280070BD212BD4
:103C2000FBD1202E2BD1072219491A4800F070FE33
:103C3000174B1A785978090211439A7812041143E4
:103C4000DA7812060A439621C9008A421DD1DB792F
:103C5000DB071AD4FA20FFF777FC00210D4801F0AA
:103C600021F80125232ED8D1E378A2781B02134333
:103C7000094A00210748136001F014F8CDE7222E0D
:103C8000EFD18A78024BDA71D2E7FFF767FCE4E7FD
:103C900034000020400B00203000002008B4024B0C
:103CA0009C46103808BC6047F53B000010B5417DCC
:103CB000006A013100F064FD034B1B6801335A1E9A
:103CC0009341181810BDC0463C00002010B5417D3E
:103CD000006A023100F06AFD10BD10B5417D006A36
:103CE000023100F031FD10BD70B50D00417D0400C2
:103CF000130002312A00006A00F01EFE002801D1E4
:103D00000123636070BD000010B5054C23685A1C88
:103D100004D103685B69984703002060180010BD58
:103D20003C000020074A0300106810B5411C03D076
:103D300001235B42136010BD597D186A013100F008
:103D4000ABFDF8E73C000020704700207047000002
:103D5000FA239B0010B583600F4B0022C38203003F
:103D6000283383610D4B04004260C2611800443364
:103D700023610830631D21622060DA778323A36208
:103D8000813BE3628033236300F0C2F821001031ED
:103D900000F092F8200010BD03020000F8A6000019
:103DA000022110B5094B1A68437D5B01D318FF331C
:103DB0009C7A21439972437D0133DBB25B01D318B6
:103DC0000122FF33997A0A439A7210BDF80F00203E
:103DD0007047000010B5FEF7E9FEF423FF3300241E
:103DE000984207D9044B0A20DC79631E9C41E4B257
:103DF000FEF712FF200010BD3400002010B502496C
:103E00000248FFF7A5FF10BD400B0020D80A002094
:103E100070B50E0000254468002C0BD023683100DB
:103E20005B6820009847002802DB2D18E468F3E760
:103E300001256D42280070BD70B50D004468002C4E
:103E400008D0236829009B6820009847002802D1E9
:103E5000E468F4E7200070BD70B50D0000264468EA
:103E6000002C09D02368290020001B6998473618C8
:103E70002D18F6B2E468F3E730002C7070BD70B511
:103E80000D004468002C08D0236829001B6820001E
:103E90009847002802D1E468F4E7200070BD70B5AF
:103EA0000D004468002C06D023682000DB68290040
:103EB0009847E468F6E770BDF0B58C794578030063
:103EC0002A190020072A1FDC5A68824216D159603D
:103ED0001A78C8790A7112184D711A7000220B4DA8
:103EE000D0B284420FD98F6858789600F75986006F
:103EF0000130775101325870F2E70200D068002893
:103F0000FBD1D160E4E70120F0BDC046180B0020D2
:103F10000121064A10B5136805480B4004D18024DE
:103F2000640004804360116010BDC0460C0B00208B
:103F3000100B0020704710B5040001F067FA200054
:103F400010BD0000F0B5822919D1C3B2294D5A0124
:103F5000AA189169284C80010C40C0218905214391
:103F600091612649083340187021506128685B012F
:103F70001A5C8A43110030220A431A54F0BD00290A
:103F8000FCD1C026C1B21B4C4B01E3189A681A4DF4
:103F9000B6052A4032439A60194A800182185A6055
:103FA0000A000727246808325201115DB9430F0047
:103FB0000121394311559F6910493D4040182E4356
:103FC0009E6158617020115D8143080010210143FA
:103FD000115599680B48A2180840802149030143F4
:103FE00099609968890B89039960402311790B4383
:103FF0001371C3E7F80F0020FFFFFF8F6C0B002049
:104000002C0D0020FF3F00F0EFF31083036001232D
:10401000436072B670470368002B02D162B6BFF3EB
:104020006F8F7047F7B50600FC36B3690400002BAC
:1040300018D1B2277F00C55D6846FFF7E5FF019BF9
:10404000EDB2013B02D3E55DEDB2FAE768460193BC
:10405000FFF7E1FF002D01D10020FEBD706E336E31
:10406000C01AFAE76846FFF7CFFFD8220025019B68
:104070005200013B02D3A55CEDB2FAE7684601931A
:10408000FFF7C9FF002DE7D0D6235B00E058043BC3
:10409000E358E5E710B54468FC3043690B48DBB2F0
:1040A0005A01A2189168083308408021490301434E
:1040B000916091685B01890B890391602268D31834
:1040C000402219790A431A7110BDC046FF3F00F023
:1040D000F7B50500FC356B694268DBB219000400D6
:1040E0000831106849014118C979C90711D55B0128
:1040F000D21893689B049B0C0CD12000FFF7CAFFD9
:1041000063681A686B69DBB208335B01D3187F22DE
:10411000DA71F7BDE969002923D16B662300012616
:104120006933FF33EE6168465360B227FFF76CFFD7
:104130007F00B221019BFF31013B5A1C38D0D822AD
:10414000E6555200A25C581ED2B26254625C8446AC
:10415000002A04D120000193FFF79CFFE9E76346A2
:10416000EBE7D621490063500023EB6123001D33A8
:10417000FF3353606846D826FFF746FF01277600D5
:10418000B221019BFF31013B5A1C11D0B222A7552D
:104190005200A25C581ED2B26254625C8446002A6D
:1041A00004D120000193FFF775FFE9E76346EBE7D1
:1041B00068460193FFF72FFFA2E7F7B506006846B0
:1041C0003400FFF721FF0027FF22019BFC34013B55
:1041D0000DD3E0682169884204DBE7682069D71BBA
:1041E0003F18F4E72769E1687F1A013FEFE7684667
:1041F0000193FFF710FFA3696846002B52D1FFF728
:1042000003FFB221019B4900013B5A1C0CD0755C95
:104210005A1EEDB2002D05D168460193FFF7FBFE53
:104220002800FEBD1300F0E7684601930025FFF764
:10423000F2FEFF22236EBD4214D0616E994211D965
:10424000591CF3182166FF33587FE3682169013355
:10425000C0B213408B4203D0E16871180872E3606A
:104260000135E7E7626E9A42DAD100232366013313
:10427000A3616846B224FFF7C7FE6400B2220021A2
:10428000019BFF32013B581CC6D03155B05C5F1E0C
:10429000002805D0B15430000193FFF7FBFEEDE795
:1042A0003B00F0E7FFF7B0FED821019B4900013B3E
:1042B0005A1C06D0755C5A1EEDB2002DACD013000E
:1042C000F6E768460193FFF7A6FED623D4225B00EB
:1042D00000259C465200B358BD4203D06146715838
:1042E000994220D86246B2589A4299D1D4220023EA
:1042F0005200B3506846A361D824FFF785FE6400DE
:10430000B2220021019BFF32013B581C00D183E700
:104310003155B05C5F1E002819D0B15430000193B4
:10432000FFF7B8FEECE7591CB150FF21F3186933D1
:10433000FF331878E368C0B201330B4021698B4228
:1043400003D0E16871180872E3600135C3E73B00F0
:10435000DBE710B50400FFF730FF2300FC331969D9
:10436000DA68914203D01B69E418207A10BD01205D
:104370004042FBE710B50400FC34FFF71EFFE06885
:104380002369C01A01D50130FF3010BDF0B585B0EA
:10439000019200910500FFF710FF02A8FFF734FE1D
:1043A00001200024FF26039B40425A1E531C1FD0AD
:1043B0002B00FC3301998C4218D2D9681F69C91BA4
:1043C00001D50131FF31002910D01969DF688C4611
:1043D0000100BC4506D019691F69691801373740CB
:1043E000097A1F61009F39550134E3E7013ADDE79F
:1043F00002A80392FFF70FFE200005B0F0BD37B50D
:104400006B46DC1D00230D002370FFF781FD2100AA
:10441000FFF7FEFC2B681818286020783EBD0000CE
:104420002023F7B5414A0500D1690F200B43D36122
:1044300001223F490B7813430B703E4B197881439F
:10444000197006211C78214319703B490C782243CE
:104450000A701A7802401A70602219780A431A709A
:10446000364B374A5A805F78FF09FCD13548FEF752
:1044700097FB0123344C354E2268300011780B43F2
:10448000137080223900520004F011FA22689378E8
:10449000DB07FCD456621F262D4B1B68590B980C6A
:1044A0009B01314030405B0FB14200D105211F28F4
:1044B00000D10238072B00D1043B31408901178D10
:1044C0000191244930400F40019939431185118DE4
:1044D0000700B143080038431085118D18031E4BA7
:1044E0000B407F21034313851378C1200B401370C9
:1044F00004232268800011780B430C21137022687A
:1045000013898B43154913810B581B021B0A0B504F
:1045100080230B6011787E3B0B4313700123002135
:104520002B700F48FFF754FCF7BDC0460004004055
:10453000584400413C44004159440041000C0040B3
:1045400006400000B54E0000F80F0020FC0F0020D0
:10455000246080003FF8FFFFFF8FFFFF00E100E0D5
:10456000D80A00200078002810D00121084B1B68D1
:104570001A898A431A810822198B0A431A83042252
:10458000198B0A431A830022024B1A607047C046F7
:10459000F80F0020F00F002010B50F4A93699B0B15
:1045A0009B03936113680222FF331A729879823A4F
:1045B00002439A711A7A9207FCD57F24074A214058
:1045C000937A0800A3431900802301439172917AE2
:1045D0005B420B43937210BDF80F00200050004166
:1045E00010B50C00FFF794FC2100FFF748FC0028F1
:1045F00004D1034A93699B0B9B03936110BDC04692
:10460000F80F0020F7B50D00832A19D1CBB2404C2A
:104610005A01A21891693F48AD010840C02189059F
:10462000014391613C4920686D1870210833556140
:104630005B011A5C8A43110040220A431A54F7BDF9
:10464000022A5FD1354B8A00D058002802D0036877
:104650005B699847DA20400000F0D4FE8022040015
:104660002B4E2F4B4660036052000021083004F0AF
:104670001EF92200B2210023FC324900D3605561AB
:10468000136113669361D36153666354443163507D
:104690000431635004316354B221FF316354FF206D
:1046A0002B0003405901019371188F68194BAD001D
:1046B0003B40C027BF051F438F600727019B36681B
:1046C00008335B01995DB9430F00032139439955C4
:1046D00023005169666801401D334901FF33711899
:1046E0004B60636852691B68024052019B180122AB
:1046F0001B18997A20000A439A72FFF7CBFC074BEC
:10470000EC509CE711002800FFF71CFC97E7C0461F
:10471000F80F0020FFFFFF8F6C0B0020440B0020E0
:1047200058A7000070B505000124064BA200D2581E
:10473000002A06D0210028000134FFF763FF0A2C6D
:10474000F3D170BD180B00200B4BCAB20B48890186
:10475000C9185301C318596199690832890B890333
:104760009961036852019A180223D3715179823BEF
:104770000B4353717047C0466C0B0020F80F0020AC
:10478000084B8A00D05810B5002803D003689B68F6
:10479000984710BDC9B2044B490159188868800474
:1047A000800CF6E7440B0020F80F002010B50C0039
:1047B000FFF7E6FF00280CD0064BE4B21B68083474
:1047C00064011C19802362795B42134363710223E5
:1047D000E37110BDF80F0020F0B51C002A4B85B026
:1047E0001B6807000D000292002B4AD0274B8A005D
:1047F000D058002808D0036822005B6802999847C7
:104800000400200005B0F0BD3800FFF7B9FF844276
:1048100004D929003800FFF7B3FF04000121EBB2EF
:104820001B4E03935B010193F21893689B0B9B0350
:104830009360019A336802989B18FF335A7A0A43AF
:104840005A72144BA901C918220004F027F8002C51
:10485000D7D029003800FFF793FF0028D1D140219D
:10486000039B326808335B01D3181879014319712F
:104870000121D971019BD318FF339A7A0A439A72A6
:10488000BFE701246442BCE7F00F0020440B002086
:10489000F80F00202C0D002013B56B46DC1D220004
:1048A0000123FFF799FF012801D1207816BD0120CF
:1048B0004042FBE770B5CBB2124A13485C01890154
:1048C0008918021951609168104D08330D408021FC
:1048D00049032943402591609168890B89039160C0
:1048E00001685A018A1816793543157195796D0654
:1048F000FCD55B01C918CB79DB07FCD500198068B2
:10490000C0B270BD2C0D0020F80F0020FF3F00F05A
:1049100070B50D0000211400FFF7CCFFA04200D9B4
:10492000200000230349A34203D0CA5CEA540133A8
:10493000F9E770BD2C0D0020F0B51E003A4B85B094
:104940001B680F000192002B35D08023DB019E42B3
:1049500031D80025354B8A01D3180293002E2CD074
:10496000334B1B680393FF233B401C000093083428
:10497000039B64011C19A379DB0921D02D4B2E491F
:10498000186801F0EDFE2D4B1721584301F0E8FEA9
:104990002B4BE279920713D4DA5D002A01D101385A
:1049A000F7D20122DA55009B5A01214B9B189A69D4
:1049B000920B92039A6101256D42280005B0F0BD6B
:1049C00000221F4B3400DA553F2E09D9009B4024AA
:1049D0005A01174B9B188022996912060A439A6163
:1049E00022000199029803F059FF009BA1045A018B
:1049F0000F4B890C9B18029A2D195A619A69361B24
:104A0000920B92030A439A61009B039A08335B015D
:104A1000D3180222DA715979823A0A435A71019BFA
:104A20001B1901939AE7C046F00F00206C0B002081
:104A3000F80F00201C00002040420F007011010000
:104A4000610B002070B50D001C000D4BAE01F61877
:104A500011003000220003F021FFEDB209496D0181
:104A60004D196E61AB69084A20001340AB61AB6918
:104A7000A2049B0B920C9B031343AB6170BDC04619
:104A80006C0B0020F80F0020FF3F00F0F7B5104B33
:104A900001901B780F001500002B0CD10D4B160058
:104AA0001C78002C09D00C4E0C483488201864194E
:104AB00003F0F4FE34802800FEBD002EFBD03A192E
:104AC000330000210198FFF7BDFF2418361AF4E7E0
:104AD000EC0E0020ED0F0020EE0F0020ED0E002068
:104AE000F8B50F0016000024012A26D9100003F0A3
:104AF000AFFE0500380004F035FA0323022201302E
:104B0000400028706B7096420DD9397800290AD080
:104B1000531CDBB20137A9549E4203D00232EC543D
:104B2000D2B2F0E7320029000548FFF7AFFF441E7C
:104B3000A041C4B2280003F095FE2000F8BDC04695
:104B4000400B0020F0B50024012685B0184B0F0063
:104B500069461E7005000094FFF751FC154B01A932
:104B60000B806A3BFF3BCB715A330B72009B8C71FD
:104B700009334B800E4B4E7108711C703A00092F9F
:104B80000FD00D4F09223E700C4E28000094348047
:104B9000FFF77CFF69462800FFF731FC328808499F
:104BA0003C702800FFF772FF012005B0F0BDC04641
:104BB000EC0E002009020000ED0F0020EE0F002097
:104BC000ED0E002070B5CE7892B005000C00022EDC
:104BD0000BD18B79C9792E4809021943FFF7B2FF2F
:104BE000411E8841C0B212B070BDFFF791F921009B
:104BF000FFF722F9002803D0C117081AC00FF2E707
:104C0000012E0ED1E279A37912021A432149112A09
:104C10003CD8D2B2002A39D02800FFF737FF012054
:104C2000E1E7032EDFD1A378002B28D0022B08D197
:104C3000E279A379120218491A432800FFF750FFBE
:104C4000D1E7012B05D1E279A37912021A43134966
:104C5000F3E7032BC7D10100412201A803F027FE8F
:104C6000FFF756F901A9FFF7F7F8002805D0E27918
:104C7000A37912021A4301A9DFE70378FFDEE27984
:104C8000A37912021A430649032AC2D90A78C3E754
:104C9000400B00209AA7000074A700008EA7000018
:104CA0008AA70000CBB204495B01C9188B699B0B32
:104CB0009B038B617047C046F80F002037B5050095
:104CC00048780C000B2810D801F040FD061B0F2B74
:104CD0000F404561494C5A5D097801AA002906D167
:104CE000022311802800FFF7ADFE01203EBD002306
:104CF0001380284B1B78012B00D113700223002155
:104D0000F0E78A780023012A03D101AA1380224BFD
:104D1000F0E7204A1370214A93699B0B9B03936130
:104D2000E3E78C78012C06D100211B4B01AA1C70F3
:104D300011702300D6E70120002CD7D1154B174A5C
:104D4000187093699B0B9B039361CFE789782800C8
:104D5000FFF722FCC9E72800FFF734FFC6E701236D
:104D60000F4ACCE70B780020DB06BFD12800FFF705
:104D7000D9FCA2780A4B0B481A60FFF711F8CAE772
:104D80000123094ABBE78A78074B1A60C3E7002072
:104D9000ACE7C046600B0020680B0020F80F002035
:104DA000F00F0020D80A0020F40F00203B4BF7B58D
:104DB0001E780500002E5FD1394C23689A8B1207AC
:104DC0000DD5082231009A833000FFF7BBF810227E
:104DD0002368FF33997A0A439A72324B1E60236824
:104DE0009A8B520701D504229A83FF331A7A9206CE
:104DF00003D52022597A0A435A721A7AD20623D549
:104E000069460800284AC0CAC0C0A268920B920333
:104E1000A2604022587902435A7160230A78280020
:104E20001A422AD1FFF74AFF2368FF33002827D010
:104E30008022997952420A439A711A7A520603D50E
:104E40004022597A0A435A727F2601252368FF338C
:104E50001E722F00236808377F01DB19DB79002BD6
:104E600007D0124BAA00D05800280DD003681B6849
:104E700098470135082DECD1F7BDFFF7B1FBD3E71B
:104E800020210B4A9171D8E7FFF742F82900FFF77C
:104E900006F82368DF19FE71EBE7C046ED0F00202E
:104EA000F80F0020F00F00202C0D0020440B0020F4
:104EB000FF50004110B50248FFF778FF10BDC04613
:104EC000400B0020014B024A1A607047F80F002087
:104ED000005000410120704710B50368014A1B6A69
:104EE000984710BD130400000300FC33D9699A6988
:104EF000914203D0DB69C018007D70470120404219
:104F0000FBE710B504000069FEF79EFB22000023BA
:104F1000FC329361D36186229200A4186360A3607F
:104F200010BDF02001403039484248417047F0231D
:104F30001B011940802306209B0099420AD00133AF
:104F4000FF330130994205D0802302385B0099423B
:104F500000D0002070470F2001400020012903D01D
:104F60000239481E8141481C704700008923F0B572
:104F7000182685B002919B000400C05C3300082114
:104F80004343324D1700EB185956FEF7A5F9304B45
:104F90000821E05C33004343EB185956FEF79CF9B7
:104FA0002C4BE25C0393022A09D11133E05CFF2809
:104FB00005D008214643AE197156FEF78DF98A26B1
:104FC000B600A05DFF2819D00121FEF70DF91822C7
:104FD000A35D21495A43AB56AD18DB0158188B210C
:104FE000890060501D4901225B188C2189006350A3
:104FF00069688A408D21890062501A600122029BF3
:1050000011002069FEF7B4FC39002000FFF78FFF84
:10501000390005002000FFF79EFF39000600200040
:10502000FFF77FFF33000090290020690122FEF77F
:10503000DBFA0B4B2069E25C039BE15CFEF7F1FAC3
:105040002069FEF70EFB05B0F0BDC04678A3000056
:1050500025020000270200001844004114440041CA
:1050600026020000802210B504005200002103F047
:105070001EFC23000022FC335A6020009A6010BD01
:10508000F0B585B01D000AAB1B78040000930BAB94
:105090001B78160001930CAB1B780F0002930DAB2D
:1050A0001B78039300234360FA239B008360124B19
:1050B000083303601430FFF7D5FF20001D30FF30A8
:1050C000FFF7D0FF89236A469B002761E6540B4B0C
:1050D0001278E5540A4B2000E2546A46094B1279D3
:1050E000E2546A46127A0133E2546A46127B103364
:1050F000E25405B0F0BDC046ACA700002502000098
:105100002602000027020000F7B51D0008AB1B783F
:105110000400009309AB1B78160001930023436041
:10512000FA239B008360114B0F0008330360143097
:10513000FFF798FF20001D30FF30FFF793FF892312
:105140006A469B002761E654094B1278E554094BE7
:105150002000E2546A46084B1279E2548A22293B25
:10516000FF3B9200A3541032A354FEBDACA7000035
:105170002502000026020000270200000300FC3385
:1051800058689B68C01A01D50130FF30704710B5D0
:10519000040020001D30FF30FFF7F0FF0028F8D199
:1051A0002069FEF768FA10BD10B51430FFF7E6FF6E
:1051B00010BD0300FC3359689A68914204DB5A68B9
:1051C0009868801AFF30704798685B68C01A013889
:1051D000F9E710B51D30FF30FFF7EBFF10BD10B53C
:1051E00004000069FEF763FA002805D02069FEF785
:1051F0006EFA2069FEF760FA2069FEF748FA002887
:1052000020D02069FEF763FA2200FC329369D1694D
:105210000133DBB28B4203D0916961180875936149
:105220008A239B00E35CFF2B0CD020001430FFF797
:10523000C0FF092806DC8B238D229B009200E358D7
:10524000A2581A602069FEF73DFA00281AD0200003
:105250001D30FF30FFF792FF002822D086239B00ED
:10526000E31899685A68914218D08E219A684900CB
:10527000A218515C9A680132D2B29A60C9B2206910
:10528000FEF729FA2069FEF707FA002805D0206901
:10529000FEF706FA2069FEF7F6F910BD0121494232
:1052A000ECE72069FEF723FAECE7000070B5040094
:1052B00000690D00FEF706FA00283ED1FF2686237E
:1052C0009B00E3185A689968013232408A4223D120
:1052D000EFF31083DB0710D41E4B5B68DB05DB0D9F
:1052E000EDD0103B5BB2002B10DA0F221340083BCD
:1052F0009B08194A9B009B181B682069FEF7E2F97E
:105300000028DCD02000FFF76AFFD8E79B08C033F5
:10531000124A9B009B58F0E75A68013216409A687F
:10532000964205D08E215A684900A21855545E60F5
:105330002069FEF7D8F9012070BD20001D30FF3034
:10534000FFF71CFF0028B9D129002069FEF7C3F937
:10535000F1E7C04600ED00E01CED00E000E100E0F8
:10536000030070B5FC33D9699A69040091421AD0E0
:10537000DA698218157DDA690132D2B2DA618A23DC
:105380009B00E35CFF2B0CD020001430FFF711FFD3
:105390000A2806DD8C238D229B009200E358A25838
:1053A0001A60280070BD01256D42E8E710B51C00A9
:1053B000431A0298511A001B584301F05BFA001976
:1053C00010BD000010B5FDF7FFFC03F00BFAFDF770
:1053D000CDFA0120FDF720FC084C2000FFF720F853
:1053E0002000FFF7BFF8FCF715FFFCF7ADFF044BFB
:1053F000002BFAD000E000BFF7E7C046400B0020CA
:105400000000000010B503F023FA10BD10B503F042
:1054100029FA10BD0B0010B50100180003F0F4F8D4
:1054200010BD000049004B0819007047474AF0B50D
:105430004F4691464B005B0D99444646D6464A4638
:10544000C0B505000C000E0088460700132A27DCB3
:10545000002A4BDB3E4B13419A460B005246134049
:10546000034318D03B4A3C4B2800210001F02CFBA1
:105470000022002301F014FB002847D0002C04DA9E
:1054800080234A465B03134198444646534600270F
:105490009E43380031001CBC90469946A246F0BDA0
:1054A000332A08DD8023DB009945F4D102000B008C
:1054B00001F00AFBEFE7294A944601226344524275
:1054C000DA4092460242E6D0224A234B28002100CD
:1054D00001F0FAFA0022002301F0E2FA002815D0C8
:1054E000002C1EDB534646469F430FE0194A1A4BD9
:1054F0002800210001F0E8FA0022002301F0D0FA90
:10550000002803D0002C04DB0027002638003100DF
:10551000C1E76400640825430027002DF6D0104E33
:10552000F4E74B46142B0BD03422D21A01239340BC
:105530005D19BD4208D201239C462F00E044D1E70B
:10554000133B9C46E044CDE72F00CBE701FCFFFF77
:10555000FFFF0F009C7500883CE4377EEDFBFFFFEA
:105560000000F0BF30B5214A4B0087B05B08934282
:105570001EDD1F4A934205DD02000B0002F03CFCD9
:1055800007B030BD02AA00F035F803231840049A92
:10559000059B012813D002281DD0002814D00298A2
:1055A000039900F037FA80231B069C466144E7E725
:1055B000002300220093002300F0A6FFE0E70298FA
:1055C000039900F027FADBE701240298039900947D
:1055D00000F09AFFD4E7012402980399009400F0A8
:1055E00093FF80231B069C466144C9E7FB21E93FEA
:1055F000FFFFEF7FF0B54E464546DE465746E0B525
:10560000E14B4C008FB09046894664089C4200DC18
:1056100087E0DE4B9C4222DCDD4A002900DC92E080
:10562000DC4B02F0E9FBDB4B06000F009C4200D193
:105630007EE1D94AD94B02F0DFFB02000B00414664
:1056400030000A604B60390002F0D6FBD34BD24ADF
:1056500002F0D2FB434601259860D9606BE0D04B45
:105660009C4200DC8FE0CF4B9C4200DD55E1CE4AEE
:10567000231592469A4451460905631A19001D00E4
:10568000040002F001FF02F035FF02000B002000D1
:1056900029000892099302F0AFFB0022C34B02F0ED
:1056A00039F90F00060002F0EFFE02F023FF0400BC
:1056B0000D0002000B00300039000A940B9502F037
:1056C0009BFB0022B94B02F025F9002200230C902D
:1056D0000D9101F0CBF9002800D192E100230022C6
:1056E0002000290001F0C2F9434243410133B04A8E
:1056F00041460192022208A80092524600F0A4FA04
:105700004B460500002B16DA8022434612069446CB
:1057100042465B68454263445360D3686344D36048
:1057200009E00B00020041460A604B6000220023A2
:1057300000258A60CB6028000FB03CBC904699469B
:10574000A246AB46F0BD934B01F0BEF9914B06006B
:105750000F009C4200D13DE18F4A904B01F0B4F91B
:1057600002000B00414630000A604B60390002F035
:1057700043FB894A894B01F0A7F9012543466D4255
:105780009860D960D7E7FFF74DFE8A4A8A4B06003A
:105790000F0002F0BFF80022884B01F095F902F0EB
:1057A00073FE050002F0A6FE794A7A4B049005913B
:1057B00002F0B0F802000B003000390002F01CFBD0
:1057C000754A06000F0004980599744B02F0A2F880
:1057D000029003911F2D00DCC7E0029A039B30006A
:1057E000390002F009FB83468A4653465B002415C4
:1057F0005B0DE31A102B6CDD04980599D322674BDF
:10580000520502F087F802000B00300039000292C6
:10581000039302F0F1FA0A000100130006910792C7
:1058200002003900300002F0E7FA029A039B02F00E
:10583000E3FA06000F0004980599614A614B02F0F3
:1058400069F832003B0002F0D7FA069E079F0B0072
:105850000200390030000292039302F0CDFA4B00AF
:105860005B0D83468A46E41A312C32DD0498059993
:10587000B822544B920502F04DF803000C000200D0
:10588000029303940B000698079902F0B5FA020000
:105890000B0006000F000698079902F0ADFA029A75
:1058A000039B02F0A9FA484A0290039104980599D3
:1058B000464B02F02FF8029A039B02F09DFA020079
:1058C0000B00300039000292039302F095FA8346F0
:1058D0008A465A465346414630000A604B603900BA
:1058E00002F08AFA029A039B02F086FA44460B0001
:1058F0000200A260E3604B46002B00DB1BE75B4627
:10590000236080231B065344636080231B069C4650
:105910006144A060E1606D420DE70B00020002F0FF
:105920006BFA434600259860D9601860596002E719
:10593000D3221A4B520502F05FFA214A214B0D0087
:10594000040002F059FA02000B00414620000A60F0
:105950004B60290002F050FA1A4B194A02F04CFA37
:10596000434601259860D960E5E602000B0030004F
:10597000390002F041FA6B1E154A9B009B58834682
:105980008A46A342A5D130E7FB21E93F7BD90240FB
:1059900000004054FB21F93F3163621A61B4D03DED
:1059A000FB213941FFFFEF7FEAFBFFFF0000704161
:1059B00060A8000083C8C96D305FE43F0000E03F8D
:1059C0007370032E8A19A33BC14920259A837B3922
:1059D000E0A70000D3220C4B520501F075F80B4AEA
:1059E0000B4B04000D0001F06FF802000B00414664
:1059F00020000A604B60290002F0FEF9034A044BC4
:105A0000B9E6032373E6C04661B4D03D7370032E3C
:105A10008A19A33BF0B54746CE4680B587B00092C1
:105A20000193754B4F00814688467F089F4263DC97
:105A300002F02AFD002800D1D4E04A4643464846F9
:105A4000414601F067FF04000D006C4A6C4B01F009
:105A500061FF6C4A6C4B01F037F822002B0001F01B
:105A600059FF6A4A6A4B02F0C7F922002B0001F085
:105A700051FF684A684B01F027F822002B0001F023
:105A800049FF664A664B02F0B7F922002B0001F08D
:105A900041FF644A644B01F017F822002B0001F02B
:105AA00039FF029003910022604B2000290001F091
:105AB00031FF029A039B06000F002000290001F02D
:105AC00029FF009A019B04000D004846414601F061
:105AD00021FF02000B002000290002F08DF90200D6
:105AE0000B003000390002F087F902000B000020A3
:105AF0004F4902F081F970E002000B0001F00AFF4B
:105B000004000D003D4A3E4B01F004FF3D4A3E4B70
:105B100000F0DAFF22002B0001F0FCFE3B4A3C4B78
:105B200002F06AF922002B0001F0F4FE394A3A4BE8
:105B300000F0CAFF22002B0001F0ECFE374A384B80
:105B400002F05AF922002B0001F0E4FE354A364BF0
:105B500000F0BAFF2B00220001F0DCFE354B029072
:105B600003919F429FDD344B00229F423DDC33492D
:105B700000207B182E4916001F0002F03DF904900A
:105B800005910022294B2000290001F0C3FE3200BC
:105B90003B0002F031F9029A039B06000F0020003F
:105BA000290001F0B7FE009A019B04000D00484651
:105BB000414601F0AFFE02000B002000290002F078
:105BC0001BF902000B003000390002F015F9020049
:105BD0000B000498059902F00FF907B00CBC904631
:105BE0009946F0BD00201249F7E7154B00260492B4
:105BF0000593144FC5E7C046FFFF3F3ED43888BE2B
:105C0000E9FAA8BDC4B1B4BD9EEE213EAD529C8060
:105C10004F7E923E9015CB19A001FA3E7751C116E6
:105C20006CC1563F4C5555555555A53F0000E03FBA
:105C30000000F03F3233D33F0000E93F0000E0FFB7
:105C40000000E73F0000D23FF0B5DE464E46454635
:105C50005746E0B5DC4CA5440D9114001900A49AF8
:105C60000993DA4B9200D6584D1E03901821E01E7E
:105C70000696029500F0FEFDC3430100DB171940B4
:105C80004B1C9A009B1ADB001B190B9105934C1BB4
:105C9000771918D4A59BA5009C463F1922AE6544F0
:105CA000013707E0286802F025FC013403C60435FB
:105CB000BC4208D0002CF5DA00200021013403C6D4
:105CC0000435BC42F6D1069B002B01DA00F0FDFB47
:105CD000069B03990133DB009A46099BDA00944640
:105CE00000920022914672AA0492B94A61449346F6
:105CF00088469AAB63449B44029B002B00DABCE1CC
:105D00005D4600260027039C4D442A686B6803CC3F
:105D100001F000FE02000B003000390000F0D4FE5C
:105D2000083D06000F004445EFD1049B4B441E6024
:105D30005F6008239C46E144D145DDD10EA80421D3
:105D40008446494261448C46069A93009C446146CD
:105D500084460A910399083B63448C460C93009B4C
:105D6000009263449B46009A0498D10003008C463D
:105D7000634408911E685F68002A33DD95498046B8
:105D80008C466244D300984470AB9A460EAB994659
:105D90000022914B3000390001F0BCFD02F074FB91
:105DA00002F0A8FB00228D4B04000D0001F0B2FDB3
:105DB00002000B003000390002F01EF802F064FB14
:105DC0004B4601C39946434620001A685B68290088
:105DD00000F07AFE08235B429C46E04406000F0078
:105DE000D045D5D1059B30001A003900984600F007
:105DF0003DFCFF2300229B0504000D0001F08AFDFD
:105E0000FFF714FB0022764B01F084FD02000B002B
:105E10002000290001F0F0FF0D00040002F034FB27
:105E2000814602F067FB02000B002000290001F010
:105E3000E3FF060040460F00002800DCEEE0009B78
:105E400018215A1E92000EAB9B58091A1D000D41D5
:105E5000A9448D405D1B0EAB9D5017231B1A1D419D
:105E6000002D2DDD01239C46009BE144002B00DC2E
:105E70001CE20E9C0123002C00D0B5E0009A012A00
:105E800009D099000EAA54580133002C00D0ACE080
:105E9000009A9A42F5D1059B002B0EDD012B00D113
:105EA000A8E1022B09D1009B0EA95A1E92000EAB4D
:105EB0009B5807939B029B0A8B50022D00D1C1E097
:105EC000002300223000390000F0D0FD009B0028A4
:105ED00000D194E2069A591E8A4210DC414A0A987F
:105EE00094460EAA6344944600229B0063441C68B7
:105EF000043B22438342FAD1002A00D0C0E0069B33
:105F00000EAA013B9B00D358002B00D0B3E0012226
:105F10000C9B043B596801320029FAD0009B9C4637
:105F20006244110007921A0001338B4246DC0B9841
:105F300063468046A59C4344A046099C9B00A1461D
:105F40004A449844D30022AA9146049A994494461C
:105F5000089BA59A63448446614494469A468B0004
:105F6000634400934346586802F0C4FA4B461860F5
:105F70005960029B002B24DB4D46039C0026002722
:105F800001E0286869680CCC01F0C4FC02000B0039
:105F90003000390000F098FD083D06000F005C4518
:105FA000EFD153469E60DF6004239C460433E044F7
:105FB0009C46009BE144E2449845D3D1079B009363
:105FC000D1E600260027ECE794FDFFFFA8A900001A
:105FD00018FEFFFFFFFFFF1F0000703E0000704132
:105FE00000002040FFFFFF3F002180225204141BCD
:105FF0000EAA5450009999420EDD0EA884469B00CB
:106000000EAA8900D25861446344CF4800E01A6860
:10601000821A04C38B42FAD101243CE7059B002B72
:1060200006D1009B0EAA013B9B00D558ED1517E742
:106030000022C64B300000F03DFD002800D024E1D6
:1060400000253DE732003B000020C14901F0D4FEAD
:1060500006000F00002C00D132E7059A0020BC4951
:1060600000F004FB02000B003000390001F0C4FE18
:1060700006000F0024E7012250E70026002754E61F
:106080004B46059A079388468B000EA9CB58183AC1
:1060900008950592002B0DD18C464146AD4B4344EB
:1060A0009B006344043B58680139183A0028F9D032
:1060B00088460592059A0020A54900F0D7FA434684
:1060C00004000D00002B00DA05E29E000EAB9C469A
:1060D0004346DB0066449C46059370AB9946049F9B
:1060E00067440097306802F005FA22002B0001F0A7
:1060F00011FC002238607960974B2000290001F0E4
:1061000009FC083F04000D00043EB945EAD14AAB42
:1061100003939B4600239A46069B42469946434674
:106120000132029204934B46002B00DAAAE0802051
:106130008A4B009D9846C005894900260027002407
:1061400008E008239C460835E044544511DC4346EA
:10615000186859682A686B6801F0DCFB02000B00C4
:106160003000390000F0B0FC013406000F00A145FA
:10617000E7DA5B46C0C39B4601239C46009BE24492
:10618000083B0093029B9A45CDD1049B9846A49B63
:10619000022B00DD8EE0002B37DC1FD1059B002792
:1061A0001D00039B00249C461E006544083E2A688F
:1061B0006B683800210000F087FC083D07000C00E8
:1061C000AE42F4D1089B002B03D080231B069C46D3
:1061D00064443A0023000D990A604B600720079B36
:1061E00018409B239B009D443CBC90469946A24688
:1061F000AB46F0BD009B0EA95A1E92000EAB9B58F9
:1062000007935B025B0A8B5057E64346002B00DA8C
:1062100070E100200021DB004AAAD61848AF32689E
:106220007368083E00F050FCB742F8D1089B002B81
:1062300000D025E10B0002004A984B990D9C22608A
:10624000636001F0D9FD434607000C00002B13DD0D
:1062500001254CAEB14638002E0021004C460136D7
:106260000CCC00F031FCA146B045F7DA089B0700E2
:106270000C00002B00D015E13A0023000D998A6034
:10628000CB60ABE70026002773E701239C46009B09
:10629000E1440225002B00DDEBE532003B0000204D
:1062A0002B4901F0A9FD06000F0009E60024F2E5E4
:1062B0004AAB0393A49B032B00D08FE74346002BEC
:1062C00000DC14E1039ADB009B46130091465B441B
:1062D0001E685F68234B43440293DB00994448AB3C
:1062E0009A464B465C681B681800210032003B0050
:1062F0000090019100F0E8FB04000D0002000B008B
:106300000098019901F078FD3B00320000F0DCFBC1
:106310004B469860D9601C605D6008235B429C46D8
:10632000E14426002F00CA45DBD14346012B00DCA7
:10633000E3E0039A13005B441E685F68029BDB0086
:1063400099464A44904610E0FFFFFF000000E03FFE
:106350000000F03FFFFFFF3F0000703E68A9000013
:10636000FB21F93FFFFFFF1F984643465C681B680F
:106370001800210032003B000090019100F0A4FBC6
:1063800004000D0002000B000098019901F034FD9B
:1063900032003B0000F098FB4346039A9860D960B6
:1063A0001C605D60083B26002F009A42DCD14D4600
:1063B0009446002600244746083565442A686B68E1
:1063C0003000210000F080FB083D06000C00AF42C9
:1063D000F4D1039B4A9F5D689968D868089B002B9D
:1063E00065D08022120694460D9B65446044644447
:1063F0001F605D609960D8601E615C61EEE69A4640
:106400004B460793059B30005A423900089500F02F
:106410002DF900223A4B06000F0000F04BFB00283C
:1064200024D0384B00223000390001F073FA02F01A
:106430002BF852460400950002F05CF80022304B25
:1064400001F068FA02000B003000390001F0D4FCC2
:1064500002F01AF80EAA50510122059B524418333B
:106460009046059393000EAAD45023E6534630007D
:1064700039009C0002F008F80EAB1851D04619E61E
:1064800080230D9A1B06CB18106053600B0002008E
:106490004A984B9901F0B0FC434607000C00002BD2
:1064A00000DDD5E680231B069C466444E4E62B0011
:1064B0003A000D9D2A606B600A000300AA60EB6041
:1064C000320023002A616B6188E6099BDB000093A0
:1064D00072AB049332E4A49B022B00DDE8E6002BB0
:1064E00000DD92E600D079E6002700246AE6002667
:1064F00000246EE70020002198E60026340068E7BB
:10650000000070410000703EF0B5CE46474680B5B1
:1065100087B000920193474A4B00814688465B084A
:10652000934207DC4146484601F0AEFF4146031E58
:10653000484666D04A4643464846414601F0EAF995
:1065400004000D0002000B004846414601F0E2F94C
:10655000394A3A4B06000F002000290001F0DAF911
:10656000374A384B01F048FC22002B0001F0D2F9E9
:10657000354A364B00F0A8FA22002B0001F0CAF988
:10658000334A344B01F038FC22002B0001F0C2F9F1
:10659000314B324A00F098FA0E9B02900391002B87
:1065A00034D00098019900222D4B01F0B3F9029AE2
:1065B000039B049005913000390001F0ABF9020013
:1065C0000B000498059901F017FC22002B0001F044
:1065D000A1F9009A019B01F00FFC224A04000D0072
:1065E000214B3000390001F095F902000B0020002A
:1065F000290000F069FA02000B004846414601F00C
:10660000FBFB07B00CBC90469946F0BD02000B00A6
:106610002000290001F07EF9124A134B01F0ECFB37
:1066200032003B0001F076F94A46434600F04CFA4E
:10663000E7E7C046FFFF3F3E7CD5CF5A3AD9E53D5C
:10664000EB9C2B8AE6E55A3E7DFEB157E31DC73E23
:10665000D561C119A0012A3F1111813FA6F810117F
:106660000000E03F495555555555C53F4B0070B5A5
:106670005B0D14000A00002B1AD14B005B0803438A
:1066800015D0234B002201F045F9224B9C422DDB13
:106690000A004B005B0D363B1F4DE318AB422ADC72
:1066A000002B0DDD1D4C1B0522401A43110070BD4F
:1066B0001B4DAB42F0D102000B0000F005FAF6E7EB
:1066C0001D00353519DA174B02009C4209DD0B001D
:1066D0001548164900F032F8134A144B01F01AF924
:1066E000E5E70B001248134900F028F8104A114B57
:1066F00001F010F9DBE70200E9E7084C36332240ED
:106700001B051343190000220B4B01F003F9CEE7E0
:1067100000005043B03CFFFFFE070000FFFF0F806A
:10672000FF07000050C300009C7500883CE4377EE2
:1067300059F3F8C21F6EA5010000903C30B54A0025
:10674000DB0FDB0752081A43110030BD02B471465B
:1067500049084900095C49008E4402BC7047C046A4
:10676000002243088B4274D303098B425FD3030A90
:106770008B4244D3030B8B4228D3030C8B420DD3A3
:10678000FF22090212BA030C8B4202D31212090231
:1067900065D0030B8B4219D300E0090AC30B8B426F
:1067A00001D3CB03C01A5241830B8B4201D38B031D
:1067B000C01A5241430B8B4201D34B03C01A5241C2
:1067C000030B8B4201D30B03C01A5241C30A8B4205
:1067D00001D3CB02C01A5241830A8B4201D38B02F0
:1067E000C01A5241430A8B4201D34B02C01A524194
:1067F000030A8B4201D30B02C01A5241CDD2C30906
:106800008B4201D3CB01C01A524183098B4201D381
:106810008B01C01A524143098B4201D34B01C01A6C
:10682000524103098B4201D30B01C01A5241C308E4
:106830008B4201D3CB00C01A524183088B4201D353
:106840008B00C01A524143088B4201D34B00C01A3F
:106850005241411A00D20146524110467047FFE7AB
:1068600001B5002000F0F0F802BDC0460029F7D0C5
:1068700076E7704703460B437FD4002243088B42E0
:1068800074D303098B425FD3030A8B4244D3030BB7
:106890008B4228D3030C8B420DD3FF22090212BA7C
:1068A000030C8B4202D31212090265D0030B8B42F8
:1068B00019D300E0090AC30B8B4201D3CB03C01AE2
:1068C0005241830B8B4201D38B03C01A5241430BBD
:1068D0008B4201D34B03C01A5241030B8B4201D3AD
:1068E0000B03C01A5241C30A8B4201D3CB02C01A18
:1068F0005241830A8B4201D38B02C01A5241430A90
:106900008B4201D34B02C01A5241030A8B4201D37E
:106910000B02C01A5241CDD2C3098B4201D3CB0125
:10692000C01A524183098B4201D38B01C01A5241D4
:1069300043098B4201D34B01C01A524103098B42D8
:1069400001D30B01C01A5241C3088B4201D3CB00C3
:10695000C01A524183088B4201D38B00C01A5241A6
:1069600043088B4201D34B00C01A5241411A00D256
:1069700001465241104670475DE0CA0F00D04942BF
:10698000031000D34042534000229C4603098B422F
:106990002DD3030A8B4212D3FC22890112BA030AB7
:1069A0008B420CD3890192118B4208D38901921139
:1069B0008B4204D389013AD0921100E08909C309BE
:1069C0008B4201D3CB01C01A524183098B4201D3C0
:1069D0008B01C01A524143098B4201D34B01C01AAB
:1069E000524103098B4201D30B01C01A5241C30823
:1069F0008B4201D3CB00C01A524183088B4201D392
:106A00008B00C01A5241D9D243088B4201D34B00AC
:106A1000C01A5241411A00D20146634652415B10EE
:106A2000104601D34042002B00D5494270476346CF
:106A30005B1000D3404201B5002000F005F802BD14
:106A40000029F8D016E770477047C0468446101CEE
:106A500062468C46191C634600E0C0461FB500F034
:106A6000F1FE002801D40021C8421FBD10B500F07E
:106A700049FE4042013010BD10B500F0E3FE002891
:106A800001DB002010BD012010BDC04610B500F094
:106A9000D9FE002801DD002010BD012010BDC04638
:106AA00010B500F06BFE002801DC002010BD0120B5
:106AB00010BDC04610B500F061FE002801DA0020CC
:106AC00010BD012010BDC046F0B54F464646D64623
:106AD0000C000903C0B5490A470F5E0039431F0384
:106AE000DB0F9C4665007B0A570F1F436D0DE40FBB
:106AF000760DA146C000B846D200AB1B64457BD0E2
:106B0000002B5FDD002E00D0A4E03E00164300D134
:106B100012E15E1E002E00D09EE1871A4346B84265
:106B200080410125C91A4042091A0B0200D431E103
:106B300049024E0A002E00D16EE1300001F046FD00
:106B40000300083B1F2B00DD61E120223900D21A2F
:106B50009E40D1409F400E439D4200DD51E15D1BB0
:106B60006B1C1F2B00DD7CE12021C91A3D00300089
:106B70008F408840DD40791E8F4131000722284335
:106B8000D940002507433A40002A09D00F233B4053
:106B9000042B05D03B1DBB42BF417F42C9191F00DA
:106BA0000B0200D426E26A1CC64B55056D0D9A42B5
:106BB00000D106E1C44AFF080A40530752023B4392
:106BC000120B8EE0002B00D0B8E06B1C5B055B0D58
:106BD000012B00DC30E1871A4346B842B641CB1A9C
:106BE00076429E1B330200D54CE13B003343A1D1DA
:106BF00000220024002570E0002B00DCE5E0002EE0
:106C000000D183E0AF4EB54260D0802636043743D2
:106C1000B846382B00DC3EE1434613431F007A1E82
:106C200097413F1887428041404209180B0200D427
:106C3000B0E0A44B01359D4200D1C3E0A24A7B08DD
:106C40000A4001210F401F435108D30707221F4369
:106C50003A4099E79B4EB54238D0802636043743F8
:106C6000B846382B00DDDCE01F2B00DC30E11E00D5
:106C70004746203EF740BC46202B04D04026F31A5E
:106C800046469E403243170063467A1E97411F4393
:106C9000CCE0002B00D104E24346134300D159E17C
:106CA0004B07C00818438023C9081B03194208D0AA
:106CB0004546ED081D4204D14346D0085907084314
:106CC0002900420FC9007F4D1143C0004B07CA087D
:106CD0007C49C00803438D4268D012036D05120B36
:106CE0006D0D002112031800130B0A0D12051A4333
:106CF000764B2D0513402B435B00E4075B082343D1
:106D000019001CBC90469946A246F0BD3E001643B1
:106D100012D05E1E002E00D000E18718874280410D
:106D200041444042091801250B0233D5022585E76D
:106D300064463300414610001D00C7E7002D00D017
:106D4000DAE00C000443F3D05C1C00D19FE15D4C01
:106D5000A64200D12FE1DB43382B00DD66E11F2B7B
:106D600000DD83E120240500E41A0F00DD40D94056
:106D7000A0404346A7405B1A441EA04198462F43BB
:106D80003843171ABA42924143465242991A64460E
:106D90003500CAE607223A40002A00D0F6E64B0743
:106DA000CA084849FF083B438D4296D11900114358
:106DB00000D19EE1802109030A431203120B414DC9
:106DC0008FE71500002200238BE7002B00D0C7E0DF
:106DD0006B1C5F057F0D012F00DCF1E0394DAB42EC
:106DE00000D1B9E085180A008542894142444942F0
:106DF00051180722CF076D082F4349083A401D005C
:106E0000C2E607223049ED1A31403A40BCE63E0066
:106E10002838864000279FE6380001F0D7FB203055
:106E20008EE6434613431F007A1E9741C71BB842A4
:106E300080414042091A78E60E003B0006431343A6
:106E4000002D61D1002E00D0F4E0002B00D11BE119
:106E500064463900100039E71A4FBB427AD033003C
:106E6000FFE630001F3DE840202B03D04021CB1A25
:106E70009E4037437B1E9F41072207433A40002133
:106E8000002589E7171A4346BA42B641591A764295
:106E90008E1B64464EE61F2B00DDADE020264746E4
:106EA000F61AB740B9461700B246DF404E463E4399
:106EB00037005646B240561EB24117434246DA40AA
:106EC0008918AEE6FF070000FFFF7FFFFFFF0F807E
:106ED00020264746F61AB740B9461700B246DF40AB
:106EE0004E463E4337005646B240561EB241174307
:106EF0004246DA40891A99E77F4CA6425BD080244B
:106F000024045B42214327E7002E0CD1002B00D143
:106F1000CBE0644639001000774DD7E6764FBB4290
:106F200018D0330075E6002B14D04B07C008184367
:106F30008023C9081B03194207D0FC081C4204D156
:106F40007907D0080843E14621004C46420FC900AA
:106F50001143C000684DB9E61D0000220023C0E6C1
:106F6000002D5BD10D00054300D1E2E65D1C00D190
:106F7000B0E0614DAE421FD0DB43382B71DC1F2BDC
:106F800000DD96E020250F00ED1AAF40B94607005E
:106F9000AA46DF404D463D432F005546A840D94004
:106FA000451EA84188440743BF1897429241514269
:106FB000414435003AE6644635004146100085E616
:106FC0000B000343002D00D063E6002BF5D04346B1
:106FD000134300D17AE68718874280410722414453
:106FE000404209183A400B0200D4D5E6434B013524
:106FF0001940C9E5380069E61E004746203EF740C3
:10700000BC46202B04D04026F31A46469E4032430D
:10701000170063467A1E97411F4302E6364DAE4283
:10702000CAD080252D045B422943A6E70843411EB0
:107030008841A6E6002B00D148E6871A4346B842AD
:10704000B641CB1A76429E1B33024BD5171A4346E4
:10705000BA429241591A5242891A072264463A406A
:1070600092E501430F00791E8F419DE71C000F0040
:10707000203CE740202B03D04024E31A99400843EA
:10708000411E884138437CE60022002425E6171A79
:107090004346BA429241591A5242891A644635000F
:1070A00043E541461000144D10E6802200241203EF
:1070B00080E61D000F00203DEF40BC46202B03D092
:1070C0004025EB1A9940084307006346781E874124
:1070D0001F4369E7871897429B4141445B42C918A7
:1070E0003500A3E53B003343CED0072231003A40C0
:1070F00052E600231A00F4E5FF070000FFFF7FFFC0
:10710000F0B55746DE464E464546E0B58346070095
:107110000E03480085B092461C00360B400DCD0F83
:10712000002800D19DE0954B984239D08023F6008D
:107130001B041E43924A7B0F334399469446030037
:107140006344009300230026FF00029323031B0BDC
:1071500098466300E40F52465B0D019400D1B3E002
:1071600086498B4200D19EE04246D1008022120423
:107170000A435146490F11438B46814952468C467A
:1071800000996344CB1A0021D20000932B00634086
:107190009A460F2E00D905E17A4BB6009B599F46BF
:1071A0005B463343994600D0B8E002230826002707
:1071B00000900293CAE7CB463A0002990195019BE1
:1071C0009A46022927D0032900D180E2012944D020
:1071D0006D49009B8C4663441C00002C38DD53072E
:1071E00000D013E2D2085B46DB0109D55946674B54
:1071F00019408B468021C9008C46009B63441C00CB
:10720000634B9C4207DC5B4664055F075B021743E8
:107210001B0B620D02E000230027584A00211B03CC
:107220001C0B0B0D1B05234314055A4A3800134051
:107230001C4353466400DB0764081C43210005B06F
:107240003CBC90469946A246AB46F0BD0122524254
:1072500001231B1B382B00DCADE10022002300279B
:10726000DCE75B46334399465ED0002E00D18AE1CD
:10727000300001F0ABF903000B3B1C2B00DD7BE180
:107280001D22D31A5A460100DA4008398E401300F5
:107290005F46334399468F403F4B00261B1A0093AD
:1072A0000023029352E7414653460B433B499B461A
:1072B0008C46009B634400935B46002B3BD102232A
:1072C00000221E43022161E7434613439B4637D009
:1072D0004346002B00D162E1404601F077F90300FC
:1072E0000B3B1C2B00DD53E102004146083A914064
:1072F00088461D21CB1A5146D9400B0041460B430D
:107300009B46534693401A00009B25499C46604487
:1073100003008C4663440093002137E70323B14602
:1073200000900C26029311E70023009301330426FA
:10733000002702930AE70323C3461E43032125E7E0
:1073400001331E430022012120E700239A468023B7
:1073500000271B03094A61E7802349461B031942A2
:1073600000D1E2E05946194200D0DEE00B431B0396
:1073700017001B0BA246014A50E7C046FF0700005A
:1073800001FCFFFFB8A90000FF030000FFFFFFFEA4
:10739000FE070000FFFF0F800DFCFFFF01F8FFFF5D
:1073A000F3030000D94500D9CBE000D1C6E03C0092
:1073B00048460027009B013B00935B46160E1B02CC
:1073C0001E431302984633041B0C9946310C01915D
:1073D000FFF74CFA4A4642430B04210C05001943BF
:1073E0008A4207D98919013D8E4203D88A4201D9C0
:1073F000851E8919881A0199FFF738FA09048C4605
:107400004A46210464464243090C030021438A4250
:1074100004D98919013B8E4200D8F1E02D041D43A7
:10742000AB464346891A4246280C12041D0C5B46A3
:10743000140C22001B041B0C5A4303946B4344435B
:10744000029568431B19150CEB189C4203D9802444
:107450006402A44660441C0C15041B042D0C201867
:107460005D19814277D373D00C1AA24A7D1BAF42BB
:10747000BF419446009B7F426344E01B1C00864250
:1074800000D1DBE00199FFF7F1F94A4642430B04D2
:10749000290C070019438A4207D98919013F8E42F6
:1074A00003D88A4201D9871E8919881A0199FFF7E2
:1074B000DDF909044A46894629044D464243090C30
:1074C000030029438A4207D98919013B8E4203D818
:1074D0008A4201D9831E89193F04891A3A00039F01
:1074E0001A43380013041B0C584381460298150CAC
:1074F0006F43434345434846000C8446DB196344CD
:107500009F4203D9802040028446654448461F0CB0
:1075100000041B04000C7D191818A94200D284E055
:1075200000D17FE001231A4357E680234A461B031C
:1075300013431B031B0BAA466F4A6FE6BA4200D9DE
:1075400035E74B46DC0758087B081C43FF0734E748
:107550000024AF4289D247444745A4415B46644278
:10756000A4196418013BA6421ED2A0426DD800D1D6
:10757000B6E0241A9B4678E703005A46283B9A4017
:107580000027914688E6584601F020F8203072E640
:1075900003005246283B9A4093460022B4E65046E8
:1075A00001F014F820309AE6A642E2D1B845DCD9C1
:1075B000341A9B4659E71F2B65DC504C0099A446B2
:1075C0005C46614408008C4011008240D940501E46
:1075D00082410C4314435A46DA401300620709D033
:1075E0000F222240042A05D02200141D9442894112
:1075F00049425B181A0262D50122002300270DE6DA
:107600008A4200D80AE7831E891907E70F2313402F
:10761000042B00D1E6E5171D9742924153429B444B
:10762000FA08E0E5002800D1D7E57118531EB142F1
:1076300027D3A94215D358D01A0073E7002B00DCDA
:1076400004E6012300229B44CDE50223474447453D
:1076500089415B429C46494289190C19E344241A2A
:1076600003E743465F0047459B41B8465B429E198E
:10767000023A8919A94200D054E7404500D051E7A9
:10768000ABE51A00F6E71F215F4649420C1BE740B5
:10769000202B07D01A49009B8C46634418005B4698
:1076A00083401A43501E82413A4307270023174064
:1076B00009D00F21002311401400042995D1220084
:1076C0005F075B021B0BD20817430022A6E580234D
:1076D00059461B030B431B0317001B0B064A9DE572
:1076E000BD42B2D89B460024BFE68045B9D31A00FC
:1076F000C3E7C046FF030000FF0700001E040000B0
:107700003E040000F0B54F464646D6468446C0B516
:107710008046194E18030F034D00000B5C00824693
:107720003F0B6D0DC90F9146640DDB0F0120B54273
:107730000AD0B44203D0A54201D157450CD01CBC9D
:1077400090469946A246F0BD66463E43F7D1AC420C
:10775000F5D154461443F2D10120C845EFD19942E6
:1077600007D0002DEBD163461F433800471EB841B8
:10777000E5E70020E3E7C046FF070000F0B54F460D
:107780004646D6464D00C0B50E03C90F8A462C4961
:107790001F035C008046360B6D0D91463F0B640D58
:1077A000DB0F8D421ED08C4216D0002D1ED13043EF
:1077B0008446002C01D13A4323D06246002A1AD0D5
:1077C0009A4529D0514602200139084001381CBC95
:1077D00090469946A246F0BD39001143E5D00220FB
:1077E0004042F4E73043FAD1AC420FD0002C0FD125
:1077F0003A43E7D00CE00122013B934318000130EB
:10780000E5E763460020002BE1D0DBE73A43E6D111
:107810009A45D7D1A542D5DCA54205DBBE42D1D8D9
:1078200008D00020BE42D2D25046012301389843EE
:107830000130CCE7C845C5D80020C845F4D3C6E719
:10784000FF070000F0B54F464646D6464D00C0B58E
:107850000E03C90F8A462E491F035C008046360B73
:107860006D0D91463F0B640DDB0F8D4218D08C429D
:1078700011D0002D18D130438446002C1ED13A433C
:107880001CD163460020002B30D051460220013924
:10789000084001382AE039001143EAD0022025E0EF
:1078A0003043FBD1AC4226D0002C26D13A4324D120
:1078B0005146022001390840013817E06246002A8B
:1078C0000FD09A45E1D1A54205DBBE42DDD819D0E3
:1078D0000020BE420AD250460123013898430130AD
:1078E00004E00122013B9343180001301CBC904688
:1078F0009946A246F0BD3A43D0D19A45C5D1A5429A
:10790000C3DCE0E7C845C0D80020C845E3D3EDE7B5
:10791000FF070000F0B55746DE464E464546E0B547
:10792000834606000F03480087B092461D003F0BB8
:10793000400DCC0F002800D16FE0DE4B984238D0CC
:107940008023FF001B041F43730F3B430193DA4B5B
:107950000027994600239B46F60081442B036900CB
:107960001B0B52469846490DED0F002900D185E0CA
:10797000D04B994200D173E04346DA0080231B04C8
:1079800013435246CC48520F8446134352460020BC
:107990006144D20089442100694000918C46012154
:1079A00049448A460F2F00D990E0C449BF00CF59FF
:1079B000BF465B463B43019300D06AE102230827A0
:1079C000002681469B46C9E732005846019B614626
:1079D0000091022800D175E0032800D1FEE10128C2
:1079E00000D02CE100230027002600253F032A0DAC
:1079F0003F0BB34812053A4302401B051343009A5C
:107A00005B00D1075B080B433000190007B03CBC9A
:107A100090469946A246AB46F0BD5B463B43019378
:107A200000D12FE1002F00D1A5E1380000F0CEFDFC
:107A300003000B3B1C2B00DD96E11D22D31A5A4696
:107A40000100DA405E4608398F4013008E403B4308
:107A500001939C4B00271B1A994600239B467DE708
:107A6000414653460B4393498C46E144002B00D0DA
:107A70001AE102220220174300228CE7134300D1AF
:107A80000DE14346002B00D181E1404600F09EFD10
:107A900002000B3A1C2A00DD72E10100434608395E
:107AA0008B4098461D239A1A5346D3401A004346EA
:107AB000134352468A404946081A824989468144FE
:107AC000002068E77B4B002700268EE7140C120489
:107AD000120C1100370C3604350C794328008C4603
