:1020000000800020713F0000593F0000593F000050
:1020100000000000000000000000000000000000C0
:10202000000000000000000000000000593F000018
:102030000000000000000000593F0000C53F000004
:10204000593F0000593F0000593F0000593F000030
:10205000593F0000593F0000593F00005D3F00001C
:10206000593F0000593F0000593F0000593F000010
:10207000593F0000A93E0000993E0000593F000072
:10208000593F0000593F0000593F0000593F0000F0
:1020900000000000593F0000593F0000593F000078
:1020A000593F0000593F0000593F0000593F0000D0
:1020B0000000000010B5064C2378002B07D1054B1B
:1020C000002B02D0044800E000BF0123237010BDA4
:1020D000200200200000000020750000044B10B515
:1020E000002B03D00349044800E000BF10BDC046E8
:1020F000000000002402002020750000962110B589
:10210000134C8901200002F0F3FF200002F0F2FFDF
:102110000028FAD00F49200002F016FB012106200A
:1021200002F08CF902210E2002F088F90E2002F054
:10213000FDF942424241084B1A70002807D1074876
:1021400000F056FB064B1860064800F053F910BD2E
:102150001C080020816E000004000020A002002066
:10216000540200204402002007B5002105480B005E
:102170000A00009102F07CFA5021034800F072FD41
:1021800007BDC0463C0200204402002070B58EB05E
:1021900009A800225E4900F071FD09A800F075FB56
:1021A000002800D181E05B4D5B49280002F0CCFAA9
:1021B0005A4E6846310004F0D3FA09A800F0EAFC50
:1021C000002868D009A800F059FC0028F5D009A81B
:1021D00000F060FCC4B22100280002F0FAFD0A2CD5
:1021E00000D08EE0029C002C61D14D4909A802F07C
:1021F000ABFA4C4909A802F0A7FA09A802F09CFA28
:10220000494909A802F086FA484B1B68A34224DD1D
:10221000E1B2474800F001FB010003A804F0A0FA76
:10222000444906A804F09CFA03A906A804F0E5FABC
:10223000414904F0EFFA03A904F0DFFA3F4904F042
:10224000E9FA010009A802F05EFA06A804F03EFAD5
:1022500003A804F03BFA0134D6E7394909A802F093
:1022600059FA384909A802F055FA374909A802F085
:1022700051FA364909A802F04DFA354909A802F089
:1022800049FA344909A802F045FA09A802F054FABB
:1022900009A802F051FA09A800F05EFC2E492800B6
:1022A00002F052FA684604F011FA0EB070BD310027
:1022B000684604F074FA294906A804F051FA06A900
:1022C000684604F0DDFA040006A804F0FFF9002CCB
:1022D00003D00121062002F0FDF8214906A804F0F0
:1022E0003FFA06A9684604F0CBFA040006A804F0F9
:1022F000EDF9002C00D160E70021062002F0EAF899
:102300005BE70D2CD7D02100684604F06CFAD2E7C9
:10231000440200201C080020386D0000D673000025
:10232000436D0000536D00006A6D000054020020F0
:10233000A0020020876D0000846D0000976D0000F2
:10234000A16D0000AB6D0000B96D0000DF6D0000F5
:10235000136E0000386E00004E6E0000406E0000EC
:10236000476E0000084B10B51B78002B02D0FFF71A
:102370000DFF10BD0549064802F0E6F900F0C0F86F
:10238000044801F063FEF4E704000020626E0000E0
:102390001C0800201027000037B5114C11492000FF
:1023A00002F0B8F9104D280000F01EFA01002000DC
:1023B00002F0CAF92900684600F00DFA0B49200026
:1023C00002F0A8F96946200002F0C8F90849200087
:1023D00002F0A0F96946200002F0C0F937BDC046FE
:1023E0001C080020FE6E0000A0020020056F000007
:1023F000126F0000F0B5244E87B00500300000F0E9
:102400001BFA224CFF2804D12149200002F09CF93C
:10241000FEE700F0B9F90100684604F0A1F91D4992
:1024200003A804F09DF903A9684604F024FA070004
:1024300003A804F04BF9002F03D01749200002F045
:1024400083F91649200002F065F9154F2000390084
:1024500002F07AF9134A3900300000F0B7F9072882
:1024600004D01149200002F06FF9FEE70F4801F097
:10247000EDFD2B6828001B699847FFF78DFF684624
:1024800004F024F907B0F0BDA00200201C080020D1
:10249000676F00008E6F0000946F0000B06F000047
:1024A0000F00002005000020CE6F00001027000064
:1024B000023810B50B4B062812D804F027FA091180
:1024C0000B04110D0F000849180002F03DF910BD72
:1024D0000649F9E70649F7E70649F5E70649F3E74C
:1024E0000649F1E71C080020486F00004C6F00000F
:1024F000506F0000556F00005A6F00005F6F0000C2
:10250000F8B5264C2649200002F01EF9254800F0B7
:102510006FF90500431C04D12349200002F014F98F
:10252000FEE72249200002F0F5F80A2229002000E7
:1025300002F065F90026AE422EDA0A2231002000B0
:1025400002F059F9F7B21A49200002F0E3F8390015
:10255000144800F062F90100200002F0DBF8154990
:10256000200002F0D7F839000E4800F05BF90A228B
:102570000100200002F020F90F49200002F0CAF803
:102580000E49200002F0C6F83900064800F04FF965
:10259000FFF78EFF0136CEE72800F8BD1C080020AB
:1025A0008D6E0000A0020020A16E0000C06E000031
:1025B000DE6E0000E16E0000EB6E0000F06E0000C9
:1025C00007B50021034800910B000A0002F050F803
:1025D00007BDC04658020020037D002B04D143757F
:1025E000837583610133037570477FB5C36802AD9E
:1025F00004000E0002916A608B4203D1028AAB880C
:102600009A4218D02000062229000C3004F05AFA11
:10261000206802F016FA6B79227AE179009320683B
:10262000002302F045FB20682979320002F0DAF934
:10263000206802F0FCF97FBD70B518260400FFF792
:10264000CBFF3300082120790D4D4343EB18595639
:1026500001F084FF33000821A0794343EB18595659
:1026600001F07CFF082160794643AD19695601F0FD
:1026700075FF044B200006CBFFF7B7FF70BDC046C7
:10268000687000009802002007B5437D0091019218
:10269000002B07D09A070AD5EFF310835A42534113
:1026A000837572B60099019AFFF79FFF07BDDB079C
:1026B000F8D58369014A9BB29360F3E700180040A4
:1026C000437D002B05D09A0704D5837D002B00D0D5
:1026D00062B67047DB07FCD58369024A9BB2D360C0
:1026E000F7E7C0460018004010B5006802F0B2F9E4
:1026F00010BD0000114A124B1249136000235371A0
:102700001371114A11601149D360918009219171AF
:102710000639537413741375D37111720C4AD36054
:102720005374137413750B4BD17113600A4B938060
:102730001D2393711C3B13727047C0469802002002
:1027400000093D0000080020600200200A08000087
:102750007C0200200C0800201B1A000070B5060047
:1027600001F03EFC0024050001F03AFC3368401BF8
:10277000984207D2642001F069FC01F0C5F804001A
:102780000228F1D9200070BD10B501F08BFA10BD00
:10279000F0B5070085B0080016000D00039304F0A3
:1027A00079FA0400300004F075FA039AC3B200927B
:1027B000E1B23200280001F09DFA03000920013344
:1027C00002D03800FFF7CAFF05B0F0BD10B50123F5
:1027D000FFF7DEFF10BD10B5040001F041FF20003F
:1027E00001F0BAF8200010BD10B501F0C9F810BD15
:1027F00070B501F0FDF8431C0ED0FA250A24ED0057
:10280000280001F023FC01F023F9002803D1013C4A
:10281000E4B2002CF4D140B270BD10B5080001F054
:102820003FF910BD10B5080001F07CF910BD10B5DE
:10283000080001F03FF910BD10B501F065F810BDBA
:1028400010B50800110001F021FA10BD07B50021F4
:1028500004480B000A00009101F00AFF024B034AF2
:102860001A6007BDA4020020A002002050C300008F
:102870000020704713B56B460268D971073354685E
:1028800019000122A04716BD7047007CFF38431E87
:102890009841C0B27047000070B50E0086B00400C9
:1028A00002A8150001F0DCFE02AA31000848FFF77B
:1028B000C7FF00280AD0074A23680492039ADB69FD
:1028C0000192059204A92A002000984706B070BD25
:1028D000A0020020D073000070B5037C04000D003E
:1028E0001600FF2B02D003689B6A984700F0D4FCC7
:1028F00002002074FF281ED068680023310000F019
:10290000E3FA01F06DFB050023682000DB6A9847BD
:10291000002809D101F064FB0A4B401B984203D800
:10292000012001F093FBEFE723682000DB6A984762
:10293000431E984170BD0449044801F005FF002082
:10294000F8E7C0460F270000EB6F00001C080020CE
:1029500070B5037C04000D001600FF2B02D0036845
:102960009B6A984700F098FC02002074FF281ED054
:1029700068680223310000F0A7FA01F031FB05007E
:1029800023682000DB6A9847002809D101F028FB62
:102990000A4B401B984203D8012001F057FBEFE798
:1029A00023682000DB6A9847431E984170BD0449A4
:1029B000044801F0C9FE0020F8E7C0460F270000D8
:1029C000EB6F00001C080020F7B5037C04000E002C
:1029D0001700FF2B02D003689B6A984700F05CFC4D
:1029E00005002074FF2825D0300004F053F902239D
:1029F000C1B2019300953B000022300000F0A4FA20
:102A000001F0EEFA050023682000DB6A98470028F1
:102A100009D101F0E5FA0A4B401B984203D8012086
:102A200001F014FBEFE723682000DB6A9847431EA0
:102A30009841FEBD0349044801F086FE0020F8E7F6
:102A40000F270000EB6F00001C08002070B5050088
:102A5000007CFF2804D1012300246B60200070BD9E
:102A6000002AF8D092B200F08DFB041EF3D0287C2F
:102A700000F0C8FB0028EED0F0E7000010B5017CA4
:102A80000020FF2902D0024800F078F910BDC046AE
:102A9000CC020020036837B51B6904009847002862
:102AA00009D06B46DD1D217C01232A00034800F07C
:102AB000A1F928783EBD01204042FBE7CC0200206E
:102AC00010B50C001300017C2200024800F092F9BE
:102AD00010BDC046CC02002010B5017C014800F0BA
:102AE00079F910BDCC02002007B500236A46019396
:102AF0001380007C01A900F0C5FE6B466A461B7876
:102B000050781B02C01880B20EBD13B500236A4670
:102B1000040001931380087C01A900F0B3FE01A911
:102B2000200001F0B3FD200016BD0000002343602B
:102B3000FA239B008360024B0174083303607047E3
:102B40000070000010B5037C0020FF2B02D018009D
:102B500000F076FA10BD000070B50400007CFF287C
:102B600014D000F03BFA32252000FFF7EBFF0028DD
:102B700006D0013D002D03D0642001F067FAF3E791
:102B8000217C034800F0E0F8FF23237470BDC046A9
:102B9000CC02002070B5037C04000025FF2B05D07B
:102BA00003681B699847A84202D00125280070BD20
:102BB0002000FFF7C7FF0A28F7D8054BC340DB0703
:102BC000F3D5217C034800F0BFF8FF232374EDE721
:102BD000EF040000CC02002007B50021034800915B
:102BE0000B000A0001F044FD07BDC046AC02002006
:102BF00007B50021034800910B000A0001F038FDE1
:102C000007BDC046B4020020704713B56B4602688A
:102C1000D9710733546819000122A04716BD10B5B9
:102C2000040000F039FB01002072FF2803D0608906
:102C3000002200F00DF910BD70B50500002A04D186
:102C4000012300246B60200070BD92B2007A00F076
:102C500099FA041EF4D0287A00F0D4FA0028EFD0B4
:102C6000F1E70000044B4181083303600023436017
:102C7000013B03817047C0464C700000F0B589B03D
:102C800001920B7A04000F00FF2B35D0497AFF29FF
:102C90000FD003A8FFF74AFF03A8FFF77BFF002828
:102CA00007D003A8FFF7EAFE002802D0787AFF28B1
:102CB00004D1387A00F0F8F9FF281DD0C6B203AD70
:102CC00031002800FFF732FF019B002B04D02800C1
:102CD000FFF738FF019B18706B687E726360AB680A
:102CE000A360EB68E360074B23602B7C23746B8A43
:102CF0006382200009B0F0BDFF212000FFF716FF1E
:102D0000F7E7C0460870000007B5002103480091AE
:102D10000B000A0001F0ACFC07BDC046BC0200205D
:102D200007B50021034800910B000A0001F0A0FC48
:102D300007BDC046C402002010B50400782200215F
:102D400003F0C9FE200010BD10B50C244C4304193B
:102D50002068002805D003F0ABFE002363602360E9
:102D6000A36010BD70B505000024210028000134C7
:102D7000FFF7EAFF0A2CF8D1280070BDF7B50C2444
:102D80004C430419A36805000E00002B1AD12768D4
:102D9000002F05D10E4803F081FEA760606020601F
:102DA0006B469F1D0A4BF0B23A0021683B8000F051
:102DB000B5F9002806D023683A8863600C23734372
:102DC000EB189A600C235E43AD19A868FEBDC0469F
:102DD000DC05000070B504000D00FFF7CFFF0028F0
:102DE00005D00C21694364186368187870BD012010
:102DF0004042FBE7F8B506000C0017001D00FFF786
:102E0000BDFF002811D0854200DD05000C235C4386
:102E100034192A006168380003F054FE2800636802
:102E20005B196360A3685B1BA360F8BD10B5054C1C
:102E30002000FFF781FF044A0449200003F05EFDF3
:102E400010BDC046CC02002000000020652D00000F
:102E50007FB56B46DD1D9C1D1A4B06001B78297043
:102E60002270002B01D100F03FFA00F0D5FA00F0FB
:102E700093FA0321282000F09EFC3000002100F08E
:102E800088FC28000022012100F0A1FB0122200083
:102E9000110000F09CFB00F0DBFA00F0A3FA00F058
:102EA000BBFA00F079FA0E220F2300216A446B442A
:102EB000117019702820013100F0B1FB00F092FA76
:102EC0007FBDC046450300207FB50E0069468C1CBF
:102ED00023701C4BCD1C1B7801902A70002B01D154
:102EE00000F002FA00F098FA00F056FA04212D20C2
:102EF00000F061FC002201A8042100F068FB300012
:102F0000002100F046FC28000022012100F05FFBB8
:102F100001222000110000F05AFB00F063FA00F0DB
:102F20007BFA00F039FA0E220F2300216A446B4429
:102F3000117019702D20013100F071FB00F052FA70
:102F40007FBDC046450300207FB51D00224B060013
:102F50001B780C000192002B01D100F0C5F900F0A4
:102F60005BFA00F019FA05212D2000F024FC300056
:102F70000022210000F02BFB0022042101A800F018
:102F800026FB0021280000F004FC0022012108A8F3
:102F900000F01DFB012209A8110000F018FB032618
:102FA0002500113535400134002D02D000F050FAD3
:102FB000F6E700F017FA00F02FFA00F0EDF90E2214
:102FC0000F236A446B4401212D2015701D7000F001
:102FD00026FB00F007FA7FBD450300201FB56B46B6
:102FE000DC1D164B20701B78002B01D100F07CF902
:102FF00000F012FA00F0D0F901212E2000F0DBFBE6
:1030000001222000110000F0E2FA00F021FA00F0A5
:103010001FFA00F0E7F900F0FFF900F0BDF90E2209
:103020000F2300216A446B44117019702E20013166
:1030300000F0F5FA00F0D6F91FBDC04645030020A8
:103040001FB56B46DC1D174B20701B78002B01D180
:1030500000F04AF900F0E0F900F09EF901212F207C
:1030600000F0A9FB01222000110000F0B0FA0E24AC
:1030700000F0EEF900F0ECF900F0B4F900F0CCF952
:1030800000F08AF90F2300226C446B441A702270FE
:10309000012122002F2000F0C2FA00F0A3F92078CD
:1030A00004B010BD450300201FB56B46DC1D207029
:1030B00000F094FBFF2300282BD0174B1B78002B2C
:1030C00001D100F011F900F0A7F900F065F9012134
:1030D0002B2000F070FB01222000110000F077FA95
:1030E0000E2400F0B5F900F0B3F900F07BF900F020
:1030F00093F900F051F90D2300226B446C441A70CF
:103100002280012122002B2000F089FA00F06AF9C8
:103110002378180004B010BD4503002073B56B463A
:10312000DD1D174B0E001B7814002870002B01D1F9
:1031300000F0DAF800F070F900F02EF902214520D5
:1031400000F039FB28000022012100F00DFB0122D4
:103150000221200000F008FB00F07AF900F042F9AB
:1031600000F05AF900F018F931002200452000F073
:10317000C9FA00F037F92088431E9841C0B276BDE5
:10318000450300207FB56B46DD1D1D4B0E001B78EF
:1031900014002870002B01D100F0A6F800F03CF9D3
:1031A00000F0FAF80221442000F005FB0022012182
:1031B000280000F0D9FA30000122210000F0D4FAF2
:1031C00003262500093535400134002D02D000F0DA
:1031D0003FF9F6E70E2400F005F900F01DF900F0C4
:1031E000DBF80D226C446A442100442015702580D0
:1031F00000F049FA00F0F6F8208804B070BDC0462F
:1032000045030020F0B50E2585B06B46002401264D
:103210002A276D44D8712C70DC731E4B1B78002B51
:1032200001D100F061F800F0F7F800F0B5F83100D6
:10323000380000F0C0FA6B4632003100D81D00F0B3
:10324000C6F900F005F900F003F900F0CBF800F042
:10325000E3F800F0A1F80F232A006B443100380096
:1032600000F0DDF900F0BEF82B78002B0FD101340F
:103270006420A4B200F0EAFE2B78002B01D1182CB8
:10328000CBD9193C601E8441E0B205B0F0BD0024EA
:10329000F2E7C04645030020124B13B51B78002B04
:1032A00001D100F021F800F0B7F800F075F8002126
:1032B0003F2000F080FA00F095F800F0ADF800F043
:1032C0006BF86B469C1DFF2323706B46002207336F
:1032D0001A70012122003F2000F0A1F900F082F8CD
:1032E000207816BD45030020F8B51C23234E244F3B
:1032F0003370244C07333B70BD33237000F04EFD18
:10330000214DDF2804D801232B702378DB43237061
:103310001E48FFF791F93078012101F08FF83878D5
:10332000002101F08BF82078012101F087F80121BC
:103330001E2001F083F801211E2001F0CBF8307827
:10334000012101F0C7F82978207801F0C3F80A209C
:1033500000F07CFE297801252078694001F0BAF858
:103360000B4800F073FE00211E2001F0B3F800218D
:103370001E2001F063F8074B1D70F8BD17000020F8
:103380001500002016000020440300207C020020CD
:10339000EE0200004503002013B500246B465C716B
:1033A0001C71019A0B490C48FFF76EF90B4B210079
:1033B000187801F08FF800F013FE0400084B18781D
:1033C00001F0B4F8012804D000F00AFE001B042824
:1033D000F4D913BD00127A007C02002017000020EF
:1033E0001500002010B5044B0121187801F072F887
:1033F0000248FFF765F910BD170000207C0200208D
:1034000007B56B46D871D9790248C9B2FFF76CF994
:103410000EBDC0467C02002010B5034B187801F0A9
:1034200085F80028F9D110BD1500002010B5040062
:10343000FF20FFF7E5FF207010BD70B50C00050000
:103440000800FFF7F3FF2078401B4342584170BD4E
:1034500013B56B46DC1D002320002370FFF7E6FF49
:10346000207816BD70B50500084CFFF7F1FFEF2876
:1034700008D0013C002C01D0A842F6D1401B4342A9
:10348000584170BD01204042FBE7C046E9030000FF
:10349000F0B587B004ABDE1D00230500E0200391EA
:1034A00014003370FFF7DEFF002802D1002007B0C0
:1034B000F0BD3000FFF7BAFF802233781543AB42EE
:1034C000F4D1FFF7C5FF01900028EFD00523434357
:1034D000E3180293029B9C421AD0FF20FFF790FF53
:1034E000002720702378BB4210DDA37865781B028B
:1034F0002B43E578FF202D042B4325792D061D4312
:10350000FFF77EFFED1928700137EBE70534E1E79F
:10351000019B039A9342C9D13100EE20FFF78DFF42
:103520000120C4E7F0B5A7B01F0004ABDD1D0023E8
:10353000060002912B7006AC590198005118013316
:1035400001510A2BF8D1E020FFF78CFF002802D1AF
:10355000002027B0F0BD2800FFF768FF80222B78FD
:103560001643B342F4D1FFF773FF031CB84200D9EE
:103570003B1CDAB20192029A1370019B002B1BD004
:103580000027019BBB421CDDFF20FFF739FF00260F
:10359000039023689B190293039BB34206DDFF202F
:1035A000FFF72EFF029B01361870F2E70023029A04
:1035B000013713700434E4E72900EE20FFF73DFFE4
:1035C000C6E72900EE20FFF738FF0120C1E7F8B574
:1035D000050008000E0017002C00FFF711FF631B09
:1035E0009E4204DD2078FFF70BFF0134F7E7012F3F
:1035F00002D1EE20FFF704FFF8BD10B50400000A69
:10360000FFF7FEFEE0B2FFF7FBFE10BD10B50400B1
:10361000FF20FFF7F5FE002C00D0207010BDF0B5A4
:1036200085B01F0002ABDC1D00230500E0200191E6
:1036300016002370FFF716FF002802D1002005B006
:10364000F0BD2000FFF7F2FE802223781543AB4245
:10365000F4D12000FFF7EAFE2378019A9342EDD1DE
:103660003800FFF7D3FF35003A78AB1B9A4204DDF0
:103670002800FFF7DBFE0135F6E72100EE20FFF71B
:10368000DCFE0120DBE7F7B56B46DC1D00230500FF
:10369000E0200E0017002370FFF7E4FE002801D1A0
:1036A0000020FEBD2000FFF7C1FE802223781543D5
:1036B000AB42F5D1FFF7CCFE00280DD03800FFF764
:1036C000A5FF35003A78AB1B9A4205DDFF20FFF7D6
:1036D00097FE28700135F5E72100EE20FFF7ADFEDB
:1036E0000120DEE770B50500FF20FFF789FE04002A
:1036F000FF20FFF785FE2402204380B2002D00D07A
:10370000288070BDF0B5002485B002AB0700DD1D38
:10371000E020019116002C70FFF7A4FEA04202D118
:10372000002005B0F0BD2800FFF780FE80222B7836
:103730001743BB42F4D1FFF78BFE00280ED03000B8
:10374000FFF7D0FF3388A34208D9019BFF201F1940
:10375000FFF756FE01343870A4B2F3E72900EE20DB
:10376000FFF76BFE0120DCE770B504000D000800D8
:103770001600FFF742FF6519AC4204D02078FFF72E
:103780003FFE0134F8E7012E02D1EE20FFF738FEAC
:1037900070BD70B5040002200D00FFF731FE200A55
:1037A000FFF72EFEE0B2FFF72BFE012D02D1EE2037
:1037B000FFF726FE70BD70B50400E0200D00FFF796
:1037C0001FFE7F202040FFF71BFE2800FFF718FE9A
:1037D000002D02D1EE20FFF713FE70BD10B51E20A4
:1037E00000F0A4FE431E984110BD000070B586B0E5
:1037F000050014000E000B22002102A803F06BF953
:1038000009232A0A6B441D705A702A0C2D0E9A70D7
:10381000DD700E236B441E80360C5E801323220A5B
:103820006B441C705A70220C240E9A70DC70144B7E
:103830001B78002B01D1FFF757FDFFF7EDFDFFF7D8
:10384000ABFD21200121FFF7B6FF6B460122D81DF9
:10385000FF2311000370FFF7BAFEFFF7F9FDFFF732
:10386000F7FDFFF7BFFDFFF7D7FDFFF795FD02AAB4
:1038700003212120FFF70CFEFFF7B4FD06B070BD59
:103880004503002070B586B06B46DE1D0C001500A8
:1038900030700622002103A803F01DF90D23220A2F
:1038A0006B441C705A70220C240E9A70DC70122328
:1038B0006B441D802D0C5D80124B1B78002B01D1B9
:1038C000FFF712FDFFF7A8FDFFF766FD01213A2083
:1038D000FFF771FF012230001100FFF778FEFFF7BC
:1038E000B7FDFFF7B5FDFFF77DFDFFF795FDFFF78E
:1038F00053FD03AA02213A20FFF7CAFDFFF772FD2C
:1039000006B070BD45030020124B13B51B78002B89
:1039100001D1FFF7E9FCFFF77FFDFFF73DFD002137
:103920002020FFF748FFFFF75DFDFFF775FDFFF76C
:1039300033FD6B469C1DFF2323706B46002207332B
:103940001A70012122002020FFF769FEFFF74AFDCF
:10395000207816BD4503002070B50500054C064AC9
:1039600020000649FFF742FF2800210000F09AFEE0
:1039700070BDC0467803002050030020540300208F
:10398000194B13B51B78002B01D1FFF7ADFCFFF7E6
:1039900043FDFFF701FD23200121FFF70CFF6B46DC
:1039A0000122981DFF2311000370FFF710FEFFF79F
:1039B0004FFDFFF74DFDFFF715FDFFF72DFDFFF75D
:1039C000EBFC0A4C20220021200003F084F86B4617
:1039D000002207331A70012122002320FFF71FFE67
:1039E000FFF700FD200016BD45030020580300200E
:1039F000164B13B51B78002B01D1FFF775FCFFF7B1
:103A00000BFDFFF7C9FC00213620FFF7D4FEFFF7BE
:103A1000E9FCFFF701FDFFF7BFFC6B4600229C1D90
:103A2000073322701A70012122003620FFF7F7FDBC
:103A3000002801D1FF232370FFF7D4FC2378012055
:103A4000FF2B00D016BD4042FCE7C04645030020D6
:103A5000114B13B51B78002B01D1FFF745FCFFF785
:103A6000DBFCFFF799FC00212720FFF7A4FEFFF7FE
:103A7000B9FCFFF7D1FCFFF78FFC6B46DC1D002380
:103A8000064A237021000A332720FFF74BFDFFF77A
:103A9000A9FC207816BDC046450300201800002070
:103AA00003000020092B02D801485B011818704759
:103AB000180000201FB56B46DC1D2070FF2309286D
:103AC0002BD8174B1B78002B01D1FFF70DFCFFF70C
:103AD000A3FCFFF761FC01213320FFF76CFE0122FC
:103AE00020001100FFF773FD0F24FFF7B1FCFFF773
:103AF000AFFCFFF777FCFFF78FFCFFF74DFC0E23C1
:103B000000226B446C441A70227001212200332081
:103B1000FFF785FDFFF766FC2378180004B010BDA1
:103B2000450300201FB56B460022DC1D20701300EA
:103B3000092829D8164B03921B78934201D1FFF72D
:103B4000D3FBFFF769FCFFF727FC01213220FFF7C9
:103B500032FE012220001100FFF739FDFFF778FC4B
:103B6000FFF776FCFFF73EFCFFF756FCFFF714FC6F
:103B70000B2300226B441A70012103AA3220FFF7A5
:103B80004EFDFFF72FFC039B180004B010BDC0468C
:103B9000450300201F4B73B51B780400002B01D197
:103BA000FFF7A2FBFFF738FCFFF7F6FB01213420FB
:103BB000FFF701FE200003F06DF80122C1B22000E2
:103BC000FFF705FD200003F065F80325441D2600DE
:103BD0002E4003D0FFF73CFC0134F8E7FFF702FC6E
:103BE000FFF71AFCFFF7D8FB6B469D1D9E712A005C
:103BF0000733012134201E70FFF711FDC4B2FFF717
:103C0000F1FB002C04D02C78013C60424441E4B22A
:103C1000200076BD45030020FF2130B587B00B00A2
:103C2000050000910A0004A800F022FD164B1B7845
:103C3000002B01D1FFF758FBFFF7EEFBFFF7ACFBC2
:103C400000213520FFF7B7FDFFF7CCFBFFF7E4FBC2
:103C5000FFF7A2FB0B2300226B441A70012103AA79
:103C60003520FFF7DCFC041E08D003A9280000F073
:103C700019FD059B6C68E41A631E9C41FFF7B2FBBB
:103C8000200007B030BDC0464503002010B50C0031
:103C9000FFF780FF03000020834202D02000FFF7DF
:103CA000BBFF10BD114B13B51B78002B01D1FFF7E3
:103CB0001BFBFFF7B1FBFFF76FFB00213720FFF77E
:103CC0007AFDFFF78FFBFFF7A7FBFFF765FB6B465E
:103CD0000022074C07331A70012122003720FFF71A
:103CE0009EFCFFF77FFB200016BDC0464503002069
:103CF0007C030020F7B51E00214B07001B780D0048
:103D00001400002B01D1FFF7EFFAFFF785FBFFF757
:103D100043FB03211920FFF74EFD00222900380044
:103D2000FFF755FC310020000022FFF750FC012274
:103D300008A811002C1DA419FFF749FC0326250033
:103D4000354003D0FFF784FB0134F8E7FFF74AFB67
:103D5000FFF762FBFFF720FB6B469C1D2200073339
:103D60000121192025701D70FFF759FC002801D191
:103D7000FF232370FFF736FB00202056FEBDC04610
:103D80004503002007B50021034800910B000A00FD
:103D900000F06EFC07BDC046480300202420704799
:103DA00070B50121202000F049FB0021202000F007
:103DB00091FB0A2000F04AF90021202000F03EFB90
:103DC000642000F043F9202000F0CCFA962305008F
:103DD0009B002F4C984222D92E49200000F08EFFE4
:103DE000200000F051FE03210B2000F0B7FB03215F
:103DF0000C2000F0B3FB00226B21200000F07AFEC3
:103E00000121200000F0B8FE1B21200000F0B4FECC
:103E10002000032100F058FE200000F04AFE1D495A
:103E2000200000F06BFF200000F02EFE03210B208D
:103E300000F094FB03210C2000F090FB00226B218A
:103E4000200000F057FE0721200000F095FE962389
:103E50002B219B009D4200D92039200000F08CFED0
:103E60000321200000F030FE200000F022FE01219E
:103E70001E2000F0E3FA01211E2000F02BFB01219F
:103E80001F2000F0DBFA01211F2000F023FB70BD92
:103E900004080020A086010010B5024802F02FFBA4
:103EA00010BDC0468403002010B5024802F027FB75
:103EB00010BDC046C00500207FB51949194800F063
:103EC00007FD1949194800F003FD1949194800F088
:103ED000FFFC1949194800F0FBFC194C1949200056
:103EE00000F0F6FC184E1949300000F0F1FC0125F5
:103EF00003233100019500930D220B33144802F087
:103F000093FA1D230393013B02931A3B01930095FF
:103F100018331B2221000F4802F042FA7FBDC04631
:103F200000080042FC070020000C004200080020AE
:103F3000001000420408002000140042080800207D
:103F40000C0800200018004210080020001C00424D
:103F500084030020C0050020FEE70000034B10B5DD
:103F60001B68002B00D0984710BDC04614080020E5
:103F700070B50F490F4CA14204D100F08FF802F048
:103F800095FCFEE70C4D00238D42F6D0CA18E818C8
:103F9000A24205D3094B8242EFD00949002204E036
:103FA000006804331060F1E704C38B42FCD3E4E7FC
:103FB00000000020200200202475000020020020C4
:103FC000500E002010B500F066F8002801D100F076
:103FD00057F810BD014B18607047C0461408002008
:103FE000014B18687047C04618080020F7B5134801
:103FF000012284461249134C8E68636805689B0E43
:104000001340019288686268019F920E3A406746A9
:104010003F6893420ED1BD420CD186420AD35B1950
:10402000FA254868AD00861B07486B437043000DB6
:10403000C018FEBD3D0013000600E3E7180800208D
:1040400010E000E000ED00E05555000070B5041EE2
:1040500010D0FFF7CBFF050000F01CF8FFF7C6FFFC
:10406000054B401B9842F7D9FA23013C9B00ED1801
:10407000002CF3D170BDC046E7030000704700007C
:1040800010B5034A13680133136000F0E5FB10BD5F
:104090001808002070470020704700001E2270B5ED
:1040A00046484749436893431C3A134343600823F7
:1040B0008C6923438B61434C434B9C829C8A144301
:1040C0009C82DC681442FCD00124404A14701578AC
:1040D000254203D055786DB2002DF8DB01249460A1
:1040E000547864B2002CFBDB394C5460547864B2D1
:1040F000002CFBDB8224E4015480547864B2002C51
:10410000FBDB02249C840E34DD682542FCD0314C5C
:10411000DC621024DD682542FCD09D8C2E4C2C43A3
:104120009C841024DD682542FCD002249D8C8026CE
:104130002C439C844024DD683542FCD0DD68254258
:10414000F9D01024DD682542FCD000249460547816
:1041500064B2002CFBDB214C5460547864B2002C18
:10416000FBDB1C6A1E4D2C4080251C621C6AAC4384
:104170001C62032393601B4B536053785BB2002B8C
:10418000FBDB0023FF240B72174A4B728B72CB723E
:10419000164B1A60164B174A1B6811689A065B018A
:1041A000C90E2340520F12020B431343124A1385C8
:1041B000802342681343436070BDC0460040004105
:1041C000000400400C06000000080040000C004005
:1041D00001050100B905FF7D040A00000007030086
:1041E000FFFCFFFF03060100006CDC025801002009
:1041F000246080002060800000400042FA21314BA2
:1042000010B51868890002F08BFB2F4B01389842DB
:1042100056D82E492E4A4860C020136A00061B0259
:104220001B0A03431362002407238C600B60802168
:10423000136A09061B021B0A0B431362FC22254B5F
:10424000196A0A431A62FC22196A92010A431A6225
:10425000A022196AD2020A431A6220000021013406
:1042600000F0ECF80F2CF8D11B4B1C005A7852B21E
:10427000002AFBDB194A5A80194B1A00597EC909DA
:104280000129FBD0E421C90099803F21D970537ED8
:10429000DB09012BFBD0C02300205B011361907070
:1042A00000F02EF863785BB2002BFBDB0D4B0E4A5F
:1042B0006380D379DB09012BFBD04123537010BD00
:1042C000FEE7C04658010020FFFFFF0010E000E0BD
:1042D00000ED00E000040040000C00401E40000023
:1042E000004000422140000000480042914202D0BC
:1042F00002D98A1AD0407047521A9040FBE700005A
:10430000164A00B51300517EC9090129FBD00138B6
:10431000042816D81969124A0A400F211A615A78DE
:104320008A4302F0F3FA0308060B0300110001228E
:104330000A435A7000BD11000322F9E7110002225E
:10434000F6E7F02311691B050B430F211361537826
:104350008B43190002230B435370EBE700400042EC
:10436000FFFFFFF010B504000E2800D80F34012124
:10437000200000F0F3F81823102163432A4CE418BE
:104380006156002901D014290DD1284B1800DA7983
:10439000D209012AFBD002241A78A2431A70C379E9
:1043A000DB09012BFBD022480300427ED209012AFF
:1043B000FBD01F2402692140A2430A4302615A7EB6
:1043C000D209012AFBD0022219780A431A705A7EB8
:1043D000D209012AFBD00222197B0A431A731A7EE2
:1043E000D207FCD501221A765A7ED209012AFBD0C7
:1043F0000222197B0A431A731A7ED207FCD5588B06
:1044000080B25A7ED209012AFBD002211A788A434F
:104410001A705A7ED209012AFBD0064B1A68064B45
:104420001968FFF763FF10BD687000000048004284
:1044300000400042600100205C010020182330B5DC
:104440001D00040045430820204A55192856013014
:1044500014D0032912D808006343D156D31802F0B0
:1044600055FA02280E1B5868CB010221184A9B18E6
:104470001A1840321170012282405A6030BD5868CB
:10448000CB010621124A9B181A18403211700122E2
:1044900082405A609A61F1E75868CB0106210C4AC4
:1044A0009B181A1840321170012282405A605A61DA
:1044B000E4E75868CB010221054A9B181A184032DC
:1044C0001170012282409A60D8E7C04668700000EF
:1044D000004400411823F0B508245843114A13182A
:1044E0001C5701341BD0012635005F688356BD4040
:1044F0000D4ADB019A18906805420BD10C00601E32
:104500008441D2194032107834400336A400B043BD
:1045100020431070044A9B18002901D15D61F0BD51
:104520009D61FCE76870000000440041182310B54D
:104530000824434307490020CA181457013408D0FF
:104540005B560549DB015B18186A5368D8400123A4
:10455000184010BD6870000000440041182242431A
:10456000F8B52C4E0300B218127A52B21400013280
:104570000ED0481C00240C280AD802F0C7F9071FE7
:104580001F1F1F1F1F1F1F0B0B0B0B00012464425B
:104590002000F8BD092905D100211800FFF74EFFC2
:1045A0000024F5E70A2901D10839F6E700240B2990
:1045B000EED10A391800FFF741FFE9E7182253430B
:1045C000F218556801202C00F356134ADB016E08DF
:1045D0009B18C9B204409E19002C0DD00F24303610
:1045E0003278090122401143C9B25B19317040335E
:1045F0001A7810431870D3E732000F27303216783C
:104600005B19BE433143117040331A781043187060
:10461000BEE7C0466870000000440041F7B5C31D06
:104620000193002306000D00041D009321780A2247
:10463000280000F0FAF82E210700280000F06EF89C
:10464000009B3F18DB190093019B01349C42EDD184
:10465000F17928000A2200F0E8F8009B1818FEBD46
:10466000024B08330360002343607047C8730000A7
:1046700030B503AC2578044CC57108340460017171
:104680004271837130BDC046C873000010B504008C
:10469000034B0422083308C002F014FA200010BDB6
:1046A000C873000010B504000422043002F00AFAB6
:1046B000200010BDF7B506000D000C008B1801930B
:1046C000019B671B9C4207D0336821781B68300030
:1046D000984701340028F3D13800FEBD70B50400BE
:1046E00008000D0002F0D6FA2368020029005B687A
:1046F0002000984770BD10B50B1E02D0FFF7EEFFEB
:104700000300180010BD10B503688A685B6809686B
:10471000984710BD10B5FFF7EEFF10BD10B5036848
:104720001B68984710BD0B0010B50A68010012689D
:104730001800904710BD000010B50249FFF7CEFFEA
:1047400010BDC046D473000070B50400FFF7D3FF5E
:1047500005002000FFF7F0FF401970BD70B505009F
:10476000FFF7E1FF04002800FFF7E6FF201870BD07
:10477000F0B58BB06B461500002205330600DA77E2
:104780000800012D00D80A2509AC290002F04EF9D5
:10479000CAB2130037330700DBB2092902D813006D
:1047A0003033DBB2013C2370002FEED1210030000A
:1047B000FFF7A1FF0BB0F0BDF8B506000C00151E09
:1047C00004D10368C9B21B689847F8BD0A2A0CD106
:1047D00000290BDA2D21FFF7A1FF614207002A0013
:1047E0003000FFF7C5FF3818EFE7D2B221003000E4
:1047F000FFF7BEFFE9E710B5FFF7DEFF10BD70B5AC
:104800000400FFF7D9FF05002000FFF795FF4019CE
:1048100070BD10B5002A04D10368C9B21B6898475F
:1048200010BDD2B2FFF7A4FFFAE710B5FFF7F1FF12
:1048300010BD000010B50400FFF720FC014B1C6008
:1048400010BDC046640100200122024B52421A6092
:104850007047C04664010020164A10B51368591C01
:1048600026D0013B1360002B22D172B6124B134AA3
:104870000433934213D9124A01211000147D0C42D3
:10488000FCD02021148BFF319B085B002143118356
:10489000D3610C4B13800123027D1A42FCD0BFF37D
:1048A0004F8F094B094ADA60BFF34F8FC046FDE7CF
:1048B00010BDC0466401002000200000030200007B
:1048C0000040004102A5FFFF00ED00E00400FA05F2
:1048D000016070479446F0B59E1E721E9641624676
:1048E000056892072F6836063A4332432A60072547
:1048F00005AC24780068A4012940214342680024C3
:10490000022B00D05C03114321434160F0BD30B560
:10491000C0250368AD031C6812052A402243C02449
:104920000904A40221401143196003685A68144322
:104930005C6030BD0123026811680B43136003689B
:104940001A68D207FCD4DA69D207F9D47047022377
:10495000026811680B4313600268D3699B07FCD49B
:10496000704703681A7ED20702D41A7E9207FCD5DC
:104970007047002203685A8370470368187E400717
:10498000C00F70470368187EC00970478023026813
:104990005B42117E0B43137670470368588B800788
:1049A000C00F704702230268518B0B43538370473B
:1049B0000368187EC007C00F70470368188DC0B227
:1049C000704703681A7ED207FCD589B20120198589
:1049D0007047012203689A757047012203681A75AF
:1049E0007047000070B5012604684B083340314021
:1049F000256809075B070B432B43236004685100BC
:104A0000034801F08DFF0138C0B2207370BDC0466D
:104A1000006CDC020123026811680B431360036819
:104A20001A68D207FCD4DA69D207F9D47047022396
:104A3000026811680B4313600268D3699B07FCD4BA
:104A400070470368DA699207FCD402211A688A4326
:104A50001A6070470268936A5B0A5B0219439162AD
:104A600003681A7E5207FCD5986AC0B270470123CA
:104A7000026811680B43136003681A68D207FCD4FC
:104A8000DA69D207F9D470470223026811680B4330
:104A900013600368DA699207FCD430215A8B8A4389
:104AA000110010220A435A830268D3695B07FCD4C1
:104AB00070470221026813688B4313600268D36950
:104AC0009B07FCD470470000032230B503681140F7
:104AD0001C68074D5A6809042A40E4061143640F14
:104AE0005960052C03D10268D3695B07FCD430BD43
:104AF000FFFFFCFF70B5056804006B8B9B069B0FE6
:104B0000022B0DD06B8B00209B069B0F032B32D00A
:104B10006B8B9B0704D56B8B9B069B0F012B2AD1BC
:104B20006B6A49001143DB0AC9B2DB020B436B62BB
:104B30002368002A13D11A7ED207FCD55B8B9B0613
:104B40009B0F022B04D0490800222000FFF7D2FF60
:104B50002368588B4007C30F012058400BE0187E94
:104B60008007C00FF4D11A7ED207F8D5C022596849
:104B700092020A435A6070BD0368283319700368B3
:104B8000187EC007C00F03D15A8BD207F8D57047E3
:104B9000588B4007C30F01205840F8E70368214AAB
:104BA00030B593422FD0204A93422FD01F4A9342D0
:104BB0002FD01F4A93422FD01E4A93422FD01E4A15
:104BC00093421FD10E2319220121032599401B482E
:104BD000C024016099082B40AB40FC359D40890002
:104BE0000918A4000859A843C0259D402B00034381
:104BF0000B518023DB011A43114B5A805A7852B271
:104C0000002AFBDB30BD09231422DDE70A2315222D
:104C1000DAE70B231622D7E70C231722D4E70D235C
:104C20001822D1E700080042000C004200100042A8
:104C30000014004200180042001C004200E100E0A5
:104C4000000C0040F8B504000F0016001D00FFF72F
:104C5000A5FF2000FFF76EFE1C21BB000B40710773
:104C60002268090C0B431360842322689375012F7B
:104C70001AD11021012E00D008390C4B6943186855
:104C8000C00001F04DFE0722216802408B895203CB
:104C9000DB04DB0C13438B81226803049089DB0C5B
:104CA000400B400318439081F8BDC04658010020D6
:104CB000F7B50600019308AB1F780D001400FFF74D
:104CC000A9FE3000FFF76AFFC022240592031440BA
:104CD000BA070C2717433C43C0270722BF022D0405
:104CE00033683D4025431D60019B316813401A0025
:104CF00080239B0213434B60F7BD0000F8B504000E
:104D00000F00FFF74BFF2000FFF7B1FE14222368CE
:104D100079001A600C4B25681E68300001F000FE17
:104D20000A490400300001F0FBFD7D23FA215843BD
:104D3000C90001F0F5FDFF23241AE868053C1C407A
:104D400098430443EC60F8BD5801002040420F0036
:104D50000020704770B50F26CB1D0139020032408C
:104D6000D5B22C0000093034092A00DD07341C704C
:104D7000013B8B42F2D170BD10B50C000B4B186893
:104D8000FFF7E8FF21000A4B08311868FFF7E2FF40
:104D90002100084B10311868FFF7DCFF2100064B9B
:104DA00018311868FFF7D6FF202010BD0CA0800036
:104DB00040A0800044A0800048A0800008B4024BBE
:104DC0009C46103808BC6047794D000070473F2072
:104DD000704713B56B460268D971073354681900E0
:104DE0000122A04716BD000070B50A260B7892B0CC
:104DF0006E44023305000B703C220021300001F0AC
:104E00006AFE394801AC06903848242107900620F4
:104E100020776846364AA1742281364A364BA281F1
:104E2000FD3AFF3A8018C177684623390630C177CA
:104E300068460730C17702A8C1770720F2770326BA
:104E400008316944C87703A9CE7710212B366E4408
:104E50003170092621851F3169440E700CA9053E69
:104E60000E7033212380022369440B7006360DA98E
:104E70000E7022493536A1863B216E44307010A851
:104E80006274E27702703D3269446A440B701370B9
:104E900040210022E37023716371A37341336B449B
:104EA000218719705A702B7DC039A370A372637764
:104EB0000133DBB2A3776A7D0B200D0068441543F4
:104EC000C5773120684403703A23501C6B44187036
:104ED000412302320A436B441A70210042220848DF
:104EE00000F064FF12B070BD100104240206052416
:104EF0000904000001020000080B00000705000083
:104F00008408002008B4024B9C46103808BC604757
:104F1000E94D000070B5027D0B790C0000259A4226
:104F20000BD10B784E78A12B09D1212E05D1072268
:104F30001F49204800F03AFF0135280070BD212BA1
:104F4000FBD1202E2BD1072219491A4800F070FE00
:104F5000174B1A785978090211439A7812041143B1
:104F6000DA7812060A439621C9008A421DD1DB79FC
:104F7000DB071AD4FA20FFF75DFC00210D4801F091
:104F800021F80125232ED8D1E378A2781B02134300
:104F9000094A00210748136001F014F8CDE7222EDA
:104FA000EFD18A78024BDA71D2E7FFF74DFCE4E7E4
:104FB0006C010020840800206801002008B4024B26
:104FC0009C46103808BC6047154F000010B5417D65
:104FD000006A013100F064FD034B1B6801335A1E67
:104FE0009341181810BDC0467401002010B5417DD2
:104FF000006A023100F06AFD10BD10B5417D006A03
:10500000023100F031FD10BD70B50D00417D04008E
:10501000130002312A00006A00F01EFE002801D1B0
:105020000123636070BD000010B5054C23685A1C55
:1050300004D103685B69984703002060180010BD25
:1050400074010020074A0300106810B5411C03D00A
:1050500001235B42136010BD597D186A013100F0D5
:10506000ABFDF8E774010020704700207047000096
:10507000FA239B0010B583600F4B0022C38203000C
:10508000283383610D4B04004260C2611800443331
:1050900023610830631D21622060DA778323A362D5
:1050A000813BE3628033236300F0C2F821001031BA
:1050B00000F092F8200010BD03020000D873000039
:1050C000022110B5094B1A68437D5B01D318FF33E9
:1050D0009C7A21439972437D0133DBB25B01D31883
:1050E0000122FF33997A0A439A7210BD3C0D0020C9
:1050F0007047000010B5FEF773FFF423FF33002460
:10510000984207D9044B0A20DC79631E9C41E4B223
:10511000FEF79CFF200010BD6C01002010B5024975
:105120000248FFF7A5FF10BD840800201C080020DE
:1051300070B50E0000254468002C0BD023683100A8
:105140005B6820009847002802DB2D18E468F3E72D
:1051500001256D42280070BD70B50D004468002C1B
:1051600008D0236829009B6820009847002802D1B6
:10517000E468F4E7200070BD70B50D0000264468B7
:10518000002C09D02368290020001B699847361895
:105190002D18F6B2E468F3E730002C7070BD70B5DE
:1051A0000D004468002C08D0236829001B682000EB
:1051B0009847002802D1E468F4E7200070BD70B57C
:1051C0000D004468002C06D023682000DB6829000D
:1051D0009847E468F6E770BDF0B58C794578030030
:1051E0002A190020072A1FDC5A68824216D159600A
:1051F0001A78C8790A7112184D711A7000220B4D75
:10520000D0B284420FD98F6858789600F75986003B
:105210000130775101325870F2E70200D06800285F
:10522000FBD1D160E4E70120F0BDC0465C0800205E
:105230000121064A10B5136805480B4004D18024AB
:10524000640004804360116010BDC0465008002017
:1052500054080020704710B5040001F04BFB2000FB
:1052600010BD0000F0B5822919D1C3B2294D5A01F1
:10527000AA189169284C80010C40C021890521435E
:1052800091612649083340187021506128685B01FC
:105290001A5C8A43110030220A431A54F0BD0029D7
:1052A000FCD1C026C1B21B4C4B01E3189A681A4DC1
:1052B000B6052A4032439A60194A800182185A6022
:1052C0000A000727246808325201115DB9430F0014
:1052D0000121394311559F6910493D4040182E4323
:1052E0009E6158617020115D8143080010210143C7
:1052F000115599680B48A2180840802149030143C1
:1053000099609968890B89039960402311790B434F
:105310001371C3E73C0D0020FFFFFF8FB008002092
:10532000700A0020FF3F00F0EFF3108303600123B9
:10533000436072B670470368002B02D162B6BFF3B8
:105340006F8F7047F7B50600FC36B3690400002B79
:1053500018D1B2277F00C55D6846FFF7E5FF019BC6
:10536000EDB2013B02D3E55DEDB2FAE76846019389
:10537000FFF7E1FF002D01D10020FEBD706E336EFE
:10538000C01AFAE76846FFF7CFFFD8220025019B35
:105390005200013B02D3A55CEDB2FAE768460193E7
:1053A000FFF7C9FF002DE7D0D6235B00E058043B90
:1053B000E358E5E710B54468FC3043690B48DBB2BD
:1053C0005A01A2189168083308408021490301431B
:1053D000916091685B01890B890391602268D31801
:1053E000402219790A431A7110BDC046FF3F00F0F0
:1053F000F7B50500FC356B694268DBB219000400A3
:105400000831106849014118C979C90711D55B01F4
:10541000D21893689B049B0C0CD12000FFF7CAFFA5
:1054200063681A686B69DBB208335B01D3187F22AB
:10543000DA71F7BDE969002923D16B6623000126E3
:105440006933FF33EE6168465360B227FFF76CFFA4
:105450007F00B221019BFF31013B5A1C38D0D8227A
:10546000E6555200A25C581ED2B26254625C844679
:10547000002A04D120000193FFF79CFFE9E763466F
:10548000EBE7D621490063500023EB6123001D3375
:10549000FF3353606846D826FFF746FF01277600A2
:1054A000B221019BFF31013B5A1C11D0B222A755FA
:1054B0005200A25C581ED2B26254625C8446002A3A
:1054C00004D120000193FFF775FFE9E76346EBE79E
:1054D00068460193FFF72FFFA2E7F7B5060068467D
:1054E0003400FFF721FF0027FF22019BFC34013B22
:1054F0000DD3E0682169884204DBE7682069D71B87
:105500003F18F4E72769E1687F1A013FEFE7684633
:105510000193FFF710FFA3696846002B52D1FFF7F4
:1055200003FFB221019B4900013B5A1C0CD0755C62
:105530005A1EEDB2002D05D168460193FFF7FBFE20
:105540002800FEBD1300F0E7684601930025FFF731
:10555000F2FEFF22236EBD4214D0616E994211D932
:10556000591CF3182166FF33587FE3682169013322
:10557000C0B213408B4203D0E16871180872E36037
:105580000135E7E7626E9A42DAD1002323660133E0
:10559000A3616846B224FFF7C7FE6400B22200216F
:1055A000019BFF32013B581CC6D03155B05C5F1ED9
:1055B000002805D0B15430000193FFF7FBFEEDE762
:1055C0003B00F0E7FFF7B0FED821019B4900013B0B
:1055D0005A1C06D0755C5A1EEDB2002DACD01300DB
:1055E000F6E768460193FFF7A6FED623D4225B00B8
:1055F00000259C465200B358BD4203D06146715805
:10560000994220D86246B2589A4299D1D4220023B6
:105610005200B3506846A361D824FFF785FE6400AA
:10562000B2220021019BFF32013B581C00D183E7CD
:105630003155B05C5F1E002819D0B1543000019381
:10564000FFF7B8FEECE7591CB150FF21F31869339E
:10565000FF331878E368C0B201330B4021698B42F5
:1056600003D0E16871180872E3600135C3E73B00BD
:10567000DBE710B50400FFF730FF2300FC331969A6
:10568000DA68914203D01B69E418207A10BD01202A
:105690004042FBE710B50400FC34FFF71EFFE06852
:1056A0002369C01A01D50130FF3010BDF0B585B0B7
:1056B000019200910500FFF710FF02A8FFF734FEEA
:1056C00001200024FF26039B40425A1E531C1FD07A
:1056D0002B00FC3301998C4218D2D9681F69C91B71
:1056E00001D50131FF31002910D01969DF688C46DE
:1056F0000100BC4506D019691F6969180137374098
:10570000097A1F61009F39550134E3E7013ADDE76B
:1057100002A80392FFF70FFE200005B0F0BD37B5D9
:105720006B46DC1D00230D002370FFF781FD210077
:10573000FFF7FEFC2B681818286020783EBD00009B
:105740002023F7B5414A0500D1690F200B43D361EF
:1057500001223F490B7813430B703E4B197881436C
:10576000197006211C78214319703B490C7822439B
:105770000A701A7802401A70602219780A431A7067
:10578000364B374A5A805F78FF09FCD13548FEF71F
:1057900021FC0123344C354E2268300011780B4334
:1057A000137080223900520001F095F92268937835
:1057B000DB07FCD456621F262D4B1B68590B980C37
:1057C0009B01314030405B0FB14200D105211F28C1
:1057D00000D10238072B00D1043B31408901178DDD
:1057E0000191244930400F40019939431185118DB1
:1057F0000700B143080038431085118D18031E4B74
:105800000B407F21034313851378C1200B40137095
:1058100004232268800011780B430C211370226846
:1058200013898B43154913810B581B021B0A0B501C
:1058300080230B6011787E3B0B4313700123002102
:105840002B700F48FFF754FCF7BDC0460004004022
:10585000584400413C44004159440041000C004080
:1058600006400000D56100003C0D0020400D0020E6
:10587000246080003FF8FFFFFF8FFFFF00E100E0A2
:105880001C0800200078002810D00121084B1B685C
:105890001A898A431A810822198B0A431A8304221F
:1058A000198B0A431A830022024B1A607047C046C4
:1058B0003C0D0020340D002010B50F4A93699B0B5E
:1058C0009B03936113680222FF331A729879823A1C
:1058D00002439A711A7A9207FCD57F24074A214025
:1058E000937A0800A3431900802301439172917AAF
:1058F0005B420B43937210BD3C0D002000500041F1
:1059000010B50C00FFF794FC2100FFF748FC0028BD
:1059100004D1034A93699B0B9B03936110BDC0465E
:105920003C0D0020F7B50D00832A19D1CBB2404CB5
:105930005A01A21891693F48AD010840C02189056C
:10594000014391613C4920686D187021083355610D
:105950005B011A5C8A43110040220A431A54F7BDC6
:10596000022A5FD1354B8A00D058002802D0036844
:105970005B699847DA20400000F0B8FF80220400FD
:105980002B4E2F4B4660036052000021083001F07F
:10599000A2F82200B2210023FC324900D3605561F5
:1059A000136113669361D36153666354443163504A
:1059B0000431635004316354B221FF316354FF203A
:1059C0002B0003405901019371188F68194BAD00EA
:1059D0003B40C027BF051F438F600727019B3668E8
:1059E00008335B01995DB9430F0003213943995591
:1059F00023005169666801401D334901FF33711866
:105A00004B60636852691B68024052019B18012277
:105A10001B18997A20000A439A72FFF7CBFC074BB8
:105A2000EC509CE711002800FFF71CFC97E7C046EC
:105A30003C0D0020FFFFFF8FB008002088080020E9
:105A40003874000070B505000124064BA200D2583E
:105A5000002A06D0210028000134FFF763FF0A2C3A
:105A6000F3D170BD5C0800200B4BCAB20B48890112
:105A7000C9185301C318596199690832890B890300
:105A80009961036852019A180223D3715179823BBC
:105A90000B4353717047C046B00800203C0D0020F6
:105AA000084B8A00D05810B5002803D003689B68C3
:105AB000984710BDC9B2044B490159188868800441
:105AC000800CF6E7880800203C0D002010B50C0083
:105AD000FFF7E6FF00280CD0064BE4B21B68083441
:105AE00064011C19802362795B42134363710223B2
:105AF000E37110BD3C0D0020F0B51C002A4B85B0B1
:105B00001B6807000D000292002B4AD0274B8A0029
:105B1000D058002808D0036822005B680299984793
:105B20000400200005B0F0BD3800FFF7B9FF844243
:105B300004D929003800FFF7B3FF04000121EBB2BC
:105B40001B4E03935B010193F21893689B0B9B031D
:105B50009360019A336802989B18FF335A7A0A437C
:105B60005A72144BA901C918220000F0ABFF002C97
:105B7000D7D029003800FFF793FF0028D1D140216A
:105B8000039B326808335B01D318187901431971FC
:105B90000121D971019BD318FF339A7A0A439A7273
:105BA000BFE701246442BCE7340D002088080020D0
:105BB0003C0D0020700A002013B56B46DC1D22004E
:105BC0000123FFF799FF012801D1207816BD01209C
:105BD0004042FBE770B5CBB2124A13485C01890121
:105BE0008918021951609168104D08330D408021C9
:105BF00049032943402591609168890B890391608D
:105C000001685A018A1816793543157195796D0620
:105C1000FCD55B01C918CB79DB07FCD5001980687E
:105C2000C0B270BD700A00203C0D0020FF3F00F0A4
:105C300070B50D0000211400FFF7CCFFA04200D981
:105C4000200000230349A34203D0CA5CEA54013375
:105C5000F9E770BD700A0020F0B51E003A4B85B020
:105C60001B680F000192002B35D08023DB019E4280
:105C700031D80025354B8A01D3180293002E2CD041
:105C8000334B1B680393FF233B401C0000930834F5
:105C9000039B64011C19A379DB0921D02D4B2E49EC
:105CA000186800F03DFE2D4B1721584300F038FED8
:105CB0002B4BE279920713D4DA5D002A01D1013827
:105CC000F7D20122DA55009B5A01214B9B189A69A1
:105CD000920B92039A6101256D42280005B0F0BD38
:105CE00000221F4B3400DA553F2E09D9009B402477
:105CF0005A01174B9B188022996912060A439A6130
:105D000022000199029800F0DDFE009BA1045A01D7
:105D10000F4B890C9B18029A2D195A619A69361BF0
:105D2000920B92030A439A61009B039A08335B012A
:105D3000D3180222DA715979823A0A435A71019BC7
:105D40001B1901939AE7C046340D0020B0080020CB
:105D50003C0D00205801002040420F00701101004E
:105D6000A508002070B50D001C000D4BAE01F61803
:105D700011003000220000F0A5FEEDB209496D01CE
:105D80004D196E61AB69084A20001340AB61AB69E5
:105D9000A2049B0B920C9B031343AB6170BDC046E6
:105DA000B00800203C0D0020FF3F00F0F7B5104B7D
:105DB00001901B780F001500002B0CD10D4B160025
:105DC0001C78002C09D00C4E0C483488201864191B
:105DD00000F078FE34802800FEBD002EFBD03A197A
:105DE000330000210198FFF7BDFF2418361AF4E7AD
:105DF000300C0020310D0020320D0020310C00202D
:105E0000F8B50F0016000024012A26D9100000F072
:105E100045FE0500380000F03DFF0323022201305B
:105E2000400028706B7096420DD9397800290AD04D
:105E3000531CDBB20137A9549E4203D00232EC540A
:105E4000D2B2F0E7320029000548FFF7AFFF441E49
:105E5000A041C4B2280000F02BFE2000F8BDC046CF
:105E600084080020F0B50024012685B0184B0F00EF
:105E700069461E7005000094FFF751FC154B01A9FF
:105E80000B806A3BFF3BCB715A330B72009B8C71CA
:105E900009334B800E4B4E7108711C703A00092F6C
:105EA0000FD00D4F09223E700C4E28000094348014
:105EB000FFF77CFF69462800FFF731FC328808496C
:105EC0003C702800FFF772FF012005B0F0BDC0460E
:105ED000300C002009020000310D0020320D00209E
:105EE000310C002070B5CE7892B005000C00022E67
:105EF0000BD18B79C9792E4809021943FFF7B2FFFC
:105F0000411E8841C0B212B070BDFFF791F9210067
:105F1000FFF722F9002803D0C117081AC00FF2E7D3
:105F2000012E0ED1E279A37912021A432149112AD6
:105F30003CD8D2B2002A39D02800FFF737FF012021
:105F4000E1E7032EDFD1A378002B28D0022B08D164
:105F5000E279A379120218491A432800FFF750FF8B
:105F6000D1E7012B05D1E279A37912021A43134933
:105F7000F3E7032BC7D10100412201A800F0ABFDDC
:105F8000FFF756F901A9FFF7F7F8002805D0E279E5
:105F9000A37912021A4301A9DFE70378FFDEE27951
:105FA000A37912021A430649032AC2D90A78C3E721
:105FB000840800207A740000547400006E7400009D
:105FC0006A740000CBB204495B01C9188B699B0B52
:105FD0009B038B617047C0463C0D002037B5050020
:105FE00048780C000B2810D800F090FC061B0F2BF3
:105FF0000F404561494C5A5D097801AA002906D134
:10600000022311802800FFF7ADFE01203EBD0023D2
:106010001380284B1B78012B00D113700223002121
:10602000F0E78A780023012A03D101AA1380224BCA
:10603000F0E7204A1370214A93699B0B9B039361FD
:10604000E3E78C78012C06D100211B4B01AA1C70C0
:1060500011702300D6E70120002CD7D1154B174A29
:10606000187093699B0B9B039361CFE78978280095
:10607000FFF722FCC9E72800FFF734FFC6E701233A
:106080000F4ACCE70B780020DB06BFD12800FFF7D2
:10609000D9FCA2780A4B0B481A60FFF711F8CAE73F
:1060A0000123094ABBE78A78074B1A60C3E700203F
:1060B000ACE7C046A4080020AC0800203C0D00203E
:1060C000340D00201C080020380D00203B4BF7B594
:1060D0001E780500002E5FD1394C23689A8B120779
:1060E0000DD5082231009A833000FFF7BBF810224B
:1060F0002368FF33997A0A439A72324B1E602368F1
:106100009A8B520701D504229A83FF331A7A92069A
:1061100003D52022597A0A435A721A7AD20623D515
:1061200069460800284AC0CAC0C0A268920B920300
:10613000A2604022587902435A7160230A782800ED
:106140001A422AD1FFF74AFF2368FF33002827D0DD
:106150008022997952420A439A711A7A520603D5DB
:106160004022597A0A435A727F2601252368FF3359
:106170001E722F00236808377F01DB19DB79002BA3
:1061800007D0124BAA00D05800280DD003681B6816
:1061900098470135082DECD1F7BDFFF7B1FBD3E7E8
:1061A00020210B4A9171D8E7FFF742F82900FFF749
:1061B00006F82368DF19FE71EBE7C046310D0020B9
:1061C0003C0D0020340D0020700A002088080020BB
:1061D000FF50004110B50248FFF778FF10BDC046E0
:1061E00084080020014B024A1A6070473C0D0020D1
:1061F000005000410120704710B50368014A1B6A36
:10620000984710BD130400000300FC33D9699A6954
:10621000914203D0DB69C018007D704701204042E5
:10622000FBE710B504000069FEF784FB22000023A1
:10623000FC329361D36186229200A4186360A3604C
:1062400010BDF02001403039484248417047F023EA
:106250001B011940802306209B0099420AD001337C
:10626000FF330130994205D0802302385B00994208
:1062700000D0002070470F2001400020012903D0EA
:106280000239481E8141481C704700008923F0B53F
:10629000182685B002919B000400C05C33000821E1
:1062A0004343324D1700EB185956FEF757F9304B60
:1062B0000821E05C33004343EB185956FEF74EF9D2
:1062C0002C4BE25C0393022A09D11133E05CFF28D6
:1062D00005D008214643AE197156FEF73FF98A26CC
:1062E000B600A05DFF2819D00121FEF7A7F81822FB
:1062F000A35D21495A43AB56AD18DB0158188B21D9
:10630000890060501D4901225B188C21890063506F
:1063100069688A408D21890062501A600122029BBF
:1063200011002069FEF78EFC39002000FFF78FFF77
:10633000390005002000FFF79EFF3900060020000D
:10634000FFF77FFF33000090290020690122FEF74C
:10635000C1FA0B4B2069E25C039BE15CFEF7D7FAC4
:106360002069FEF7F4FA05B0F0BDC0466870000081
:106370002502000027020000184400411444004197
:1063800026020000802210B504005200002100F017
:10639000A2FB23000022FC335A6020009A6010BD4B
:1063A000F0B585B01D000AAB1B78040000930BAB61
:1063B0001B78160001930CAB1B780F0002930DABFA
:1063C0001B78039300234360FA239B008360124BE6
:1063D000083303601430FFF7D5FF20001D30FF3075
:1063E000FFF7D0FF89236A469B002761E6540B4BD9
:1063F0001278E5540A4B2000E2546A46094B1279A0
:10640000E2546A46127A0133E2546A46127B103330
:10641000E25405B0F0BDC0468C74000025020000B7
:106420002602000027020000F7B51D0008AB1B780C
:106430000400009309AB1B7816000193002343600E
:10644000FA239B008360114B0F0008330360143064
:10645000FFF798FF20001D30FF30FFF793FF8923DF
:106460006A469B002761E654094B1278E554094BB4
:106470002000E2546A46084B1279E2548A22293BF2
:10648000FF3B9200A3541032A354FEBD8C74000055
:106490002502000026020000270200000300FC3352
:1064A00058689B68C01A01D50130FF30704710B59D
:1064B000040020001D30FF30FFF7F0FF0028F8D166
:1064C0002069FEF74EFA10BD10B51430FFF7E6FF55
:1064D00010BD0300FC3359689A68914204DB5A6886
:1064E0009868801AFF30704798685B68C01A013856
:1064F000F9E710B51D30FF30FFF7EBFF10BD10B509
:1065000004000069FEF749FA002805D02069FEF76B
:1065100054FA2069FEF746FA2069FEF72EFA0028A1
:1065200020D02069FEF749FA2200FC329369D16934
:106530000133DBB28B4203D0916961180875936116
:106540008A239B00E35CFF2B0CD020001430FFF764
:10655000C0FF092806DC8B238D229B009200E358A4
:10656000A2581A602069FEF723FA00281AD02000EA
:106570001D30FF30FFF792FF002822D086239B00BA
:10658000E31899685A68914218D08E219A68490098
:10659000A218515C9A680132D2B29A60C9B22069DD
:1065A000FEF70FFA2069FEF7EDF9002805D0206903
:1065B000FEF7ECF92069FEF7DCF910BD0121494234
:1065C000ECE72069FEF709FAECE7000070B504007B
:1065D00000690D00FEF7ECF900283ED1FF26862366
:1065E0009B00E3185A689968013232408A4223D1ED
:1065F000EFF31083DB0710D41E4B5B68DB05DB0D6C
:10660000EDD0103B5BB2002B10DA0F221340083B99
:106610009B08194A9B009B181B682069FEF7C8F964
:106620000028DCD02000FFF76AFFD8E79B08C033C2
:10663000124A9B009B58F0E75A68013216409A684C
:10664000964205D08E215A684900A21855545E60C2
:106650002069FEF7BEF9012070BD20001D30FF301B
:10666000FFF71CFF0028B9D129002069FEF7A9F91E
:10667000F1E7C04600ED00E01CED00E000E100E0C5
:10668000030070B5FC33D9699A69040091421AD0AD
:10669000DA698218157DDA690132D2B2DA618A23A9
:1066A0009B00E35CFF2B0CD020001430FFF711FFA0
:1066B0000A2806DD8C238D229B009200E358A25805
:1066C0001A60280070BD01256D42E8E710B504008E
:1066D0000068002801D000F0EBF9200010BD10B5D3
:1066E00004000068002801D000F0E2F900232360D4
:1066F000A360636010BD70B504000D000068013137
:1067000000F09AFA031E01D0012028C470BD03686E
:1067100010B50400002B04D043688B4201D3012044
:1067200010BD2000FFF7E7FF0028F9D0A368002B79
:10673000F5D122681370F2E770B50E001100040065
:106740001500FFF7E4FF002804D12000FFF7C7FF82
:10675000200070BDA5603100206800F093FAF7E7D3
:10676000002370B504000D0003604360836099420C
:1067700007D0080000F08EFA290002002000FFF781
:10678000DBFF200070BD70B5050008000C0000F0B4
:1067900081FA210002002800FFF7CEFF70BD10B57E
:1067A0000400002903D0FFF7EEFF200010BDFFF723
:1067B00096FFFAE7F8B504000F1E02D1002630005C
:1067C000F8BD0126002AFAD08368D5182900FFF702
:1067D0009EFF0028F2D02368A2683900981800F0C4
:1067E00051FAA560EBE707B5002201AB19705A70AA
:1067F00019000132FFF7DEFF0EBD10B58A68096887
:106800000400FFF7D7FF002802D12000FFF767FF41
:10681000200010BD70B504000D1E04D12000FFF74C
:106820005EFF200070BD080000F034FA290002006D
:106830002000FFF7BFFF0028F0D0F2E7026810B594
:106840000B68002A13D0002B0CD181681800002996
:1068500007D0107805E089681000002901D0187869
:10686000404210BD1900100000F002FAF9E7002BB9
:10687000F1D11800F5E710B5FFF7E0FFC00F10BD2C
:1068800010B582688C680023A2420CD3006898423D
:1068900009D00968994206D0121B801800F0E8F967
:1068A00043424341DBB2180010BD000010B5FDF7B4
:1068B000A5FC00F0CFF8FDF773FA0120FDF7C6FB49
:1068C000084C2000FEF73CFF2000FEF7DBFFFBF743
:1068D00015FCFBF747FD044B002BFAD000E000BF8E
:1068E000F7E7C046840800200000000010B500F063
:1068F000D5F810BD10B500F0DBF810BD0B0010B5D9
:106900000100180000F098F810BD000002B47146B4
:1069100049084900095C49008E4402BC7047C046E2
:10692000002243088B4274D303098B425FD3030ACE
:106930008B4244D3030B8B4228D3030C8B420DD3E1
:10694000FF22090212BA030C8B4202D3121209026F
:1069500065D0030B8B4219D300E0090AC30B8B42AD
:1069600001D3CB03C01A5241830B8B4201D38B035B
:10697000C01A5241430B8B4201D34B03C01A524100
:10698000030B8B4201D30B03C01A5241C30A8B4243
:1069900001D3CB02C01A5241830A8B4201D38B022E
:1069A000C01A5241430A8B4201D34B02C01A5241D2
:1069B000030A8B4201D30B02C01A5241CDD2C30944
:1069C0008B4201D3CB01C01A524183098B4201D3C0
:1069D0008B01C01A524143098B4201D34B01C01AAB
:1069E000524103098B4201D30B01C01A5241C30823
:1069F0008B4201D3CB00C01A524183088B4201D392
:106A00008B00C01A524143088B4201D34B00C01A7D
:106A10005241411A00D20146524110467047FFE7E9
:106A200001B5002000F006F802BDC0460029F7D0ED
:106A300076E770477047C04610B50400044813005D
:106A4000002804D00A000220210000E000BF10BD91
:106A50000000000070B500260C4D0D4C641BA41006
:106A6000A64209D1002600F05BF90A4D0A4C641BCE
:106A7000A410A64205D170BDB300EB58984701366B
:106A8000EEE7B300EB5898470136F2E7DC0100204F
:106A9000DC010020DC0100201402002010B5034BB3
:106AA0000100186800F06AF810BDC04678010020A7
:106AB00010B5034B0100186800F016F810BDC04671
:106AC00078010020002310B59A4200D110BDCC5CA3
:106AD000C4540133F8E703001218934200D1704701
:106AE00019700133F9E7000070B50500002910D0D6
:106AF0000C1F2368002B00DAE418280000F0D1F8FE
:106B00001D4A1368002B05D163601460280000F053
:106B1000C9F870BDA34209D9216860188342F3D136
:106B200018685B6841182160EEE713005A68002A74
:106B300001D0A242F9D919685818A0420BD1206897
:106B40000918581819608242E0D11068526841183B
:106B500019605A60DAE7A04202D90C232B60D5E70E
:106B600021686018824203D1106852684118216080
:106B700062605C60CAE7C046400E0020032370B527
:106B8000CD1C9D43083506000C2D1ED20C25A942B4
:106B90001DD8300000F085F8254A1468210000292E
:106BA00019D1244C2368002B03D1300000F04EF89B
:106BB00020602900300000F049F8431C2BD10C2341
:106BC0003000336000F06EF803E0002DDFDA0C23B4
:106BD0003360002070BD0B685B1B19D40B2B03D9ED
:106BE0000B60CC18256003E04B688C420DD113601C
:106BF000300000F057F8200007220B30231D90438F
:106C0000C31AE7D05A42E250E4E763600C00EFE7B2
:106C10000C004968C3E70323C41C9C43A042E1D095
:106C2000211A300000F012F8431CDBD1C7E7C04640
:106C3000400E0020440E002010B5034B0A00010056
:106C4000186800F030F810BD78010020002370B5FE
:106C5000064C05000800236000F054F8431C03D1E3
:106C60002368002B00D02B6070BDC0464C0E002066
:106C700002780B78002A03D0013001319A42F7D014
:106C8000D01A704703000A7801311A700133002AC4
:106C9000F9D170470023C25C0133002AFBD1581E92
:106CA000704770477047F8B507000D0016000029BF
:106CB00005D11100FFF762FF04002000F8BD002A93
:106CC00003D1FFF711FF3400F7E700F012F82C00B2
:106CD000B042F2D231003800FFF750FF041EECD072
:106CE00029003200FFF7EEFE29003800FFF7FCFE16
:106CF000E3E70B1F1B68181F002B01DA0B58C018A5
:106D000070470000044A1368002B00D1034B181889
:106D1000106018007047C046480E0020500E00203A
:106D2000F8B5C046F8BC08BC9E467047F8B5C046EA
:106D3000F8BC08BC9E4670476E657720636C696539
:106D40006E7400485454502F312E31203230302090
:106D50004F4B00436F6E74656E742D747970653A95
:106D6000746578742F68746D6C003C73656C656332
:106D70007420666F726D3D22666D222069643D222B
:106D800063617273223E003C6F7074696F6E20768F
:106D9000616C75653D22003C2F6F7074696F6E3EAB
:106DA000003C2F73656C6563743E003C666F726DCA
:106DB0002069643D22666D22003C6C6162656C2036
:106DC000666F723D2270617373223E4669727374FE
:106DD000206E616D653A3C2F6C6162656C3E003CD3
:106DE000696E70757420747970653D22746578746D
:106DF000222069643D22666E616D6522206E616DA0
:106E0000653D22666E616D65223E3C62723E3C626B
:106E1000723E003C696E70757420747970653D2215
:106E20007375626D6974222076616C75653D2253BD
:106E300075626D6974223E003C2F666F726D3E0074
:106E4000474554202F4800474554202F4C00636C81
:106E500069656E7420646973636F6E6E65637465D3
:106E600064005363616E6E696E6720617661696C60
:106E700061626C65206E6574776F726B732E2E2E57
:106E800000486572426F205374617274002A2A2090
:106E90005363616E204E6574776F726B73202A2A7C
:106EA00000436F756C646E277420676574206120E1
:106EB0007769666920636F6E6E656374696F6E00D3
:106EC0006E756D626572206F6620617661696C61B6
:106ED000626C65206E6574776F726B733A0029205F
:106EE00000095369676E616C3A20002064426D00AE
:106EF00009456E6372797074696F6E3A200053535E
:106F000049443A2000495020416464726573733AE1
:106F10002000546F20736565207468697320706168
:106F2000676520696E20616374696F6E2C206F70D5
:106F3000656E20612062726F7773657220746F20B6
:106F4000687474703A2F2F00574550005750410015
:106F500057504132004E6F6E65004175746F005599
:106F60006E6B6E6F776E00436F6D6D756E696361EA
:106F700074696F6E20776974682057694669206D5F
:106F80006F64756C65206661696C65642100312EE3
:106F9000322E3100506C65617365207570677261C7
:106FA000646520746865206669726D77617265003A
:106FB0004372656174696E672061636365737320F2
:106FC000706F696E74206E616D65643A2000437263
:106FD000656174696E672061636365737320706FA8
:106FE000696E74206661696C6564004E6F20536F32
:106FF000636B657420617661696C61626C65000029
:107000000000000000000000752800004D2A00006C
:1070100071280000892800007D2A0000952A0000C0
:10702000D92A0000D928000099280000C12A0000B0
:10703000592B0000952B00008B28000051290000DF
:10704000C92900000B2B0000E92A00000000000005
:10705000000000000B2C0000392C000071280000FB
:10706000092C00001F2C000000000000160000008A
:10707000080000001C000000FF00000400040600DF
:107080000000000017000000080000001C000000C5
:10709000FF00010401040700000000000A000000D6
:1070A000080000001C000000120000010001FF00A9
:1070B000000000000B000000080000001C000000A1
:1070C000130001010101FF00010000000A0000009F
:1070D000080000001C000000FF00000500050A0079
:1070E000010000000B000000080000001C00000070
:1070F000FF00010501050B00000000001400000066
:10710000080000002C000000FF0002000200040044
:107110000000000015000000080000002C00000026
:10712000FF00030003000500000000001000000045
:10713000020000001C000000FF000002000200002E
:107140000000000011000000020000000400000028
:10715000FF00FFFFFFFF0100000000001300000020
:10716000020000001C000000FF0001030103FF00FB
:107170000000000008000000030000000400000000
:107180001000FFFFFFFF10000000000009000000DA
:1071900003000000040000001100FFFFFFFFFF00DC
:1071A00001000000170000000300000004000000C0
:1071B000FF00FFFFFFFFFF000100000016000000BE
:1071C0000300000004000000FF00FFFFFFFFFF00BE
:1071D00000000000020000000100000006000000A6
:1071E0000000FFFFFFFFFF000100000002000000A1
:1071F00001000000040000000A00FFFFFFFF020082
:107200000100000003000000010000000400000075
:107210000B00FFFFFFFF0300000000000400000060
:10722000010000001C000000040000000000FF003E
:107230000000000005000000010000001C0000002C
:10724000050001000100FF00000000000600000032
:1072500001000000040000000600FFFFFFFFFF0028
:107260000000000007000000010000000400000012
:107270000700FFFFFFFFFF000000000018000000F4
:107280000600000000000000FF00FFFFFFFFFF00FE
:1072900000000000190000000600000000000000CF
:1072A000FF00FFFFFFFFFF000000000012000000D2
:1072B0000800000004000000FF00FFFFFFFFFF00C8
:1072C00000000000030000000800000004000000AF
:1072D000FF00FFFFFFFFFF00000000000C000000A8
:1072E0000300000000000000FF00FFFFFFFFFF00A1
:1072F000000000000D00000003000000000000007E
:10730000FF00FFFFFFFFFF00000000000E00000075
:107310000800000000000000FF00FFFFFFFFFF006B
:10732000000000000F00000003000000000000004B
:10733000FF00FFFFFFFFFF00000000001B00000038
:107340000800000000000000FF00FFFFFFFF0F002B
:107350000100000008000000080000000600000016
:107360000200FFFFFFFFFF00010000000900000016
:1073700001000000180000000300010401040900DE
:1073800000000000000000000800000000000000F5
:10739000FF00FFFFFFFFFF000000000001000000F2
:1073A0000800000000000000FF00FFFFFFFFFF00DB
:1073B000000000001C0000000800000004000000A5
:1073C000FF00FFFFFFFFFF000000000000000000C3
:1073D0001D4600000D0A0000000000000000000033
:1073E000D34D000009500000CF4D0000ED4F0000CC
:1073F000CD4F00004550000029500000FB4F000019
:10740000E94D0000514D0000154F0000794D00007E
:10741000CD4D0000F0FFFFFF00000000BD4F000059
:10742000054F00006B50000069500000BD4D00008A
:107430000000000000000000F1530000AD56000005
:107440009556000073560000555200005752000038
:107450004553000041726475696E6F204D4B522098
:107460005769466920313031300004030904417204
:107470006475696E6F204C4C430012010002EF02EC
:10748000014041235480000101020301000000007B
:1074900000000000CD650000B5460000F364000068
:1074A000AF640000C964000081660000096200004A
:1074B000F96100008D62000023620000F5610000A8
:1074C00000000000000000000000000000000000BC
:1074D00000000000000000000000000000000000AC
:1074E000000000000000000000000000000000009C
:1074F000000000000000000000000000000000008C
:10750000000000000000000000000000000000007B
:10751000000000000000000000000000000000006B
:047520000000000067
:107524000000000001486572426F506173730048A7
:107534006572426F0007050A310000000000000078
:107544000000000000000000000000000000000037
:1075540000000000000000003200000000000000F5
:107564000000000000000000000000000000000017
:1075740000000000000000003300000000000000D4
:1075840000000000000000000000000000000000F7
:1075940000000000000000003400000000000000B3
:1075A40000000000000000000000000000000000D7
:1075B4000000000000000000350000000000000092
:1075C40000000000000000000000000000000000B7
:1075D40000000000000000000000000000000000A7
:1075E4000000000000000000000000000000000097
:1075F4000000000000000000000000000000000087
:107604000000000000000000000000000000000076
:107614000000000000000000000000000000000066
:107624000000000000000000000000000000000056
:107634000000000000000000000000000000000046
:107644000000000000000000000000000000000036
:107654000000000000000000000000000000000026
:107664000000000000000000000000000000000016
:10767400000000000000000040420F000A0000006B
:107684000A000000FFFFFFFFFFFFFFFF00C2010031
:1076940000000800FFFFFFFF7C0100200000000045
:1076A400E074000000750000C074000000000000D9
:1076B40000000000000000000000000000000000C6
:1076C40000000000000000000000000000000000B6
:1076D40000000000000000000000000000000000A6
:1076E4000000000000000000000000000000000096
:1076F400000000000000000000000000DD20000089
:1077040069210000C1250000F52600004D28000075
:10771400D92B0000F12B0000092D0000212D0000C1
:107724002D2E0000853D0000B93E00001D510000D3
:10773400E5610000B520000000000000000000002A
:0400000300003F7149
¸  y  i  m                              q          u  Õ  µL#x +—K +–H ‡ ø##pΩ\       –  µK +–HI ‡ øHh +–K + –òGΩ¿F    –  `   X       K"@IXh@CX`⁄iQ¸‘pG¿F  Bˇˇ¸ˇ8µ(J(KZÄZxR≤ *˚€&K!j&M
Cb+h"C+`*h#!LB˙—‚iB˜—##`A H˝B‡hˇ#@òCC‡`#h"C#`ÍiKë˚‘Zã0!äC!
CZÉÎi Z˚‘K$xCpK"xëCpx!CpIx Cpx
@px !
Cp8Ω@    @  @  B l‹HD A4D AID A˜µ #íôBT–!*N@ C3p¡≤)K"Xã 	@(–[ã	@*Ú—`j¿
¿C`b!~K"à‘~B˜–Yh¿"í
CZ`‡[ãõB– %(‡2p#~ô¸’JKx%pbhΩB–K @c`ˇ˜Gˇ3xZ2p"~ê¸’IH
x5¬TÌ≤ÈÁÄ#€Cc`ô )– ˇ˜0ˇ(˛Ωx     B( Bô   ˇˇ˚ˇK "pKppGz   y   ¯µ'Kxd ‰≤&K!]ã-	@-–[ã	@)Ú—Sj€
€#CSb~#B˚–IIãâB– ˇ˜˜˛$'‡Ix+ +–NÏ6]L&pN~$vã'B—&B˜–‡∂&B–‡p (– ˇ˜◊˛‡ p$ˇ˜—˛‡;€≤⁄Á ¯Ω¿Fz     By   {   ( BJxYpJ–T pGy   {   JKx )	—Ix	xA…≤pÄ I@»ax1…≤px)ÿx	)	ÿIx@B¿≤px	xA…≤pxxöB—Ä"KR⁄apG}           D Aµk ˇ˜Wˇ ˇ˜∏ˇ ˇ˜[ˇ!
k ˇ˜‰˛KxΩ¿Fô   8µk ˇ˜@ˇ(ˇ˜°ˇ ˇ˜ûˇ ˇ˜Aˇ 8Ωµ ˇ˜’ˇŒ#@ ˇ˜Âˇ Ω  µ  ˇ˜«ˇx#-JòC¡≤îBB–ÿ+KúB8–	ÿ*KúB0–*KúB/–)KúBE—?‡(KúB,–(KúB+–'KúB;— #3‡&JîB+–
ÿ%KúB#–$KúB"–$KúB,—@#$‡"JîB–ÿ!KúB#—`#‡ JîB–JîB–‡#‡#‡#‡(#‡0#
‡8#‡H#‡P#‡X#‡h# ‡p#C  ˇ˜Öˇ  ‡  Ω¿FX    x  »  (  ∏    h  ò  ¯  H  ®  8  Ë  à  ÿ  µ  ˇ˜Eˇ#òC·"¡≤í îB –ÿñ,–˙#[ úB–d,"—‡JîB–ÿñ#€ úB—#‡˙"“ îB–JîB
–‡$!C‡#‡#‡# ‡#C  ˇ˜*ˇ  ‡  Ω‹  ∏  pµ¨&x¨%xD†Aƒ )–@!C *– "C +–#C .–#C -–#C ˇ˜Ì˛%)@!C ˇ˜¸˛(pΩµ ˇ˜ﬂ˛#@KúB–KúB—∞! ‡ò!C ˇ˜Ê˛  ‡  Ω  p  µ ˇ˜ƒ˛œ#@ ˇ˜‘˛ Ωµˇ˜‡˛ˇ˜Ôˇ	Hˇ˜Ë˛˙ ¿ ˇ˜fˇ # ììˇ˜úˇHˇ˜¡ˇΩ    µHˇ˜.˝ˇ˜ﬁˇΩ¿F†Ü µ√iú¸‘h$£C`ƒi#B˚—h#C`h‹¸‘ƒi#B˚—ƒi‹@B˜—KC`√iZ¸‘¿#õC`ÅÅ√iú¸‘h"C`Ω  @~⁄¸’ÖpG  ~#Q˚’BãB—Bã⁄@B—BãíB–K"p ç¿≤pG¿F~   pµhòã!ˇ2B&–Ä ôÉòr#Sp@!KëqPq^hM¿ .@ÄC^`^i5@(CXaH`Ha]hH(@Ä%≠(CX`XhÄÄX` #Qq#q‡z⁄’  ‰˙ ypΩú  ˇˇˇèú     ˇ?  #qCqK`É`x"CppG¿F  8µ6K !⁄i 
C⁄a4K$xCp2K"xëCpx!Cp/Ix Cpx
@px`!
Cp+K+JZÄZxR≤ *˚€)K!x
Cpöx—¸‘&HhQ"@ëB —!@åç"I)@!CÖh°
@* —"ç!
@åC"CÖh!“
@äB —"
@çJ@
CÖx"
@px!H
CpXbâ!äCÅâ!äCÅ !Ä"†˘8Ω  @XD A<D AYD A  @@   P A$`Ä ?¯ˇˇˇèˇˇú  ˜µJ_ó”Xi'@ @03«@–Ä"Yh
CZ`	‡/{üAKøˇ8"_˘ôH5BaRi°íâí
CZaYiJ
@ZakÛ"⁄qYyÄ"RB
CZqkÛ€yö˙’ ˛Ωú    ˇ? ¯µN3x +—KJdZlííZdXlJ@Zd¢#[ Í\@ CÍT#3pH'ˇ7Í]#@–KZlíí¢B“\l§§"I
˘#ÎU #3p ‡ ¯Ω   ú  ‹   ˇ? ˇ0Éy " ) —"CÉqpG  Kˇ0ZiííZa#rÇyÄ#[BCÉqzö¸’pG¿Fú  Ä#[BC…≤ÅrpGpµ†#"[ ¬TKJ\l¿!@âCF%\dˇ5@$DUM0&dê%m FU]k@)Cí%Ycm Ä!AU	Mc∞%m DU\o"@Zg≤#[ ¡TpΩ¿Fú  ˇˇˇè‹   \  K[x[≤ +˙€pG  @K€h⁄˚’pG¿F  @¯µ*K"YhëC"CY`'K(IôÇôä
CöÇÛh'#L;B˙–#M#´`ˇ˜◊ˇ"Kk`ˇ˜”ˇÇ#€kÄˇ˜Œˇ£åÄ"ìC£Ñˇ˜–ˇK„bˇ˜Ãˇ£åJC£Ñˇ˜∆ˇ£åCßÑÛh¸’K€hZ¯’ $ˇ˜πˇ¨`ˇ˜ÆˇKk`ˇ˜™ˇKJ¿!Z`J	j  
Cb"ú``¯Ω¿F @ A  @    @ ∏ˇ}
    ‡ ‡Á   Ì ‡æ˛Áæ˛Áæ˛Áæ˛ÁJH8µÇB—JKìB—
‡LîB˜– #—àBÛŸÂX3`¯Á ¯‡ìB˙“ !√˙Á˛Á    \   ¨  \   ‘  8µ4M+h3–3K*`Í≤ *—1Kx#@0K
—h/JêB—`‡`-J: *¸—`,K"pˇ˜Bˇb∂ˇ˜'˝(K(Lx +
–+hÉÛàKˇ"ìC£`KhhG ù˝ O¯ KÄ"Rö`KJZ`!j¿"		

C"b "ö`"`´h(òGK (–"px *–   å˙ ˚¸Áx +Î— Ê˝ (Á–  ˙ ˜˙¸Á      8 @¸  5ÅsHË Ä    Ì ‡ D A‡ ‡Á  Å   µˇ˜3˚ √˙ΩµKL#`ˇ˜d˝ !hˇ˜R˝ Ω P A   pµ¿∞ gˇ@ jF#0Sppv#‚:xZ  )—(iF #ˇ˜√˝@∞pΩ≥Bˆ⁄hFÅR3ÏÁ  ˜µ∫JhxπI'ˇ7 8rpSx∂H∑Npìx3Ä—x3à	C3Äy≥KÄQyà	CÄêy∞IÄ“yàC
Ä@"zq®O:x¶O8xC©HÑFbE —¬‡ ‹Ä!I äB —n·	‹Å* —í‡Ç* —ï‡Ä* –d·ã‡Å#[ öB —œ‡ ⁄X·¿#õ öB —W·òKöB —O·R·ê#öBi–‹–#€ öB"–à#öBi–†#€ öB –@· ˇ˜ﬁ˝1à(hâ≤ˇ˜Ì˝;·âKöB —/· ‹1·áKöB —·ÜKöB –)·3àkq"·3à
+—à"(hìBÿ
àí≤~I·3à
+—àC"(hìBÿ
àí≤yI·3à
+ –·3à€≤+– +–+ –˛‡
à(h“≤pI‡"®oI Ö˛;à"(hìBÿ:àí≤©„‡
à(hiI“≤ˇ˜ˇË‡3à +qˇ˜Ä˝ ˇ˜ó˝ﬂ‡)…"œ‡aI #Ä(h" ‡^I "
ÄàP"@\Jpà 0@Äà( Ÿ¡‡xà3[‰£y *–õ ‡€€Ä(h"©‡à"ëCNJ…≤pà!@Ä1à ) –£‡à ) —ü‡à) Ÿõ‡xà3[„ *– "Zqç‡!Yqä‡à#öC<K“≤pà"
@Ä2à * –Ä‡à * —|‡à* Ÿx‡x +–à3[„õyöj’à "3[„qà3[„€y_]’à@"3[„⁄qà"3[„‡à3[„õyŸJ’à"3[„qà3[„€yö=’à "3[„⁄qà"3[„q0‡¿Fú   É   à   ä   å   Ü       !   °!  !"  $       ¸     Ñ   Ç   à"(hìBÿ
àí≤I #ˇ˜¸‡ ˇ˜°¸‡ !ˇ˜í¸˜Ω¿FH   µK"ê©hˇ˜ˇ˚ Ω¿F   µKlF4h!"ˇ˜9¸ xΩ¿F   µL ˇ˜˚  ÉB–"hH#ˇ3–\#@Ω   µJh#"ˇ˜–˚ Ω   pµL ˇ˜Ò˙ #òB– h1*ˇ˜¸pΩ   ¯µL ˇ˜›˙ #'4òB
– ,–)"8hˇ˜Ì˚$-ıÁ3¯Ω¿F   µòGKd"ÄΩ¿Fí   (—KJ`Kp‡ (—JK`pGê  X  ò   §  0µ
IÖ∞	x )*–*— h‡*— à ‡ xR ©ã;ú£B–!@	)ÿ0%)C ‡71p 	;ÒÁ©0#px#Kp
 ãòp ÿpK2hÿh‡I	h»hˇ˜•ˇ∞0Ω¿Fé   ê  r∂ÔÛÉJ`hÉÛàChGpG¿Fî  Kà *–à:í≤ÄKà *–à:í≤ÄpG¿Fí   ê   µë∞©ÃJ1 1√Q Q√` `√…K…Höhz%RRí RX«I`úh§≤bC`≈I $
`ƒJ`ƒL%pƒL≈M#h(i@!òG (–¬Kd"Ä¡K "`¡K`¡K¿MæO`*h;höBÊ“ºKhxˇ* —‚#* –Î·πN3x +–±K∏Ih"ÿhˇ˜-ˇ≠KxS+<—;h*hìBŸÆH2*`ö∞Khh1`ÆNöB“2` ‡3`†H2h hê ,¸3h)hZ*`°JhÒ`•Jp+h;+`ùKh:`°KûJxhãB
“"hëH… híiêG (–íKd"Ä¿Fç·R+
—äHîJ#h hh[iêòGd"ìK‡O+—ÑKçJhhpx·H+—ÄKâJhhÄp·W+—|KÖJhh`h·o+—xK!h‡h+—uK~Hh!à`ˇ˜Ÿ˛W·w+—oKyHh!h`ÛÁG+—uKhˇ˜	ˇwKhÉÛàb∂uKx + —>·fK hhòG8·T+—#3paKhd‡N+—3x +—]KcIh"ÿhˇ˜Ñ˛ #3p"·V+W—#hdIÿh"ˇ˜y˛#hbIÿh"ˇ˜s˛aM#h)ÿh"ˇ˜l˛#h^Iÿh"ˇ˜f˛#h)ÿh"ˇ˜`˛KOLMXI #9`+`:(h^`xì +–h3`ÙÁ>N*h3hÿhˇ˜G˛3hJIÿh"ˇ˜A˛ô)`JI9`:JhX`x +–7Kh2`ÛÁ3h*hÿhˇ˜,˛3hÿh3I"∆‡3JX+—$N&M6hh*h± ìB
“MXËa8H(ÄM(}∆˚’[ÚÁ K4Ihÿh™‡Y+y—hK1I *—h`l‡MhhkhNÄ%´Cís` *a–*KM+ÄN3}›˚’ #
M-hï≠´B”$MN5ÄF‡ìB˘–ù FY3NQÓÁ8   @ AH  @  <  å  8  ê  L  ê   0  4  D  é   ò  ò  ú  ,  í   î  ò   t  ù  v  ¿  x  Ñ  •ˇˇç  î   D•ˇˇ•ˇˇ?N5}Ó˚’ù I@“õÁ<K<Ihÿh.‡Z+/—:Khh &ÔΩB–(x1 ˘5ˆÁ1K4Ih"ÿhˇ˜y˝#"2@6	01	* ›1 ¿jFÅT;Ò“#h©ÿh"ˇ˜d˝#h'Iÿh"ˇ˜^˝%Kz"p%K "`$KxìB-–K#Ih"ÿhˇ˜M˝%‡09»≤K	(ÿh*C`‡A9)ÿh7:1‡a9)ÿhW:
C‡,*—
Jh`‡I
p "`Kh2`Kh2’Â @ Aê  ë  å  ï  ó  8  ò  é   õ  D  4  µK x$CpK"xëCpx!CpIx Cpx
@px0!
CpKÄ!j
CbKJZÄZxR≤ *˚€ƒ"HIí˛˜VˇJ #pJpJpJpJpJpΩ÷D AªD A◊D A  @  @@    B*ˆ  †  '  °  §  (  %  µ¡≤H˛˜Uˇ Ω¿F  BK~@¿pG¿F  Bµˇ˜ıˇ (˚–H˛˜FˇΩ¿F  Bµˇ˜Èˇ #òB–ˇ˜Ïˇ#;ZBSAΩpµF¥B– xˇ˜Àˇ4¯Á(pΩµˇ˜’ˇ p Ω
X@K@ ¿Z	H@Ä≤pG¿FŒ  ˜µ $&ºB –ˇ˜ΩˇK¿≤xê +—1ˇ˜‚ˇKà *—Jx* )–ôj)pÄ/—à9Ä4§≤‹Á0 ‡ ˛Ω%  ¢  &  µ>NÖ∞ "ê2p<KëB—"‡:IÄp#B–Ä4úCˇ˜~ˇ3x¿≤ +– %5pˇ˜vˇ3x¿≤´B6—C(–q(S–(Î—# ì ˇ˜Uˇ òˇ˜Rˇ ôÄ%»C¿≤ˇ˜Lˇõ 'ì$Jà +—!Iì	x )—òˇ˜=ˇ9òˇ˜yˇ= -Î— 
¿≤ˇ˜1ˇ¯≤ˇ˜.ˇˇ˜>ˇ3x +
–5p‡ô;	xÄõë3ì›Á¿≤(— õô3€≤Ä1 ìÄ<ë ,∏— ˇ˜ˇˇ˜ˇK%p ‡ %(∞Ω%  &  ¢  µ8Lá∞ #ê#pôB—#‡4JÄ4Jd&pC ˇ˜Ï˛2Oˇ˜Û˛ (— /–?˜Á /—> .Ó—M‡%ˇ˜Ï˛#x +8—¿≤ê(–(=— ˇ˜Œ˛9‡Æ!0ˇ˜ˇòÄ!ˇ˜ˇ#xê +—ˇ˜–˛ˇ˜Õ˛ø≤#x?ø≤+–õüB—3x´B—ÎCrx€≤öB– ˇ˜ß˛ #‡ ˇ˜¢˛õ"x *– &&p‡+—ökÄ2›≤í∂ÁJ #p&0∞Ω%  ¢  &   5  )4–# "¥àB,”$$°B“ÅB“	¯Á‰ °B“ÅB“I [ ¯ÁàB”@CL†B” \"Cå†B” ú"CÃ†B” ‹"C (–	–		„ÁºpG (–  ¿C¥H°@êΩ¿F    )–µˇ˜πˇºBCâG¿FpG¿Fµ #ìB–Ã\ƒT3˘ÁΩÇìB–p3˙ÁpG #¬\3 *˚—XpG¯µ¿F¯ººûFpG¯µ¿F¯ººûFpG	Arduino LLC Arduino MKR WiFi 1010      @A#T               @   Ä              A  1  u  è    !  v   Apr 11 2019 13:09:56 X
 Y
 Z #
 > 2.0    •  ¡  ›        E  [Arduino:XYZ]   !B c0Ñ@•P∆`ÁpÅ)ëJ°k±å¡≠—Œ·ÔÒ1s2R"µRîB˜r÷b9ìÉ{≥Z£Ω”ú√ˇÛﬁ„b$C4 Êd«t§DÖTj•Kµ(Ö	ïÓÂœı¨≈ç’S6r&0◊vˆfïV¥F[∑zßó8áﬂ˜˛Áù◊º«ƒHÂXÜhßx@a(#8Ã…ÌŸéÈØ˘Hâiô
©+πıZ‘J∑zñjqP
3:*˝€‹Àø˚ûÎyõXã;ª´¶lá|‰L≈\",<`AÆÌè˝ÏÕÕ›*≠ΩhçIùó~∂n’^ÙN>2.QpüˇæÔ›ﬂ¸œø:ØYüxèàë©Å ±Î°—-¡NÒo·Ä° ¬0„ P%@Fpg`πÉòì˚£⁄≥=√”„^Û±êÛ"“25BRwbVrÍµÀ•®ïâÖnıOÂ,’≈‚4√$†ÅftGd$TD€ß˙∑ôá∏ó_Á~˜«<◊”&Ú6ë∞WfvvF4VLŸm…˘/È»ôÈâäπ´©DXeHx'h¿·Ç8£(}À\€?Î˚˘ãÿõª´öªuJTZ7jzÒ
–≥*í:.˝Ìl›MÕ™Ωã≠Ëù…ç&|ld\EL¢<É,‡¡Ô>ˇ]œ|ﬂõØ∫øŸè¯ün6~UNt^ì.≤>—        	C  Ä2	    $ $ $ $ É ˇ	 
   Å@  @    ¬    i   A       