:1020000000800020852F00006D2F00006D2F000044
:1020100000000000000000000000000000000000C0
:102020000000000000000000000000006D2F000014
:1020300000000000000000006D2F0000D92F0000FC
:102040006D2F00006D2F00006D2F0000492900004A
:102050006D2F00006D2F00006D2F0000712F00000C
:102060006D2F00006D2F00006D2F00006D2F000000
:102070006D2F0000BD2E0000AD2E00006D2F000062
:102080006D2F00006D2F00006D2F00006D2F0000E0
:10209000000000006D2F00006D2F00006D2F00006C
:1020A0006D2F00006D2F00006D2F00006D2F0000C0
:1020B0000000000010B5064C2378002B07D1054B1B
:1020C000002B02D0044800E000BF0123237010BDA4
:1020D000A002002000000000D0E10000044B10B579
:1020E000002B03D00349044800E000BF10BDC046E8
:1020F00000000000A4020020D0E100000022014BFB
:102100001A607047CC02002070B50C4C03212000EF
:1021100000F028FC200000F067FD0600200000F021
:1021200059FD0500200000F04BFD01350300EAB227
:102130003100200000F006FD70BDC046D002002036
:1021400070B51C4C2368013326D01B4800F074FD89
:1021500023680500002B0ED11849194801F0BAFA7E
:102160000121062001F0C0F9164B1E351D602368C1
:102170000133236010E0144A126893420DDD1349C5
:102180000F4801F0A7FA012300215B4206202360DB
:1021900001F0AAF9FFF7B8FF70BD0A4B1A68824236
:1021A000FADC02001E321A6001000A22044801F023
:1021B000DEFADCE7CC020020D002002044D300008D
:1021C00064080020C8020020C402002056D300008A
:1021D00010B5FFF7B5FF10BDF0B58DB00A9008003F
:1021E00014000D00039309F053FB03230600E817C6
:1021F0001840401980100F0009F04AFB0022C64B1E
:1022000008F03AFD02000B003000390008F0A6FF8C
:1022100080230022DB0507F009FE0022BF4B08F0F7
:1022200021F903F07BFC06001420FF300F0060430F
:10223000092106F091FD09F02BFB09F0E7FB051CD5
:1022400020000C21093006F087FD09F021FB09F080
:10225000DDFBB34B0022041C3900300007F0E6FD23
:1022600009F0D4FB011C201C07F06AFA011C281C91
:1022700007F098FB041C039807F08EFD011C201C3E
:1022800006F0ECFEA74907F08DFBA749041C139844
:1022900007F07EF80A9B0390002B00D135E1011C6A
:1022A000A24807F07FFBA24907F072F8211C06F054
:1022B000D5FE09F059FB9F4A9F4B0690079108F005
:1022C000DBFC9E4A9E4B08F049FF09F09FFB09F09A
:1022D0004BFB9C4A9C4B04000D0008F0CDFC03F026
:1022E000F9FC984A06000F00984B2000290008F0DE
:1022F000C3FC03F0EFFC964A04900591954B300027
:10230000390008F0B9FC22002B0007F08FFD924A3B
:1023100004000D0004980599904B08F0ADFC0200F4
:102320000B002000290007F081FD8D4A8D4B07F03E
:102330007DFD00228C4B03F0CBFD09F067FB041CF4
:1023400009F012FB022506000F0002000B000095A9
:10235000864801F0E4FA7B4A7B4B3000390008F0F4
:102360008BFC06000F0003F0FDFC814A814B08F056
:1023700083FC03F0F5F9804A804B08F07DFC0022D5
:10238000794B03F0A5FD09F041FB049009F0ECFA4C
:10239000009502000B00754801F0C1FA7849201C35
:1023A00006F0F6FF03F04AFD7549041C049806F098
:1023B000EFFF03F043FD7249051C201C07F0C0F934
:1023C0006F49041C281C07F0BBF9011C201C07F0F6
:1023D000E9FA049906F042FE534906F0D9FF3900A4
:1023E0000B90300003F076FC664A674B08F044FC23
:1023F00009F00CFB041C03F029FE03F0E1FC051CB2
:10240000129809F0B1FA4F4A4F4B08F035FC06001C
:102410000F0003F05FFC049005913000390003F0D9
:1024200033FB08900991201C09F09EFA049A059B41
:1024300008F022FC02000B005448554908F08EFEBB
:102440000600281C0F0009F08FFA089A099B08F073
:1024500013FC0B0002003900300008F003F809F00B
:10246000D5FA0A9B002B53D003F09EFD09F07CFAAD
:10247000414A424B08F000FC02000B0000203A49A0
:1024800008F06CFE09F0C2FA274906F081FF0B99AB
:1024900006F0E4FD09F068FA3E4A04000D000698D3
:1024A00007993D4B08F0E8FB02000B0020002900D3
:1024B00008F054FE394A3A4B08F050FE09F0A6FAEB
:1024C000039907F06FFA09F04FFA0022354B03F039
:1024D000FFFC09F09BFA041C09F046FA0B000221EC
:1024E00002000091214801F01AFA149807F054FCF8
:1024F000211C06F0B3FD041C159807F04DFC011CCF
:10250000201C06F0ABFD0DB0F0BD03992648C8E6CF
:1025100003F04AFDB8E7C046000010400000084044
:102520000000F03F0000F041000070410000C0409A
:102530000000C041D200DE02098AEF3F1D5A643B11
:10254000DF4F0A40399D52A246DF913F46DFA13F4F
:102550000E2DB29DEFA7FE3F7B14AE47E17A943F6C
:10256000A01A2FDD24AA7140008076406408002064
:10257000CC0BB08F4E5DED3FF8C1631ADCA54C402B
:102580000000B4424B766C04E275D93F906931404B
:10259000B1AA8DBF352905DD5ED2B03FB07268911A
:1025A000ED7C1A400000384000009041F0B5234C0B
:1025B00087B0200000F036FB0500200000F028FB6B
:1025C0000600200000F01AFB00220392063A029255
:1025D0001B4A030001921B4A29000092012032008D
:1025E000FFF7FAFD09F0C0F904AA03F033FB022556
:1025F00006000F00144C1549200001F05AF8049A07
:10260000059B0095200001F081F91149200001F09F
:1026100050F800220F4B3000390008F02DFB09F074
:10262000F5F909F0A1F9009502000B00200001F076
:102630006DF9200001F046F807B0F0BDD00200208F
:102640006666C4C2EC519841640800206FD3000054
:1026500076D3000000004E40F0B5234C87B0200038
:1026600000F0E0FA0500200000F0D2FA0600200099
:1026700000F0C4FA062203000020524202921B4AD4
:10268000290001921A4A039000923200FFF7A4FD3C
:1026900009F06AF904AA03F0DDFA022506000F002A
:1026A000144C1549200001F004F8049A059B00958C
:1026B000200001F02BF91149200000F0FAFF002260
:1026C0000F4B3000390008F0D7FA09F09FF909F0F4
:1026D0004BF9009502000B00200001F017F92000D3
:1026E00000F0F0FF07B0F0BDD00200206666C4C263
:1026F000EC5198416408002067D3000076D30000B5
:1027000000004E4073B596211E4D8901280001F04E
:1027100009FD280001F008FD0028FAD028001A4918
:1027200000F0D8FF0121062000F092FE02210E20C9
:1027300000F08EFE154C0021200000F0D3FA00239B
:1027400020001A00102100F063F915212000142345
:10275000032200F0A9F900220D4B02261A60802303
:10276000002200962800DB0501F0D9F8094B0A4940
:1027700020001E6000F00AF9FFF718FFFFF76CFF5A
:1027800073BDC0466408002078D30000D00200204A
:10279000CC020020C4020020FD20000007B500216B
:1027A000044800910B000A0000F04CFF024800F0C2
:1027B000C7F807BDBC020020D002002007B50021E9
:1027C000034800910B000A0000F03CFF07BDC04623
:1027D000D4020020114A124B124913600023537196
:1027E0001371114A11601149D360918009219171CF
:1027F0000639537413741375D37111720C4AD36074
:102800005374137413750B4BD17113600A4B93807F
:102810001D2393711C3B13727047C04614030020A4
:1028200000093D0048080020DC0200200A080000E2
:10283000F8020020540800201B1A000007B50021F0
:1028400004480B000A00009100F0FCFE024B034A12
:102850001A6007BD200300201C03002050C30000A5
:1028600007B50021034800910B000A0000F0EAFEC2
:1028700007BDC0462803002007B50021034800918A
:102880000B000A0000F0DEFE07BDC046300300204A
:1028900007B50021034800910B000A0000F0D2FEAA
:1028A00007BDC0463803002007B50021034800914A
:1028B0000B000A0000F0C6FE07BDC0464003002022
:1028C00010B504007822002109F0BBF9200010BDEA
:1028D00010B50C244C4304192068002805D009F0D9
:1028E0008BF9002363602360A36010BD70B5050001
:1028F0000024210028000134FFF7EAFF0A2CF8D158
:10290000280070BD10B5054C2000FFF7D9FF044A20
:102910000449200002F01CFF10BDC04648030020FF
:1029200000000020ED28000007B5002103480091B9
:102930000B000A0000F086FE07BDC046C003002061
:102940000023037070470000044B10B51B68002B78
:1029500000D098470122024B1A7210BDC803002014
:1029600000140040037810B5002B0BD00724064B51
:1029700021401A7F0800A2431100014319779A7A77
:10298000D209FCD110BDC04600140040014B1960B3
:102990007047C046C8030020037810B5002B0BD049
:1029A0003F24064B21401A690800A243110001434D
:1029B00019619A7AD209FCD110BDC04600140040BA
:1029C0000378002B0BD03F20054B08401A690549BE
:1029D00080011140014319619A7AD209FCD17047F4
:1029E000001400403FF0FFFF0378002B0BD01F20A6
:1029F000054B08401A69054900031140014319615C
:102A00009A7AD209FCD1704700140040FF0FFEFFF4
:102A100070B51600027804000D00002A0AD01900D3
:102A2000FFF7BAFF31002000FFF7CAFF290020009E
:102A3000FFF7DAFF70BD00000378002B0BD01F20DA
:102A4000054B08401A6905494004114001431961CA
:102A50009A7AD209FCD1704700140040FFFFC1FFF1
:102A60000378002B0BD00F20054B08401A6905494D
:102A700080051140014319619A7AD209FCD170474F
:102A800000140040FFFF3FFC0378002B09D0054AEB
:102A9000880613699901890901431161937ADB0959
:102AA000FCD170470014004070B51D00037804008D
:102AB0001600002B09D0FFF7BFFF31002000FFF701
:102AC000CFFF29002000FFF7DFFF70BD037810B5AE
:102AD000002B0BD03F24064B21409A690800A243EB
:102AE0001100014399619A7AD209FCD110BDC04608
:102AF000001400400378002B0BD03F20054B08400A
:102B00009A69054980011140014399619A7AD20975
:102B1000FCD17047001400403FF0FFFF0378002B0A
:102B20000BD01F20054B08409A690549000311404E
:102B3000014399619A7AD209FCD170470014004090
:102B4000FF0FFEFF70B51600027804000D00002A8A
:102B50000AD01900FFF7BAFF31002000FFF7CAFFC3
:102B600029002000FFF7DAFF70BD0000094B0A4A78
:102B70009A605A7852B2002AFBDB084A5A605A78A7
:102B800052B2002AFBDB064A5A805A78D209FCD19D
:102B90007047C046000C004002040000020511000E
:102BA000044200000378002B05D0034B034A5A80EF
:102BB0009A7AD209FCD17047001400400080FFFFD0
:102BC00010B5FFF7EFFF024B18698006800E10BDAD
:102BD0000014004010B5FFF7E5FF024B186900052F
:102BE000800E10BD0014004010B5FFF7DBFF024B54
:102BF0001869C003C00E10BD0014004010B5FFF7E7
:102C0000D1FF024B18698002C00E10BD00140040B5
:102C100010B5FFF7C7FF024B18698001000F10BD08
:102C20000014004010B5FFF7BDFF024B1869800E7D
:102C300010BDC0460014004000B58BB0FFF7B2FFD6
:102C400001220F4B52421B690992002208920792FF
:102C50009A0E643206929A01120F013A05929A0274
:102C6000D20E0492DA03D20E03921A059B06920E3C
:102C70009B0E01A80292019309F0B6F80BB000BDBB
:102C8000001400400221044B1A888A431A809A7A61
:102C9000D209FCD17047C046001400400222044B08
:102CA00019880A431A809A7AD209FCD17047C04623
:102CB000001400400122044B19880A431A809A7AB2
:102CC000D209FCD17047C046001400400121044BDA
:102CD0001A888A431A809A7AD209FCD17047C04672
:102CE000001400402023F7B500262A4A0F009169FE
:102CF00005000B439361284B284A294C9A82B7421E
:102D00000BD1284B3E001A7870231A4205D0238835
:102D10001B0702D50126236901932800FFF726FF30
:102D20002800FFF7AFFF2800FFF7C4FF63881E4AA3
:102D3000134063801D4B2380A37ADB09FCD1C021A3
:102D40001B4A08331360890053581B021B0A535057
:102D50000123E27913430722E371237F934323770F
:102D6000A37ADB09FCD12800FFF798FF2800FFF7C2
:102D7000ADFF002F0BD1002E09D0019B002B06D0F8
:102D80002361A37ADB09FCD101332B70F7BD8423C7
:102D9000DB03F5E70004004000080040CE06000019
:102DA0000014004038040040FFBFFFFF080A000085
:102DB00000E100E070B50121202000F049FB002176
:102DC000202000F091FB0A2000F04AF90021202089
:102DD00000F03EFB642000F043F9202000F0CCFA24
:102DE000962305009B002F4C984222D92E492000A3
:102DF00000F09EFF200000F087FE03210B2000F072
:102E00009FFB03210C2000F09BFB00226B21200084
:102E100000F0B0FE0121200000F0EEFE1B2120009A
:102E200000F0EAFE2000032100F08EFE200000F0FA
:102E300080FE1D49200000F07BFF200000F064FEB2
:102E400003210B2000F07CFB03210C2000F078FB19
:102E500000226B21200000F08DFE0721200000F0F1
:102E6000CBFE96232B219B009D4200D920392000C8
:102E700000F0C2FE0321200000F066FE200000F0FA
:102E800058FE01211E2000F0E3FA01211E2000F06F
:102E90002BFB01211F2000F0DBFA01211F2000F095
:102EA00023FB70BD4C080020A086010010B502482D
:102EB00002F03FFB10BDC046CC03002010B5024815
:102EC00002F037FB10BDC046080600207FB5194947
:102ED000194800F083FD1949194800F07FFD194990
:102EE000194800F07BFD1949194800F077FD194C8D
:102EF0001949200000F072FD184E1949300000F009
:102F00006DFD012503233100019500930D220B3344
:102F1000144802F0A3FA1D230393013B02931A3BCA
:102F20000193009518331B2221000F4802F052FA3A
:102F30007FBDC0460008004244080020000C00424B
:102F400048080020001000424C08002000140042F5
:102F500050080020540800200018004258080020A3
:102F6000001C0042CC03002008060020FEE7000001
:102F7000034B10B51B68002B00D0984710BDC0460E
:102F80005C08002070B50F490F4CA14204D100F03D
:102F90008FF802F0B5FBFEE70C4D00238D42F6D012
:102FA000CA18E818A24205D3094B8242EFD009495A
:102FB000002204E0006804331060F1E704C38B4290
:102FC000FCD3E4E700000020A0020020D4E10000D0
:102FD000A0020020C00E002010B500F066F8002806
:102FE00001D100F057F810BD014B18607047C04682
:102FF0005C080020014B18687047C046600800203C
:10300000F7B51348012284461249134C8E68636851
:1030100005689B0E1340019288686268019F920EBA
:103020003A4067463F6893420ED1BD420CD186427A
:103030000AD35B19FA254868AD00861B07486B4325
:103040007043000DC018FEBD3D0013000600E3E70D
:103050006008002010E000E000ED00E055550000A1
:1030600070B5041E10D0FFF7CBFF050000F01CF870
:10307000FFF7C6FF054B401B9842F7D9FA23013CE6
:103080009B00ED18002CF3D170BDC046E703000093
:103090007047000010B5034A13680133136000F055
:1030A00061FC10BD600800207047002070470000E0
:1030B0001E2270B546484749436893431C3A134360
:1030C000436008238C6923438B61434C434B9C82B0
:1030D0009C8A14439C82DC681442FCD00124404A40
:1030E00014701578254203D055786DB2002DF8DBA9
:1030F00001249460547864B2002CFBDB394C54609A
:10310000547864B2002CFBDB8224E40154805478B0
:1031100064B2002CFBDB02249C840E34DD68254263
:10312000FCD0314CDC621024DD682542FCD09D8C43
:103130002E4C2C439C841024DD682542FCD00224B4
:103140009D8C80262C439C844024DD683542FCD035
:10315000DD682542F9D01024DD682542FCD000242A
:103160009460547864B2002CFBDB214C546054789A
:1031700064B2002CFBDB1C6A1E4D2C4080251C62B7
:103180001C6AAC431C62032393601B4B536053784F
:103190005BB2002BFBDB0023FF240B72174A4B7240
:1031A0008B72CB72164B1A60164B174A1B6811684C
:1031B0009A065B01C90E2340520F12020B431343C0
:1031C000124A1385802342681343436070BDC04692
:1031D00000400041000400400C06000000080040D0
:1031E000000C004001050100B905FF7D040A000044
:1031F00000070300FFFCFFFF03060100006CDC0278
:103200000400002024608000206080000040004214
:10321000FA21314B10B51868890005F013FD2F4BCA
:103220000138984256D82E492E4A4860C020136A69
:1032300000061B021B0A03431362002407238C6051
:103240000B608021136A09061B021B0A0B431362E1
:10325000FC22254B196A0A431A62FC22196A920160
:103260000A431A62A022196AD2020A431A62200093
:103270000021013400F0ECF80F2CF8D11B4B1C009E
:103280005A7852B2002AFBDB194A5A80194B1A00AD
:10329000597EC9090129FBD0E421C90099803F2149
:1032A000D970537EDB09012BFBD0C02300205B01CA
:1032B0001361907000F02EF863785BB2002BFBDB9B
:1032C0000D4B0E4A6380D379DB09012BFBD04123E0
:1032D000537010BDFEE7C04604000020FFFFFF0052
:1032E00010E000E000ED00E000040040000C0040B1
:1032F0001E40000000400042214000000048004203
:10330000914202D002D98A1AD0407047521A904096
:10331000FBE70000164A00B51300517EC9090129D8
:10332000FBD00138042816D81969124A0A400F2127
:103330001A615A788A4305F07BFC0308060B0300E8
:10334000110001220A435A7000BD11000322F9E75F
:1033500011000222F6E7F02311691B050B430F2130
:10336000136153788B43190002230B435370EBE72F
:1033700000400042FFFFFFF010B504000E2800D807
:103380000F340121200000F0DBF8182310216343E3
:103390002A4CE4186156002901D014290DD1284B7C
:1033A0001800DA79D209012AFBD002241A78A24344
:1033B0001A70C379DB09012BFBD022480300427E3F
:1033C000D209012AFBD01F2402692140A2430A43EB
:1033D00002615A7ED209012AFBD0022219780A43DF
:1033E0001A705A7ED209012AFBD00222197B0A43A5
:1033F0001A731A7ED207FCD501221A765A7ED20998
:10340000012AFBD00222197B0A431A731A7ED207C3
:10341000FCD5588B80B25A7ED209012AFBD00221FA
:103420001A788A431A705A7ED209012AFBD0064BB9
:103430001A68064B1968FFF763FF10BD84D30000BC
:1034400000480042004000420C000020080000201C
:10345000182330B51D00040045430820204A5519A3
:103460002856013014D0032912D808006343D156DE
:10347000D31805F0DDFB02280E1B5868CB01022192
:10348000184A9B181A1840321170012282405A6063
:1034900030BD5868CB010621124A9B181A184032D9
:1034A0001170012282405A609A61F1E75868CB019D
:1034B00006210C4A9B181A184032117001228240D2
:1034C0005A605A61E4E75868CB010221054A9B180B
:1034D0001A1840321170012282409A60D8E7C04623
:1034E00084D30000004400411823F0B50824584359
:1034F000114A13181C5701341BD0012635005F6890
:103500008356BD400D4ADB019A18906805420BD1E5
:103510000C00601E8441D2194032107834400336CA
:10352000A400B04320431070044A9B18002901D125
:103530005D61F0BD9D61FCE784D300000044004163
:1035400018224243F8B52C4E0300B218127A52B238
:10355000140001320ED0481C00240C280AD805F0B3
:1035600067FB071F1F1F1F1F1F1F1F0B0B0B0B00CE
:10357000012464422000F8BD092905D1002118006A
:10358000FFF766FF0024F5E70A2901D10839F6E7BD
:1035900000240B29EED10A391800FFF759FFE9E79B
:1035A00018225343F218556801202C00F356134A91
:1035B000DB016E089B18C9B204409E19002C0DD087
:1035C0000F2430363278090122401143C9B25B1909
:1035D000317040331A7810431870D3E732000F2748
:1035E000303216785B19BE433143117040331A787C
:1035F00010431870BEE7C04684D300000044004169
:10360000F7B5C31D0193002306000D00041D0093B0
:1036100021780A22280000F0C0F82E210700280097
:1036200000F04BF8009B3F18DB190093019B01341D
:103630009C42EDD1F17928000A2200F0AEF8009BFF
:103640001818FEBD30B503AC2578044CC57108349C
:10365000046001714271837130BDC046E4D6000040
:10366000F7B506000D000C008B180193019B671B3A
:103670009C4207D0336821781B683000984701349A
:103680000028F3D13800FEBD70B5040008000D001D
:1036900008F032FE2368020029005B68200098478A
:1036A00070BD10B50B1E02D0FFF7EEFF030018002F
:1036B00010BD10B5FFF7F5FF10BD10B503681B680E
:1036C000984710BD10B50249FFF7DEFF10BDC04698
:1036D000FCD6000070B50400FFF7E3FF05002000F2
:1036E000FFF7F0FF401970BDF0B58BB06B461500C9
:1036F000002205330600DA770800012D00D80A25DC
:1037000009AC290005F024FBCAB2130037330700C7
:10371000DBB2092902D813003033DBB2013C23703D
:10372000002FEED121003000FFF7BBFF0BB0F0BD42
:10373000F8B506000C00151E04D10368C9B21B6859
:103740009847F8BD0A2A0CD100290BDA2D21FFF782
:10375000B4FF614207002A003000FFF7C5FF3818A8
:10376000EFE7D2B221003000FFF7BEFFE9E770B506
:103770000400FFF7DDFF05002000FFF7A3FF40195D
:1037800070BD10B5002A04D10368C9B21B68984700
:1037900010BDD2B2FFF7A8FFFAE710B5FFF7F1FFAF
:1037A00010BD0000F7B51E0008AB1B783100019377
:1037B000050033001000170008F018F84B490028E6
:1037C00014D10122740064085242494B3800210090
:1037D00008F00CF800280FD10122454B5242380066
:1037E000210005F0C5FB002806D142492800FFF75B
:1037F0004BFF04002000FEBDE0223F4B12063800C4
:10380000310005F0BFFB002801D03C49EEE7E02283
:103810003B4B12063800310005F0A0FB0028F4D124
:10382000002200233800310005F098FB041E07D069
:103830002D212800FFF741FF802304001B06F61806
:10384000002300202F490093019B009A934208D047
:103850002D4B002206F006FE009B0133DBB20093E5
:10386000F2E733003A0006F0E1FA0F00060005F037
:10387000D7FB0A22019001002800FFF735FF009BCB
:103880000419002BB6D0019808F03CF802000B0098
:103890003000390007F062FC06000F0028002E21DE
:1038A000FFF70BFF2418009B013BDBB20093FF2BBB
:1038B000A0D0154B00223000390007F0DDF90F00D1
:1038C000060005F0ADFB0A22010001902800FFF779
:1038D0000BFF2418019808F015F802000B003000C7
:1038E000390007F03BFC06000F00DCE7F0D60000D3
:1038F000FFFFEF7FF4D60000FFFFEF41F8D6000096
:10390000FFFFEFC10000E03F0000244037B51D007D
:10391000069BDBB200932B00FFF744FF3EBD37B59B
:1039200019000400069B2000DBB200930B00FFF798
:1039300039FF05002000FFF7C5FE40193EBD00001D
:1039400010B50400FFF7A4FB014B1C6010BDC0467E
:10395000100000200122024B52421A607047C046FC
:1039600010000020164A10B51368591C26D0013BE0
:103970001360002B22D172B6124B134A04339342C8
:1039800013D9124A01211000147D0C42FCD02021D1
:10399000148BFF319B085B0021431183D3610C4BD7
:1039A00013800123027D1A42FCD0BFF34F8F094BD5
:1039B000094ADA60BFF34F8FC046FDE710BDC0462D
:1039C0001000002000200000030200000040004121
:1039D00002A5FFFF00ED00E00400FA05016070475A
:1039E0009446F0B59E1E721E964162460568920787
:1039F0002F6836063A4332432A60072505AC2478FF
:103A00000068A4012940214342680024022B00D011
:103A10005C03114321434160F0BD30B5C02503680C
:103A2000AD031C6812052A402243C0240904A402E5
:103A300021401143196003685A6814435C6030BD2B
:103A40000123026811680B43136003681A68D207E8
:103A5000FCD4DA69D207F9D47047022302681168EE
:103A60000B4313600268D3699B07FCD4704703685B
:103A70001A7ED20702D41A7E9207FCD57047002224
:103A800003685A8370470368187E4007C00F704769
:103A90000368187EC0097047802302685B42117E6C
:103AA0000B43137670470368588B8007C00F70472D
:103AB00002230268518B0B43538370470368187EBF
:103AC000C007C00F70470368188DC0B27047036805
:103AD0001A7ED207FCD589B20120198570470122D0
:103AE00003689A757047012203681A7570470123AD
:103AF000026811680B43136003681A68D207FCD48C
:103B0000DA69D207F9D470470223026811680B43BF
:103B100013600368DA699207FCD430215A8B8A4318
:103B2000110010220A435A830268D3695B07FCD450
:103B300070470221026813688B4313600268D369DF
:103B40009B07FCD470470000032230B50368114086
:103B50001C68074D5A6809042A40E4061143640FA3
:103B60005960052C03D10268D3695B07FCD430BDD2
:103B7000FFFFFCFF70B5056804006B8B9B069B0F75
:103B8000022B0DD06B8B00209B069B0F032B32D09A
:103B90006B8B9B0704D56B8B9B069B0F012B2AD14C
:103BA0006B6A49001143DB0AC9B2DB020B436B624B
:103BB0002368002A13D11A7ED207FCD55B8B9B06A3
:103BC0009B0F022B04D0490800222000FFF7D2FFF0
:103BD0002368588B4007C30F012058400BE0187E24
:103BE0008007C00FF4D11A7ED207F8D5C0225968D9
:103BF00092020A435A6070BD036828331970036843
:103C0000187EC007C00F03D15A8BD207F8D5704772
:103C1000588B4007C30F01205840F8E70368214A3A
:103C200030B593422FD0204A93422FD01F4A93425F
:103C30002FD01F4A93422FD01E4A93422FD01E4AA4
:103C400093421FD10E2319220121032599401B48BD
:103C5000C024016099082B40AB40FC359D40890091
:103C60000918A4000859A843C0259D402B00034310
:103C70000B518023DB011A43114B5A805A7852B200
:103C8000002AFBDB30BD09231422DDE70A231522BD
:103C9000DAE70B231622D7E70C231722D4E70D23EC
:103CA0001822D1E700080042000C00420010004238
:103CB0000014004200180042001C004200E100E035
:103CC000000C0040F8B504000F0016001D00FFF7BF
:103CD000A5FF2000FFF7B4FE1C21BB000B407107BD
:103CE0002268090C0B431360842322689375012F0B
:103CF0001AD11021012E00D008390C4B69431868E5
:103D0000C00004F09FFF0722216802408B89520304
:103D1000DB04DB0C13438B81226803049089DB0CEA
:103D2000400B400318439081F8BDC04604000020BA
:103D3000F8B504000F00FFF771FF2000FFF7D7FE72
:103D40001422236879001A600C4B25681E68300025
:103D500004F078FF0A490400300004F073FF7D236B
:103D6000FA215843C90004F06DFFFF23241AE868C4
:103D7000053C1C4098430443EC60F8BD040000205F
:103D800040420F000020704770B50F26CB1D01394F
:103D900002003240D5B22C0000093034092A00DD7F
:103DA00007341C70013B8B42F2D170BD10B50C0082
:103DB0000B4B1868FFF7E8FF21000A4B0831186821
:103DC000FFF7E2FF2100084B10311868FFF7DCFF16
:103DD0002100064B18311868FFF7D6FF202010BDD0
:103DE0000CA0800040A0800044A0800048A080007B
:103DF00008B4024B9C46103808BC6047AD3D00003B
:103E000070473F20704713B56B460268D97107337E
:103E1000546819000122A04716BD000070B50A269B
:103E20000B7892B06E44023305000B703C220021E7
:103E3000300007F006FF394801AC069038482421CD
:103E40000790062020776846364AA1742281364AB8
:103E5000364BA281FD3AFF3A8018C1776846233974
:103E60000630C17768460730C17702A8C1770720BE
:103E7000F277032608316944C87703A9CE77102169
:103E80002B366E443170092621851F3169440E702E
:103E90000CA9053E0E7033212380022369440B7068
:103EA00006360DA90E7022493536A1863B216E4497
:103EB000307010A86274E27702703D3269446A443F
:103EC0000B70137040210022E37023716371A373A0
:103ED00041336B44218719705A702B7DC039A37010
:103EE000A37263770133DBB2A3776A7D0B200D00E9
:103EF00068441543C5773120684403703A23501C49
:103F00006B441870412302320A436B441A7021003B
:103F10004222084800F064FF12B070BD1001042472
:103F2000020605240904000001020000080B00003D
:103F300007050000CC08002008B4024B9C4610384E
:103F400008BC60471D3E000070B5027D0B790C0077
:103F500000259A420BD10B784E78A12B09D1212E46
:103F600005D107221F49204800F03AFF01352800FB
:103F700070BD212BFBD1202E2BD1072219491A48C5
:103F800000F070FE174B1A785978090211439A789D
:103F900012041143DA7812060A439621C9008A42B4
:103FA0001DD1DB79DB071AD4FA20FFF7C9FC002109
:103FB0000D4801F021F80125232ED8D1E378A2780D
:103FC0001B021343094A00210748136001F014F84B
:103FD000CDE7222EEFD18A78024BDA71D2E7FFF7D4
:103FE000B9FCE4E718000020CC08002014000020F1
:103FF00008B4024B9C46103808BC6047493F00009B
:1040000010B5417D006A013100F064FD034B1B686F
:1040100001335A1E9341181810BDC04620000020DD
:1040200010B5417D006A023100F06AFD10BD10B587
:10403000417D006A023100F031FD10BD70B50D0008
:10404000417D0400130002312A00006A00F01EFEC8
:10405000002801D10123636070BD000010B5054C3C
:1040600023685A1C04D103685B69984703002060E9
:10407000180010BD20000020074A0300106810B58A
:10408000411C03D001235B42136010BD597D186AA7
:10409000013100F0ABFDF8E7200000207047002060
:1040A00070470000FA239B0010B583600F4B00227D
:1040B000C3820300283383610D4B04004260C26158
:1040C0001800443323610830631D21622060DA77D1
:1040D0008323A362813BE3628033236300F0C2F851
:1040E0002100103100F092F8200010BD0302000002
:1040F00000D70000022110B5094B1A68437D5B010F
:10410000D318FF339C7A21439972437D0133DBB28C
:104110005B01D3180122FF33997A0A439A7210BDCA
:10412000840D00207047000010B5FEF763FFF423F4
:10413000FF330024984207D9044B0A20DC79631E20
:104140009C41E4B2FEF78CFF200010BD1800002057
:1041500010B502490248FFF7A5FF10BDCC080020AA
:104160006408002070B50E0000254468002C0BD0B8
:10417000236831005B6820009847002802DB2D1877
:10418000E468F3E701256D42280070BD70B50D00AD
:104190004468002C08D0236829009B6820009847B9
:1041A000002802D1E468F4E7200070BD70B50D006E
:1041B00000264468002C09D02368290020001B69D0
:1041C000984736182D18F6B2E468F3E730002C70E3
:1041D00070BD70B50D004468002C08D0236829001C
:1041E0001B6820009847002802D1E468F4E720000B
:1041F00070BD70B50D004468002C06D02368200007
:10420000DB6829009847E468F6E770BDF0B58C7963
:10421000457803002A190020072A1FDC5A688242C9
:1042200016D159601A78C8790A7112184D711A702E
:1042300000220B4DD0B284420FD98F685878960077
:10424000F75986000130775101325870F2E70200C9
:10425000D0680028FBD1D160E4E70120F0BDC04662
:10426000A40800200121064A10B5136805480B4038
:1042700004D18024640004804360116010BDC046F6
:10428000980800209C080020704710B5040001F039
:104290005BFA200010BD0000F0B5822919D1C3B22D
:1042A000294D5A01AA189169284C80010C40C0215F
:1042B00089052143916126490833401870215061D6
:1042C00028685B011A5C8A43110030220A431A54A1
:1042D000F0BD0029FCD1C026C1B21B4C4B01E31834
:1042E0009A681A4DB6052A4032439A60194A8001ED
:1042F00082185A600A000727246808325201115DAB
:10430000B9430F000121394311559F6910493D40C0
:1043100040182E439E6158617020115D8143080052
:1043200010210143115599680B48A21808408021BB
:104330004903014399609968890B89039960402377
:1043400011790B431371C3E7840D0020FFFFFF8F2A
:10435000F8080020B80A0020FF3F00F0EFF31083B8
:1043600003600123436072B670470368002B02D1DB
:1043700062B6BFF36F8F7047F7B50600FC36B369BE
:104380000400002B18D1B2277F00C55D6846FFF7F7
:10439000E5FF019BEDB2013B02D3E55DEDB2FAE72B
:1043A00068460193FFF7E1FF002D01D10020FEBD1B
:1043B000706E336EC01AFAE76846FFF7CFFFD82257
:1043C0000025019B5200013B02D3A55CEDB2FAE748
:1043D00068460193FFF7C9FF002DE7D0D6235B00A5
:1043E000E058043BE358E5E710B54468FC30436906
:1043F0000B48DBB25A01A2189168083308408021AB
:1044000049030143916091685B01890B89039160C5
:104410002268D318402219790A431A7110BDC04688
:10442000FF3F00F0F7B50500FC356B694268DBB271
:10443000190004000831106849014118C979C907F9
:1044400011D55B01D21893689B049B0C0CD1200002
:10445000FFF7CAFF63681A686B69DBB208335B0158
:10446000D3187F22DA71F7BDE969002923D16B6681
:10447000230001266933FF33EE6168465360B2279B
:10448000FFF76CFF7F00B221019BFF31013B5A1CFB
:1044900038D0D822E6555200A25C581ED2B26254DF
:1044A000625C8446002A04D120000193FFF79CFF40
:1044B000E9E76346EBE7D621490063500023EB614F
:1044C00023001D33FF3353606846D826FFF746FFAD
:1044D00001277600B221019BFF31013B5A1C11D00C
:1044E000B222A7555200A25C581ED2B26254625C3E
:1044F0008446002A04D120000193FFF775FFE9E705
:104500006346EBE768460193FFF72FFFA2E7F7B595
:10451000060068463400FFF721FF0027FF22019BB9
:10452000FC34013B0DD3E0682169884204DBE76875
:104530002069D71B3F18F4E72769E1687F1A013F1C
:10454000EFE768460193FFF710FFA3696846002B69
:1045500052D1FFF703FFB221019B4900013B5A1CD6
:104560000CD0755C5A1EEDB2002D05D16846019342
:10457000FFF7FBFE2800FEBD1300F0E7684601933D
:104580000025FFF7F2FEFF22236EBD4214D0616EBC
:10459000994211D9591CF3182166FF33587FE368FB
:1045A00021690133C0B213408B4203D0E168711816
:1045B0000872E3600135E7E7626E9A42DAD10023C0
:1045C00023660133A3616846B224FFF7C7FE640087
:1045D000B2220021019BFF32013B581CC6D031554D
:1045E000B05C5F1E002805D0B15430000193FFF786
:1045F000FBFEEDE73B00F0E7FFF7B0FED821019BA3
:104600004900013B5A1C06D0755C5A1EEDB2002DC4
:10461000ACD01300F6E768460193FFF7A6FED62359
:10462000D4225B0000259C465200B358BD4203D003
:1046300061467158994220D86246B2589A4299D13F
:10464000D42200235200B3506846A361D824FFF758
:1046500085FE6400B2220021019BFF32013B581C01
:1046600000D183E73155B05C5F1E002819D0B154EA
:1046700030000193FFF7B8FEECE7591CB150FF2161
:10468000F3186933FF331878E368C0B201330B4085
:1046900021698B4203D0E16871180872E36001352B
:1046A000C3E73B00DBE710B50400FFF730FF230052
:1046B000FC331969DA68914203D01B69E418207A47
:1046C00010BD01204042FBE710B50400FC34FFF7A9
:1046D0001EFFE0682369C01A01D50130FF3010BD0C
:1046E000F0B585B0019200910500FFF710FF02A818
:1046F000FFF734FE01200024FF26039B40425A1E90
:10470000531C1FD02B00FC3301998C4218D2D9685E
:104710001F69C91B01D50131FF31002910D019696A
:10472000DF688C460100BC4506D019691F6969180D
:1047300001373740097A1F61009F39550134E3E79B
:10474000013ADDE702A80392FFF70FFE200005B053
:10475000F0BD37B56B46DC1D00230D002370FFF75D
:1047600081FD2100FFF7FEFC2B68181828602078D7
:104770003EBD00002023F7B5414A0500D1690F2056
:104780000B43D36101223F490B7813430B703E4B1F
:1047900019788143197006211C78214319703B490F
:1047A0000C7822430A701A7802401A706022197835
:1047B0000A431A70364B374A5A805F78FF09FCD19A
:1047C0003548FEF711FC0123344C354E2268300089
:1047D00011780B43137080223900520007F031FA30
:1047E00022689378DB07FCD456621F262D4B1B688A
:1047F000590B980C9B01314030405B0FB14200D106
:1048000005211F2800D10238072B00D1043B31407D
:104810008901178D0191244930400F400199394396
:104820001185118D0700B143080038431085118DA3
:1048300018031E4B0B407F21034313851378C120BF
:104840000B40137004232268800011780B430C2165
:104850001370226813898B43154913810B581B026F
:104860001B0A0B5080230B6011787E3B0B431370A7
:10487000012300212B700F48FFF754FCF7BDC04601
:1048800000040040584400413C4400415944004168
:10489000000C00400640000009520000840D00207A
:1048A000880D0020246080003FF8FFFFFF8FFFFF8E
:1048B00000E100E0640800200078002810D0012109
:1048C000084B1B681A898A431A810822198B0A43EC
:1048D0001A830422198B0A431A830022024B1A609E
:1048E0007047C046840D00207C0D002010B50F4A93
:1048F00093699B0B9B03936113680222FF331A7227
:104900009879823A02439A711A7A9207FCD57F24E9
:10491000074A2140937A0800A343190080230143EA
:104920009172917A5B420B43937210BD840D00200B
:104930000050004110B50C00FFF794FC2100FFF778
:1049400048FC002804D1034A93699B0B9B039361A5
:1049500010BDC046840D0020F7B50D00832A19D183
:10496000CBB2404C5A01A21891693F48AD010840B2
:10497000C0218905014391613C4920686D1870216F
:10498000083355615B011A5C8A43110040220A43D7
:104990001A54F7BD022A5FD1354B8A00D05800283F
:1049A00002D003685B699847DA20400000F0C8FE37
:1049B000802204002B4E2F4B4660036052000021E2
:1049C000083007F03EF92200B2210023FC324900F2
:1049D000D3605561136113669361D3615366635469
:1049E000443163500431635004316354B221FF31C8
:1049F0006354FF202B0003405901019371188F6805
:104A0000194BAD003B40C027BF051F438F600727F0
:104A1000019B366808335B01995DB9430F000321A0
:104A20003943995523005169666801401D33490196
:104A3000FF3371184B60636852691B680240520172
:104A40009B1801221B18997A20000A439A72FFF7DB
:104A5000CBFC074BEC509CE711002800FFF71CFC37
:104A600097E7C046840D0020FFFFFF8FF808002065
:104A7000D008002060D7000070B505000124064B67
:104A8000A200D258002A06D0210028000134FFF7E6
:104A900063FF0A2CF3D170BDA40800200B4BCAB2EF
:104AA0000B488901C9185301C31859619969083223
:104AB000890B89039961036852019A180223D37103
:104AC0005179823B0B4353717047C046F808002070
:104AD000840D0020084B8A00D05810B5002803D060
:104AE00003689B68984710BDC9B2044B4901591827
:104AF00088688004800CF6E7D0080020840D002030
:104B000010B50C00FFF7E6FF00280CD0064BE4B20E
:104B10001B68083464011C19802362795B421343CB
:104B200063710223E37110BD840D0020F0B51C00F9
:104B30002A4B85B01B6807000D000292002B4AD05B
:104B4000274B8A00D058002808D0036822005B68F1
:104B5000029998470400200005B0F0BD3800FFF727
:104B6000B9FF844204D929003800FFF7B3FF0400DD
:104B70000121EBB21B4E03935B010193F218936882
:104B80009B0B9B039360019A336802989B18FF3339
:104B90005A7A0A435A72144BA901C918220007F025
:104BA00047F8002CD7D029003800FFF793FF0028E2
:104BB000D1D14021039B326808335B01D3181879A7
:104BC000014319710121D971019BD318FF339A7ADE
:104BD0000A439A72BFE701246442BCE77C0D0020BF
:104BE000D0080020840D0020B80A002013B56B46C1
:104BF000DC1D22000123FFF799FF012801D1207855
:104C000016BD01204042FBE770B5CBB2124A1348F3
:104C10005C0189018918021951609168104D0833AF
:104C20000D40802149032943402591609168890BFB
:104C30008903916001685A018A1816793543157104
:104C400095796D06FCD55B01C918CB79DB07FCD5DE
:104C500000198068C0B270BDB80A0020840D002021
:104C6000FF3F00F070B50D0000211400FFF7CCFFEE
:104C7000A04200D9200000230349A34203D0CA5C0C
:104C8000EA540133F9E770BDB80A0020F0B51E0000
:104C90003A4B85B01B680F000192002B35D0802362
:104CA000DB019E4231D80025354B8A01D31802938F
:104CB000002E2CD0334B1B680393FF233B401C007A
:104CC00000930834039B64011C19A379DB0921D0EC
:104CD0002D4B2E49186803F0B5FF2D4B1721584373
:104CE00003F0B0FF2B4BE279920713D4DA5D002A70
:104CF00001D10138F7D20122DA55009B5A01214B2C
:104D00009B189A69920B92039A6101256D422800C3
:104D100005B0F0BD00221F4B3400DA553F2E09D9F3
:104D2000009B40245A01174B9B1880229969120658
:104D30000A439A6122000199029806F079FF009BCC
:104D4000A1045A010F4B890C9B18029A2D195A6124
:104D50009A69361B920B92030A439A61009B039A4D
:104D600008335B01D3180222DA715979823A0A4377
:104D70005A71019B1B1901939AE7C0467C0D0020D4
:104D8000F8080020840D00200400002040420F009D
:104D900070110100ED08002070B50D001C000D4BD6
:104DA000AE01F61811003000220006F041FFEDB20E
:104DB00009496D014D196E61AB69084A2000134025
:104DC000AB61AB69A2049B0B920C9B031343AB61D9
:104DD00070BDC046F8080020840D0020FF3F00F0A1
:104DE000F7B5104B01901B780F001500002B0CD16C
:104DF0000D4B16001C78002C09D00C4E0C48348842
:104E00002018641906F014FF34802800FEBD002E1F
:104E1000FBD03A19330000210198FFF7BDFF241899
:104E2000361AF4E7780C0020790D00207A0D002066
:104E3000790C0020F8B50F0016000024012A26D9AD
:104E4000100006F0CFFE0500380007F055FA0323E6
:104E500002220130400028706B7096420DD93978DB
:104E600000290AD0531CDBB20137A9549E4203D05B
:104E70000232EC54D2B2F0E7320029000548FFF7C5
:104E8000AFFF441EA041C4B2280006F0B5FE2000CA
:104E9000F8BDC046CC080020F0B50024012685B03E
:104EA000184B0F0069461E7005000094FFF751FC77
:104EB000154B01A90B806A3BFF3BCB715A330B7238
:104EC000009B8C7109334B800E4B4E7108711C7026
:104ED0003A00092F0FD00D4F09223E700C4E2800CA
:104EE00000943480FFF77CFF69462800FFF731FC0F
:104EF000328808493C702800FFF772FF012005B096
:104F0000F0BDC046780C002009020000790D002099
:104F10007A0D0020790C002070B5CE7892B0050093
:104F20000C00022E0BD18B79C9792E480902194346
:104F3000FFF7B2FF411E8841C0B212B070BDFFF74B
:104F400091F92100FFF722F9002803D0C117081AB0
:104F5000C00FF2E7012E0ED1E279A37912021A43B3
:104F60002149112A3CD8D2B2002A39D02800FFF7B3
:104F700037FF0120E1E7032EDFD1A378002B28D0F3
:104F8000022B08D1E279A379120218491A432800AA
:104F9000FFF750FFD1E7012B05D1E279A379120287
:104FA0001A431349F3E7032BC7D10100412201A89B
:104FB00006F047FEFFF756F901A9FFF7F7F80028BA
:104FC00005D0E279A37912021A4301A9DFE7037839
:104FD000FFDEE279A37912021A430649032AC2D9F5
:104FE0000A78C3E7CC080020A2D700007CD70000D5
:104FF00096D7000092D70000CBB204495B01C918D4
:105000008B699B0B9B038B617047C046840D00200E
:1050100037B5050048780C000B2810D803F008FEBF
:10502000061B0F2B0F404561494C5A5D097801AAB8
:10503000002906D1022311802800FFF7ADFE0120D0
:105040003EBD00231380284B1B78012B00D1137029
:1050500002230021F0E78A780023012A03D101AA64
:105060001380224BF0E7204A1370214A93699B0B6F
:105070009B039361E3E78C78012C06D100211B4B45
:1050800001AA1C7011702300D6E70120002CD7D193
:10509000154B174A187093699B0B9B039361CFE7DD
:1050A00089782800FFF722FCC9E72800FFF734FFC2
:1050B000C6E701230F4ACCE70B780020DB06BFD1FF
:1050C0002800FFF7D9FCA2780A4B0B481A60FFF7BB
:1050D00011F8CAE70123094ABBE78A78074B1A602F
:1050E000C3E70020ACE7C046EC080020F40800202D
:1050F000840D00207C0D002064080020800D00201D
:105100003B4BF7B51E780500002E5FD1394C236864
:105110009A8B12070DD5082231009A833000FFF7D1
:10512000BBF810222368FF33997A0A439A72324BF4
:105130001E6023689A8B520701D504229A83FF339D
:105140001A7A920603D52022597A0A435A721A7A99
:10515000D20623D569460800284AC0CAC0C0A26842
:10516000920B9203A2604022587902435A71602345
:105170000A7828001A422AD1FFF74AFF2368FF3332
:10518000002827D08022997952420A439A711A7ACC
:10519000520603D54022597A0A435A727F260125C6
:1051A0002368FF331E722F00236808377F01DB1945
:1051B000DB79002B07D0124BAA00D05800280DD065
:1051C00003681B6898470135082DECD1F7BDFFF740
:1051D000B1FBD3E720210B4A9171D8E7FFF742F8E2
:1051E0002900FFF706F82368DF19FE71EBE7C046D8
:1051F000790D0020840D00207C0D0020B80A0020CD
:10520000D0080020FF50004110B50248FFF778FF9A
:1052100010BDC046CC080020014B024A1A607047FE
:10522000840D0020005000410120704710B5036834
:10523000014A1B6A984710BD130400000300FC33A9
:10524000D9699A69914203D0DB69C018007D704723
:1052500001204042FBE710B504000069FEF7F0FBB7
:1052600022000023FC329361D36186229200A418AD
:105270006360A36010BDF0200140303948424841CE
:105280007047F0231B011940802306209B009942A0
:105290000AD00133FF330130994205D08023023810
:1052A0005B00994200D0002070470F200140002091
:1052B000012903D00239481E8141481C7047000073
:1052C0008923F0B5182685B002919B000400C05CCC
:1052D000330008214343324D1700EB185956FEF7AF
:1052E0002FF9304B0821E05C33004343EB1859564B
:1052F000FEF726F92C4BE25C0393022A09D1113305
:10530000E05CFF2805D008214643AE197156FEF730
:1053100017F98A26B600A05DFF2819D00121FEF7F3
:1053200097F81822A35D21495A43AB56AD18DB010B
:1053300058188B21890060501D4901225B188C216F
:105340008900635069688A408D21890062501A6023
:105350000122029B11002069FEF7B4FC39002000F5
:10536000FFF78FFF390005002000FFF79EFF39008F
:1053700006002000FFF77FFF33000090290020691E
:105380000122FEF72DFB0B4B2069E25C039BE15CE5
:10539000FEF743FB2069FEF760FB05B0F0BDC04699
:1053A00084D30000250200002702000018440041B9
:1053B0001444004126020000802210B5040052006F
:1053C000002106F03EFC23000022FC335A6020003E
:1053D0009A6010BDF0B585B01D000AAB1B780400C3
:1053E00000930BAB1B78160001930CAB1B780F00DE
:1053F00002930DAB1B78039300234360FA239B00B9
:105400008360124B083303601430FFF7D5FF200090
:105410001D30FF30FFF7D0FF89236A469B002761CC
:10542000E6540B4B1278E5540A4B2000E2546A46CE
:10543000094B1279E2546A46127A0133E2546A4601
:10544000127B1033E25405B0F0BDC046B4D7000063
:10545000250200002602000027020000F7B51D000B
:1054600008AB1B780400009309AB1B78160001936E
:1054700000234360FA239B008360114B0F00083325
:1054800003601430FFF798FF20001D30FF30FFF756
:1054900093FF89236A469B002761E654094B1278E3
:1054A000E554094B2000E2546A46084B1279E25455
:1054B0008A22293BFF3B9200A3541032A354FEBD25
:1054C000B4D70000250200002602000027020000D9
:1054D0000300FC3358689B68C01A01D50130FF30C7
:1054E000704710B5040020001D30FF30FFF7F0FFBB
:1054F0000028F8D12069FEF7BAFA10BD10B51430B3
:10550000FFF7E6FF10BD0300FC3359689A6891422B
:1055100004DB5A689868801AFF30704798685B68A7
:10552000C01A0138F9E710B51D30FF30FFF7EBFF67
:1055300010BD10B504000069FEF7B5FA002805D0CB
:105540002069FEF7C0FA2069FEF7B2FA2069FEF77B
:105550009AFA002820D02069FEF7B5FA2200FC3222
:105560009369D1690133DBB28B4203D09169611831
:10557000087593618A239B00E35CFF2B0CD020000D
:105580001430FFF7C0FF092806DC8B238D229B0017
:105590009200E358A2581A602069FEF78FFA00289B
:1055A0001AD020001D30FF30FFF792FF002822D0D4
:1055B00086239B00E31899685A68914218D08E217F
:1055C0009A684900A218515C9A680132D2B29A6076
:1055D000C9B22069FEF77BFA2069FEF759FA002864
:1055E00005D02069FEF758FA2069FEF748FA10BD89
:1055F00001214942ECE72069FEF775FAECE700006B
:1056000070B5040000690D00FEF758FA00283ED17D
:10561000FF2686239B00E3185A68996801323240BE
:105620008A4223D1EFF31083DB0710D41E4B5B6853
:10563000DB05DB0DEDD0103B5BB2002B10DA0F2247
:105640001340083B9B08194A9B009B181B68206964
:10565000FEF734FA0028DCD02000FFF76AFFD8E715
:105660009B08C033124A9B009B58F0E75A680132EE
:1056700016409A68964205D08E215A684900A218B1
:1056800055545E602069FEF72AFA012070BD2000A3
:105690001D30FF30FFF71CFF0028B9D12900206919
:1056A000FEF715FAF1E7C04600ED00E01CED00E062
:1056B00000E100E0030070B5FC33D9699A69040089
:1056C00091421AD0DA698218157DDA690132D2B2B4
:1056D000DA618A239B00E35CFF2B0CD0200014309E
:1056E000FFF711FF0A2806DD8C238D229B00920014
:1056F000E358A2581A60280070BD01256D42E8E702
:1057000010B5FDF785FD06F037FAFDF753FB0120D4
:10571000FDF7A6FC084C2000FFF72CF82000FFF74F
:10572000CBF8FCF7EFFFFCF753FD044B002BFAD04E
:1057300000E000BFF7E7C046CC08002000000000F2
:1057400010B506F04FFA10BD10B506F055FA10BDB1
:105750000B0010B50100180006F0FAF910BD0000AA
:10576000F8B54E4657464546DE46A04BE0B54E00DE
:1057700080468A46894676089E420CDD9C4B9E42B6
:1057800000DDA2E000D19DE04B46002B00DCE0E014
:10579000984B994AA1E0994B9E4200DDB3E0984BAB
:1057A0009E4200DCA1E001235B429B4642465346F9
:1057B0004046514605F060FA02000B0006000F005B
:1057C00005F05AFA04000D008E4A8F4B05F054FA8A
:1057D0008E4A8F4B04F02AFB22002B0005F04CFA76
:1057E0008C4A8D4B04F022FB22002B0005F044FA7A
:1057F0008A4A8B4B04F01AFB22002B0005F03CFA7E
:10580000884A894B04F012FB22002B0005F034FA81
:10581000864A874B04F00AFB32003B0005F02CFA65
:10582000844A06000F00844B2000290005F024FA6A
:10583000824A834B05F092FC22002B0005F01CFAF3
:10584000804A814B05F08AFC22002B0005F014FAF7
:105850007E4A7F4B05F082FC22002B0005F00CFAFB
:105860007C4A7D4B05F07AFC22002B0005F004FAFF
:1058700002000B003000390004F0D8FA53464246CB
:1058800005F0FAF95B46013366D05B46734A744C07
:10589000DB00E418D3181A685B6805F05FFC424629
:1058A000534605F05BFC02000B002068616805F0C0
:1058B00055FC030048460A0000280EDA8022120632
:1058C0008A180AE0002800D15EE742465346404667
:1058D000514604F0ABFA03000A00180011003CBC6A
:1058E00090469946A246AB46F8BD5E4A5E4B04F030
:1058F0009DFA00225D4B03F045FB002800D152E7E2
:1059000043465246E9E700F005F9594B04000D0003
:105910009E422ADC574B9E4250DC02000B0004F0F2
:1059200085FA0022514B05F019FC802306000F0078
:105930000022DB052000290004F078FA0B000200A9
:105940003900300004F08EFD002380468A469B46D5
:105950002CE7284B484AC0E702000B00404651465E
:1059600005F0FCFB03000A00B7E7444B9E421ADC3B
:105970000022434B05F0F2FB002206000F00404BD3
:105980002000290005F078F90022384B04F04EFA87
:105990000B0002003900300004F064FD0223804651
:1059A0008A469B4602E70B0002003649002004F0BD
:1059B00059FD032380468A469B46F7E600222B4B7F
:1059C00005F0CCFB002206000F00284B2000290028
:1059D00004F02CFA0B0002003900300004F042FD04
:1059E000012380468A469B46E0E6C046FFFF0F44FF
:1059F0000000F07F182D4454FB21F93FFFFFDB3FEF
:105A0000FFFF1F3E11DA22E33AAD903FEB0D762403
:105A10004B7BA93F513DD0A0660DB13F6E204CC5D8
:105A2000CD45B73FFF8300922449C23F0D555555E0
:105A30005555D53F2F6C6A2C44B4A2BF9AFDDE5257
:105A40002DDEAD3F6D9A74AFF2B0B33F711623FEF9
:105A5000C671BC3FC4EB98999999C93F08D800001A
:105A6000E8D700009C7500883CE4377E0000F03FDA
:105A7000FFFFF23FFFFFE53FFB21F9BFFF7F034040
:105A80000000F83F0000F0BF30B5204A4B0087B05F
:105A90005B0893421CDD1E4A934205DD02000B00A9
:105AA00005F05CFB07B030BD02AA00F07DFC0323CB
:105AB0001840049A059B01280FD002281CD000280A
:105AC00015D0029803990124009402F089F8E9E7BF
:105AD0000022002301F00AFBE4E7009002980399FA
:105AE00002F07EF880231B069C466144DAE70298A8
:105AF000039901F0FBFAD5E70298039901F0F6FA51
:105B000080231B069C466144CCE7C046FB21E93F4D
:105B1000FFFFEF7F49004B0819007047474AF0B577
:105B20004F4691464B005B0D99444646D6464A4641
:105B3000C0B505000C000E0088460700132A27DCBC
:105B4000002A4BDB3E4B13419A460B005246134052
:105B5000034318D03B4A3C4B2800210004F066F96F
:105B60000022002303F00EFA002847D0002C04DAAC
:105B700080234A465B031341984446465346002718
:105B80009E43380031001CBC90469946A246F0BDA9
:105B9000332A08DD8023DB009945F4D102000B0095
:105BA00004F044F9EFE7294A944601226344524243
:105BB000DA4092460242E6D0224A234B28002100D6
:105BC00004F034F90022002303F0DCF9002815D09A
:105BD000002C1EDB534646469F430FE0194A1A4BE2
:105BE0002800210004F022F90022002303F0CAF962
:105BF000002803D0002C04DB0027002638003100E9
:105C0000C1E76400640825430027002DF6D0104E3C
:105C1000F4E74B46142B0BD03422D21A01239340C5
:105C20005D19BD4208D201239C462F00E044D1E714
:105C3000133B9C46E044CDE72F00CBE701FCFFFF80
:105C4000FFFF0F009C7500883CE4377EEDFBFFFFF3
:105C50000000F0BF70B54B001B4C5B0D1C190E0013
:105C6000132C11DC002C28DB184B23411C000C40AA
:105C7000044318D104000D00146055600022C90FC0
:105C8000CB071000190070BD332CF3DC104CA44678
:105C9000012463446442DC400442EBD00600A64386
:105CA0000D00340002E09E4300243500146055606E
:105CB0002B00220005F052FAE5E70024CB0FDD07A8
:105CC00014605560DFE7C04601FCFFFFFFFF0F00D7
:105CD000EDFBFFFF30B5214A4B0087B05B089342D4
:105CE0001EDD1F4A934205DD02000B0005F036FA67
:105CF00007B030BD02AA00F057FB03231840049AF6
:105D0000059B012813D002281DD0002814D002982A
:105D1000039901F0EBF980231B069C466144E7E7F9
:105D2000002300220093002301F05AFFE0E70298CD
:105D3000039901F0DBF9DBE7012402980399009451
:105D400001F04EFFD4E7012402980399009401F07A
:105D500047FF80231B069C466144C9E7FB21E93FBE
:105D6000FFFFEF7F30B5144A4B0087B05B089342CA
:105D70001ADD124A934205DD02000B0005F0EEF930
:105D800007B030BD02AA00F00FFB049C059D430044
:105D9000022018400123181A00902200029803994B
:105DA0002B0001F0CFFFEBE701230022009300233B
:105DB00001F0C8FFE4E7C046FB21E93FFFFFEF7FAA
:105DC00000B51C4A430083B05B08934218DD1A4AB1
:105DD000934204DD011C03F0E5FD03B000BD6946FC
:105DE00000F0A6FF03230199184001280CD00228D7
:105DF00017D0002811D00098012202F0B9FDECE77D
:105E0000002102F06BF9E8E70122009802F0B0FDF2
:105E100080231B069C466044DFE7009802F05EF991
:105E2000DBE7009802F05AF980231B069C46604489
:105E3000D3E7C046D80F493FFFFF7F7FF0B5C64686
:105E400043005F081B0E7F3B00B5051C06001C00CD
:105E5000162B1CDC8046002B21DB194F1F4107420B
:105E600011D0184903F0FAF8002103F0C5F8002812
:105E700009D0002D04DA80231B0423419846A8444E
:105E80004346BB431E00301C04BC9046F0BD0E4B85
:105E90009F42F8D9011C03F0E1F8061CF3E7094919
:105EA00003F0DCF8002103F0A7F80028EBD0002D68
:105EB00001DB0026E7E7002FE5D0044EE3E7C0460C
:105EC000FFFF7F00CAF24971FFFF7F7F000080BFA4
:105ED000F0B54746CE4680B58DB01D0006000F00D8
:105EE000140000F005F92E4B009001911B785BB275
:105EF000984601333CD022002B002000290005F0F9
:105F000075FC002834D132003B003000390005F028
:105F10006DFC814600282BD100220023200029009F
:105F200003F016F8002823D0012302931D4B04969A
:105F3000059703934B460A93434606940795002B17
:105F40001DD0002300221900100004F08BFA4346F4
:105F500008900991022B14D105F008FE212303605B
:105F60000A9B0093002B15D1089B099C0093019478
:105F7000009801990DB00CBC90469946F0BD08966A
:105F8000099702A802F06EFD0028E5D00A9B009355
:105F9000002BE9D005F0EAFD0A9B00930360E3E7DC
:105FA0002400002028D80000F0B58DB0041C00F0BB
:105FB0000BFC0023224E051CF356013331D0211C6B
:105FC000201C03F0B3FE071E2BD1201C02F0BAFDEB
:105FD000FE21890503F010F8002822D00123029346
:105FE000184B201C03930A9705F0BEFC06900791FE
:105FF00004900591144802F037FD0023F3560890F1
:106000000991022B10D002A802F02CFD00280BD021
:106010000A9B0193002B0CD10898099905F0F6FC16
:10602000051C281C0DB0F0BD05F0A0FD2123036068
:10603000EEE705F09BFD0A9B01930360ECE7C04689
:106040002400002030D800002CD80000F0B58DB01E
:10605000041C00F01BFD0023224E051CF3560133E7
:1060600031D0211C201C03F061FE071E2BD1201C07
:1060700002F068FDFE21890502F0BEFF002822D053
:1060800001230293184B201C03930A9705F06CFC24
:106090000690079104900591144802F0E5FC002356
:1060A000F35608900991022B10D002A802F0DAFCF6
:1060B00000280BD00A9B0193002B0CD1089809995A
:1060C00005F0A4FC051C281C0DB0F0BD05F04EFD2C
:1060D00021230360EEE705F049FD0A9B019303606D
:1060E000ECE7C0462400002038D800002CD800007F
:1060F000F0B557464546DE464E465C006408E0B5BE
:10610000250083B092469446154322D09B4E4D0005
:106110006D08B5421DDC56421643994FF60F2643D3
:10612000BE4216D8CE0FF60783460700B146A542F9
:1061300020DC06008846A54213DB904211D319D11A
:106140004B46DA0F8F4BD2009B181E685B6898464F
:1061500007E004F091FD02000B0004F083F9060053
:1061600088463000414603B03CBC90469946A24662
:10617000AB46F0BD844EB54245DD2E15B346834E89
:10618000B0465E46464401967F4EB44200DDA5E02F
:10619000002C00D0BDE05646002E00DCE7E07C4E2F
:1061A000B04601267642B34656467600D844B246FB
:1061B000002EF6DC774EB246019E564500DA7EE0B0
:1061C00080250903090B6D030D437249884568DB7F
:1061D00080241B031B0B64032343424601998E1A40
:1061E0006246E91AB81A002E2DD0674592415242F4
:1061F000891A19D40A0002431CD04900C50F4D1951
:106200004700013EECE7002D76D15E46002E00DC13
:10621000B0E05F4E0196019E013E01965E4676001B
:10622000B346002EF7DCAFE7FA0F6D00AD187F0024
:10623000013ED5E74B46D90F524BC9005B181E688B
:106240005B6898468DE767459B415B42C91A01D55B
:10625000380029000B000343ECD04B4B1A00994245
:1062600009DCC30F4900C91801235B429C4640006A
:10627000E0449142F5DD474B98455FDA42469B1A70
:10628000142B67DC02000C004348DA4040441941FB
:1062900084404B4620000B43994610430600C846F5
:1062A0005FE74346C91A1F291EDC10003A4B8C4099
:1062B0004344D8408A400300944623438DE7514627
:1062C000019E8F1B1F2F32DCB24606003249BD40B3
:1062D0005144CE40B8403543070076E72615B04616
:1062E0002A4EB246D04465E741462C4B5B1A9A4091
:1062F00013000022944670E7EE02B046254E019648
:10630000019E013E019646467600B046002EF7DC1F
:106310003AE7E602B2461F4EB04601267642B34641
:1063200056467600D844B246002EF6DC42E7019D80
:106330001A490027491B8840050046E7184B194CAD
:106340009C464B4644446144240519430C430600D3
:10635000A04606E71F2B05DCD8400F4B434499406D
:1063600008439BE70D4B9B1A1941080096E7084E1E
:10637000B0461FE7064E019606E7C046FFFFEF7FD7
:106380000000F07F40D80000FFFF0F0001FCFFFF7E
:10639000EDFBFFFF02FCFFFF1E040000E2FBFFFF1E
:1063A0000000F0FFFF030000F0B54E464546DE4614
:1063B0005746E0B5E14B4C008FB0904689466408E3
:1063C0009C4200DC87E0DE4B9C4222DCDD4A002957
:1063D00000DC92E0DC4B04F0C1FEDB4B06000F005A
:1063E0009C4200D17EE1D94AD94B04F0B7FE0200AD
:1063F0000B00414630000A604B60390004F0AEFEED
:10640000D34BD24A04F0AAFE434601259860D960D6
:106410006BE0D04B9C4200DC8FE0CF4B9C4200DD18
:1064200055E1CE4A231592469A4451460905631A0E
:1064300019001D00040005F0F5F905F029FA020025
:106440000B00200029000892099304F087FE002227
:10645000C34B04F011FC0F00060005F0E3F905F052
:1064600017FA04000D0002000B00300039000A94F6
:106470000B9504F073FE0022B94B04F0FDFB0022E3
:1064800000230C900D9102F063FD002800D192E1F1
:10649000002300222000290002F05AFD434243411C
:1064A0000133B04A41460192022208A800925246A6
:1064B00000F036FF4B460500002B16DA80224346DB
:1064C0001206944642465B68454263445360D36873
:1064D0006344D36009E00B00020041460A604B6050
:1064E0000022002300258A60CB6028000FB03CBC4E
:1064F00090469946A246AB46F0BD934B03F096FCFE
:10650000914B06000F009C4200D13DE18F4A904B19
:1065100003F08CFC02000B00414630000A604B6027
:10652000390004F01BFE894A894B03F07FFC0125EA
:1065300043466D429860D960D7E7FFF7EBFA8A4A85
:106540008A4B06000F0004F097FB0022884B03F0F3
:106550006DFC05F067F9050005F09AF9794A7A4B68
:106560000490059104F088FB02000B003000390014
:1065700004F0F4FD754A06000F0004980599744B69
:1065800004F07AFB029003911F2D00DCC7E0029A11
:10659000039B3000390004F0E1FD83468A465346F0
:1065A0005B0024155B0DE31A102B6CDD0498059934
:1065B000D322674B520504F05FFB02000B00300052
:1065C00039000292039304F0C9FD0A000100130090
:1065D0000691079202003900300004F0BFFD029AD4
:1065E000039B04F0BBFD06000F0004980599614A67
:1065F000614B04F041FB32003B0004F0AFFD069E0E
:10660000079F0B000200390030000292039304F050
:10661000A5FD4B005B0D83468A46E41A312C32DD22
:1066200004980599B822544B920504F025FB030009
:106630000C000200029303940B000698079904F0E3
:106640008DFD02000B0006000F000698079904F06C
:1066500085FD029A039B04F081FD484A0290039154
:1066600004980599464B04F007FB029A039B04F03B
:1066700075FD02000B00300039000292039304F014
:106680006DFD83468A465A465346414630000A60AD
:106690004B60390004F062FD029A039B04F05EFD3A
:1066A00044460B000200A260E3604B46002B00DB77
:1066B0001BE75B46236080231B06534463608023F3
:1066C0001B069C466144A060E1606D420DE70B0033
:1066D000020004F043FD434600259860D96018602D
:1066E000596002E7D3221A4B520504F037FD214AC4
:1066F000214B0D00040004F031FD02000B00414667
:1067000020000A604B60290004F028FD1A4B194A4A
:1067100004F024FD434601259860D960E5E60200B7
:106720000B003000390004F019FD6B1E154A9B0068
:106730009B5883468A46A342A5D130E7FB21E93F17
:106740007BD9024000004054FB21F93F3163621ABB
:1067500061B4D03DFB213941FFFFEF7FEAFBFFFF32
:1067600000007041D0D8000083C8C96D305FE43F9D
:106770000000E03F7370032E8A19A33BC149202516
:106780009A837B3950D80000D3220C4B520503F07A
:106790004DFB0B4A0B4B04000D0003F047FB0200BE
:1067A0000B00414620000A604B60290004F0D6FC33
:1067B000034A044BB9E6032373E6C04661B4D03DF7
:1067C0007370032E8A19A33BFE22F8B54300041C04
:1067D00001005B089205934261D05ADC9B4A9342C8
:1067E00062DC8C229205934200DCCEE002F0A8FF2E
:1067F0009749051C02F0A4FF964902F02FFC291CC2
:1068000002F09EFF944903F0CDF8291C02F098FF96
:10681000924902F023FC291C02F092FF904903F0F8
:10682000C1F8291C02F08CFF8E4902F017FC291CCC
:1068300002F086FF8C49061C281C02F081FF8B4960
:1068400003F0B0F8291C02F07BFF894902F006FC36
:10685000291C02F075FF874903F0A4F8291C02F0F7
:106860006FFFFE21890502F0F9FB011C301C02F0CC
:106870008FFD211C02F064FF011C7F4803F092F899
:10688000011C201C03F08EF8011C7C4803F08AF8E0
:1068900004E003F087F8011C02F07AFDF8BD002047
:1068A000002CFBDC7648F9E7002870DBFE20800531
:1068B00003F078F8FC21890502F042FF041C00F087
:1068C000BBFB6349061C050B201C02F039FF614924
:1068D00002F0C4FB211C02F033FF5F4903F062F8B1
:1068E000211C02F02DFF5D4902F0B8FB211C02F0D3
:1068F00027FF5B4903F056F8211C02F021FF59499C
:1069000002F0ACFB211C02F01BFF5749071C201CA6
:1069100002F016FF554903F045F8211C02F010FF64
:10692000534902F09BFB211C02F00AFF514903F07E
:1069300039F8211C02F004FFFE21890502F08EFBCC
:10694000011C381C02F024FD311C02F0F9FE2D035D
:10695000071C291C281C02F0F3FE011C201C03F05C
:1069600021F8291C041C301C02F078FB011C201C9F
:1069700002F00EFD011C381C02F070FB291C02F015
:106980006DFB011C02F06AFB88E73E4886E7FE21AA
:10699000890502F063FBFC21890502F0D1FE2C4938
:1069A000041C02F0CDFE2B4902F058FB211C02F022
:1069B000C7FE294902F0F6FF211C02F0C1FE27495B
:1069C00002F04CFB211C02F0BBFE254902F0EAFF5D
:1069D000211C02F0B5FE234902F040FB211C02F00D
:1069E000AFFE061C201C00F027FB1F49051C201CC5
:1069F00002F0A6FE1D4902F0D5FF211C02F0A0FE08
:106A00001B4902F02BFB211C02F09AFE194902F0EF
:106A1000C9FF211C02F094FEFE21890502F01EFB35
:106A2000011C301C02F0B4FC291C02F089FE124942
:106A300002F0B8FF291C02F011FB011C02F00EFB52
:106A4000011C114802F0AEFF28E7C046FFFFFF3EE1
:106A500008EF1138047F4F3A4611243DA80A4E3EF4
:106A600090B0A63EABAA2A3E2EC69D3D6133303F74
:106A70002D57014039D119406821A233DA0FC93F9F
:106A8000DB0F4940DB0FC93FDA0F4940F0B5FE2369
:106A90004646D6464F464400C0B5051C060064086D
:106AA0009B059C4200D18AE07EDC8F4B9C420EDC31
:106AB0008E4B9C4200DD8FE08D4902F0CFFAFE2123
:106AC000890502F099FA0300281C002B72D1281CBA
:106AD00002F038F8011CFE20800502F063FFFC2163
:106AE000890502F02DFE8349051C02F029FE82492A
:106AF00002F0B4FA291C02F023FE804902F052FF92
:106B0000291C02F01DFE7E4902F0A8FA291C02F0A1
:106B100017FE7C4902F046FF291C02F011FE7A495B
:106B200002F09CFA291C02F00BFE78498046281CD2
:106B300002F006FE764902F035FF291C02F000FE45
:106B4000744902F08BFA291C02F0FAFD724902F036
:106B500029FF291C02F0F4FDFE21890502F07EFACE
:106B60008146281C00F068FA6C4B071C9C4200DC34
:106B70007DE04946404602F00BFC391C02F0E0FD86
:106B8000391C02F06BFA011C02F068FA644902F049
:106B900065FA011C634802F005FF002E0ADC802321
:106BA0001B069C46604405E0011C02F0FBFE011C34
:106BB00002F0EEFB1CBC90469946A246F0BD594936
:106BC00002F0BEFD5849041C281C02F0B9FD011C4E
:106BD000201C02F043FAEDE7011C02F0B1FD45492B
:106BE000041C02F0ADFD444902F038FA211C02F009
:106BF000A7FD424902F0D6FE211C02F0A1FD40494A
:106C000002F02CFA211C02F09BFD3E4902F0CAFE64
:106C1000211C02F095FD3C4902F020FA211C02F0F3
:106C20008FFD3A49061C201C02F08AFD384902F00B
:106C3000B9FE211C02F084FD364902F00FFA211C36
:106C400002F07EFD344902F0ADFE211C02F078FD19
:106C5000FE21890502F002FA011C301C02F098FBAB
:106C6000291C02F06DFD291C02F0F8F9A2E7011CB5
:106C7000040B02F0F3F949468246404602F088FBD5
:106C8000011C504602F05CFD24038046211C201CA0
:106C900002F056FD011C281C02F084FE391C051C64
:106CA000201C02F0DBF9011C281C02F071FB011C06
:106CB00002F0D4F9011C1C4802F074FE011C40468D
:106CC00002F070FE211C051C201C02F0C7F9011CFB
:106CD000164802F067FE011C281C02F063FE011C2E
:106CE000124802F05FFE58E7FFFFFF3EFFFFFF3153
:106CF000CAF2497108EF1138047F4F3A4611243D1A
:106D0000A80A4E3E90B0A63EABAA2A3E2EC69D3D96
:106D10006133303F2D57014039D119409999793F5E
:106D20002EBD3B33DB0FC93F2EBD3BB3DB0F493FCD
:106D3000F0B557464E46DE464546E0B5B04B4700F7
:106D400089B00C0006007F089F426EDDAD4B9F426C
:106D50001ADC0F23AC499F43002800DC71E002F0ED
:106D600021FEAA4B061C9F4200D114E1A84902F063
:106D700019FE011C2060301C02F014FEA44902F030
:106D800011FE0125606054E0A24B9F426FDDA24BD3
:106D90009F4200DDF8E0862252429146FB1599445D
:106DA0004B46DD057D1B281C02F0D6FF02F0F4FFE8
:106DB000011C0590281C02F0F5FD8721C90502F091
:106DC000BFFC804602F0C8FF02F0E6FF011C0690FF
:106DD000051C404602F0E6FD8721C90502F0B0FC23
:106DE0000021079002F0EEF8002800D105E1002113
:106DF000281C02F0E7F8434243410133874A21004F
:106E00000192022205A800924A4601F031FA0500DB
:106E1000002E0EDA8022120694462368454263440F
:106E2000236063686344636003E000230025086017
:106E30004B60280009B03CBC90469946A246AB4640
:106E4000F0BD02F00BF9714B061C9F4200D1C1E06E
:106E50006F4902F003F9011C2060301C02F0A2FD12
:106E60006B4902F0FBF8012560606D42E1E701F03B
:106E700069FE6B49804602F063FCFC21890502F043
:106E8000EDF802F069FF050002F086FF5E498146D9
:106E900002F056FC011C404602F084FD5C4980462D
:106EA000484602F04DFC8246011C40461F2D00DC86
:106EB00083E002F077FD83465B46FF22DB0DFF1582
:106EC0001340FB1A082B47DD5649484602F038FCB0
:106ED0008246011C404602F065FD8346011C03907A
:106EE000404602F05FFD514602F05CFD80464E498F
:106EF000484602F025FC414602F054FD011C824642
:106F0000584602F04FFDFF22C30D1340D846FB1A2E
:106F10008346192B20DD4549484602F011FC039BAE
:106F2000071C011C181C9A4602F03CFD011C8046FF
:106F3000504602F037FD391C02F034FD3C49071C75
:106F4000484602F0FDFB391C02F02CFD011C824674
:106F5000404602F027FD83465B4659462360404683
:106F600002F020FD514602F01DFD6060002E00DBA6
:106F70005FE780231B065B44236080231B069C463F
:106F8000604460606D4254E7011C02F00BFD002577
:106F9000606020604DE7234902F004FD2249051C92
:106FA00002F000FD011C2060281C02F0FBFC1E49C1
:106FB00002F0F8FC012560603BE702F0F3FCFF23E0
:106FC0003A001C499A436B1E9B005B5883469A42C9
:106FD000C2D171E7134902F041F81349051C02F0D0
:106FE0003DF8011C2060281C02F0DCFC0E4902F078
:106FF00035F8012560606D421BE70323FEE6C046BD
:10700000D80F493FE3CB1640800FC93FD00FC93F8F
:1070100043443537800F4943FFFF7F7F58DA000034
:1070200084F9223F0044353708A3852E00A3852E1E
:1070300032318D24D8D900002A49430070B50200AE
:10704000041C5B088B423BD8002B38D000283EDB69
:107050002549C6158B420BD88020000420423DD123
:10706000002300E00B005200591C0242FAD0F61A2D
:10707000802352021B04520A1A437F3E5300F10739
:1070800000D593008022701019210026002552049B
:10709000AC189C4202DCA5181B1BB61801395B001A
:1070A00052080029F4D1002B02D0012301369E435F
:1070B000FC239B059C4676106644C005801970BD74
:1070C000011C02F03DFB211C01F0C8FFF7E7011C89
:1070D00002F068FC011C02F05BF9F0E701235B425F
:1070E000C5E7C046FFFF7F7FFFFF7F00F0B5474643
:1070F000CE4680B587B000920193754B4F00814614
:1071000088467F089F4263DC04F08CFB002800D196
:10711000D4E04A4643464846414603F0ADFD0400EC
:107120000D006C4A6C4B03F0A7FD6C4A6C4B02F0EF
:107130007DFE22002B0003F09FFD6A4A6A4B04F09B
:107140000DF822002B0003F097FD684A684B02F00F
:107150006DFE22002B0003F08FFD664A664B03F0A4
:10716000FDFF22002B0003F087FD644A644B02F010
:107170005DFE22002B0003F07FFD029003910022B0
:10718000604B2000290003F077FD029A039B060064
:107190000F002000290003F06FFD009A019B0400FE
:1071A0000D004846414603F067FD02000B00200039
:1071B000290003F0D3FF02000B003000390003F078
:1071C000CDFF02000B0000204F4903F0C7FF70E025
:1071D00002000B0003F050FD04000D003D4A3E4B41
:1071E00003F04AFD3D4A3E4B02F020FE22002B00F8
:1071F00003F042FD3B4A3C4B03F0B0FF22002B0062
:1072000003F03AFD394A3A4B02F010FE22002B00FF
:1072100003F032FD374A384B03F0A0FF22002B0069
:1072200003F02AFD354A364B02F000FE2B00220007
:1072300003F022FD354B029003919F429FDD344BBA
:1072400000229F423DDC334900207B182E49160066
:107250001F0003F083FF049005910022294B2000BA
:10726000290003F009FD32003B0003F077FF029A8A
:10727000039B06000F002000290003F0FDFC009A8C
:10728000019B04000D004846414603F0F5FC020056
:107290000B002000290003F061FF02000B0030000A
:1072A000390003F05BFF02000B000498059903F01E
:1072B00055FF07B00CBC90469946F0BD002012491E
:1072C000F7E7154B002604920593144FC5E7C04617
:1072D000FFFF3F3ED43888BEE9FAA8BDC4B1B4BDB3
:1072E0009EEE213EAD529C804F7E923E9015CB1972
:1072F000A001FA3E7751C1166CC1563F4C55555509
:107300005555A53F0000E03F0000F03F3233D33F2A
:107310000000E93F0000E0FF0000E73F0000D23F2F
:10732000F0B5DE464E4645465746E0B5DC4CA54432
:107330000D9114001900A49A0993DA4B9200D658C3
:107340004D1E03901821E01E0696029501F004FDE3
:10735000C3430100DB1719404B1C9A009B1ADB004A
:107360001B190B9105934C1B771918D4A59BA500ED
:107370009C463F1922AE6544013707E0286804F0B7
:1073800087FA013403C60435BC4208D0002CF5DA74
:1073900000200021013403C60435BC42F6D1069B0F
:1073A000002B01DA00F0FDFB069B03990133DB00A3
:1073B0009A46099BDA00944600920022914672AAEE
:1073C0000492B94A6144934688469AAB63449B440D
:1073D000029B002B00DABCE15D4600260027039CDF
:1073E0004D442A686B6803CC03F046FC02000B0096
:1073F0003000390002F01AFD083D06000F00444538
:10740000EFD1049B4B441E605F6008239C46E1441F
:10741000D145DDD10EA804218446494261448C4601
:10742000069A93009C44614684460A910399083B5E
:1074300063448C460C93009B009263449B46009AE5
:107440000498D10003008C46634408911E685F686D
:10745000002A33DD954980468C466244D300984427
:1074600070AB9A460EAB99460022914B3000390022
:1074700003F002FC04F0D6F904F00AFA00228D4B66
:1074800004000D0003F0F8FB02000B00300039008F
:1074900003F064FE04F0C6F94B4601C39946434627
:1074A00020001A685B68290002F0C0FC08235B42D8
:1074B0009C46E04406000F00D045D5D1059B300026
:1074C0001A003900984601F0D5FAFF2300229B05E7
:1074D00004000D0003F0D0FBFEF720FB0022764BEA
:1074E00003F0CAFB02000B002000290003F036FE67
:1074F0000D00040004F096F9814604F0C9F9020079
:107500000B002000290003F029FE060040460F0072
:10751000002800DCEEE0009B18215A1E92000EAB02
:107520009B58091A1D000D41A9448D405D1B0EABEF
:107530009D5017231B1A1D41002D2DDD01239C4654
:10754000009BE144002B00DC1CE20E9C0123002C7C
:1075500000D0B5E0009A012A09D099000EAA54582B
:107560000133002C00D0ACE0009A9A42F5D1059B83
:10757000002B0EDD012B00D1A8E1022B09D1009BCD
:107580000EA95A1E92000EAB9B5807939B029B0AB2
:107590008B50022D00D1C1E00023002230003900C1
:1075A00001F0D6FC009B002800D194E2069A591EF7
:1075B0008A4210DC414A0A9894460EAA63449446D3
:1075C00000229B0063441C68043B22438342FAD19F
:1075D000002A00D0C0E0069B0EAA013B9B00D358B6
:1075E000002B00D0B3E001220C9B043B5968013210
:1075F0000029FAD0009B9C466244110007921A00B1
:1076000001338B4246DC0B9863468046A59C43447D
:10761000A046099C9B00A1464A449844D30022AA54
:107620009146049A99449446089BA59A63448446DB
:10763000614494469A468B006344009343465868DD
:1076400004F026F94B4618605960029B002B24DB9E
:107650004D46039C0026002701E0286869680CCC91
:1076600003F00AFB02000B003000390002F0DEFBE1
:10767000083D06000F005C45EFD153469E60DF6079
:1076800004239C460433E0449C46009BE144E244CE
:107690009845D3D1079B0093D1E600260027ECE75D
:1076A00094FDFFFFB0DD000018FEFFFFFFFFFF1F8E
:1076B0000000703E0000704100002040FFFFFF3FCF
:1076C000002180225204141B0EAA545000999942A2
:1076D0000EDD0EA884469B000EAA8900D258614494
:1076E0006344CF4800E01A68821A04C38B42FAD17F
:1076F00001243CE7059B002B06D1009B0EAA013B11
:107700009B00D558ED1517E70022C64B300001F05D
:1077100043FC002800D024E100253DE732003B0077
:107720000020C14903F01AFD06000F00002C00D113
:1077300032E7059A0020BC4901F09CF902000B00D9
:107740003000390003F00AFD06000F0024E7012293
:1077500050E70026002754E64B46059A07938846D3
:107760008B000EA9CB58183A08950592002B0DD125
:107770008C464146AD4B43449B006344043B5868F0
:107780000139183A0028F9D088460592059A002058
:10779000A54901F06FF9434604000D00002B00DA03
:1077A00005E29E000EAB9C464346DB0066449C46C9
:1077B000059370AB9946049F67440097306804F0C6
:1077C00067F822002B0003F057FA00223860796036
:1077D000974B2000290003F04FFA083F04000D00EA
:1077E000043EB945EAD14AAB03939B4600239A462F
:1077F000069B4246994643460132029204934B4609
:10780000002B00DAAAE080208A4B009D9846C00534
:10781000894900260027002408E008239C460835F3
:10782000E044544511DC4346186859682A686B687F
:1078300003F022FA02000B003000390002F0F6FAE1
:10784000013406000F00A145E7DA5B46C0C39B4642
:1078500001239C46009BE244083B0093029B9A450F
:10786000CDD1049B9846A49B022B00DD8EE0002B1B
:1078700037DC1FD1059B00271D00039B00249C467D
:107880001E006544083E2A686B683800210002F03B
:10789000CDFA083D07000C00AE42F4D1089B002B46
:1078A00003D080231B069C4664443A0023000D99B4
:1078B0000A604B600720079B18409B239B009D4458
:1078C0003CBC90469946A246AB46F0BD009B0EA933
:1078D0005A1E92000EAB9B5807935B025B0A8B50BB
:1078E00057E64346002B00DA70E100200021DB0060
:1078F0004AAAD61848AF32687368083E02F096FA72
:10790000B742F8D1089B002B00D025E10B00020004
:107910004A984B990D9C2260636003F01FFC43461C
:1079200007000C00002B13DD01254CAEB1463800DA
:107930002E0021004C4601360CCC02F077FAA1460D
:10794000B045F7DA089B07000C00002B00D015E1CA
:107950003A0023000D998A60CB60ABE70026002730
:1079600073E701239C46009BE1440225002B00DDC8
:10797000EBE532003B0000202B4903F0EFFB060053
:107980000F0009E60024F2E54AAB0393A49B032B06
:1079900000D08FE74346002B00DC14E1039ADB00A4
:1079A0009B46130091465B441E685F68234B43442B
:1079B0000293DB00994448AB9A464B465C681B68CF
:1079C0001800210032003B000090019102F02EFAD5
:1079D00004000D0002000B000098019903F0BEFBAB
:1079E0003B00320002F022FA4B469860D9601C60DE
:1079F0005D6008235B429C46E14426002F00CA4597
:107A0000DBD14346012B00DCE3E0039A13005B4427
:107A10001E685F68029BDB0099464A44904610E06E
:107A2000FFFFFF000000E03F0000F03FFFFFFF3FCF
:107A30000000703E70DD0000FB21F93FFFFFFF1FDB
:107A4000984643465C681B681800210032003B00E2
:107A50000090019102F0EAF904000D0002000B0011
:107A60000098019903F07AFB32003B0002F0DEF946
:107A70004346039A9860D9601C605D60083B26000D
:107A80002F009A42DCD14D469446002600244746FA
:107A9000083565442A686B683000210002F0C6F999
:107AA000083D06000C00AF42F4D1039B4A9F5D687D
:107AB0009968D868089B002B65D0802212069446EE
:107AC0000D9B6544604464441F605D609960D860AC
:107AD0001E615C61EEE69A464B460793059B3000BB
