:10200000008000202136000009360000093600005B
:1020100000000000000000000000000000000000C0
:102020000000000000000000000000000936000071
:1020300000000000000000000936000075360000B6
:10204000093600000936000009360000653200003C
:102050000936000009360000093600000D36000080
:10206000093600000936000009360000353200004C
:1020700009360000593500004935000009360000D6
:102080000936000009360000093600000936000054
:102090000000000009360000093600000936000083
:1020A0000936000009360000093600000936000034
:1020B0000000000010B5064C2378002B07D1054B1B
:1020C000002B02D0044800E000BF0123237010BDA4
:1020D000B00200200000000068EA0000044B10B5C8
:1020E000002B03D00349044800E000BF10BDC046E8
:1020F00000000000B402002068EA0000030010B5F0
:102100001B790068002B01D00123594001F040FDEC
:1021100010BD10B50400080021602271012101F0FA
:10212000EBFC20000021FFF7E9FF200010BDF8B50F
:10213000040008201D000F1C161C03F0D3FE002312
:102140002060A760E660256120006361A361636091
:10215000E361F8BD70B50E0041680400012002295A
:102160000FD0084D0A22280001F069FE616822683C
:102170008B0001319E50280061600A2201F05FFE51
:10218000002070BDC00A0020F0B58DB0019008910C
:102190001000190000F0BAFA00230A900AA80B9365
:1021A0000AF0ACF9C069013008F0B4F9019B041CD5
:1021B000BE49986807F0AAFC089B0090002B00D14C
:1021C0004CE1011CBA4807F0ABFFBA4907F09EFC8E
:1021D000211C07F001FB09F085FFB74AB74B0290BD
:1021E000039109F007F9B64AB64B09F075FB09F0FF
:1021F000CBFF09F077FFB44AB44B04000D0009F09F
:10220000F9F804F0F9F8B04AB14B06000F002000CD
:10221000290009F0EFF804F0EFF8AE4A04900591B8
:10222000AD4B3000390009F0E5F822002B0008F032
:10223000BBF9AA4A04000D0004980599A84B09F0BF
:10224000D9F802000B002000290008F0ADF9A54ADA
:10225000A54B08F0A9F90022A44B04F0CBF909F032
:1022600093FF0021051C07F045FAA149002800D082
:10227000F7E0281C07F052FA002800D0F5E0281CEF
:1022800009F030FF904A914B09F0B4F806000F00B6
:1022900004F0FAF8974A984B09F0ACF803F032FED4
:1022A000964A974B09F0A6F80022904B04F0A2F949
:1022B00009F06AFF0021041C07F01CFA8C49002871
:1022C00000D0D7E0201C07F029FA002800D0D5E084
:1022D0008C49281C07F01AFC04F042F98949051CB6
:1022E000201C07F013FC04F03BF986490490281CDD
:1022F00007F0E4FD8349051C049807F0DFFD011C8D
:10230000281C07F00DFF211C07F066FA674907F04B
:10231000FDFB39000990300004F06EF87A4A7B4BDF
:1023200009F068F809F030FF041C04F021FA04F009
:10233000D9F8019B051CD86809F0D4FE624A634BAA
:1023400009F058F806000F0004F056F804900591C3
:102350003000390003F06AFF06900791201C09F055
:10236000C1FE049A059B09F045F802000B0068487D
:10237000684909F0B1FA0600281C0F0009F0B2FE06
:10238000069A079B09F036F80B000200390030006E
:1023900008F026FC09F0F8FE089B002B00D172E043
:1023A00004F094F909F09EFE544A554B09F022F8C6
:1023B00002000B0000204D4909F08EFA09F0E4FEFE
:1023C0003A4907F0A3FB099907F006FA09F08AFEDB
:1023D000514A04000D0002980399504B09F00AF885
:1023E00002000B002000290009F076FA4C4A4D4B00
:1023F00009F072FA09F0C8FE009907F091FE09F0A1
:1024000071FE0022484B04F0F5F804000D00019B1A
:10241000186909F0FBFD22002B0008F0C5F809F04F
:10242000B3FE0021041C07F065F92249002833D1CE
:10243000201C07F073F9002832D10A980B9907F095
:1024400099F93A49051C201C07F038FD011C281C8D
:1024500007F0C2F907F076F90DB0F0BD00993448E5
:10246000B1E6281C07F0B8F9FBE62149281C07F063
:1024700057FEF6E6201C07F0AFF91BE71C49201CAD
:1024800007F04EFE16E704F021F909F02BFE1B4A77
:102490001B4B08F0AFFF91E7201C07F09DF9C0E748
:1024A0000449201C07F03CFEBBE7C0460000704119
:1024B0000000C0400000C041D200DE02098AEF3FA8
:1024C0001D5A643BDF4F0A40399D52A246DF913FBF
:1024D00046DFA13F0E2DB29DEFA7FE3F7B14AE4716
:1024E000E17A943FA01A2FDD24AA71400080764043
:1024F0000000B443CC0BB08F4E5DED3FF8C1631AC2
:10250000DCA54C400000B4424B766C04E275D93F28
:1025100090693140B1AA8DBF352905DD5ED2B03F4B
:10252000B0726891ED7C1A400000384000006145AF
:1025300000009041002370B50A000D00190004004E
:10254000FFF722FE0600854212D901232A00190056
:102550002000FFF719FE012320622A00002120003D
:10256000FFF712FE0600236AF61A6662A66170BDC6
:1025700000232A0001212000FFF706FE2062A84266
:10258000F1D8B542EFD22D1A6561ECE79621F8B586
:102590002B4C8901200002F027F9200002F026F9D7
:1025A0000028FAD02749200001F0FCFB0121062079
:1025B00001F0A2FA0A2001F0FBF9082003F08EFCDA
:1025C000040001220021FFF7A4FD1F4F08203C60FA
:1025D00003F084FC040000220421FFF79AFD1B4E47
:1025E0002820346003F07AFC052305005B42184A7A
:1025F0001849FFF79CFD184C396828002560FFF743
:10260000A9FD31682068FFF7A5FD00F06FF81348B9
:1026100000F074F811492068FFF78CFF202003F0C8
:102620005DFC04000E4A0F4900F096F80E4D2000A4
:102630002C6000F0D7F8286800F0E2F8F8BDC0463A
:10264000C00A002004DC0000D4020020D8020020D0
:1026500044449841DE5DC4C2DC02002060B0CC5E20
:1026600010DC000020DC0000E002002070B501F06A
:102670000FF8134D134A2B6804009B18834209DAA4
:10268000114E306800F0E6F8002803D1306800F001
:10269000A9F82C60FA220D4D92002B689B18A342DA
:1026A0000DDA094B186800F0ABF8FA222B6892009B
:1026B0009918611A0A22064801F0C1FB2C6070BD0E
:1026C000E402002010270000E0020020E8020020C1
:1026D000C00A002007B50021034800910B000A0042
:1026E00001F01CFB07BDC046CC02002010B5002144
:1026F000014800F043FE10BDEC02002010B50100BF
:10270000014800F0BDFD10BDEC02002070B50D00C9
:102710000A49040006F0AEFE641A002D01D0074BF2
:10272000E418074D0749280001F03CFB28000A2265
:10273000210001F08EFB200070BDC04680510100D9
:10274000C00A00202BDC000010B5024800F086FD16
:1027500010BDC046EC020020F7B5040026001B4F58
:10276000051D0091280039001036019203F06BFB23
:102770003900300003F067FB0121192000F0B2FBA3
:1027800001211A2000F0AEFB01211B2000F0AAFB62
:102790000F4800F05FF90F49FF2805D000F02EF92F
:1027A0000D4B984207D20D490D4801F0FBFA00236A
:1027B00023702000FEBD012301992370300003F037
:1027C00061FB0099280003F05DFBF2E7F2DF0000F7
:1027D000380300203ADC000034DC000049DC000053
:1027E000C00A0020037810B50400002B05D0026950
:1027F0004168024800F006F9E06110BD380300208E
:1028000070B504780500002C09D101211A2000F0D0
:10281000A7FB21001B2000F0A3FB00210EE00C48C9
:1028200000F018F90021E86103280BD1173000F0FF
:1028300097FB00211B2000F093FB0121192000F0E1
:102840008FFB70BD1A2000F08BFB0121E2E7C04630
:1028500038030020C069033843425841C0B2704772
:1028600007B50021034800910B000A0001F056FA59
:1028700007BDC046F0020020037D002B04D1437544
:10288000837583610133037570477FB5C36802ADFB
:1028900004000E0002916A608B4203D1028AAB8869
:1028A0009A4218D02000062229000C3009F066FF59
:1028B000206801F0F0FB6B79227AE17900932068BF
:1028C000002301F071FD20682979320001F0B4FB8A
:1028D000206801F0D6FB7FBD70B518260400FFF715
:1028E000CBFF3300082120790D4D4343EB18595697
:1028F00001F092F933000821A0794343EB185956AF
:1029000001F08AF9082160794643AD19695601F052
:1029100083F9044B200006CBFFF7B7FF70BDC0461C
:1029200084DC00003003002007B5437D0091019254
:10293000002B07D09A070AD5EFF310835A42534170
:10294000837572B60099019AFFF79FFF07BDDB07F9
:10295000F8D58369014A9BB29360F3E70018004001
:10296000437D002B05D09A0704D5837D002B00D032
:1029700062B67047DB07FCD58369024A9BB2D3601D
:10298000F7E7C0460018004010B5006801F08CFB66
:1029900010BD0000114A124B1249136000235371FD
:1029A0001371114A11601149D3609180092191710D
:1029B0000639537413741375D37111720C4AD360B2
:1029C0005374137413750B4BD17113600A4B9380BE
:1029D0001D2393711C3B13727047C04630030020C7
:1029E00000093D00A40A0020F80200200A080000A7
:1029F00014030020B00A00201B1A000010B500F0DC
:102A000049FA10BDF8B5060008000D00170009F0DE
:102A10009DFF0400380009F099FFE1B2C3B23A000B
:102A2000280000F0CDF90424431C11D000F030FE42
:102A30000024050000F02CFE3368401B984207D2AA
:102A4000642000F05BFE00F0FDF904000228F1D9DB
:102A50002000F8BD10B500F0F5F910BD07B5002154
:102A600004480B000A00009101F058F9024B034A98
:102A70001A6007BD3C0300203803002050C300004B
:102A80000020704707B50021034800910B000A00A1
:102A900001F044F907BDC0464403002007B50021FA
:102AA000034800910B000A0001F038F907BDC04649
:102AB0004C03002007B50021034800910B000A00D9
:102AC00001F02CF907BDC0465403002007B50021D2
:102AD000034800910B000A0001F020F907BDC04631
:102AE0005C03002010B504007822002109F04FFE9D
:102AF000200010BD10B50C244C4304192068002898
:102B000005D009F01FFE002363602360A36010BDA1
:102B100070B505000024210028000134FFF7EAFF0A
:102B20000A2CF8D1280070BD10B5054C2000FFF725
:102B3000D9FF044A0449200003F0DCF910BDC04667
:102B40006403002000000020112B0000F8B51C23B6
:102B5000234E244F3370244C07333B70BD33237016
:102B600000F074FC214DDF2804D801232B7023785A
:102B7000DB4323701E48FFF7AFFE3078012100F0E1
:102B8000BBFF3878002100F0B7FF2078012100F06A
:102B9000B3FF01211E2000F0AFFF01211E2000F035
:102BA000F7FF3078012100F0F3FF2978207800F05A
:102BB000EFFF0A2000F0A2FD297801252078694066
:102BC00000F0E6FF0B4800F099FD00211E2000F008
:102BD000DFFF00211E2000F08FFF074B1D70F8BDA6
:102BE000060000200400002005000020DC03002077
:102BF00014030020EE020000DD03002013B50024C2
:102C00006B465C711C71019A0B490C48FFF78CFEF6
:102C10000B4B2100187800F0BBFF00F039FD0400D9
:102C2000084B187800F0E0FF012804D000F030FDD8
:102C3000001B0428F4D913BD00127A0014030020ED
:102C4000060000200400002010B5044B0121187874
:102C500000F09EFF0248FFF783FE10BD0600002033
:102C60001403002007B56B46D871D9790248C9B260
:102C7000FFF78AFE0EBDC0461403002010B5034BBB
:102C8000187800F0B1FF0028F9D110BD0400002031
:102C900010B50400FF20FFF7E5FF207010BD70B5F0
:102CA0000C0005000800FFF7F3FF2078401B4342AB
:102CB000584170BD13B56B46DC1D00232000237006
:102CC000FFF7E6FF207816BD70B50500084CFFF74A
:102CD000F1FFEF2808D0013C002C01D0A842F6D12A
:102CE000401B4342584170BD01204042FBE7C046B3
:102CF000E9030000F8B5050008000E0017002C00DD
:102D0000FFF7B0FF631B9E4204DD2078FFF7AAFFA8
:102D10000134F7E7012F02D1EE20FFF7A3FFF8BD42
:102D200010B50400FF20FFF79DFF002C00D020709D
:102D300010BDF0B585B01F0002ABDC1D00230500FF
:102D4000E020019116002370FFF7BEFF002802D19A
:102D5000002005B0F0BD2000FFF79AFF8022237805
:102D60001543AB42F4D12000FFF792FF2378019A7C
:102D70009342EDD13800FFF7D3FF35003A78AB1B13
:102D80009A4204DD2800FFF783FF0135F6E72100B2
:102D9000EE20FFF784FF0120DBE770B50400E020A0
:102DA0000D00FFF75FFF7F202040FFF75BFF28004B
:102DB000FFF758FF002D02D1EE20FFF753FF70BD43
:102DC000F7B51D001E4B07001B780C001600002BEA
:102DD00001D1FFF7BBFEFFF751FFFFF70FFF022105
:102DE0001120FFF7DAFF210000223800FFF782FFF1
:102DF000300001222900FFF77DFF03260634641905
:102E00002500354003D0FFF755FF0134F8E7FFF701
:102E10001BFFFFF733FFFFF7F1FE6B469C1D2200FF
:102E200007330121112025701D70FFF782FF002854
:102E300001D1FF232370FFF707FF00202056FEBDBE
:102E4000DD030020124B13B51B78002B01D1FFF7D7
:102E50007DFEFFF713FFFFF7D1FE00212020FFF7D3
:102E60009CFFFFF7F1FEFFF709FFFFF7C7FE6B4678
:102E70009C1DFF2323706B46002207331A7001212B
:102E800022002020FFF755FFFFF7DEFE207816BD59
:102E9000DD030020114B13B51B78002B01D1FFF788
:102EA00055FEFFF7EBFEFFF7A9FE00213720FFF7E5
:102EB00074FFFFF7C9FEFFF7E1FEFFF79FFE6B46C9
:102EC0000022074C07331A70012122003720FFF738
:102ED00030FFFFF7B9FE200016BDC046DD0300201D
:102EE000E803002030B585B06B46DD1D9C1D1B4BF3
:102EF00028701B782170002B01D1FFF727FEFFF708
:102F0000BDFEFFF77BFE02215020FFF746FF0022A7
:102F100001212800FFF7EEFE012220001100FFF73B
:102F2000E9FE0E24FFF7C6FEFFF78EFEFFF7A6FEB2
:102F3000FFF764FE0F2300226C446B4422701A706A
:102F4000012122005020FFF7F4FE002801D1FF23C9
:102F50002370FFF779FE05B030BDC046DD030020C9
:102F600030B585B06B46DD1D9C1D1B4B28701B7852
:102F70002170002B01D1FFF7E9FDFFF77FFEFFF77E
:102F80003DFE02215120FFF708FF00220121280009
:102F9000FFF7B0FE012220001100FFF7ABFE0E2468
:102FA000FFF788FEFFF750FEFFF768FEFFF726FEEB
:102FB0000F2300226C446B4422701A7001212200FE
:102FC0005120FFF7B6FE002801D1FF232370FFF741
:102FD0003BFE05B030BDC046DD03002007B5002133
:102FE000034800910B000A0000F098FE07BDC046A0
:102FF000E0030020F8B505000E0017000024BC42D5
:1030000008D02B68315D1B6828009847002801D044
:103010000134F4E72000F8BD70470300FC33196A5F
:10302000DA69914203D01B6AC018007E7047012004
:103030004042FBE70300FC33D8691B6AC01A01D584
:103040000130FF3070470000F7B50193FA23802666
:10305000002504009B008360124B760008330F00AC
:1030600045602900009203603200183009F08FFBA0
:1030700023002000FC332130DD6132001D62290075
:10308000FF3009F084FB87239B00E3185D609D609F
:103090006B461B78276123756B461B79A57520004D
:1030A0006375FEBD60DC0000020010B5FC325368A1
:1030B00094680133DBB29C4202D0546801555360DE
:1030C00010BD002210B5837D93420DD087239B0055
:1030D000C4186368A4680133DBB2A34204D0213072
:1030E000FF30FFF7E1FF0122100010BD0300FC33A9
:1030F00099685A68914206D09A68805C9A68013251
:10310000D2B29A60704701204042FBE710B51830F8
:10311000FFF7ECFF10BD70B50400006901F088F8FE
:10312000002814D0206901F091F8002810D02069FF
:1031300000F0FCFF0321206901F002F88C239B00C2
:10314000E558002D39D10023FC34E361236270BDC2
:10315000206901F085F8002809D0206901F07BF88A
:10316000002804D0206901F080F80028DFD0206911
:1031700001F076F8002826D1206901F062F80028D5
:10318000E5D0206901F071F8002837D087239B0033
:10319000E218536892689B1A01D50133FF33FF216F
:1031A000002B05D020002130FF30FFF79FFFC1B278
:1031B000206901F02FF8A075C9E7236820001B697A
:1031C0009847A847BFE7206900F0B0FF20690321B6
:1031D00000F0B6FF206901F048F80028B7D0872337
:1031E00000229B00E3185A609A600123A3758B2389
:1031F0009B00E3589342AAD09847A8E72200FC32EC
:10320000D369126A0133DBB22069934206D100F020
:1032100084FF0321206900F093FF98E701F02AF86A
:10322000010020001830FFF73FFF206900F07EFF0B
:10323000EFE7000010B50248FFF76DFF10BDC04674
:10324000F003002010B50C230B2202490248FFF7BF
:10325000FBFE10BDA80A0020F0030020002303702D
:1032600070470000044B10B51B68002B00D0984736
:103270000122024B1A7210BD2406002000140040E7
:10328000037813B5002B28D0144B994200D21900B3
:10329000002368460091019309F02CF80F21026980
:1032A0004369C46801320A40643B103192050C4006
:1032B0009B066404134323433F2482681140426801
:1032C0000903224092010B43134302682240134337
:1032D000034A1361937ADB09FCD113BD80436D3837
:1032E00000140040094B0A4A9A605A7852B2002AE8
:1032F000FBDB084A5A605A7852B2002AFBDB064AC6
:103300005A805A78D209FCD17047C046000C004060
:103310000204000002051100044200000221044BD7
:103320001A888A431A809A7AD209FCD17047C0461B
:10333000001400400222044B19880A431A809A7A2A
:10334000D209FCD17047C046001400400122044B52
:1033500019880A431A809A7AD209FCD17047C0466C
:10336000001400400121044B1A888A431A809A7A7B
:10337000D209FCD17047C046001400402023F7B5A5
:1033800000262A4A0F00916905000B439361284BE0
:10339000284A294C9A82B7420BD1284B3E001A7812
:1033A00070231A4205D023881B0702D50126236902
:1033B00001932800FFF796FF2800FFF7AFFF2800D2
:1033C000FFF7C4FF63881E4A134063801D4B2380B0
:1033D000A37ADB09FCD1C0211B4A083313608900A2
:1033E00053581B021B0A53500123E279134307224F
:1033F000E371237F93432377A37ADB09FCD1280071
:10340000FFF798FF2800FFF7ADFF002F0BD1002E2C
:1034100009D0019B002B06D02361A37ADB09FCD1E4
:1034200001332B70F7BD8423DB03F5E70004004074
:1034300000080040CE0600000014004038040040A0
:10344000FFBFFFFF080A000000E100E024207047F2
:1034500070B50121202000F04FFB0021202000F05A
:1034600097FB0A2000F04AF90021202000F044FBDD
:10347000642000F043F9202000F0D2FA96230500E2
:103480009B002F4C984222D92E49200000F0B2FF19
:10349000200000F023FE03210B2000F0BDFB0321E0
:1034A0000C2000F0B9FB00226B21200000F05EFE32
:1034B0000121200000F09CFE1B21200000F098FE5E
:1034C0002000032100F03CFE200000F01CFE1D49FE
:1034D000200000F08FFF200000F000FE03210B20F1
:1034E00000F09AFB03210C2000F096FB00226B21D8
:1034F000200000F03BFE0721200000F079FE96231B
:103500002B219B009D4200D92039200000F070FE45
:103510000321200000F014FE200000F0F4FD012142
:103520001E2000F0E9FA01211E2000F031FB0121EC
:103530001F2000F0E1FA01211F2000F029FB70BDDF
:10354000A80A0020A086010010B5024802F053FB33
:1035500010BDC0462806002010B5024802F04BFB03
:1035600010BDC046640800207FB51949194800F015
:10357000D9FC1949194800F0D5FC1949194800F03F
:10358000D1FC1949194800F0CDFC194C194920000B
:1035900000F0C8FC184E1949300000F0C3FC0125AA
:1035A00003233100019500930D220B33144802F0E0
:1035B000B7FA1D230393013B02931A3B0193009535
:1035C00018331B2221000F4802F066FA7FBDC04667
:1035D00000080042A00A0020000C0042A40A0020BB
:1035E00000100042A80A002000140042AC0A00208B
:1035F000B00A002000180042B40A0020001C00425B
:103600002806002064080020FEE70000034B10B5E8
:103610001B68002B00D0984710BDC046B80A002098
:1036200070B50F490F4CA14204D100F08FF802F0A1
:1036300035FCFEE70C4D00238D42F6D0CA18E81881
:10364000A24205D3094B8242EFD00949002204E08F
:10365000006804331060F1E704C38B42FCD3E4E755
:1036600000000020B002002074EA0000B002002038
:103670001C11002010B500F066F8002801D100F000
:1036800057F810BD014B18607047C046B80A0020BB
:10369000014B18687047C046BC0A0020F7B51348B4
:1036A000012284461249134C8E68636805689B0E9C
:1036B0001340019288686268019F920E3A40674603
:1036C0003F6893420ED1BD420CD186420AD35B19AA
:1036D000FA254868AD00861B07486B437043000D10
:1036E000C018FEBD3D0013000600E3E7BC0A002041
:1036F00010E000E000ED00E05555000070B5041E3C
:1037000010D0FFF7CBFF050000F01CF8FFF7C6FF55
:10371000054B401B9842F7D9FA23013C9B00ED185A
:10372000002CF3D170BDC046E703000070470000D5
:1037300010B5034A13680133136000F0B7FB10BDE6
:10374000BC0A002070470020704700001E2270B5A0
:1037500046484749436893431C3A13434360082350
:103760008C6923438B61434C434B9C829C8A14435A
:103770009C82DC681442FCD00124404A1470157805
:10378000254203D055786DB2002DF8DB01249460FA
:10379000547864B2002CFBDB394C5460547864B22A
:1037A000002CFBDB8224E4015480547864B2002CAA
:1037B000FBDB02249C840E34DD682542FCD0314CB6
:1037C000DC621024DD682542FCD09D8C2E4C2C43FD
:1037D0009C841024DD682542FCD002249D8C802628
:1037E0002C439C844024DD683542FCD0DD682542B2
:1037F000F9D01024DD682542FCD000249460547870
:1038000064B2002CFBDB214C5460547864B2002C71
:10381000FBDB1C6A1E4D2C4080251C621C6AAC43DD
:103820001C62032393601B4B536053785BB2002BE5
:10383000FBDB0023FF240B72174A4B728B72CB7297
:10384000164B1A60164B174A1B6811689A065B01E3
:10385000C90E2340520F12020B431343124A138521
:10386000802342681343436070BDC046004000415E
:10387000000400400C06000000080040000C00405E
:1038800001050100B905FF7D040A000000070300DF
:10389000FFFCFFFF03060100006CDC0208000020B3
:1038A000246080002060800000400042FA21314BFB
:1038B00010B51868890005F057FD2F4B0138984264
:1038C00056D82E492E4A4860C020136A00061B02B3
:1038D0001B0A03431362002407238C600B608021C2
:1038E000136A09061B021B0A0B431362FC22254BB9
:1038F000196A0A431A62FC22196A92010A431A627F
:10390000A022196AD2020A431A622000002101345F
:1039100000F0F2F80F2CF8D11B4B1C005A7852B271
:10392000002AFBDB194A5A80194B1A00597EC90933
:103930000129FBD0E421C90099803F21D970537E31
:10394000DB09012BFBD0C02300205B0113619070C9
:1039500000F034F863785BB2002BFBDB0D4B0E4AB2
:103960006380D379DB09012BFBD04123537010BD59
:10397000FEE7C04608000020FFFFFF0010E000E067
:1039800000ED00E000040040000C00401E4000007C
:10399000004000422140000000480042914202D015
:1039A00002D98A1AD0407047521A9040FBE70000B3
:1039B000014B18607047C04614000020164A00B53D
:1039C0001300517EC9090129FBD00138042816D8FB
:1039D0001969124A0A400F211A615A788A4305F080
:1039E000B9FC0308060B0300110001220A435A70B8
:1039F00000BD11000322F9E711000222F6E7F023CF
:103A000011691B050B430F21136153788B43190078
:103A100002230B435370EBE700400042FFFFFFF02F
:103A200010B504000E2800D80F340121200000F04A
:103A3000F3F81823102163432A4CE4186156002937
:103A400001D014290DD1284B1800DA79D209012AA6
:103A5000FBD002241A78A2431A70C379DB09012B28
:103A6000FBD022480300427ED209012AFBD01F244A
:103A700002692140A2430A4302615A7ED209012A07
:103A8000FBD0022219780A431A705A7ED209012A01
:103A9000FBD00222197B0A431A731A7ED207FCD587
:103AA00001221A765A7ED209012AFBD00222197B02
:103AB0000A431A731A7ED207FCD5588B80B25A7EFD
:103AC000D209012AFBD002211A788A431A705A7E41
:103AD000D209012AFBD0064B1A68064B1968FFF77A
:103AE0005DFF10BD84DC0000004800420040004241
:103AF000100000200C000020182330B51D00040029
:103B000045430820204A55192856013014D003296E
:103B100012D808006343D156D31805F01BFC0228C5
:103B20000E1B5868CB010221184A9B181A18403204
:103B30001170012282405A6030BD5868CB010621C5
:103B4000124A9B181A1840321170012282405A60A2
:103B50009A61F1E75868CB0106210C4A9B181A18A4
:103B600040321170012282405A605A61E4E758687D
:103B7000CB010221054A9B181A184032117001220C
:103B800082409A60D8E7C04684DC000000440041CF
:103B90001823F0B508245843114A13181C57013450
:103BA0001BD0012635005F688356BD400D4ADB01FE
:103BB0009A18906805420BD10C00601E8441D219FE
:103BC0004032107834400336A400B04320431070D4
:103BD000044A9B18002901D15D61F0BD9D61FCE79D
:103BE00084DC000000440041182310B5082443433E
:103BF00007490020CA181457013408D05B560549FC
:103C0000DB015B18186A5368D8400123184010BDC7
:103C100084DC00000044004118224243F8B52C4ED9
:103C20000300B218127A52B2140001320ED0481CAE
:103C300000240C280AD805F08DFB071F1F1F1F1F2B
:103C40001F1F1F0B0B0B0B00012464422000F8BD4B
:103C5000092905D100211800FFF74EFF0024F5E7E0
:103C60000A2901D10839F6E700240B29EED10A39D7
:103C70001800FFF741FFE9E718225343F21855688F
:103C800001202C00F356134ADB016E089B18C9B2C1
:103C900004409E19002C0DD00F24303632780901D3
:103CA00022401143C9B25B19317040331A78104376
:103CB0001870D3E732000F27303216785B19BE43F5
:103CC0003143117040331A7810431870BEE7C04674
:103CD00084DC000000440041F7B5C31D01930023BC
:103CE00006000D00041D009321780A22280000F030
:103CF000C6F82E210700280000F047F8009B3F1867
:103D0000DB190093019B01349C42EDD1F17928002D
:103D10000A2200F0B4F8009B1818FEBD30B503ACC1
:103D20002578044CC57108340460017142718371B7
:103D300030BDC046E4DF0000F7B506000D000C0002
:103D40008B180193019B671B9C4207D03368217835
:103D50001B683000984701340028F3D13800FEBDBD
:103D600070B5040008000D0008F0F0FD23680200A3
:103D700029005B682000984770BD10B50B1E02D06B
:103D8000FFF7EEFF0300180010BD10B503681B68B5
:103D9000984710BD10B50249FFF7E2FF10BDC046BD
:103DA000F0DF000070B50400FFF7E7FF050020001A
:103DB000FFF7F0FF401970BDF0B58BB06B461500F2
:103DC000002205330600DA770800012D00D80A2505
:103DD00009AC290005F04EFBCAB2130037330700C7
:103DE000DBB2092902D813003033DBB2013C237067
:103DF000002FEED121003000FFF7BFFF0BB0F0BD68
:103E0000F8B506000C00151E04D10368C9B21B6882
:103E10009847F8BD0A2A0CD100290BDA2D21FFF7AB
:103E2000B4FF614207002A003000FFF7C5FF3818D1
:103E3000EFE7D2B221003000FFF7BEFFE9E770B52F
:103E40000400FFF7DDFF05002000FFF7A3FF401986
:103E500070BD70B50500FFF7D3FF04002800FFF721
:103E600099FF201870BD10B5002A04D10368C9B2AB
:103E70001B68984710BDD2B2FFF79EFFFAE710B556
:103E8000FFF7F1FF10BD000010B50400FFF74EFC76
:103E9000014B1C6010BDC046180000200122024BDF
:103EA00052421A607047C04618000020164A10B5EA
:103EB0001368591C26D0013B1360002B22D172B627
:103EC000124B134A0433934213D9124A01211000B2
:103ED000147D0C42FCD02021148BFF319B085B0029
:103EE00021431183D3610C4B13800123027D1A42BD
:103EF000FCD0BFF34F8F094B094ADA60BFF34F8FF5
:103F0000C046FDE710BDC04618000020002000009C
:103F1000030200000040004102A5FFFF00ED00E0A9
:103F20000400FA05016070479446F0B59E1E721EAB
:103F300096416246056892072F6836063A43324337
:103F40002A60072505AC24780068A4012940214394
:103F500042680024022B00D05C03114321434160DE
:103F6000F0BD30B5C0250368AD031C6812052A40BA
:103F70002243C0240904A4022140114319600368AC
:103F80005A6814435C6030BD0123026811680B431A
:103F9000136003681A68D207FCD4DA69D207F9D42F
:103FA00070470223026811680B4313600268D369EB
:103FB0009B07FCD4704703681A7ED20702D41A7E8E
:103FC0009207FCD57047002203685A837047036844
:103FD000187E4007C00F70470368187EC0097047FD
:103FE000802302685B42117E0B431376704703689F
:103FF000588B8007C00F704702230268518B0B4318
:10400000538370470368187EC007C00F704703686A
:10401000188DC0B2704703681A7ED207FCD589B2EA
:10402000012019857047012203689A7570470122A3
:1040300003681A757047000070B5012604684B08C4
:1040400033403140256809075B070B432B4323604E
:1040500004685100034805F087F90138C0B22073A5
:1040600070BDC046006CDC020123026811680B437E
:10407000136003681A68D207FCD4DA69D207F9D44E
:1040800070470223026811680B4313600268D3690A
:104090009B07FCD470470368DA699207FCD40221BD
:1040A0001A688A431A6070470268936A5B0A5B0267
:1040B0001943916203681A7E5207FCD5986AC0B210
:1040C00070470123026811680B43136003681A6884
:1040D000D207FCD4DA69D207F9D470470223026808
:1040E00011680B4313600368DA699207FCD430212E
:1040F0005A8B8A43110010220A435A830268D369FB
:104100005B07FCD470470221026813688B4313607D
:104110000268D3699B07FCD4704780230268DB02E6
:10412000116851680B4353607047000003680349EE
:104130001A685A680A405A607047C046FFFFFBFF82
:10414000032230B5036811401C68074D5A68090402
:104150002A40E4061143640F5960052C03D102681C
:10416000D3695B07FCD430BDFFFFFCFF70B5056869
:1041700004006B8B9B069B0F022B0DD06B8B0020DA
:104180009B069B0F032B32D06B8B9B0704D56B8B4D
:104190009B069B0F012B2AD16B6A49001143DB0A56
:1041A000C9B2DB020B436B622368002A13D11A7E6B
:1041B000D207FCD55B8B9B069B0F022B04D04908D2
:1041C00000222000FFF7D2FF2368588B4007C30F5F
:1041D000012058400BE0187E8007C00FF4D11A7EF2
:1041E000D207F8D5C022596892020A435A6070BDBE
:1041F0000368283319700368187EC007C00F03D105
:104200005A8BD207F8D57047588B4007C30F01204F
:104210005840F8E7036828331970036800201A7EB5
:10422000520704D5588B01234007C00F58407047F0
:1042300003681868C006400F043843425841C0B2B2
:1042400070470368187E4007C00F70470368187EE8
:10425000C007C00F70470368588BC006C00F704777
:104260000368187E8007C00F70470368588B0007EB
:10427000C00F704703681A68D206520F052A05D18D
:104280001A7E920702D41A7ED207F9D528331878FD
:10429000C0B270470368214A30B593422FD0204AFC
:1042A00093422FD01F4A93422FD01F4A93422FD0C0
:1042B0001E4A93422FD01E4A93421FD10E23192229
:1042C0000121032599401B48C024016099082B4017
:1042D000AB40FC359D4089000918A4000859A8434B
:1042E000C0259D402B0003430B518023DB011A4363
:1042F000114B5A805A7852B2002AFBDB30BD092399
:104300001422DDE70A231522DAE70B231622D7E76A
:104310000C231722D4E70D231822D1E7000800420E
:10432000000C00420010004200140042001800423D
:10433000001C004200E100E0000C0040F8B5040061
:104340000F0016001D00FFF7A5FF2000FFF71CFE61
:104350001C21BB000B4071072268090C0B43136042
:10436000842322689375012F1AD11021012E00D0C9
:1043700008390C4B69431868C00004F0F5FF0722A8
:10438000216802408B895203DB04DB0C13438B81D1
:10439000226803049089DB0C400B40031843908192
:1043A000F8BDC04608000020F7B50600019308AB31
:1043B0001F780D001400FFF757FE3000FFF76AFF6B
:1043C000C022240592031440BA070C2717433C432C
:1043D000C0270722BF022D0433683D4025431D60DE
:1043E000019B316813401A0080239B0213434B60EA
:1043F000F7BD0000F8B504000F00FFF74BFF2000E9
:10440000FFF75FFE1422236879001A600C4B2568C1
:104410001E68300004F0A8FF0A490400300004F0D0
:10442000A3FF7D23FA215843C90004F09DFFFF2319
:10443000241AE868053C1C4098430443EC60F8BD2E
:104440000800002040420F000020704770B50F2682
:10445000CB1D013902003240D5B22C0000093034A6
:10446000092A00DD07341C70013B8B42F2D170BD7C
:1044700010B50C000B4B1868FFF7E8FF21000A4B42
:1044800008311868FFF7E2FF2100084B1031186867
:10449000FFF7DCFF2100064B18311868FFF7D6FF45
:1044A000202010BD0CA0800040A0800044A080000F
:1044B00048A0800008B4024B9C46103808BC6047F6
:1044C0007144000070473F20704713B56B46026887
:1044D000D9710733546819000122A04716BD0000A6
:1044E00070B50A260B7892B06E44023305000B704B
:1044F0003C220021300008F04AF9394801AC06900E
:10450000384824210790062020776846364AA1744F
:104510002281364A364BA281FD3AFF3A8018C17794
:10452000684623390630C17768460730C17702A84C
:10453000C1770720F277032608316944C87703A9B9
:10454000CE7710212B366E443170092621851F311C
:1045500069440E700CA9053E0E703321238002239E
:1045600069440B7006360DA90E7022493536A186B6
:104570003B216E44307010A86274E27702703D32C5
:1045800069446A440B70137040210022E370237168
:104590006371A37341336B44218719705A702B7D6B
:1045A000C039A370A37263770133DBB2A3776A7D4E
:1045B0000B200D0068441543C57731206844037013
:1045C0003A23501C6B441870412302320A436B4457
:1045D0001A7021004222084800F064FF12B070BD3A
:1045E0001001042402060524090400000102000051
:1045F000080B000007050000280B002008B4024B40
:104600009C46103808BC6047E144000070B5027D4C
:104610000B790C0000259A420BD10B784E78A12B18
:1046200009D1212E05D107221F49204800F03AFF69
:104630000135280070BD212BFBD1202E2BD1072264
:1046400019491A4800F070FE174B1A785978090278
:1046500011439A7812041143DA7812060A4396211C
:10466000C9008A421DD1DB79DB071AD4FA20FFF793
:104670000BFC00210D4801F021F80125232ED8D193
:10468000E378A2781B021343094A0021074813600C
:1046900001F014F8CDE7222EEFD18A78024BDA71BF
:1046A000D2E7FFF7FBFBE4E720000020280B002007
:1046B0001C00002008B4024B9C46103808BC604720
:1046C0000D46000010B5417D006A013100F064FD27
:1046D000034B1B6801335A1E9341181810BDC04686
:1046E0002800002010B5417D006A023100F06AFD0B
:1046F00010BD10B5417D006A023100F031FD10BDE2
:1047000070B50D00417D0400130002312A00006ADB
:1047100000F01EFE002801D10123636070BD00007F
:1047200010B5054C23685A1C04D103685B6998478F
:1047300003002060180010BD28000020074A030075
:10474000106810B5411C03D001235B42136010BDFB
:10475000597D186A013100F0ABFDF8E72800002010
:104760007047002070470000FA239B0010B583605B
:104770000F4B0022C3820300283383610D4B0400DA
:104780004260C2611800443323610830631D216216
:104790002060DA778323A362813BE3628033236363
:1047A00000F0C2F82100103100F092F8200010BD96
:1047B00003020000F4DF0000022110B5094B1A6863
:1047C000437D5B01D318FF339C7A21439972437D6B
:1047D0000133DBB25B01D3180122FF33997A0A431C
:1047E0009A7210BDE00F00207047000010B5FEF770
:1047F0004FFFF423FF330024984207D9044B0A20CB
:10480000DC79631E9C41E4B2FEF778FF200010BD06
:104810002000002010B502490248FFF7A5FF10BD97
:10482000280B0020C00A002070B50E000025446847
:10483000002C0BD0236831005B68200098470028CB
:1048400002DB2D18E468F3E701256D42280070BDF6
:1048500070B50D004468002C08D0236829009B68BF
:1048600020009847002802D1E468F4E7200070BDDA
:1048700070B50D0000264468002C09D0236829007B
:1048800020001B69984736182D18F6B2E468F3E744
:1048900030002C7070BD70B50D004468002C08D03D
:1048A000236829001B6820009847002802D1E4688B
:1048B000F4E7200070BD70B50D004468002C06D0F0
:1048C00023682000DB6829009847E468F6E770BD9C
:1048D000F0B58C79457803002A190020072A1FDCDF
:1048E0005A68824216D159601A78C8790A7112182A
:1048F0004D711A7000220B4DD0B284420FD98F68CF
:1049000058789600F7598600013077510132587077
:10491000F2E70200D0680028FBD1D160E4E7012073
:10492000F0BDC046000B00200121064A10B51368F7
:1049300005480B4004D1802464000480436011606A
:1049400010BDC046F40A0020F80A0020704710B5D8
:10495000040001F0CBFA200010BD0000F0B5822960
:1049600019D1C3B2294D5A01AA189169284C800166
:104970000C40C02189052143916126490833401824
:104980007021506128685B011A5C8A431100302253
:104990000A431A54F0BD0029FCD1C026C1B21B4CF9
:1049A0004B01E3189A681A4DB6052A4032439A60C3
:1049B000194A800182185A600A00072724680832C1
:1049C0005201115DB9430F000121394311559F690F
:1049D00010493D4040182E439E6158617020115D82
:1049E0008143080010210143115599680B48A21812
:1049F000084080214903014399609968890B890324
:104A00009960402311790B431371C3E7E00F002035
:104A1000FFFFFF8F540B0020140D0020FF3F00F01C
:104A2000EFF3108303600123436072B6704703689D
:104A3000002B02D162B6BFF36F8F7047F7B5060047
:104A4000FC36B3690400002B18D1B2277F00C55D86
:104A50006846FFF7E5FF019BEDB2013B02D3E55D40
:104A6000EDB2FAE768460193FFF7E1FF002D01D1AF
:104A70000020FEBD706E336EC01AFAE76846FFF77D
:104A8000CFFFD8220025019B5200013B02D3A55C39
:104A9000EDB2FAE768460193FFF7C9FF002DE7D0B2
:104AA000D6235B00E058043BE358E5E710B54468C3
:104AB000FC3043690B48DBB25A01A21891680833F5
:104AC0000840802149030143916091685B01890B93
:104AD000890391602268D318402219790A431A7118
:104AE00010BDC046FF3F00F0F7B50500FC356B690F
:104AF0004268DBB21900040008311068490141180E
:104B0000C979C90711D55B01D21893689B049B0C26
:104B10000CD12000FFF7CAFF63681A686B69DBB22B
:104B200008335B01D3187F22DA71F7BDE9690029E8
:104B300023D16B66230001266933FF33EE6168469B
:104B40005360B227FFF76CFF7F00B221019BFF315A
:104B5000013B5A1C38D0D822E6555200A25C581EA0
:104B6000D2B26254625C8446002A04D120000193D0
:104B7000FFF79CFFE9E76346EBE7D6214900635066
:104B80000023EB6123001D33FF3353606846D826B2
:104B9000FFF746FF01277600B221019BFF31013B61
:104BA0005A1C11D0B222A7555200A25C581ED2B294
:104BB0006254625C8446002A04D120000193FFF70E
:104BC00075FFE9E76346EBE768460193FFF72FFFC0
:104BD000A2E7F7B5060068463400FFF721FF00277B
:104BE000FF22019BFC34013B0DD3E0682169884220
:104BF00004DBE7682069D71B3F18F4E72769E16801
:104C00007F1A013FEFE768460193FFF710FFA369A2
:104C10006846002B52D1FFF703FFB221019B4900E8
:104C2000013B5A1C0CD0755C5A1EEDB2002D05D10B
:104C300068460193FFF7FBFE2800FEBD1300F0E776
:104C4000684601930025FFF7F2FEFF22236EBD4266
:104C500014D0616E994211D9591CF3182166FF33A3
:104C6000587FE36821690133C0B213408B4203D0FF
:104C7000E16871180872E3600135E7E7626E9A42F5
:104C8000DAD1002323660133A3616846B224FFF71B
:104C9000C7FE6400B2220021019BFF32013B581C79
:104CA000C6D03155B05C5F1E002805D0B15430002D
:104CB0000193FFF7FBFEEDE73B00F0E7FFF7B0FEE7
:104CC000D821019B4900013B5A1C06D0755C5A1E35
:104CD000EDB2002DACD01300F6E768460193FFF764
:104CE000A6FED623D4225B0000259C465200B35872
:104CF000BD4203D061467158994220D86246B258ED
:104D00009A4299D1D42200235200B3506846A3613D
:104D1000D824FFF785FE6400B2220021019BFF32F8
:104D2000013B581C00D183E73155B05C5F1E002861
:104D300019D0B15430000193FFF7B8FEECE7591CCD
:104D4000B150FF21F3186933FF331878E368C0B21C
:104D500001330B4021698B4203D0E168711808725E
:104D6000E3600135C3E73B00DBE710B50400FFF764
:104D700030FF2300FC331969DA68914203D01B69C4
:104D8000E418207A10BD01204042FBE710B5040072
:104D9000FC34FFF71EFFE0682369C01A01D501301B
:104DA000FF3010BDF0B585B0019200910500FFF70E
:104DB00010FF02A8FFF734FE01200024FF26039B0A
:104DC00040425A1E531C1FD02B00FC3301998C42C9
:104DD00018D2D9681F69C91B01D50131FF310029DB
:104DE00010D01969DF688C460100BC4506D01969EE
:104DF0001F69691801373740097A1F61009F3955CB
:104E00000134E3E7013ADDE702A80392FFF70FFE62
:104E1000200005B0F0BD37B56B46DC1D00230D004A
:104E20002370FFF781FD2100FFF7FEFC2B681818A7
:104E3000286020783EBD00002023F7B5414A0500D8
:104E4000D1690F200B43D36101223F490B781343F3
:104E50000B703E4B19788143197006211C78214351
:104E600019703B490C7822430A701A7802401A7074
:104E7000602219780A431A70364B374A5A805F7895
:104E8000FF09FCD13548FEF7FDFB0123344C354EBC
:104E90002268300011780B431370802239005200D1
:104EA00007F075FC22689378DB07FCD456621F2656
:104EB0002D4B1B68590B980C9B01314030405B0F08
:104EC000B14200D105211F2800D10238072B00D1A3
:104ED000043B31408901178D0191244930400F4036
:104EE000019939431185118D0700B14308003843FA
:104EF0001085118D18031E4B0B407F210343138532
:104F00001378C1200B4013700423226880001178AD
:104F10000B430C211370226813898B4315491381AD
:104F20000B581B021B0A0B5080230B6011787E3B31
:104F30000B431370012300212B700F48FFF754FC23
:104F4000F7BDC04600040040584400413C440041C5
:104F500059440041000C004006400000CD580000BC
:104F6000E00F0020E40F0020246080003FF8FFFFE6
:104F7000FF8FFFFF00E100E0C00A0020007800285A
:104F800010D00121084B1B681A898A431A81082214
:104F9000198B0A431A830422198B0A431A830022AD
:104FA000024B1A607047C046E00F0020D80F002067
:104FB00010B50F4A93699B0B9B0393611368022200
:104FC000FF331A729879823A02439A711A7A9207D9
:104FD000FCD57F24074A2140937A0800A343190097
:104FE000802301439172917A5B420B43937210BD0F
:104FF000E00F00200050004110B50C00FFF794FCBA
:105000002100FFF748FC002804D1034A93699B0B59
:105010009B03936110BDC046E00F0020F7B50D0063
:10502000832A19D1CBB2404C5A01A21891693F484A
:10503000AD010840C0218905014391613C492068C8
:105040006D187021083355615B011A5C8A431100A9
:1050500040220A431A54F7BD022A5FD1354B8A0019
:10506000D058002802D003685B699847DA204000D6
:1050700000F034FF802204002B4E2F4B466003606B
:1050800052000021083007F082FB2200B2210023E9
:10509000FC324900D3605561136113669361D3619B
:1050A0005366635444316350043163500431635494
:1050B000B221FF316354FF202B00034059010193BB
:1050C00071188F68194BAD003B40C027BF051F43C7
:1050D0008F600727019B366808335B01995DB943F0
:1050E0000F00032139439955230051696668014037
:1050F0001D334901FF3371184B60636852691B68A7
:10510000024052019B1801221B18997A20000A4381
:105110009A72FFF7CBFC074BEC509CE7110028007C
:10512000FFF71CFC97E7C046E00F0020FFFFFF8F52
:10513000540B00202C0B002054E0000070B505003B
:105140000124064BA200D258002A06D021002800D4
:105150000134FFF763FF0A2CF3D170BD000B002070
:105160000B4BCAB20B488901C9185301C3185961C6
:1051700099690832890B89039961036852019A1869
:105180000223D3715179823B0B4353717047C04660
:10519000540B0020E00F0020084B8A00D05810B5B7
:1051A000002803D003689B68984710BDC9B2044B20
:1051B0004901591888688004800CF6E72C0B002000
:1051C000E00F002010B50C00FFF7E6FF00280CD020
:1051D000064BE4B21B68083464011C198023627911
:1051E0005B42134363710223E37110BDE00F0020A3
:1051F000F0B51C002A4B85B01B6807000D00029219
:10520000002B4AD0274B8A00D058002808D00368CA
:1052100022005B68029998470400200005B0F0BDA9
:105220003800FFF7B9FF844204D929003800FFF79E
:10523000B3FF04000121EBB21B4E03935B0101930A
:10524000F21893689B0B9B039360019A3368029852
:105250009B18FF335A7A0A435A72144BA901C91892
:10526000220007F08BFA002CD7D029003800FFF776
:1052700093FF0028D1D14021039B326808335B01A2
:10528000D3181879014319710121D971019BD318E1
:10529000FF339A7A0A439A72BFE701246442BCE75B
:1052A000D80F00202C0B0020E00F0020140D002050
:1052B00013B56B46DC1D22000123FFF799FF01287F
:1052C00001D1207816BD01204042FBE770B5CBB27A
:1052D000124A13485C0189018918021951609168CA
:1052E000104D08330D40802149032943402591602A
:1052F0009168890B8903916001685A018A181679AF
:105300003543157195796D06FCD55B01C918CB79CC
:10531000DB07FCD500198068C0B270BD140D0020F9
:10532000E00F0020FF3F00F070B50D0000211400D9
:10533000FFF7CCFFA04200D9200000230349A3427D
:1053400003D0CA5CEA540133F9E770BD140D0020A4
:10535000F0B51E003A4B85B01B680F000192002B80
:1053600035D08023DB019E4231D80025354B8A01A0
:10537000D3180293002E2CD0334B1B680393FF23CA
:105380003B401C0000930834039B64011C19A37963
:10539000DB0921D02D4B2E49186803F0E5FF2D4B7A
:1053A0001721584303F0E0FF2B4BE279920713D407
:1053B000DA5D002A01D10138F7D20122DA55009BCB
:1053C0005A01214B9B189A69920B92039A6101250D
:1053D0006D42280005B0F0BD00221F4B3400DA55A5
:1053E0003F2E09D9009B40245A01174B9B1880225D
:1053F000996912060A439A6122000199029807F0FE
:10540000BDF9009BA1045A010F4B890C9B18029A0D
:105410002D195A619A69361B920B92030A439A61BD
:10542000009B039A08335B01D3180222DA71597981
:10543000823A0A435A71019B1B1901939AE7C046AD
:10544000D80F0020540B0020E00F0020080000209F
:1054500040420F0070110100490B002070B50D0093
:105460001C000D4BAE01F61811003000220007F0B1
:1054700085F9EDB209496D014D196E61AB69084AB4
:1054800020001340AB61AB69A2049B0B920C9B0301
:105490001343AB6170BDC046540B0020E00F0020E9
:1054A000FF3F00F0F7B5104B01901B780F0015007F
:1054B000002B0CD10D4B16001C78002C09D00C4E83
:1054C0000C4834882018641907F058F934802800F3
:1054D000FEBD002EFBD03A19330000210198FFF7E2
:1054E000BDFF2418361AF4E7D40E0020D50F002093
:1054F000D60F0020D50E0020F8B50F0016000024AE
:10550000012A26D9100007F013F90500380007F02A
:105510001DFA032302220130400028706B7096426E
:105520000DD9397800290AD0531CDBB20137A954B0
:105530009E4203D00232EC54D2B2F0E7320029008E
:105540000548FFF7AFFF441EA041C4B2280007F092
:10555000F9F82000F8BDC046280B0020F0B5002463
:10556000012685B0184B0F0069461E700500009497
:10557000FFF751FC154B01A90B806A3BFF3BCB7138
:105580005A330B72009B8C7109334B800E4B4E715A
:1055900008711C703A00092F0FD00D4F09223E7080
:1055A0000C4E280000943480FFF77CFF69462800E9
:1055B000FFF731FC328808493C702800FFF772FF82
:1055C000012005B0F0BDC046D40E00200902000045
:1055D000D50F0020D60F0020D50E002070B5CE7854
:1055E00092B005000C00022E0BD18B79C9792E48A0
:1055F00009021943FFF7B2FF411E8841C0B212B041
:1056000070BDFFF791F92100FFF722F9002803D0C0
:10561000C117081AC00FF2E7012E0ED1E279A37963
:1056200012021A432149112A3CD8D2B2002A39D099
:105630002800FFF737FF0120E1E7032EDFD1A37831
:10564000002B28D0022B08D1E279A3791202184945
:105650001A432800FFF750FFD1E7012B05D1E2796B
:10566000A37912021A431349F3E7032BC7D10100B0
:10567000412201A807F08BF8FFF756F901A9FFF7BF
:10568000F7F8002805D0E279A37912021A4301A99C
:10569000DFE70378FFDEE279A37912021A430649B5
:1056A000032AC2D90A78C3E7280B002096E000003D
:1056B00070E000008AE0000086E00000CBB2044900
:1056C0005B01C9188B699B0B9B038B617047C046BC
:1056D000E00F002037B5050048780C000B2810D8E3
:1056E00003F038FE061B0F2B0F404561494C5A5DF5
:1056F000097801AA002906D1022311802800FFF7AA
:10570000ADFE01203EBD00231380284B1B78012BEA
:1057100000D1137002230021F0E78A780023012AC8
:1057200003D101AA1380224BF0E7204A1370214ACB
:1057300093699B0B9B039361E3E78C78012C06D163
:1057400000211B4B01AA1C7011702300D6E7012019
:10575000002CD7D1154B174A187093699B0B9B03EC
:105760009361CFE789782800FFF722FCC9E728007A
:10577000FFF734FFC6E701230F4ACCE70B78002080
:10578000DB06BFD12800FFF7D9FCA2780A4B0B48F3
:105790001A60FFF711F8CAE70123094ABBE78A78C4
:1057A000074B1A60C3E70020ACE7C046480B002057
:1057B000500B0020E00F0020D80F0020C00A00206E
:1057C000DC0F00203B4BF7B51E780500002E5FD1A3
:1057D000394C23689A8B12070DD5082231009A8321
:1057E0003000FFF7BBF810222368FF33997A0A4391
:1057F0009A72324B1E6023689A8B520701D504229D
:105800009A83FF331A7A920603D52022597A0A43E3
:105810005A721A7AD20623D569460800284AC0CAA5
:10582000C0C0A268920B9203A26040225879024342
:105830005A7160230A7828001A422AD1FFF74AFFDA
:105840002368FF33002827D08022997952420A43E7
:105850009A711A7A520603D54022597A0A435A722B
:105860007F2601252368FF331E722F002368083727
:105870007F01DB19DB79002B07D0124BAA00D0582F
:1058800000280DD003681B6898470135082DECD11E
:10589000F7BDFFF7B1FBD3E720210B4A9171D8E7A1
:1058A000FFF742F82900FFF706F82368DF19FE71B9
:1058B000EBE7C046D50F0020E00F0020D80F0020F6
:1058C000140D00202C0B0020FF50004110B50248A1
:1058D000FFF778FF10BDC046280B0020014B024A9D
:1058E0001A607047E00F002000500041012070470F
:1058F00010B50368014A1B6A984710BD13040000E5
:105900000300FC33D9699A69914203D0DB69C0185E
:10591000007D704701204042FBE710B5040000699C
:10592000FEF732FB22000023FC329361D361862212
:105930009200A4186360A36010BDF02001403039CC
:10594000484248417047F0231B011940802306203C
:105950009B0099420AD00133FF330130994205D0B0
:10596000802302385B00994200D0002070470F204E
:1059700001400020012903D00239481E8141481C02
:10598000704700008923F0B5182685B002919B006E
:105990000400C05C330008214343324D1700EB186C
:1059A0005956FEF739F9304B0821E05C3300434388
:1059B000EB185956FEF730F92C4BE25C0393022AA0
:1059C00009D11133E05CFF2805D008214643AE1908
:1059D0007156FEF721F98A26B600A05DFF2819D07E
:1059E0000121FEF789F81822A35D21495A43AB56DD
:1059F000AD18DB0158188B21890060501D49012228
:105A00005B188C218900635069688A408D21890068
:105A100062501A600122029B11002069FEF78EFC81
:105A200039002000FFF78FFF390005002000FFF745
:105A30009EFF390006002000FFF77FFF3300009033
:105A4000290020690122FEF76FFA0B4B2069E25C06
:105A5000039BE15CFEF785FA2069FEF7A2FA05B028
:105A6000F0BDC04684DC00002502000027020000D3
:105A7000184400411444004126020000802210B561
:105A800004005200002106F082FE23000022FC33B5
:105A90005A6020009A6010BDF0B585B01D000AABB9
:105AA0001B78040000930BAB1B78160001930CAB22
:105AB0001B780F0002930DAB1B7803930023436008
:105AC000FA239B008360124B083303601430FFF706
:105AD000D5FF20001D30FF30FFF7D0FF89236A4635
:105AE0009B002761E6540B4B1278E5540A4B2000CB
:105AF000E2546A46094B1279E2546A46127A01333B
:105B0000E2546A46127B1033E25405B0F0BDC04641
:105B1000A8E0000025020000260200002702000085
:105B2000F7B51D0008AB1B780400009309AB1B7888
:105B30001600019300234360FA239B008360114BFE
:105B40000F00083303601430FFF798FF20001D306A
:105B5000FF30FFF793FF89236A469B002761E654D5
:105B6000094B1278E554094B2000E2546A46084B71
:105B70001279E2548A22293BFF3B9200A35410324F
:105B8000A354FEBDA8E0000025020000260200008C
:105B9000270200000300FC3358689B68C01A01D537
:105BA0000130FF30704710B5040020001D30FF3079
:105BB000FFF7F0FF0028F8D12069FEF7FCF910BDCF
:105BC00010B51430FFF7E6FF10BD0300FC33596831
:105BD0009A68914204DB5A689868801AFF307047CF
:105BE00098685B68C01A0138F9E710B51D30FF30BE
:105BF000FFF7EBFF10BD10B504000069FEF7F7F9E1
:105C0000002805D02069FEF702FA2069FEF7F4F9B2
:105C10002069FEF7DCF9002820D02069FEF7F7F9AB
:105C20002200FC329369D1690133DBB28B4203D08D
:105C300091696118087593618A239B00E35CFF2BCF
:105C40000CD020001430FFF7C0FF092806DC8B239E
:105C50008D229B009200E358A2581A602069FEF73B
:105C6000D1F900281AD020001D30FF30FFF792FF35
:105C7000002822D086239B00E31899685A68914235
:105C800018D08E219A684900A218515C9A68013296
:105C9000D2B29A60C9B22069FEF7BDF92069FEF759
:105CA0009BF9002805D02069FEF79AF92069FEF7D4
:105CB0008AF910BD01214942ECE72069FEF7B7F9E6
:105CC000ECE7000070B5040000690D00FEF79AF9DA
:105CD00000283ED1FF2686239B00E3185A68996866
:105CE000013232408A4223D1EFF31083DB0710D414
:105CF0001E4B5B68DB05DB0DEDD0103B5BB2002B70
:105D000010DA0F221340083B9B08194A9B009B188E
:105D10001B682069FEF776F90028DCD02000FFF729
:105D20006AFFD8E79B08C033124A9B009B58F0E7F4
:105D30005A68013216409A68964205D08E215A68F8
:105D40004900A21855545E602069FEF76CF90120E5
:105D500070BD20001D30FF30FFF71CFF0028B9D1B7
:105D600029002069FEF757F9F1E7C04600ED00E091
:105D70001CED00E000E100E0030070B5FC33D969E0
:105D80009A69040091421AD0DA698218157DDA699D
:105D90000132D2B2DA618A239B00E35CFF2B0CD084
:105DA00020001430FFF711FF0A2806DD8C238D2216
:105DB0009B009200E358A2581A60280070BD01258C
:105DC0006D42E8E710B504000068002801D006F035
:105DD000B9FC00232360A360636010BD70B50400AC
:105DE0000D000068013106F083FD031E01D0012083
:105DF00028C470BD036810B50400002B04D04368AC
:105E00008B4201D3012010BD2000FFF7E7FF0028DF
:105E1000F9D0A368002BF5D122681370F2E770B5B2
:105E20000E00110004001500FFF7E4FF002804D164
:105E30002000FFF7C7FF200070BDA560310020687B
:105E400006F07CFDF7E7002370B504000D00036049
:105E500043608360994207D0080006F077FD29006F
:105E600002002000FFF7DBFF200070BD70B50500C9
:105E700008000C0006F06AFD210002002800FFF770
:105E8000CEFF70BD10B50400002903D0FFF7EEFF70
:105E9000200010BDFFF796FFFAE7000010B5FDF7F0
:105EA00005FD06F007FBFDF7D3FA0120FDF726FC00
:105EB000084C2000FEF7C0FF2000FFF75FF8FCF75A
:105EC00065FBFCF7D3FB044B002BFAD000E000BFCE
:105ED000F7E7C046280B00200000000010B506F0D0
:105EE00027FC10BD10B506F023FC10BD10B506F060
:105EF00029FC10BD0B0010B50100180006F0E6F9F2
:105F000010BD0000F8B54E4657464546DE46A04B4C
:105F1000E0B54E0080468A46894676089E420CDDF2
:105F20009C4B9E4200DDA2E000D19DE04B46002B41
:105F300000DCE0E0984B994AA1E0994B9E4200DDDD
:105F4000B3E0984B9E4200DCA1E001235B429B46FC
:105F5000424653464046514605F04CFA02000B00BB
:105F600006000F0005F046FA04000D008E4A8F4B24
:105F700005F040FA8E4A8F4B04F016FB22002B00EE
:105F800005F038FA8C4A8D4B04F00EFB22002B00F2
:105F900005F030FA8A4A8B4B04F006FB22002B00F6
:105FA00005F028FA884A894B04F0FEFA22002B00FB
:105FB00005F020FA864A874B04F0F6FA32003B00DF
:105FC00005F018FA844A06000F00844B20002900CF
:105FD00005F010FA824A834B05F07EFC22002B006C
:105FE00005F008FA804A814B05F076FC22002B0070
:105FF00005F000FA7E4A7F4B05F06EFC22002B0074
:1060000005F0F8F97C4A7D4B05F066FC22002B0078
:1060100005F0F0F902000B003000390004F0C4FA7A
:106020005346424605F0E6F95B46013366D05B46CF
:10603000734A744CDB00E418D3181A685B6805F0E7
:106040004BFC4246534605F047FC02000B0020681B
:10605000616805F041FC030048460A0000280EDA9A
:10606000802212068A180AE0002800D15EE7424624
:1060700053464046514604F097FA03000A001800C0
:1060800011003CBC90469946A246AB46F8BD5E4A1C
:106090005E4B04F089FA00225D4B03F005FB0028FB
:1060A00000D152E743465246E9E700F005F9594B63
:1060B00004000D009E422ADC574B9E4250DC020039
:1060C0000B0004F071FA0022514B05F005FC80230F
:1060D00006000F000022DB052000290004F064FA0E
:1060E0000B0002003900300004F07AFD00238046E6
:1060F0008A469B462CE7284B484AC0E702000B0023
:106100004046514605F0E8FB03000A00B7E7444B60
:106110009E421ADC0022434B05F0DEFB0022060003
:106120000F00404B2000290005F064F90022384B95
:1061300004F03AFA0B0002003900300004F050FD80
:10614000022380468A469B4602E70B00020036493E
:10615000002004F045FD032380468A469B46F7E66F
:1061600000222B4B05F0B8FB002206000F00284B45
:106170002000290004F018FA0B000200390030005A
:1061800004F02EFD012380468A469B46E0E6C04689
:10619000FFFF0F440000F07F182D4454FB21F93F0E
:1061A000FFFFDB3FFFFF1F3E11DA22E33AAD903FD6
:1061B000EB0D76244B7BA93F513DD0A0660DB13F3E
:1061C0006E204CC5CD45B73FFF8300922449C23FA6
:1061D0000D5555555555D53F2F6C6A2C44B4A2BF6B
:1061E0009AFDDE522DDEAD3F6D9A74AFF2B0B33F33
:1061F000711623FEC671BC3FC4EB98999999C93FAB
:1062000000E10000E0E000009C7500883CE4377E7F
:106210000000F03FFFFFF23FFFFFE53FFB21F9BF2A
:10622000FF7F03400000F83F0000F0BF30B5204A78
:106230004B0087B05B0893421CDD1E4A934205DD8C
:1062400002000B0005F048FB07B030BD02AA00F0C9
:106250003DFC03231840049A059B01280FD0022817
:106260001CD0002815D0029803990124009402F054
:1062700049F8E9E70022002301F0CAFAE4E70090B8
:106280000298039902F03EF880231B069C46614465
:10629000DAE70298039901F0BBFAD5E7029803996F
:1062A00001F0B6FA80231B069C466144CCE7C04649
:1062B000FB21E93FFFFFEF7F49004B0819007047C2
:1062C000474AF0B54F4691464B005B0D9944464610
:1062D000D6464A46C0B505000C000E0088460700A9
:1062E000132A27DC002A4BDB3E4B13419A460B0056
:1062F00052461340034318D03B4A3C4B2800210030
:1063000004F052F90022002303F0CEF9002847D010
:10631000002C04DA80234A465B0313419844464626
:10632000534600279E43380031001CBC90469946D6
:10633000A246F0BD332A08DD8023DB009945F4D165
:1063400002000B0004F030F9EFE7294A94460122DD
:1063500063445242DA4092460242E6D0224A234B3C
:106360002800210004F020F90022002303F09CF90A
:10637000002815D0002C1EDB534646469F430FE0F5
:10638000194A1A4B2800210004F00EF900220023BC
:1063900003F08AF9002803D0002C04DB0027002634
:1063A00038003100C1E76400640825430027002D50
:1063B000F6D0104EF4E74B46142B0BD03422D21AF1
:1063C000012393405D19BD4208D201239C462F0052
:1063D000E044D1E7133B9C46E044CDE72F00CBE7F8
:1063E00001FCFFFFFFFF0F009C7500883CE4377E37
:1063F000EDFBFFFF0000F0BF30B5214A4B0087B036
:106400005B0893421EDD1F4A934205DD02000B002C
:1064100005F062FA07B030BD02AA00F057FB032373
:106420001840049A059B012813D002281DD000288B
:1064300014D00298039901F0EBF980231B069C46C7
:106440006144E7E7002300220093002301F05AFF94
:10645000E0E70298039901F0DBF9DBE701240298F9
:106460000399009401F04EFFD4E7012402980399A8
:10647000009401F047FF80231B069C466144C9E756
:10648000FB21E93FFFFFEF7F30B5144A4B0087B097
:106490005B0893421ADD124A934205DD02000B00AD
:1064A00005F01AFA07B030BD02AA00F00FFB049CF9
:1064B000059D4300022018400123181A0090220075
:1064C000029803992B0001F0CFFFEBE70123002294
:1064D0000093002301F0C8FFE4E7C046FB21E93F39
:1064E000FFFFEF7F00B51C4A430083B05B08934277
:1064F00018DD1A4A934204DD011C03F011FE03B0BB
:1065000000BD694600F0A6FF032301991840012849
:106510000CD0022817D0002811D00098012202F0D8
:10652000B9FDECE7002102F06BF9E8E701220098E1
:1065300002F0B0FD80231B069C466044DFE7009814
:1065400002F05EF9DBE7009802F05AF980231B069F
:106550009C466044D3E7C046D80F493FFFFF7F7F8A
:10656000F0B5C64643005F081B0E7F3B00B5051C17
:1065700006001C00162B1CDC8046002B21DB194F6B
:106580001F41074211D0184903F026F9002103F0FA
:10659000C5F8002809D0002D04DA80231B0423410C
:1065A0009846A8444346BB431E00301C04BC90469A
:1065B000F0BD0E4B9F42F8D9011C03F00DF9061CEB
:1065C000F3E7094903F008F9002103F0A7F80028D0
:1065D000EBD0002D01DB0026E7E7002FE5D0044ECD
:1065E000E3E7C046FFFF7F00CAF24971FFFF7F7FEC
:1065F000000080BFF0B54746CE4680B58DB01D0087
:1066000006000F00140000F005F92E4B00900191D8
:106610001B785BB2984601333CD022002B0020004F
:10662000290005F0A1FC002834D132003B003000E5
:10663000390005F099FC814600282BD10022002367
:106640002000290003F016F8002823D0012302932C
:106650001D4B0496059703934B460A9343460694B5
:106660000795002B1DD0002300221900100004F014
:10667000B7FA434608900991022B14D105F034FE75
:10668000212303600A9B0093002B15D1089B099CD2
:1066900000930194009801990DB00CBC9046994666
:1066A000F0BD0896099702A802F06EFD0028E5D01B
:1066B0000A9B0093002BE9D005F016FE0A9B00937D
:1066C0000360E3E72C00002020E10000F0B58DB06E
:1066D000041C00F00BFC0023224E051CF356013372
:1066E00031D0211C201C03F0DFFE071E2BD1201C03
:1066F00002F0BAFDFE21890503F010F8002822D02F
:1067000001230293184B201C03930A9705F0EAFC1F
:106710000690079104900591144802F037FD00237C
:10672000F35608900991022B10D002A802F02CFD1C
:1067300000280BD00A9B0193002B0CD108980999D3
:1067400005F022FD051C281C0DB0F0BD05F0CCFDA8
:1067500021230360EEE705F0C7FD0A9B0193036068
:10676000ECE7C0462C00002028E1000024E10000F6
:10677000F0B58DB0041C00F01BFD0023224E051C5B
:10678000F356013331D0211C201C03F08DFE071E6F
:106790002BD1201C02F068FDFE21890502F0BEFF0E
:1067A000002822D001230293184B201C03930A9740
:1067B00005F098FC0690079104900591144802F0AA
:1067C000E5FC0023F35608900991022B10D002A893
:1067D00002F0DAFC00280BD00A9B0193002B0CD1AD
:1067E0000898099905F0D0FC051C281C0DB0F0BDD7
:1067F00005F07AFD21230360EEE705F075FD0A9BA5
:1068000001930360ECE7C0462C00002030E100005B
:1068100024E10000F0B557464546DE464E465C0092
:106820006408E0B5250083B092469446154322D013
:106830009B4E4D006D08B5421DDC56421643994FE4
:10684000F60F2643BE4216D8CE0FF6078346070042
:10685000B146A54220DC06008846A54213DB9042E3
:1068600011D319D14B46DA0F8F4BD2009B181E68FB
:106870005B68984607E004F0BDFD02000B0004F0E1
:10688000AFF9060088463000414603B03CBC904654
:106890009946A246AB46F0BD844EB54245DD2E1565
:1068A000B346834EB0465E46464401967F4EB442A0
:1068B00000DDA5E0002C00D0BDE05646002E00DC37
:1068C000E7E07C4EB04601267642B3465646760057
:1068D000D844B246002EF6DC774EB246019E5645AD
:1068E00000DA7EE080250903090B6D030D43724930
:1068F000884568DB80241B031B0B6403234342464B
:1069000001998E1A6246E91AB81A002E2DD06745F1
:1069100092415242891A19D40A0002431CD04900FC
:10692000C50F4D194700013EECE7002D76D15E46BC
:10693000002E00DCB0E05F4E0196019E013E019604
:106940005E467600B346002EF7DCAFE7FA0F6D0027
:10695000AD187F00013ED5E74B46D90F524BC90019
:106960005B181E685B6898468DE767459B415B42F4
:10697000C91A01D5380029000B000343ECD04B4B5A
:106980001A00994209DCC30F4900C91801235B4270
:106990009C464000E0449142F5DD474B98455FDA64
:1069A00042469B1A142B67DC02000C004348DA4075
:1069B0004044194184404B4620000B439946104304
:1069C0000600C8465FE74346C91A1F291EDC1000AF
:1069D0003A4B8C404344D8408A40030094462343BA
:1069E0008DE75146019E8F1B1F2F32DCB2460600F9
:1069F0003249BD405144CE40B8403543070076E7A8
:106A00002615B0462A4EB246D04465E741462C4B87
:106A10005B1A9A4013000022944670E7EE02B046DB
:106A2000254E0196019E013E019646467600B046EF
:106A3000002EF7DC3AE7E602B2461F4EB0460126CA
:106A40007642B34656467600D844B246002EF6DC6F
:106A500042E7019D1A490027491B8840050046E787
:106A6000184B194C9C464B46444461442405194339
:106A70000C430600A04606E71F2B05DCD8400F4B51
:106A80004344994008439BE70D4B9B1A194108006A
:106A900096E7084EB0461FE7064E019606E7C04649
:106AA000FFFFEF7F0000F07F38E10000FFFF0F00E5
:106AB00001FCFFFFEDFBFFFF02FCFFFF1E040000D7
:106AC000E2FBFFFF0000F0FFFF030000F0B54E46C1
:106AD0004546DE465746E0B5E14B4C008FB0904648
:106AE000894664089C4200DC87E0DE4B9C4222DC45
:106AF000DD4A002900DC92E0DC4B04F0EDFEDB4BCC
:106B000006000F009C4200D17EE1D94AD94B04F027
:106B1000E3FE02000B00414630000A604B60390082
:106B200004F0DAFED34BD24A04F0D6FE43460125E8
:106B30009860D9606BE0D04B9C4200DC8FE0CF4B7B
:106B40009C4200DD55E1CE4A231592469A445146B7
:106B50000905631A19001D00040005F021FA05F06B
:106B600055FA02000B00200029000892099304F056
:106B7000B3FE0022C34B04F03DFC0F00060005F0FD
:106B80000FFA05F043FA04000D0002000B0030007C
:106B900039000A940B9504F09FFE0022B94B04F0D3
:106BA00029FC002200230C900D9102F063FD0028C7
:106BB00000D192E1002300222000290002F05AFDBA
:106BC000434243410133B04A41460192022208A8A0
:106BD0000092524600F036FF4B460500002B16DAB5
:106BE000802243461206944642465B68454263440F
:106BF0005360D3686344D36009E00B000200414650
:106C00000A604B600022002300258A60CB602800C8
:106C10000FB03CBC90469946A246AB46F0BD934BA4
:106C200003F0C2FC914B06000F009C4200D13DE1F5
:106C30008F4A904B03F0B8FC02000B004146300035
:106C40000A604B60390004F047FE894A894B03F023
:106C5000ABFC012543466D429860D960D7E7FFF74A
:106C60002BFB8A4A8A4B06000F0004F0C3FB00226C
:106C7000884B03F099FC05F093F9050005F0C6F97F
:106C8000794A7A4B0490059104F0B4FB02000B00A2
:106C90003000390004F020FE754A06000F00049809
:106CA0000599744B04F0A6FB029003911F2D00DCA4
:106CB000C7E0029A039B3000390004F00DFE8346C2
:106CC0008A4653465B0024155B0DE31A102B6CDDDE
:106CD00004980599D322674B520504F08BFB020000
:106CE0000B00300039000292039304F0F5FD0A0016
:106CF000010013000691079202003900300004F0F1
:106D0000EBFD029A039B04F0E7FD06000F000498D8
:106D10000599614A614B04F06DFB32003B0004F0C1
:106D2000DBFD069E079F0B00020039003000029237
:106D3000039304F0D1FD4B005B0D83468A46E41AB1
:106D4000312C32DD04980599B822544B920504F099
:106D500051FB03000C000200029303940B00069801
:106D6000079904F0B9FD02000B0006000F00069819
:106D7000079904F0B1FD029A039B04F0ADFD484A67
:106D80000290039104980599464B04F033FB029A54
:106D9000039B04F0A1FD02000B00300039000292B9
:106DA000039304F099FD83468A465A46534641466A
:106DB00030000A604B60390004F08EFD029A039B9C
:106DC00004F08AFD44460B000200A260E3604B46DB
:106DD000002B00DB1BE75B46236080231B0653442C
:106DE000636080231B069C466144A060E1606D42A5
:106DF0000DE70B00020004F06FFD4346002598608C
:106E0000D9601860596002E7D3221A4B520504F08A
:106E100063FD214A214B0D00040004F05DFD0200DA
:106E20000B00414620000A604B60290004F054FD2D
:106E30001A4B194A04F050FD434601259860D96069
:106E4000E5E602000B003000390004F045FD6B1E42
:106E5000154A9B009B5883468A46A342A5D130E73A
:106E6000FB21E93F7BD9024000004054FB21F93F60
:106E70003163621A61B4D03DFB213941FFFFEF7FDE
:106E8000EAFBFFFF00007041C8E1000083C8C96D44
:106E9000305FE43F0000E03F7370032E8A19A33B8C
:106EA000C14920259A837B3948E10000D3220C4B4D
:106EB000520503F079FB0B4A0B4B04000D0003F065
:106EC00073FB02000B00414620000A604B60290062
:106ED00004F002FD034A044BB9E6032373E6C046FF
:106EE00061B4D03D7370032E8A19A33BFE22F8B51E
:106EF0004300041C01005B089205934261D05ADCF8
:106F00009B4A934262DC8C229205934200DCCEE0E5
:106F100002F0D4FF9749051C02F0D0FF964902F019
:106F20005BFC291C02F0CAFF944903F0F9F8291C04
:106F300002F0C4FF924902F04FFC291C02F0BEFF90
:106F4000904903F0EDF8291C02F0B8FF8E4902F0D9
:106F500043FC291C02F0B2FF8C49061C281C02F0DD
:106F6000ADFF8B4903F0DCF8291C02F0A7FF89492B
:106F700002F032FC291C02F0A1FF874903F0D0F88F
:106F8000291C02F09BFFFE21890502F025FC011C53
:106F9000301C02F0BBFD211C02F090FF011C7F4859
:106FA00003F0BEF8011C201C03F0BAF8011C7C4859
:106FB00003F0B6F804E003F0B3F8011C02F0A6FDFC
:106FC000F8BD0020002CFBDC7648F9E7002870DBD8
:106FD000FE20800503F0A4F8FC21890502F06EFF75
:106FE000041C00F0BBFB6349061C050B201C02F0CF
:106FF00065FF614902F0F0FB211C02F05FFF5F4971
:1070000003F08EF8211C02F059FF5D4902F0E4FB09
:10701000211C02F053FF5B4903F082F8211C02F0AF
:107020004DFF594902F0D8FB211C02F047FF574998
:10703000071C201C02F042FF554903F071F8211C87
:1070400002F03CFF534902F0C7FB211C02F036FF5F
:10705000514903F065F8211C02F030FFFE2189053B
:1070600002F0BAFB011C381C02F050FD311C02F08A
:1070700025FF2D03071C291C281C02F01FFF011CE3
:10708000201C03F04DF8291C041C301C02F0A4FB4A
:10709000011C201C02F03AFD011C381C02F09CFB74
:1070A000291C02F099FB011C02F096FB88E73E4880
:1070B00086E7FE21890502F08FFBFC21890502F09D
:1070C000FDFE2C49041C02F0F9FE2B4902F084FB62
:1070D000211C02F0F3FE294903F022F8211C02F0E2
:1070E000EDFE274902F078FB211C02F0E7FE25495E
:1070F00003F016F8211C02F0E1FE234902F06CFBBC
:10710000211C02F0DBFE061C201C00F027FB1F499F
:10711000051C201C02F0D2FE1D4903F001F8211CC1
:1071200002F0CCFE1B4902F057FB211C02F0C6FE08
:10713000194902F0F5FF211C02F0C0FEFE2189056D
:1071400002F04AFB011C301C02F0E0FC291C02F09A
:10715000B5FE124902F0E4FF291C02F03DFB011CC0
:1071600002F03AFB011C114802F0DAFF28E7C046A2
:10717000FFFFFF3E08EF1138047F4F3A4611243DD0
:10718000A80A4E3E90B0A63EABAA2A3E2EC69D3D12
:107190006133303F2D57014039D119406821A23366
:1071A000DA0FC93FDB0F4940DB0FC93FDA0F494017
:1071B000F0B5FE234646D6464F464400C0B5051CF2
:1071C000060064089B059C4200D18AE07EDC8F4B60
:1071D0009C420EDC8E4B9C4200DD8FE08D4902F01C
:1071E000FBFAFE21890502F099FA0300281C002B06
:1071F00072D1281C02F038F8011CFE20800502F034
:107200008FFFFC21890502F059FE8349051C02F01D
:1072100055FE824902F0E0FA291C02F04FFE804937
:1072200002F07EFF291C02F049FE7E4902F0D4FAEA
:10723000291C02F043FE7C4902F072FF291C02F077
:107240003DFE7A4902F0C8FA291C02F037FE78495F
:107250008046281C02F032FE764902F061FF291CAC
:1072600002F02CFE744902F0B7FA291C02F026FE47
:10727000724902F055FF291C02F020FEFE2189050B
:1072800002F0AAFA8146281C00F068FA6C4B071C31
:107290009C4200DC7DE04946404602F037FC391C48
:1072A00002F00CFE391C02F097FA011C02F094FA6D
:1072B000644902F091FA011C634802F031FF002E8C
:1072C0000ADC80231B069C46604405E0011C02F09A
:1072D00027FF011C02F01AFC1CBC90469946A246EE
:1072E000F0BD594902F0EAFD5849041C281C02F07F
:1072F000E5FD011C201C02F06FFAEDE7011C02F015
:10730000DDFD4549041C02F0D9FD444902F064FA50
:10731000211C02F0D3FD424902F002FF211C02F0C1
:10732000CDFD404902F058FA211C02F0C7FD3E494C
:1073300002F0F6FE211C02F0C1FD3C4902F04CFABD
:10734000211C02F0BBFD3A49061C201C02F0B6FDD0
:10735000384902F0E5FE211C02F0B0FD364902F08A
:107360003BFA211C02F0AAFD344902F0D9FE211C8F
:1073700002F0A4FDFE21890502F02EFA011C301C4A
:1073800002F0C4FB291C02F099FD291C02F024FA2A
:10739000A2E7011C040B02F01FFA49468246404650
:1073A00002F0B4FB011C504602F088FD2403804625
:1073B000211C201C02F082FD011C281C02F0B0FEE2
:1073C000391C051C201C02F007FA011C281C02F0C5
:1073D0009DFB011C02F000FA011C1C4802F0A0FEFB
:1073E000011C404602F09CFE211C051C201C02F0E2
:1073F000F3F9011C164802F093FE011C281C02F050
:107400008FFE011C124802F08BFE58E7FFFFFF3E83
:10741000FFFFFF31CAF2497108EF1138047F4F3A7C
:107420004611243DA80A4E3E90B0A63EABAA2A3E85
:107430002EC69D3D6133303F2D57014039D1194053
:107440009999793F2EBD3B33DB0FC93F2EBD3BB32E
:10745000DB0F493FF0B557464E46DE464546E0B5A0
:10746000B04B470089B00C0006007F089F426EDDDC
:10747000AD4B9F421ADC0F23AC499F43002800DC30
:1074800071E002F04DFEAA4B061C9F4200D114E1B0
:10749000A84902F045FE011C2060301C02F040FEAD
:1074A000A44902F03DFE0125606054E0A24B9F42DA
:1074B0006FDDA24B9F4200DDF8E0862252429146EA
:1074C000FB1599444B46DD057D1B281C03F002F893
:1074D00003F020F8011C0590281C02F021FE8721F2
:1074E000C90502F0EBFC804602F0F4FF03F012F84D
:1074F000011C0690051C404602F012FE8721C905BA
:1075000002F0DCFC0021079002F0EEF8002800D128
:1075100005E10021281C02F0E7F843424341013312
:10752000874A21000192022205A800924A4601F0F2
:1075300031FA0500002E0EDA8022120694462368E6
:1075400045426344236063686344636003E000234F
:10755000002508604B60280009B03CBC9046994665
:10756000A246AB46F0BD02F037F9714B061C9F42B4
:1075700000D1C1E06F4902F02FF9011C2060301CDE
:1075800002F0CEFD6B4902F027F9012560606D42E3
:10759000E1E701F069FE6B49804602F08FFCFC21B7
:1075A000890502F019F902F095FF050002F0B2FF1B
:1075B0005E49814602F082FC011C404602F0B0FDAB
:1075C0005C498046484602F079FC8246011C4046F0
:1075D0001F2D00DC83E002F0A3FD83465B46FF2203
:1075E000DB0DFF151340FB1A082B47DD56494846B3
:1075F00002F064FC8246011C404602F091FD834685
:10760000011C0390404602F08BFD514602F088FDBC
:1076100080464E49484602F051FC414602F080FD4A
:10762000011C8246584602F07BFDFF22C30D134029
:10763000D846FB1A8346192B20DD4549484602F0FF
:107640003DFC039B071C011C181C9A4602F068FDB8
:10765000011C8046504602F063FD391C02F060FDBB
:107660003C49071C484602F029FC391C02F058FD31
:10767000011C8246404602F053FD83465B46594654
:107680002360404602F04CFD514602F049FD606027
:10769000002E00DB5FE780231B065B442360802312
:1076A0001B069C46604460606D4254E7011C02F07A
:1076B00037FD0025606020604DE7234902F030FD72
:1076C0002249051C02F02CFD011C2060281C02F040
:1076D00027FD1E4902F024FD012560603BE702F012
:1076E0001FFDFF233A001C499A436B1E9B005B5809
:1076F00083469A42C2D171E7134902F06DF81349EB
:10770000051C02F069F8011C2060281C02F008FD2D
:107710000E4902F061F8012560606D421BE703230A
:10772000FEE6C046D80F493FE3CB1640800FC93F65
:10773000D00FC93F43443537800F4943FFFF7F7F58
:1077400050E3000084F9223F0044353708A3852E1A
:1077500000A3852E32318D24D0E200002A49430057
:1077600070B50200041C5B088B423BD8002B38D05C
:1077700000283EDB2549C6158B420BD8802000042B
:1077800020423DD1002300E00B005200591C024270
:10779000FAD0F61A802352021B04520A1A437F3E83
:1077A0005300F10700D593008022701019210026A4
:1077B00000255204AC189C4202DCA5181B1BB6180D
:1077C00001395B0052080029F4D1002B02D00123BB
:1077D00001369E43FC239B059C4676106644C005FB
:1077E000801970BD011C02F069FB211C01F0F4FF3F
:1077F000F7E7011C02F094FC011C02F087F9F0E7A6
:1078000001235B42C5E7C046FFFF7F7FFFFF7F008C
:10781000F0B54746CE4680B587B000920193754BD0
:107820004F00814688467F089F4263DC04F0B8FB26
:10783000002800D1D4E04A4643464846414603F07A
:10784000D9FD04000D006C4A6C4B03F0D3FD6C4A6B
:107850006C4B02F0A9FE22002B0003F0CBFD6A4A1C
:107860006A4B04F039F822002B0003F0C3FD684A8C
:10787000684B02F099FE22002B0003F0BBFD664A24
:10788000664B04F029F822002B0003F0B3FD644A94
:10789000644B02F089FE22002B0003F0ABFD029046
:1078A00003910022604B2000290003F0A3FD029AFF
:1078B000039B06000F002000290003F09BFD009AA7
:1078C000019B04000D004846414603F093FD020071
:1078D0000B002000290003F0FFFF02000B00300026
:1078E000390003F0F9FF02000B0000204F4903F0BC
:1078F000F3FF70E002000B0003F07CFD04000D00BC
:107900003D4A3E4B03F076FD3D4A3E4B02F04CFEB5
:1079100022002B0003F06EFD3B4A3C4B03F0DCFFE2
:1079200022002B0003F066FD394A3A4B02F03CFE80
:1079300022002B0003F05EFD374A384B03F0CCFFEA
:1079400022002B0003F056FD354A364B02F02CFE88
:107950002B00220003F04EFD354B029003919F4215
:107960009FDD344B00229F423DDC334900207B18D1
:107970002E4916001F0003F0AFFF0490059100226E
:10798000294B2000290003F035FD32003B0003F0B5
:10799000A3FF029A039B06000F002000290003F0BA
:1079A00029FD009A019B04000D004846414603F062
:1079B00021FD02000B002000290003F08DFF0200D2
:1079C0000B003000390003F087FF02000B00049821
:1079D000059903F081FF07B00CBC90469946F0BDB5
:1079E00000201249F7E7154B002604920593144F27
:1079F000C5E7C046FFFF3F3ED43888BEE9FAA8BDC0
:107A0000C4B1B4BD9EEE213EAD529C804F7E923EED
:107A10009015CB19A001FA3E7751C1166CC1563FA3
:107A20004C5555555555A53F0000E03F0000F03F2F
:107A30003233D33F0000E93F0000E0FF0000E73FA2
:107A40000000D23FF0B5DE464E4645465746E0B50B
:107A5000DC4CA5440D9114001900A49A0993DA4B4B
:107A60009200D6584D1E03901821E01E06960295EE
:107A700001F004FDC3430100DB1719404B1C9A00C1
:107A80009B1ADB001B190B9105934C1B771918D41B
:107A9000A59BA5009C463F1922AE6544013707E02F
:107AA000286804F0B3FA013403C60435BC4208D098
:107AB000002CF5DA00200021013403C60435BC4255
:107AC000F6D1069B002B01DA00F0FDFB069B039923
:107AD0000133DB009A46099BDA00944600920022AB
