:1020000000800020B12800009928000099280000D5
:1020100000000000000000000000000000000000C0
:1020200000000000000000000000000099280000EF
:1020300000000000000000009928000005290000B1
:10204000992800009928000099280000C123000069
:102050009928000099280000992800009D28000078
:10206000992800009928000099280000992800006C
:1020700099280000E9270000D927000099280000CE
:10208000992800009928000099280000992800004C
:1020900000000000992800009928000099280000FD
:1020A000992800009928000099280000992800002C
:1020B0000000000010B5064C2378002B07D1054B1B
:1020C000002B02D0044800E000BF0123237010BDA4
:1020D000A002002000000000C08E0000044B10B5DC
:1020E000002B03D00349044800E000BF10BDC046E8
:1020F00000000000A4020020C08E000037B5962129
:102100001A4C8901200001F095FC200001F094FC9C
:102110000028FAD01649200000F06EFF01210620A9
:1021200000F02CFE02210E2000F028FE114D0021AF
:10213000280000F06DFA002328001A00102100F09A
:1021400089F91A2128001423052200F0CFF9002272
:10215000094B02251A60802300950022DB05200030
:1021600001F066F8054B1D6037BDC04664080020CD
:1021700037870000D0020020CC020020C4020020DB
:1021800070B51B4C2368013324D01A4800F0EAF9DB
:1021900023680500002B0ED11749184800F02CFFCA
:1021A0000121062000F036FE154B1E351D60236808
:1021B000013323600EE0134A126893420BDD12498B
:1021C0000E4800F019FF012300215B420620236026
:1021D00000F020FE70BD0A4B1A688242FADC020051
:1021E0001E321A6001000A22044800F052FFDEE7A6
:1021F000CC020020D00200201487000064080020D8
:10220000C8020020C40200202687000010B5FFF796
:10221000B7FF10BD07B50021044800910B000A006C
:1022200000F0A6FE024800F0C7F807BDBC0200207F
:10223000D002002007B50021034800910B000A00DE
:1022400000F096FE07BDC046D4020020114A124B92
:1022500012491360002353711371114A116011491F
:10226000D3609180092191710639537413741375E9
:10227000D37111720C4AD3605374137413750B4BE2
:10228000D17113600A4B93801D2393711C3B137211
:102290007047C0461403002000093D004808002094
:1022A000DC0200200A080000F80200205408002088
:1022B0001B1A000007B5002104480B000A0000911A
:1022C00000F056FE024B034A1A6007BD20030020AF
:1022D0001C03002050C3000007B5002103480091F3
:1022E0000B000A0000F044FE07BDC0462803002092
:1022F00007B50021034800910B000A0000F038FEEA
:1023000007BDC0463003002007B5002103480091F7
:102310000B000A0000F02CFE07BDC0463803002069
:1023200007B50021034800910B000A0000F020FED1
:1023300007BDC0464003002010B5040078220021EC
:1023400004F067FE200010BD10B50C244C430419A6
:102350002068002805D004F037FE00236360236066
:10236000A36010BD70B505000024210028000134D1
:10237000FFF7EAFF0A2CF8D1280070BD10B5054C14
:102380002000FFF7D9FF044A0449200002F068FE4C
:1023900010BDC04648030020000000206523000057
:1023A00007B50021034800910B000A0000F0E0FD92
:1023B00007BDC046C0030020002303707047000023
:1023C000044B10B51B68002B00D098470122024B2C
:1023D0001A7210BDC803002000140040037810B525
:1023E000002B0BD03F24064B21401A690800A24362
:1023F0001100014319619A7AD209FCD110BDC0467F
:10240000001400400378002B0BD03F20054B084000
:102410001A69054980011140014319619A7AD2096C
:10242000FCD17047001400403FF0FFFF0378002B01
:102430000BD01F20054B08401A69054900031140C5
:10244000014319619A7AD209FCD170470014004007
:10245000FF0FFEFF70B51600027804000D00002A81
:102460000AD01900FFF7BAFF31002000FFF7CAFFBA
:1024700029002000FFF7DAFF70BD00000378002B71
:102480000BD01F20054B08401A6905494004114034
:10249000014319619A7AD209FCD1704700140040B7
:1024A000FFFFC1FF0378002B0BD00F20054B084026
:1024B0001A69054980051140014319619A7AD209C8
:1024C000FCD1704700140040FFFF3FFC0378002B55
:1024D00009D0054A880613699901890901431161E8
:1024E000937ADB09FCD170470014004070B51D00E1
:1024F000037804001600002B09D0FFF7BFFF31005E
:102500002000FFF7CFFF29002000FFF7DFFF70BD9D
:10251000094B0A4A9A605A7852B2002AFBDB084AF1
:102520005A605A7852B2002AFBDB064A5A805A781F
:10253000D209FCD17047C046000C004002040000E4
:1025400002051100044200000378002B05D0034B64
:10255000034A5A809A7AD209FCD17047001400408D
:102560000080FFFF00B58BB0FFF7EEFF01220F4B9D
:1025700052421B6909920022089207929A0E643215
:1025800006929A01120F013A05929A02D20E049213
:10259000DA03D20E03921A059B06920E9B0E01A837
:1025A0000292019304F008FE0BB000BD001400403D
:1025B0000221044B1A888A431A809A7AD209FCD1E4
:1025C0007047C046001400400222044B19880A4399
:1025D0001A809A7AD209FCD17047C0460014004094
:1025E0000122044B19880A431A809A7AD209FCD135
:1025F0007047C046001400400121044B1A888A43EA
:102600001A809A7AD209FCD17047C0460014004063
:102610002023F7B500262A4A0F00916905000B43D5
:102620009361284B284A294C9A82B7420BD1284BF8
:102630003E001A7870231A4205D023881B0702D562
:102640000126236901932800FFF762FF2800FFF7A6
:10265000AFFF2800FFF7C4FF63881E4A1340638062
:102660001D4B2380A37ADB09FCD1C0211B4A083310
:102670001360890053581B021B0A53500123E2794F
:1026800013430722E371237F93432377A37ADB0964
:10269000FCD12800FFF798FF2800FFF7ADFF002FBF
:1026A0000BD1002E09D0019B002B06D02361A37A09
:1026B000DB09FCD101332B70F7BD8423DB03F5E785
:1026C0000004004000080040CE0600000014004056
:1026D00038040040FFBFFFFF080A000000E100E0EF
:1026E00070B50121202000F049FB0021202000F0DE
:1026F00091FB0A2000F04AF90021202000F03EFB67
:10270000642000F043F9202000F0CCFA9623050065
:102710009B002F4C984222D92E49200000F090FFB8
:10272000200000F079FE03210B2000F09FFB032125
:102730000C2000F09BFB00226B21200000F0A2FE89
:102740000121200000F0E0FE1B21200000F0DCFE53
:102750002000032100F080FE200000F072FE1D49E1
:10276000200000F06DFF200000F056FE03210B203A
:1027700000F07CFB03210C2000F078FB00226B2191
:10278000200000F07FFE0721200000F0BDFE962310
:102790002B219B009D4200D92039200000F0B4FE7F
:1027A0000321200000F058FE200000F04AFE012125
:1027B0001E2000F0E3FA01211E2000F02BFB012176
:1027C0001F2000F0DBFA01211F2000F023FB70BD69
:1027D0004C080020A086010010B5024802F031FB31
:1027E00010BDC046CC03002010B5024802F029FB02
:1027F00010BDC046080600207FB51949194800F0F1
:1028000075FD1949194800F071FD1949194800F082
:102810006DFD1949194800F069FD194C194920004E
:1028200000F064FD184E1949300000F05FFD0125ED
:1028300003233100019500930D220B33144802F05D
:1028400095FA1D230393013B02931A3B01930095D4
:1028500018331B2221000F4802F044FA7FBDC04606
:102860000008004244080020000C004248080020F4
:10287000001000424C0800200014004250080020C4
:10288000540800200018004258080020001C004294
:10289000CC03002008060020FEE70000034B10B523
:1028A0001B68002B00D0984710BDC0465C08002074
:1028B00070B50F490F4CA14204D100F08FF802F01F
:1028C000A7FBFEE70C4D00238D42F6D0CA18E8188E
:1028D000A24205D3094B8242EFD00949002204E00D
:1028E000006804331060F1E704C38B42FCD3E4E7D3
:1028F00000000020A0020020C48E0000A0020020E2
:10290000C00E002010B500F066F8002801D100F0DC
:1029100057F810BD014B18607047C0465C08002096
:10292000014B18687047C04660080020F7B513488F
:10293000012284461249134C8E68636805689B0E19
:102940001340019288686268019F920E3A40674680
:102950003F6893420ED1BD420CD186420AD35B1927
:10296000FA254868AD00861B07486B437043000D8D
:10297000C018FEBD3D0013000600E3E7600800201C
:1029800010E000E000ED00E05555000070B5041EB9
:1029900010D0FFF7CBFF050000F01CF8FFF7C6FFD3
:1029A000054B401B9842F7D9FA23013C9B00ED18D8
:1029B000002CF3D170BDC046E70300007047000053
:1029C00010B5034A13680133136000F053FC10BDC7
:1029D0006008002070470020704700001E2270B57C
:1029E00046484749436893431C3A134343600823CE
:1029F0008C6923438B61434C434B9C829C8A1443D8
:102A00009C82DC681442FCD00124404A1470157882
:102A1000254203D055786DB2002DF8DB0124946077
:102A2000547864B2002CFBDB394C5460547864B2A7
:102A3000002CFBDB8224E4015480547864B2002C27
:102A4000FBDB02249C840E34DD682542FCD0314C33
:102A5000DC621024DD682542FCD09D8C2E4C2C437A
:102A60009C841024DD682542FCD002249D8C8026A5
:102A70002C439C844024DD683542FCD0DD6825422F
:102A8000F9D01024DD682542FCD0002494605478ED
:102A900064B2002CFBDB214C5460547864B2002CEF
:102AA000FBDB1C6A1E4D2C4080251C621C6AAC435B
:102AB0001C62032393601B4B536053785BB2002B63
:102AC000FBDB0023FF240B72174A4B728B72CB7215
:102AD000164B1A60164B174A1B6811689A065B0161
:102AE000C90E2340520F12020B431343124A13859F
:102AF000802342681343436070BDC04600400041DC
:102B0000000400400C06000000080040000C0040DB
:102B100001050100B905FF7D040A0000000703005C
:102B2000FFFCFFFF03060100006CDC020400002034
:102B3000246080002060800000400042FA21314B78
:102B400010B51868890002F09DFA2F4B01389842A1
:102B500056D82E492E4A4860C020136A00061B0230
:102B60001B0A03431362002407238C600B6080213F
:102B7000136A09061B021B0A0B431362FC22254B36
:102B8000196A0A431A62FC22196A92010A431A62FC
:102B9000A022196AD2020A431A62200000210134DD
:102BA00000F0ECF80F2CF8D11B4B1C005A7852B2F5
:102BB000002AFBDB194A5A80194B1A00597EC909B1
:102BC0000129FBD0E421C90099803F21D970537EAF
:102BD000DB09012BFBD0C02300205B011361907047
:102BE00000F02EF863785BB2002BFBDB0D4B0E4A36
:102BF0006380D379DB09012BFBD04123537010BDD7
:102C0000FEE7C04604000020FFFFFF0010E000E0E8
:102C100000ED00E000040040000C00401E400000F9
:102C2000004000422140000000480042914202D092
:102C300002D98A1AD0407047521A9040FBE7000030
:102C4000164A00B51300517EC9090129FBD001388D
:102C5000042816D81969124A0A400F211A615A78B5
:102C60008A4302F005FA0308060B03001100012253
:102C70000A435A7000BD11000322F9E71100022235
:102C8000F6E7F02311691B050B430F2113615378FD
:102C90008B43190002230B435370EBE700400042C3
:102CA000FFFFFFF010B504000E2800D80F340121FB
:102CB000200000F0DBF81823102163432A4CE418AD
:102CC0006156002901D014290DD1284B1800DA795A
:102CD000D209012AFBD002241A78A2431A70C379C0
:102CE000DB09012BFBD022480300427ED209012AD6
:102CF000FBD01F2402692140A2430A4302615A7E8D
:102D0000D209012AFBD0022219780A431A705A7E8E
:102D1000D209012AFBD00222197B0A431A731A7EB8
:102D2000D207FCD501221A765A7ED209012AFBD09D
:102D30000222197B0A431A731A7ED207FCD5588BDC
:102D400080B25A7ED209012AFBD002211A788A4326
:102D50001A705A7ED209012AFBD0064B1A68064B1C
:102D60001968FFF763FF10BD448700000048004268
:102D7000004000420C00002008000020182330B55D
:102D80001D00040045430820204A551928560130EB
:102D900014D0032912D808006343D156D31802F087
:102DA00067F902280E1B5868CB010221184A9B18AC
:102DB0001A1840321170012282405A6030BD5868A2
:102DC000CB010621124A9B181A18403211700122B9
:102DD00082405A609A61F1E75868CB0106210C4A9B
:102DE0009B181A1840321170012282405A605A61B1
:102DF000E4E75868CB010221054A9B181A184032B3
:102E00001170012282409A60D8E7C04644870000D2
:102E1000004400411823F0B508245843114A131800
:102E20001C5701341BD0012635005F688356BD4016
:102E30000D4ADB019A18906805420BD10C00601E08
:102E40008441D2194032107834400336A400B04394
:102E500020431070044A9B18002901D15D61F0BD28
:102E60009D61FCE744870000004400411822424372
:102E7000F8B52C4E0300B218127A52B21400013287
:102E80000ED0481C00240C280AD802F0F1F8071FC5
:102E90001F1F1F1F1F1F1F0B0B0B0B000124644262
:102EA0002000F8BD092905D100211800FFF766FFB1
:102EB0000024F5E70A2901D10839F6E700240B2997
:102EC000EED10A391800FFF759FFE9E718225343FA
:102ED000F218556801202C00F356134ADB016E08E6
:102EE0009B18C9B204409E19002C0DD00F24303617
:102EF0003278090122401143C9B25B193170403365
:102F00001A7810431870D3E732000F273032167842
:102F10005B19BE433143117040331A781043187067
:102F2000BEE7C0464487000000440041F7B5C31D1A
:102F30000193002306000D00041D009321780A224E
:102F4000280000F0BCF82E210700280000F047F808
:102F5000009B3F18DB190093019B01349C42EDD18B
:102F6000F17928000A2200F0AAF8009B1818FEBD8B
:102F700030B503AC2578044CC57108340460017188
:102F80004271837130BDC046A48A0000F7B50600C7
:102F90000D000C008B180193019B671B9C4207D00E
:102FA000336821781B683000984701340028F3D13A
:102FB0003800FEBD70B5040008000D0004F084FB6D
:102FC0002368020029005B682000984770BD10B597
:102FD0000B1E02D0FFF7EEFF0300180010BD10B566
:102FE00003681B68984710BD10B50249FFF7E2FF60
:102FF00010BDC046BC8A000070B50400FFF7E7FFB3
:1030000005002000FFF7F0FF401970BDF0B58BB050
:103010006B461500002205330600DA770800012D03
:1030200000D80A2509AC290002F0B2F8CAB2130090
:1030300037330700DBB2092902D813003033DBB283
:10304000013C2370002FEED121003000FFF7BFFFBD
:103050000BB0F0BDF8B506000C00151E04D10368D6
:10306000C9B21B689847F8BD0A2A0CD100290BDAAF
:103070002D21FFF7B4FF614207002A003000FFF75F
:10308000C5FF3818EFE7D2B221003000FFF7BEFFCE
:10309000E9E770B50400FFF7DDFF05002000FFF74A
:1030A000A3FF401970BD10B5002A04D10368C9B24E
:1030B0001B68984710BDD2B2FFF7A8FFFAE710B51A
:1030C000FFF7F1FF10BD0000F7B51E0008AB1B783D
:1030D00031000193050033001000170003F084FE57
:1030E0004B49002814D10122740064085242494B14
:1030F0003800210003F078FE00280FD10122454B53
:1031000052423800210002F053F9002806D142490A
:103110002800FFF74FFF04002000FEBDE0223F4BD8
:1031200012063800310002F04DF9002801D03C4968
:10313000EEE7E0223B4B12063800310002F02EF998
:103140000028F4D1002200233800310002F026F9D3
:10315000041E07D02D212800FFF741FF8023040023
:103160001B06F618002300202F490093019B009AAC
:10317000934208D02D4B002202F072FC009B0133D9
:10318000DBB20093F2E733003A0002F04DF90F0092
:10319000060002F02BF90A22019001002800FFF737
:1031A00035FF009B0419002BB6D0019803F06EFE8A
:1031B00002000B003000390003F0CEFA06000F00C9
:1031C00028002E21FFF70BFF2418009B013BDBB2E8
:1031D0000093FF2BA0D0154B00223000390003F0E4
:1031E00049F80F00060002F001F90A2201000190DF
:1031F0002800FFF70BFF2418019803F047FE020098
:103200000B003000390003F0A7FA06000F00DCE7DE
:10321000B08A0000FFFFEF7FB48A0000FFFFEF419C
:10322000B88A0000FFFFEFC10000E03F000024402B
:1032300037B519000400069B2000DBB200930B0099
:10324000FFF742FF05002000FFF7CEFE40193EBD0C
:1032500010B50400FFF7B2FB014B1C6010BDC04667
:10326000100000200122024B52421A607047C046F3
:1032700010000020164A10B51368591C26D0013BD7
:103280001360002B22D172B6124B134A04339342BF
:1032900013D9124A01211000147D0C42FCD02021C8
:1032A000148BFF319B085B0021431183D3610C4BCE
:1032B00013800123027D1A42FCD0BFF34F8F094BCC
:1032C000094ADA60BFF34F8FC046FDE710BDC04624
:1032D0001000002000200000030200000040004118
:1032E00002A5FFFF00ED00E00400FA050160704751
:1032F0009446F0B59E1E721E96416246056892077E
:103300002F6836063A4332432A60072505AC2478F5
:103310000068A4012940214342680024022B00D008
:103320005C03114321434160F0BD30B5C025036803
:10333000AD031C6812052A402243C0240904A402DC
:1033400021401143196003685A6814435C6030BD22
:103350000123026811680B43136003681A68D207DF
:10336000FCD4DA69D207F9D47047022302681168E5
:103370000B4313600268D3699B07FCD47047036852
:103380001A7ED20702D41A7E9207FCD5704700221B
:1033900003685A8370470368187E4007C00F704760
:1033A0000368187EC0097047802302685B42117E63
:1033B0000B43137670470368588B8007C00F704724
:1033C00002230268518B0B43538370470368187EB6
:1033D000C007C00F70470368188DC0B270470368FC
:1033E0001A7ED207FCD589B20120198570470122C7
:1033F00003689A757047012203681A7570470123A4
:10340000026811680B43136003681A68D207FCD482
:10341000DA69D207F9D470470223026811680B43B6
:1034200013600368DA699207FCD430215A8B8A430F
:10343000110010220A435A830268D3695B07FCD447
:1034400070470221026813688B4313600268D369D6
:103450009B07FCD470470000032230B5036811407D
:103460001C68074D5A6809042A40E4061143640F9A
:103470005960052C03D10268D3695B07FCD430BDC9
:10348000FFFFFCFF70B5056804006B8B9B069B0F6C
:10349000022B0DD06B8B00209B069B0F032B32D091
:1034A0006B8B9B0704D56B8B9B069B0F012B2AD143
:1034B0006B6A49001143DB0AC9B2DB020B436B6242
:1034C0002368002A13D11A7ED207FCD55B8B9B069A
:1034D0009B0F022B04D0490800222000FFF7D2FFE7
:1034E0002368588B4007C30F012058400BE0187E1B
:1034F0008007C00FF4D11A7ED207F8D5C0225968D0
:1035000092020A435A6070BD036828331970036839
:10351000187EC007C00F03D15A8BD207F8D5704769
:10352000588B4007C30F01205840F8E70368214A31
:1035300030B593422FD0204A93422FD01F4A934256
:103540002FD01F4A93422FD01E4A93422FD01E4A9B
:1035500093421FD10E2319220121032599401B48B4
:10356000C024016099082B40AB40FC359D40890088
:103570000918A4000859A843C0259D402B00034307
:103580000B518023DB011A43114B5A805A7852B2F7
:10359000002AFBDB30BD09231422DDE70A231522B4
:1035A000DAE70B231622D7E70C231722D4E70D23E3
:1035B0001822D1E700080042000C0042001000422F
:1035C0000014004200180042001C004200E100E02C
:1035D000000C0040F8B504000F0016001D00FFF7B6
:1035E000A5FF2000FFF7B4FE1C21BB000B407107B4
:1035F0002268090C0B431360842322689375012F02
:103600001AD11021012E00D008390C4B69431868DB
:10361000C00001F037FD0722216802408B89520368
:10362000DB04DB0C13438B81226803049089DB0CE1
:10363000400B400318439081F8BDC04604000020B1
:10364000F8B504000F00FFF771FF2000FFF7D7FE69
:103650001422236879001A600C4B25681E6830001C
:1036600001F010FD0A490400300001F00BFD7D233C
:10367000FA215843C90001F005FDFF23241AE86828
:10368000053C1C4098430443EC60F8BD0400002056
:1036900040420F000020704770B50F26CB1D013946
:1036A00002003240D5B22C0000093034092A00DD76
:1036B00007341C70013B8B42F2D170BD10B50C0079
:1036C0000B4B1868FFF7E8FF21000A4B0831186818
:1036D000FFF7E2FF2100084B10311868FFF7DCFF0D
:1036E0002100064B18311868FFF7D6FF202010BDC7
:1036F0000CA0800040A0800044A0800048A0800072
:1037000008B4024B9C46103808BC6047BD36000028
:1037100070473F20704713B56B460268D971073375
:10372000546819000122A04716BD000070B50A2692
:103730000B7892B06E44023305000B703C220021DE
:10374000300003F066FC394801AC0690384824216B
:103750000790062020776846364AA1742281364AAF
:10376000364BA281FD3AFF3A8018C177684623396B
:103770000630C17768460730C17702A8C1770720B5
:10378000F277032608316944C87703A9CE77102160
:103790002B366E443170092621851F3169440E7025
:1037A0000CA9053E0E7033212380022369440B705F
:1037B00006360DA90E7022493536A1863B216E448E
:1037C000307010A86274E27702703D3269446A4436
:1037D0000B70137040210022E37023716371A37397
:1037E00041336B44218719705A702B7DC039A37007
:1037F000A37263770133DBB2A3776A7D0B200D00E0
:1038000068441543C5773120684403703A23501C3F
:103810006B441870412302320A436B441A70210032
:103820004222084800F064FF12B070BD1001042469
:10383000020605240904000001020000080B000034
:1038400007050000CC08002008B4024B9C46103845
:1038500008BC60472D37000070B5027D0B790C0065
:1038600000259A420BD10B784E78A12B09D1212E3D
:1038700005D107221F49204800F03AFF01352800F2
:1038800070BD212BFBD1202E2BD1072219491A48BC
:1038900000F070FE174B1A785978090211439A7894
:1038A00012041143DA7812060A439621C9008A42AB
:1038B0001DD1DB79DB071AD4FA20FFF7C9FC002100
:1038C0000D4801F021F80125232ED8D1E378A27804
:1038D0001B021343094A00210748136001F014F842
:1038E000CDE7222EEFD18A78024BDA71D2E7FFF7CB
:1038F000B9FCE4E718000020CC08002014000020E8
:1039000008B4024B9C46103808BC60475938000088
:1039100010B5417D006A013100F064FD034B1B6866
:1039200001335A1E9341181810BDC04620000020D4
:1039300010B5417D006A023100F06AFD10BD10B57E
:10394000417D006A023100F031FD10BD70B50D00FF
:10395000417D0400130002312A00006A00F01EFEBF
:10396000002801D10123636070BD000010B5054C33
:1039700023685A1C04D103685B69984703002060E0
:10398000180010BD20000020074A0300106810B581
:10399000411C03D001235B42136010BD597D186A9E
:1039A000013100F0ABFDF8E7200000207047002057
:1039B00070470000FA239B0010B583600F4B002274
:1039C000C3820300283383610D4B04004260C2614F
:1039D0001800443323610830631D21622060DA77C8
:1039E0008323A362813BE3628033236300F0C2F848
:1039F0002100103100F092F8200010BD03020000F9
:103A0000C08A0000022110B5094B1A68437D5B0192
:103A1000D318FF339C7A21439972437D0133DBB283
:103A20005B01D3180122FF33997A0A439A7210BDC1
:103A3000840D00207047000010B5FEF771FFF423DD
:103A4000FF330024984207D9044B0A20DC79631E17
:103A50009C41E4B2FEF79AFF200010BD1800002040
:103A600010B502490248FFF7A5FF10BDCC080020A1
:103A70006408002070B50E0000254468002C0BD0AF
:103A8000236831005B6820009847002802DB2D186E
:103A9000E468F3E701256D42280070BD70B50D00A4
:103AA0004468002C08D0236829009B6820009847B0
:103AB000002802D1E468F4E7200070BD70B50D0065
:103AC00000264468002C09D02368290020001B69C7
:103AD000984736182D18F6B2E468F3E730002C70DA
:103AE00070BD70B50D004468002C08D02368290013
:103AF0001B6820009847002802D1E468F4E7200002
:103B000070BD70B50D004468002C06D023682000FD
:103B1000DB6829009847E468F6E770BDF0B58C795A
:103B2000457803002A190020072A1FDC5A688242C0
:103B300016D159601A78C8790A7112184D711A7025
:103B400000220B4DD0B284420FD98F68587896006E
:103B5000F75986000130775101325870F2E70200C0
:103B6000D0680028FBD1D160E4E70120F0BDC04659
:103B7000A40800200121064A10B5136805480B402F
:103B800004D18024640004804360116010BDC046ED
:103B9000980800209C080020704710B5040001F030
:103BA0005BFA200010BD0000F0B5822919D1C3B224
:103BB000294D5A01AA189169284C80010C40C02156
:103BC00089052143916126490833401870215061CD
:103BD00028685B011A5C8A43110030220A431A5498
:103BE000F0BD0029FCD1C026C1B21B4C4B01E3182B
:103BF0009A681A4DB6052A4032439A60194A8001E4
:103C000082185A600A000727246808325201115DA1
:103C1000B9430F000121394311559F6910493D40B7
:103C200040182E439E6158617020115D8143080049
:103C300010210143115599680B48A21808408021B2
:103C40004903014399609968890B8903996040236E
:103C500011790B431371C3E7840D0020FFFFFF8F21
:103C6000F8080020B80A0020FF3F00F0EFF31083AF
:103C700003600123436072B670470368002B02D1D2
:103C800062B6BFF36F8F7047F7B50600FC36B369B5
:103C90000400002B18D1B2277F00C55D6846FFF7EE
:103CA000E5FF019BEDB2013B02D3E55DEDB2FAE722
:103CB00068460193FFF7E1FF002D01D10020FEBD12
:103CC000706E336EC01AFAE76846FFF7CFFFD8224E
:103CD0000025019B5200013B02D3A55CEDB2FAE73F
:103CE00068460193FFF7C9FF002DE7D0D6235B009C
:103CF000E058043BE358E5E710B54468FC304369FD
:103D00000B48DBB25A01A2189168083308408021A1
:103D100049030143916091685B01890B89039160BC
:103D20002268D318402219790A431A7110BDC0467F
:103D3000FF3F00F0F7B50500FC356B694268DBB268
:103D4000190004000831106849014118C979C907F0
:103D500011D55B01D21893689B049B0C0CD12000F9
:103D6000FFF7CAFF63681A686B69DBB208335B014F
:103D7000D3187F22DA71F7BDE969002923D16B6678
:103D8000230001266933FF33EE6168465360B22792
:103D9000FFF76CFF7F00B221019BFF31013B5A1CF2
:103DA00038D0D822E6555200A25C581ED2B26254D6
:103DB000625C8446002A04D120000193FFF79CFF37
:103DC000E9E76346EBE7D621490063500023EB6146
:103DD00023001D33FF3353606846D826FFF746FFA4
:103DE00001277600B221019BFF31013B5A1C11D003
:103DF000B222A7555200A25C581ED2B26254625C35
:103E00008446002A04D120000193FFF775FFE9E7FB
:103E10006346EBE768460193FFF72FFFA2E7F7B58C
:103E2000060068463400FFF721FF0027FF22019BB0
:103E3000FC34013B0DD3E0682169884204DBE7686C
:103E40002069D71B3F18F4E72769E1687F1A013F13
:103E5000EFE768460193FFF710FFA3696846002B60
:103E600052D1FFF703FFB221019B4900013B5A1CCD
:103E70000CD0755C5A1EEDB2002D05D16846019339
:103E8000FFF7FBFE2800FEBD1300F0E76846019334
:103E90000025FFF7F2FEFF22236EBD4214D0616EB3
:103EA000994211D9591CF3182166FF33587FE368F2
:103EB00021690133C0B213408B4203D0E16871180D
:103EC0000872E3600135E7E7626E9A42DAD10023B7
:103ED00023660133A3616846B224FFF7C7FE64007E
:103EE000B2220021019BFF32013B581CC6D0315544
:103EF000B05C5F1E002805D0B15430000193FFF77D
:103F0000FBFEEDE73B00F0E7FFF7B0FED821019B99
:103F10004900013B5A1C06D0755C5A1EEDB2002DBB
:103F2000ACD01300F6E768460193FFF7A6FED62350
:103F3000D4225B0000259C465200B358BD4203D0FA
:103F400061467158994220D86246B2589A4299D136
:103F5000D42200235200B3506846A361D824FFF74F
:103F600085FE6400B2220021019BFF32013B581CF8
:103F700000D183E73155B05C5F1E002819D0B154E1
:103F800030000193FFF7B8FEECE7591CB150FF2158
:103F9000F3186933FF331878E368C0B201330B407C
:103FA00021698B4203D0E16871180872E360013522
:103FB000C3E73B00DBE710B50400FFF730FF230049
:103FC000FC331969DA68914203D01B69E418207A3E
:103FD00010BD01204042FBE710B50400FC34FFF7A0
:103FE0001EFFE0682369C01A01D50130FF3010BD03
:103FF000F0B585B0019200910500FFF710FF02A80F
:10400000FFF734FE01200024FF26039B40425A1E86
:10401000531C1FD02B00FC3301998C4218D2D96855
:104020001F69C91B01D50131FF31002910D0196961
:10403000DF688C460100BC4506D019691F69691804
:1040400001373740097A1F61009F39550134E3E792
:10405000013ADDE702A80392FFF70FFE200005B04A
:10406000F0BD37B56B46DC1D00230D002370FFF754
:1040700081FD2100FFF7FEFC2B68181828602078CE
:104080003EBD00002023F7B5414A0500D1690F204D
:104090000B43D36101223F490B7813430B703E4B16
:1040A00019788143197006211C78214319703B4906
:1040B0000C7822430A701A7802401A70602219782C
:1040C0000A431A70364B374A5A805F78FF09FCD191
:1040D0003548FEF71FFC0123344C354E2268300072
:1040E00011780B43137080223900520002F091FFC7
:1040F00022689378DB07FCD456621F262D4B1B6881
:10410000590B980C9B01314030405B0FB14200D1FC
:1041100005211F2800D10238072B00D1043B314074
:104120008901178D0191244930400F40019939438D
:104130001185118D0700B143080038431085118D9A
:1041400018031E4B0B407F21034313851378C120B6
:104150000B40137004232268800011780B430C215C
:104160001370226813898B43154913810B581B0266
:104170001B0A0B5080230B6011787E3B0B4313709E
:10418000012300212B700F48FFF754FCF7BDC046F8
:1041900000040040584400413C440041594400415F
:1041A000000C004006400000194B0000840D002068
:1041B000880D0020246080003FF8FFFFFF8FFFFF85
:1041C00000E100E0640800200078002810D0012100
:1041D000084B1B681A898A431A810822198B0A43E3
:1041E0001A830422198B0A431A830022024B1A6095
:1041F0007047C046840D00207C0D002010B50F4A8A
:1042000093699B0B9B03936113680222FF331A721D
:104210009879823A02439A711A7A9207FCD57F24E0
:10422000074A2140937A0800A343190080230143E1
:104230009172917A5B420B43937210BD840D002002
:104240000050004110B50C00FFF794FC2100FFF76F
:1042500048FC002804D1034A93699B0B9B0393619C
:1042600010BDC046840D0020F7B50D00832A19D17A
:10427000CBB2404C5A01A21891693F48AD010840A9
:10428000C0218905014391613C4920686D18702166
:10429000083355615B011A5C8A43110040220A43CE
:1042A0001A54F7BD022A5FD1354B8A00D058002836
:1042B00002D003685B699847DA20400000F0C8FE2E
:1042C000802204002B4E2F4B4660036052000021D9
:1042D000083002F09EFE2200B2210023FC32490089
:1042E000D3605561136113669361D3615366635460
:1042F000443163500431635004316354B221FF31BF
:104300006354FF202B0003405901019371188F68FB
:10431000194BAD003B40C027BF051F438F600727E7
:10432000019B366808335B01995DB9430F00032197
:104330003943995523005169666801401D3349018D
:10434000FF3371184B60636852691B680240520169
:104350009B1801221B18997A20000A439A72FFF7D2
:10436000CBFC074BEC509CE711002800FFF71CFC2E
:1043700097E7C046840D0020FFFFFF8FF80800205C
:10438000D0080020208B000070B505000124064BEA
:10439000A200D258002A06D0210028000134FFF7DD
:1043A00063FF0A2CF3D170BDA40800200B4BCAB2E6
:1043B0000B488901C9185301C3185961996908321A
:1043C000890B89039961036852019A180223D371FA
:1043D0005179823B0B4353717047C046F808002067
:1043E000840D0020084B8A00D05810B5002803D057
:1043F00003689B68984710BDC9B2044B490159181E
:1044000088688004800CF6E7D0080020840D002026
:1044100010B50C00FFF7E6FF00280CD0064BE4B205
:104420001B68083464011C19802362795B421343C2
:1044300063710223E37110BD840D0020F0B51C00F0
:104440002A4B85B01B6807000D000292002B4AD052
:10445000274B8A00D058002808D0036822005B68E8
:10446000029998470400200005B0F0BD3800FFF71E
:10447000B9FF844204D929003800FFF7B3FF0400D4
:104480000121EBB21B4E03935B010193F218936879
:104490009B0B9B039360019A336802989B18FF3330
:1044A0005A7A0A435A72144BA901C918220002F021
:1044B000A7FD002CD7D029003800FFF793FF002874
:1044C000D1D14021039B326808335B01D31818799E
:1044D000014319710121D971019BD318FF339A7AD5
:1044E0000A439A72BFE701246442BCE77C0D0020B6
:1044F000D0080020840D0020B80A002013B56B46B8
:10450000DC1D22000123FFF799FF012801D120784B
:1045100016BD01204042FBE770B5CBB2124A1348EA
:104520005C0189018918021951609168104D0833A6
:104530000D40802149032943402591609168890BF2
:104540008903916001685A018A18167935431571FB
:1045500095796D06FCD55B01C918CB79DB07FCD5D5
:1045600000198068C0B270BDB80A0020840D002018
:10457000FF3F00F070B50D0000211400FFF7CCFFE5
:10458000A04200D9200000230349A34203D0CA5C03
:10459000EA540133F9E770BDB80A0020F0B51E00F7
:1045A0003A4B85B01B680F000192002B35D0802359
:1045B000DB019E4231D80025354B8A01D318029386
:1045C000002E2CD0334B1B680393FF233B401C0071
:1045D00000930834039B64011C19A379DB0921D0E3
:1045E0002D4B2E49186800F04DFD2D4B17215843D7
:1045F00000F048FD2B4BE279920713D4DA5D002AD4
:1046000001D10138F7D20122DA55009B5A01214B22
:104610009B189A69920B92039A6101256D422800BA
:1046200005B0F0BD00221F4B3400DA553F2E09D9EA
:10463000009B40245A01174B9B188022996912064F
:104640000A439A6122000199029802F0D9FC009B6A
:10465000A1045A010F4B890C9B18029A2D195A611B
:104660009A69361B920B92030A439A61009B039A44
:1046700008335B01D3180222DA715979823A0A436E
:104680005A71019B1B1901939AE7C0467C0D0020CB
:10469000F8080020840D00200400002040420F0094
:1046A00070110100ED08002070B50D001C000D4BCD
:1046B000AE01F61811003000220002F0A1FCEDB2AC
:1046C00009496D014D196E61AB69084A200013401C
:1046D000AB61AB69A2049B0B920C9B031343AB61D0
:1046E00070BDC046F8080020840D0020FF3F00F098
:1046F000F7B5104B01901B780F001500002B0CD163
:104700000D4B16001C78002C09D00C4E0C48348838
:104710002018641902F074FC34802800FEBD002EBD
:10472000FBD03A19330000210198FFF7BDFF241890
:10473000361AF4E7780C0020790D00207A0D00205D
:10474000790C0020F8B50F0016000024012A26D9A4
:10475000100002F02FFC0500380002F0B5FF032323
:1047600002220130400028706B7096420DD93978D2
:1047700000290AD0531CDBB20137A9549E4203D052
:104780000232EC54D2B2F0E7320029000548FFF7BC
:10479000AFFF441EA041C4B2280002F015FC200067
:1047A000F8BDC046CC080020F0B50024012685B035
:1047B000184B0F0069461E7005000094FFF751FC6E
:1047C000154B01A90B806A3BFF3BCB715A330B722F
:1047D000009B8C7109334B800E4B4E7108711C701D
:1047E0003A00092F0FD00D4F09223E700C4E2800C1
:1047F00000943480FFF77CFF69462800FFF731FC06
:10480000328808493C702800FFF772FF012005B08C
:10481000F0BDC046780C002009020000790D002090
:104820007A0D0020790C002070B5CE7892B005008A
:104830000C00022E0BD18B79C9792E48090219433D
:10484000FFF7B2FF411E8841C0B212B070BDFFF742
:1048500091F92100FFF722F9002803D0C117081AA7
:10486000C00FF2E7012E0ED1E279A37912021A43AA
:104870002149112A3CD8D2B2002A39D02800FFF7AA
:1048800037FF0120E1E7032EDFD1A378002B28D0EA
:10489000022B08D1E279A379120218491A432800A1
:1048A000FFF750FFD1E7012B05D1E279A37912027E
:1048B0001A431349F3E7032BC7D10100412201A892
:1048C00002F0A7FBFFF756F901A9FFF7F7F8002858
:1048D00005D0E279A37912021A4301A9DFE7037830
:1048E000FFDEE279A37912021A430649032AC2D9EC
:1048F0000A78C3E7CC080020628B00003C8B0000E4
:10490000568B0000528B0000CBB204495B01C918E2
:104910008B699B0B9B038B617047C046840D002005
:1049200037B5050048780C000B2810D800F0A0FB24
:10493000061B0F2B0F404561494C5A5D097801AAAF
:10494000002906D1022311802800FFF7ADFE0120C7
:104950003EBD00231380284B1B78012B00D1137020
:1049600002230021F0E78A780023012A03D101AA5B
:104970001380224BF0E7204A1370214A93699B0B66
:104980009B039361E3E78C78012C06D100211B4B3C
:1049900001AA1C7011702300D6E70120002CD7D18A
:1049A000154B174A187093699B0B9B039361CFE7D4
:1049B00089782800FFF722FCC9E72800FFF734FFB9
:1049C000C6E701230F4ACCE70B780020DB06BFD1F6
:1049D0002800FFF7D9FCA2780A4B0B481A60FFF7B2
:1049E00011F8CAE70123094ABBE78A78074B1A6026
:1049F000C3E70020ACE7C046EC080020F408002024
:104A0000840D00207C0D002064080020800D002013
:104A10003B4BF7B51E780500002E5FD1394C23685B
:104A20009A8B12070DD5082231009A833000FFF7C8
:104A3000BBF810222368FF33997A0A439A72324BEB
:104A40001E6023689A8B520701D504229A83FF3394
:104A50001A7A920603D52022597A0A435A721A7A90
:104A6000D20623D569460800284AC0CAC0C0A26839
:104A7000920B9203A2604022587902435A7160233C
:104A80000A7828001A422AD1FFF74AFF2368FF3329
:104A9000002827D08022997952420A439A711A7AC3
:104AA000520603D54022597A0A435A727F260125BD
:104AB0002368FF331E722F00236808377F01DB193C
:104AC000DB79002B07D0124BAA00D05800280DD05C
:104AD00003681B6898470135082DECD1F7BDFFF737
:104AE000B1FBD3E720210B4A9171D8E7FFF742F8D9
:104AF0002900FFF706F82368DF19FE71EBE7C046CF
:104B0000790D0020840D00207C0D0020B80A0020C3
:104B1000D0080020FF50004110B50248FFF778FF91
:104B200010BDC046CC080020014B024A1A607047F5
:104B3000840D0020005000410120704710B503682B
:104B4000014A1B6A984710BD130400000300FC33A0
:104B5000D9699A69914203D0DB69C018007D70471A
:104B600001204042FBE710B504000069FEF7F0FBAE
:104B700022000023FC329361D36186229200A418A4
:104B80006360A36010BDF0200140303948424841C5
:104B90007047F0231B011940802306209B00994297
:104BA0000AD00133FF330130994205D08023023807
:104BB0005B00994200D0002070470F200140002088
:104BC000012903D00239481E8141481C704700006A
:104BD0008923F0B5182685B002919B000400C05CC3
:104BE000330008214343324D1700EB185956FEF7A6
:104BF0003DF9304B0821E05C33004343EB18595634
:104C0000FEF734F92C4BE25C0393022A09D11133ED
:104C1000E05CFF2805D008214643AE197156FEF727
:104C200025F98A26B600A05DFF2819D00121FEF7DC
:104C3000A5F81822A35D21495A43AB56AD18DB01F4
:104C400058188B21890060501D4901225B188C2166
:104C50008900635069688A408D21890062501A601A
:104C60000122029B11002069FEF7B4FC39002000EC
:104C7000FFF78FFF390005002000FFF79EFF390086
:104C800006002000FFF77FFF330000902900206915
:104C90000122FEF72DFB0B4B2069E25C039BE15CDC
:104CA000FEF743FB2069FEF760FB05B0F0BDC04690
:104CB000448700002502000027020000184400413C
:104CC0001444004126020000802210B50400520066
:104CD000002102F09EF923000022FC335A602000DC
:104CE0009A6010BDF0B585B01D000AAB1B780400BA
:104CF00000930BAB1B78160001930CAB1B780F00D5
:104D000002930DAB1B78039300234360FA239B00AF
:104D10008360124B083303601430FFF7D5FF200087
:104D20001D30FF30FFF7D0FF89236A469B002761C3
:104D3000E6540B4B1278E5540A4B2000E2546A46C5
:104D4000094B1279E2546A46127A0133E2546A46F8
:104D5000127B1033E25405B0F0BDC046748B0000E6
:104D6000250200002602000027020000F7B51D0002
:104D700008AB1B780400009309AB1B781600019365
:104D800000234360FA239B008360114B0F0008331C
:104D900003601430FFF798FF20001D30FF30FFF74D
:104DA00093FF89236A469B002761E654094B1278DA
:104DB000E554094B2000E2546A46084B1279E2544C
:104DC0008A22293BFF3B9200A3541032A354FEBD1C
:104DD000748B00002502000026020000270200005C
:104DE0000300FC3358689B68C01A01D50130FF30BE
:104DF000704710B5040020001D30FF30FFF7F0FFB2
:104E00000028F8D12069FEF7BAFA10BD10B51430A9
:104E1000FFF7E6FF10BD0300FC3359689A68914222
:104E200004DB5A689868801AFF30704798685B689E
:104E3000C01A0138F9E710B51D30FF30FFF7EBFF5E
:104E400010BD10B504000069FEF7B5FA002805D0C2
:104E50002069FEF7C0FA2069FEF7B2FA2069FEF772
:104E60009AFA002820D02069FEF7B5FA2200FC3219
:104E70009369D1690133DBB28B4203D09169611828
:104E8000087593618A239B00E35CFF2B0CD0200004
:104E90001430FFF7C0FF092806DC8B238D229B000E
:104EA0009200E358A2581A602069FEF78FFA002892
:104EB0001AD020001D30FF30FFF792FF002822D0CB
:104EC00086239B00E31899685A68914218D08E2176
:104ED0009A684900A218515C9A680132D2B29A606D
:104EE000C9B22069FEF77BFA2069FEF759FA00285B
:104EF00005D02069FEF758FA2069FEF748FA10BD80
:104F000001214942ECE72069FEF775FAECE7000061
:104F100070B5040000690D00FEF758FA00283ED174
:104F2000FF2686239B00E3185A68996801323240B5
:104F30008A4223D1EFF31083DB0710D41E4B5B684A
:104F4000DB05DB0DEDD0103B5BB2002B10DA0F223E
:104F50001340083B9B08194A9B009B181B6820695B
:104F6000FEF734FA0028DCD02000FFF76AFFD8E70C
:104F70009B08C033124A9B009B58F0E75A680132E5
:104F800016409A68964205D08E215A684900A218A8
:104F900055545E602069FEF72AFA012070BD20009A
:104FA0001D30FF30FFF71CFF0028B9D12900206910
:104FB000FEF715FAF1E7C04600ED00E01CED00E059
:104FC00000E100E0030070B5FC33D9699A69040080
:104FD00091421AD0DA698218157DDA690132D2B2AB
:104FE000DA618A239B00E35CFF2B0CD02000143095
:104FF000FFF711FF0A2806DD8C238D229B0092000B
:10500000E358A2581A60280070BD01256D42E8E7F8
:1050100010B5FDF793FD01F097FFFDF761FB01204F
:10502000FDF7B4FC084C2000FFF72CF82000FFF738
:10503000CBF8FDF763F8FDF7E9F8044B002BFAD045
:1050400000E000BFF7E7C046CC08002000000000E9
:1050500010B501F0AFFF10BD10B501F0B5FF10BDE8
:105060000B0010B50100180001F060FF10BD00003A
:1050700002B4714649084900095C49008E4402BCEB
:105080007047C046002243088B4274D303098B4209
:105090005FD3030A8B4244D3030B8B4228D3030C08
:1050A0008B420DD3FF22090212BA030C8B4202D3AA
:1050B0001212090265D0030B8B4219D300E0090AD2
:1050C000C30B8B4201D3CB03C01A5241830B8B42DB
:1050D00001D38B03C01A5241430B8B4201D34B03C4
:1050E000C01A5241030B8B4201D30B03C01A524129
:1050F000C30A8B4201D3CB02C01A5241830A8B42AE
:1051000001D38B02C01A5241430A8B4201D34B0296
:10511000C01A5241030A8B4201D30B02C01A5241FA
:10512000CDD2C3098B4201D3CB01C01A52418309AE
:105130008B4201D38B01C01A524143098B4201D3E8
:105140004B01C01A524103098B4201D30B01C01A13
:105150005241C3088B4201D3CB00C01A524183088D
:105160008B4201D38B00C01A524143088B4201D3BA
:105170004B00C01A5241411A00D20146524110461A
:105180007047FFE701B5002000F0F0F802BDC0460F
:105190000029F7D076E7704703460B437FD40022FF
:1051A00043088B4274D303098B425FD3030A8B42BB
:1051B00044D3030B8B4228D3030C8B420DD3FF2225
:1051C000090212BA030C8B4202D31212090265D0F3
:1051D000030B8B4219D300E0090AC30B8B4201D3A6
:1051E000CB03C01A5241830B8B4201D38B03C01AED
:1051F0005241430B8B4201D34B03C01A5241030B64
:105200008B4201D30B03C01A5241C30A8B4201D314
:10521000CB02C01A5241830A8B4201D38B02C01ABF
:105220005241430A8B4201D34B02C01A5241030A36
:105230008B4201D30B02C01A5241CDD2C3098B421B
:1052400001D3CB01C01A524183098B4201D38B0198
:10525000C01A524143098B4201D34B01C01A52413B
:1052600003098B4201D30B01C01A5241C3088B4280
:1052700001D3CB00C01A524183088B4201D38B006B
:10528000C01A524143088B4201D34B00C01A52410D
:10529000411A00D201465241104670475DE0CA0FE4
:1052A00000D04942031000D34042534000229C46A4
:1052B00003098B422DD3030A8B4212D3FC228901AE
:1052C00012BA030A8B420CD3890192118B4208D384
:1052D000890192118B4204D389013AD0921100E0E6
:1052E0008909C3098B4201D3CB01C01A52418309FA
:1052F0008B4201D38B01C01A524143098B4201D327
:105300004B01C01A524103098B4201D30B01C01A51
:105310005241C3088B4201D3CB00C01A52418308CB
:105320008B4201D38B00C01A5241D9D243088B4221
:1053300001D34B00C01A5241411A00D201466346C4
:1053400052415B10104601D34042002B00D5494228
:10535000704763465B1000D3404201B5002000F067
:1053600005F802BD0029F8D016E770477047C0461F
:105370008446101C62468C46191C634600E0C046F9
:105380001FB500F00FFF002801D40021C8421FBD47
:1053900010B500F067FE4042013010BD10B500F0BE
:1053A00001FF002801DB002010BD012010BDC04618
:1053B00010B500F0F7FE002801DD002010BD01202F
:1053C00010BDC04610B500F089FE002801DC0020A9
:1053D00010BD012010BDC04610B500F07FFE0028B2
:1053E00001DA002010BD012010BDC04670B50022BA
:1053F0000C4B04000D00FFF7EFFF002804D1200044
:10540000290001F00DFD70BD064B0022200029008F
:1054100001F0A2F901F004FD80231B069C466044C4
:10542000F1E7C0460000E041F0B54F464646D6469B
:105430000C000903C0B5490A470F5E0039431F033A
:10544000DB0F9C4665007B0A570F1F436D0DE40F71
:10545000760DA146C000B846D200AB1B64457BD098
:10546000002B5FDD002E00D0A4E03E00164300D1EB
:1054700012E15E1E002E00D09EE1871A4346B8421C
:1054800080410125C91A4042091A0B0200D431E1BA
:1054900049024E0A002E00D16EE1300001F028FDD5
:1054A0000300083B1F2B00DD61E120223900D21AE6
:1054B0009E40D1409F400E439D4200DD51E15D1B67
:1054C0006B1C1F2B00DD7CE12021C91A3D00300040
:1054D0008F408840DD40791E8F41310007222843EC
:1054E000D940002507433A40002A09D00F233B400A
:1054F000042B05D03B1DBB42BF417F42C9191F0091
:105500000B0200D426E26A1CC64B55056D0D9A426B
:1055100000D106E1C44AFF080A40530752023B4348
:10552000120B8EE0002B00D0B8E06B1C5B055B0D0E
:10553000012B00DC30E1871A4346B842B641CB1A52
:1055400076429E1B330200D54CE13B003343A1D190
:1055500000220024002570E0002B00DCE5E0002E96
:1055600000D183E0AF4EB54260D080263604374389
:10557000B846382B00DC3EE1434613431F007A1E39
:1055800097413F1887428041404209180B0200D4DE
:10559000B0E0A44B01359D4200D1C3E0A24A7B0894
:1055A0000A4001210F401F435108D30707221F4320
:1055B0003A4099E79B4EB54238D0802636043743AF
:1055C000B846382B00DDDCE01F2B00DC30E11E008C
:1055D0004746203EF740BC46202B04D04026F31A15
:1055E00046469E403243170063467A1E97411F434A
:1055F000CCE0002B00D104E24346134300D159E133
:105600004B07C00818438023C9081B03194208D060
:105610004546ED081D4204D14346D00859070843CA
:105620002900420FC9007F4D1143C0004B07CA0833
:105630007C49C00803438D4268D012036D05120BEC
:105640006D0D002112031800130B0A0D12051A43E9
:10565000764B2D0513402B435B00E4075B08234387
:1056600019001CBC90469946A246F0BD3E00164368
:1056700012D05E1E002E00D000E1871887428041C4
:1056800041444042091801250B0233D5022585E724
:1056900064463300414610001D00C7E7002D00D0CE
:1056A000DAE00C000443F3D05C1C00D19FE15D4CB8
:1056B000A64200D12FE1DB43382B00DD66E11F2B32
:1056C00000DD83E120240500E41A0F00DD40D9400D
:1056D000A0404346A7405B1A441EA04198462F4372
:1056E0003843171ABA42924143465242991A6446C5
:1056F0003500CAE607223A40002A00D0F6E64B07FA
:10570000CA084849FF083B438D4296D1190011430E
:1057100000D19EE1802109030A431203120B414D7F
:105720008FE71500002200238BE7002B00D0C7E095
:105730006B1C5F057F0D012F00DCF1E0394DAB42A2
:1057400000D1B9E085180A008542894142444942A6
:1057500051180722CF076D082F4349083A401D0012
:10576000C2E607223049ED1A31403A40BCE63E001D
:105770002838864000279FE6380001F0B9FB20302A
:105780008EE6434613431F007A1E9741C71BB8425B
:1057900080414042091A78E60E003B00064313435D
:1057A000002D61D1002E00D0F4E0002B00D11BE1D0
:1057B00064463900100039E71A4FBB427AD03300F3
:1057C000FFE630001F3DE840202B03D04021CB1ADC
:1057D0009E4037437B1E9F41072207433A400021EA
:1057E000002589E7171A4346BA42B641591A76424C
:1057F0008E1B64464EE61F2B00DDADE0202647469B
:10580000F61AB740B9461700B246DF404E463E434F
:1058100037005646B240561EB24117434246DA4060
:105820008918AEE6FF070000FFFF7FFFFFFF0F8034
:1058300020264746F61AB740B9461700B246DF4061
:105840004E463E4337005646B240561EB2411743BD
:105850004246DA40891A99E77F4CA6425BD0802401
:1058600024045B42214327E7002E0CD1002B00D1FA
:10587000CBE0644639001000774DD7E6764FBB4247
:1058800018D0330075E6002B14D04B07C00818431E
:105890008023C9081B03194207D0FC081C4204D10D
:1058A0007907D0080843E14621004C46420FC90061
:1058B0001143C000684DB9E61D0000220023C0E678
:1058C000002D5BD10D00054300D1E2E65D1C00D147
:1058D000B0E0614DAE421FD0DB43382B71DC1F2B93
:1058E00000DD96E020250F00ED1AAF40B946070015
:1058F000AA46DF404D463D432F005546A840D940BB
:10590000451EA84188440743BF189742924151421F
:10591000414435003AE6644635004146100085E6CC
:105920000B000343002D00D063E6002BF5D0434667
:10593000134300D17AE68718874280410722414409
:10594000404209183A400B0200D4D5E6434B0135DA
:105950001940C9E5380069E61E004746203EF74079
:10596000BC46202B04D04026F31A46469E403243C4
:10597000170063467A1E97411F4302E6364DAE423A
:10598000CAD080252D045B422943A6E70843411E67
:105990008841A6E6002B00D148E6871A4346B84264
:1059A000B641CB1A76429E1B33024BD5171A43469B
:1059B000BA429241591A5242891A072264463A4021
:1059C00092E501430F00791E8F419DE71C000F00F7
:1059D000203CE740202B03D04024E31A99400843A1
:1059E000411E884138437CE60022002425E6171A30
:1059F0004346BA429241591A5242891A64463500C6
:105A000043E541461000144D10E6802200241203A5
:105A100080E61D000F00203DEF40BC46202B03D048
:105A20004025EB1A9940084307006346781E8741DA
:105A30001F4369E7871897429B4141445B42C9185D
:105A40003500A3E53B003343CED0072231003A4076
:105A500052E600231A00F4E5FF070000FFFF7FFF76
:105A6000F0B55746DE464E464546E0B5834607004C
:105A70000E03480085B092461C00360B400DCD0F3A
:105A8000002800D19DE0954B984239D08023F60044
:105A90001B041E43924A7B0F3343994694460300EE
:105AA0006344009300230026FF00029323031B0B93
:105AB00098466300E40F52465B0D019400D1B3E0B9
:105AC00086498B4200D19EE04246D10080221204DA
:105AD0000A435146490F11438B46814952468C4631
:105AE00000996344CB1A0021D20000932B0063403D
:105AF0009A460F2E00D905E17A4BB6009B599F4676
:105B00005B463343994600D0B8E0022308260027BD
:105B100000900293CAE7CB463A0002990195019B97
:105B20009A46022927D0032900D180E2012944D0D6
:105B30006D49009B8C4663441C00002C38DD5307E4
:105B400000D013E2D2085B46DB0109D55946674B0A
:105B500019408B468021C9008C46009B63441C0081
:105B6000634B9C4207DC5B4664055F075B0217439F
:105B70001B0B620D02E000230027584A00211B0383
:105B80001C0B0B0D1B05234314055A4A3800134008
:105B90001C4353466400DB0764081C43210005B026
:105BA0003CBC90469946A246AB46F0BD012252420B
:105BB00001231B1B382B00DCADE100220023002752
:105BC000DCE75B46334399465ED0002E00D18AE184
:105BD000300001F08DF903000B3B1C2B00DD7BE155
:105BE0001D22D31A5A460100DA4008398E401300AC
:105BF0005F46334399468F403F4B00261B1A009364
:105C00000023029352E7414653460B433B499B46D0
:105C10008C46009B634400935B46002B3BD10223E0
:105C200000221E43022161E7434613439B4637D0BF
:105C30004346002B00D162E1404601F059F90300D0
:105C40000B3B1C2B00DD53E102004146083A91401A
:105C500088461D21CB1A5146D9400B0041460B43C3
:105C60009B46534693401A00009B25499C4660443E
:105C700003008C4663440093002137E70323B146B9
:105C800000900C26029311E70023009301330426B1
:105C9000002702930AE70323C3461E43032125E797
:105CA00001331E430022012120E700239A4680236E
:105CB00000271B03094A61E7802349461B03194259
:105CC00000D1E2E05946194200D0DEE00B431B034D
:105CD00017001B0BA246014A50E7C046FF07000011
:105CE00001FCFFFFA88B0000FF030000FFFFFFFE89
:105CF000FE070000FFFF0F800DFCFFFF01F8FFFF14
:105D0000F3030000D94500D9CBE000D1C6E03C0048
:105D100048460027009B013B00935B46160E1B0282
:105D20001E431302984633041B0C9946310C019113
:105D3000FFF72EFA4A4642430B04210C0500194393
:105D40008A4207D98919013D8E4203D88A4201D976
:105D5000851E8919881A0199FFF71AFA09048C46D9
:105D60004A46210464464243090C030021438A4207
:105D700004D98919013B8E4200D8F1E02D041D435E
:105D8000AB464346891A4246280C12041D0C5B465A
:105D9000140C22001B041B0C5A4303946B43444312
:105DA000029568431B19150CEB189C4203D98024FB
:105DB0006402A44660441C0C15041B042D0C20181E
:105DC0005D19814277D373D00C1AA24A7D1BAF4272
:105DD000BF419446009B7F426344E01B1C00864207
:105DE00000D1DBE00199FFF7D3F94A4642430B04A7
:105DF000290C070019438A4207D98919013F8E42AD
:105E000003D88A4201D9871E8919881A0199FFF798
:105E1000BFF909044A46894629044D464243090C04
:105E2000030029438A4207D98919013B8E4203D8CE
:105E30008A4201D9831E89193F04891A3A00039FB7
:105E40001A43380013041B0C584381460298150C62
:105E50006F43434345434846000C8446DB19634483
:105E60009F4203D9802040028446654448461F0C67
:105E700000041B04000C7D191818A94200D284E00C
:105E800000D17FE001231A4357E680234A461B03D3
:105E900013431B031B0BAA466F4A6FE6BA4200D995
:105EA00035E74B46DC0758087B081C43FF0734E7FF
:105EB0000024AF4289D247444745A4415B4664422F
:105EC000A4196418013BA6421ED2A0426DD800D18D
:105ED000B6E0241A9B4678E703005A46283B9A40CE
:105EE0000027914688E6584601F002F8203072E615
:105EF00003005246283B9A4093460022B4E650469F
:105F000000F0F6FF20309AE6A642E2D1B845DCD98F
:105F1000341A9B4659E71F2B65DC504C0099A44668
:105F20005C46614408008C4011008240D940501EFC
:105F300082410C4314435A46DA401300620709D0E9
:105F40000F222240042A05D02200141D94428941C8
:105F500049425B181A0262D50122002300270DE690
:105F60008A4200D80AE7831E891907E70F231340E6
:105F7000042B00D1E6E5171D9742924153429B4402
:105F8000FA08E0E5002800D1D7E57118531EB142A8
:105F900027D3A94215D358D01A0073E7002B00DC91
:105FA00004E6012300229B44CDE5022347444745F4
:105FB00089415B429C46494289190C19E344241AE1
:105FC00003E743465F0047459B41B8465B429E1945
:105FD000023A8919A94200D054E7404500D051E760
:105FE000ABE51A00F6E71F215F4649420C1BE7406C
:105FF000202B07D01A49009B8C46634418005B464F
:1060000083401A43501E82413A430727002317401A
:1060100009D00F21002311401400042995D122003A
:106020005F075B021B0BD20817430022A6E5802303
:1060300059461B030B431B0317001B0B064A9DE528
:10604000BD42B2D89B460024BFE68045B9D31A00B2
:10605000C3E7C046FF030000FF0700001E04000066
:106060003E040000F0B54F464646D6468446C0B5CD
:106070008046194E18030F034D00000B5C0082464A
:106080003F0B6D0DC90F9146640DDB0F0120B5422A
:106090000AD0B44203D0A54201D157450CD01CBC54
:1060A00090469946A246F0BD66463E43F7D1AC42C3
:1060B000F5D154461443F2D10120C845EFD199429D
:1060C00007D0002DEBD163461F433800471EB8416F
:1060D000E5E70020E3E7C046FF070000F0B54F46C4
:1060E0004646D6464D00C0B50E03C90F8A462C4918
:1060F0001F035C008046360B6D0D91463F0B640D0F
:10610000DB0F8D421ED08C4216D0002D1ED13043A5
:106110008446002C01D13A4323D06246002A1AD08B
:106120009A4529D0514602200139084001381CBC4B
:1061300090469946A246F0BD39001143E5D00220B1
:106140004042F4E73043FAD1AC420FD0002C0FD1DB
:106150003A43E7D00CE00122013B934318000130A1
:10616000E5E763460020002BE1D0DBE73A43E6D1C8
:106170009A45D7D1A542D5DCA54205DBBE42D1D890
:1061800008D00020BE42D2D25046012301389843A5
:106190000130CCE7C845C5D80020C845F4D3C6E7D0
:1061A000FF070000F0B54F464646D6464D00C0B545
:1061B0000E03C90F8A462E491F035C008046360B2A
:1061C0006D0D91463F0B640DDB0F8D4218D08C4254
:1061D00011D0002D18D130438446002C1ED13A43F3
:1061E0001CD163460020002B30D0514602200139DB
:1061F000084001382AE039001143EAD0022025E0A6
:106200003043FBD1AC4226D0002C26D13A4324D1D6
:106210005146022001390840013817E06246002A41
:106220000FD09A45E1D1A54205DBBE42DDD819D099
:106230000020BE420AD25046012301389843013063
:1062400004E00122013B9343180001301CBC90463E
:106250009946A246F0BD3A43D0D19A45C5D1A54250
:10626000C3DCE0E7C845C0D80020C845E3D3EDE76C
:10627000FF070000F0B55746DE464E464546E0B5FE
:10628000834606000F03480087B092461D003F0B6F
:10629000400DCC0F002800D16FE0DE4B984238D083
:1062A0008023FF001B041F43730F3B430193DA4B12
:1062B0000027994600239B46F60081442B03690082
:1062C0001B0B52469846490DED0F002900D185E081
:1062D000D04B994200D173E04346DA0080231B047F
:1062E00013435246CC48520F844613435246002073
:1062F0006144D20089442100694000918C4601210B
:1063000049448A460F2F00D990E0C449BF00CF59B5
:10631000BF465B463B43019300D06AE10223082756
:10632000002681469B46C9E732005846019B6146DC
:106330000091022800D175E0032800D1FEE1012878
:1063400000D02CE100230027002600253F032A0D62
:106350003F0BB34812053A4302401B051343009A12
:106360005B00D1075B080B433000190007B03CBC51
:1063700090469946A246AB46F0BD5B463B4301932F
:1063800000D12FE1002F00D1A5E1380000F0B0FDD1
:1063900003000B3B1C2B00DD96E11D22D31A5A464D
:1063A0000100DA405E4608398F4013008E403B43BF
:1063B00001939C4B00271B1A994600239B467DE7BF
:1063C000414653460B4393498C46E144002B00D091
:1063D0001AE102220220174300228CE7134300D166
:1063E0000DE14346002B00D181E1404600F080FDE5
:1063F00002000B3A1C2A00DD72E101004346083915
:106400008B4098461D239A1A5346D3401A004346A0
:10641000134352468A404946081A824989468144B4
:10642000002068E77B4B002700268EE7140C12043F
:10643000120C1100370C3604350C794328008C46B9
:106440002E0060436044834656432100300C804652
:106450005846794340440291844506D988468021B4
:1064600049028C46E044414602913604010C360C48
:1064700000048B4681191E0C1B041B0C0391190090
:1064800079438C46280075436544A8465843050C5B
:1064900045447743A94203D9802149028C46674489
:1064A000290C8C4639000004000C2D042D18614481
:1064B000AB4405915946049101990F043F0C080C17
:1064C000390051434243904602008C46090C8B46EA
:1064D00062437C4344445C44A04503D98021490283
:1064E00088464244210C884661460904090C8C46C2
:1064F00039005943434370437E430F0CF61824047C
:10650000BE19644442448C46B34203D980235B02E3
:1065100098464044029B61469846049B3704434496
:106520009B46AB45AD416B420D0405992D0C8C4645
:106530007F196744FD18A8465D462D19A542A44160
:1065400093466442A446C344DC448F42BF4198450D
:106550009B4193459241A445A4415B427F421F4326
:10656000360C52426442BF192243BF1862463818A3
:106570004302D20D039913436A020A43501E82411B
:106580006146ED0D2A434E023243D90100D4B3E0F7
:106590000126500832400243DE0732435B08224C9A
:1065A0005444002C62DD510709D00F20104004280C
:1065B00005D0101D9042924152429B180200D90111
:1065C00004D580241948E400034054441848844208
:1065D00000DD27E75E075B02D2081F0B6305164349
:1065E0005B0DB2E6002399460133042700269B4643
:1065F00064E60323019781460C279B465EE6012251
:1066000001201743002276E6032303201F4343465D
:1066100071E6C046FF07000001FCFFFFE88B0000A9
:10662000FFFF0F800DFCFFFFFF030000FFFFFFFED9
:10663000FE0700000023802700933F030026434B02
:1066400083E6019B3200A446584670E6AC466EE6EF
:10665000802701993F0339422DD03B422BD11F4364
:106660003F033F0B00951600384B6EE601252D1BAE
:10667000382D00DD66E61F2D40DC35481C005044F7
:10668000160082408440EE40501E82413443144341
:10669000EB40620709D00F222240042A05D02200D5
:1066A000141D9442804140421B181A023ED501231A
:1066B0000027002649E68027019B3F031F433F0335
:1066C0003F0B0094214B40E603005A46283B9A407A
:1066D000002601926DE6584600F00AFC203057E68D
:1066E00003005246283B9A401300002293E650468E
:1066F00000F0FEFB20307BE6CA4650E71F201E005C
:106700004042041BE640202D03D0124C5444A340C9
:106710001A43501E8241324307260027164009D0F3
:106720000F200023104014000428B9D122005E0776
:106730005B021F0BD2081643002306E680273F03A7
:106740001F433F033F0B1600004BFEE5FF07000011
:106750001E0400003E040000F8B557464E4645466C
:10676000DE460C000903E0B5490A460F5F003143DD
:106770001E03DB0F760A9B46530F3343C84E65005A
:10678000C000E40FD2006D0DA24681467F0D9C46ED
:106790009046B74200D1B9E05B46012673409B4664
:1067A000EE1BA34500D183E0002E63DD002F00D057
:1067B000B1E06346134300D123E1731E002B00D0E8
:1067C000BAE1861A6346B04280410125C91A4042A7
:1067D000091A0B0200D447E149024B0A9846434686
:1067E000002B00D189E1404600F082FB0300083B0A
:1067F0001F2B00DD7CE120223000D21A4146D04020
:10680000994002009E400A439D4200DD6AE15D1B03
:106810006B1C1F2B00DD94E1202110003500C91AEC
:106820008E40DA408840DD40711E8E411100072203
:106830002843002506433240002A09D00F23334065
:10684000042B05D0331DB342B641764289191E0090
:106850000B0200D43DE26A1C914B55056D0D9A4226
:1068600000D119E18F4AF6080A4057075202374310
:10687000120B9BE0002E00D0C5E06E1C7605760D55
:10688000012E00DC48E16746861ACB1BB042BF41AF
:106890007F42B8461F004346FF1A3B00B8461B0222
:1068A00000D55FE137439AD100220024002579E02A
:1068B000002E00DCFAE0002F00D18DE0784B9D42E5
:1068C00067D0802367461B041F43BC46382E00DC7C
:1068D00052E1634613435A1E93411E18864280417B
:1068E000404209180B0200D4BEE06D4B01359D42B9
:1068F00000D1D2E06B4A73080A4001210E401E43CA
:106900005108D30707221E43324095E71E00164365
:1069100000D045E740E7624B9D423AD0802367466E
:106920001B041F43BC46382E00DDEBE01F2E00DCAD
:106930003AE133006746203BDF403B00202E05D084
:106940004027BF1B6646BE40324390464646721EF5
:1069500096413343DAE0002B00D114E2634613433F
:1069600000D168E180234E07C008C9081B03064315
:10697000194208D06046C008184204D1634601009D
:10698000D2085E071643F3009946C900720F444DC2
:1069900011434B46DE08424B4F073743CA089D421E
:1069A00000D16EE012036D05120B6D0D0021120374
:1069B000130B0A0D12051A433B4B2D0513402B43B5
:1069C0005B00E4075B082343380019003CBC904699
:1069D0009946A246AB46F8BD6346134311D0731ED9
:1069E000002B00D007E18618864280416144404276
:1069F000091801250B0237D502257BE73E006146C9
:106A000091463500C5E75C46002D00D0E1E00B0063
:106A10000343F3D0731C00D1ACE1214B9F4200D162
:106A20003AE1F343382B00DD6FE11F2B00DD8CE1F1
:106A300020250E00ED1AAE40B0460600AA46DE4004
:106A4000454635432E005546D940A8406346451E6D
:106A5000A8415B1A9C463043161AB24292416346E3
:106A60005242991A3D00B4E607223240002A00D073
:106A7000E4E60B4BF6084F073743CA089D4200D0A7
:106A800090E73B00134300D1A6E180231B031A4388
:106A90001203120B024D89E715000022002785E73B
:106AA000FF070000FFFF7FFFFFFF0F80002E00D0D9
:106AB000C7E06B1C5E05760D012E00DCF0E0C84DD2
:106AC000AB4200D1B9E085180A0085428941624491
:106AD000494251180722CE076D082E43490832401B
:106AE0001D00A9E6BF49ED1A114007223240A3E676
:106AF000320028388240002686E6300000F0F8F99F
:106B0000203073E6634613435A1E9341C61AB042BF
:106B100080414042091A5CE60E006746064317436F
:106B2000002D5ED1002E00D0F3E0002F00D11EE139
:106B30005C46614691462CE7A94FBE427BD01E00C1
:106B4000F1E610001F3DE840202B03D04021CB1A76
:106B50009A401643731E9E4107220643324000218D
:106B6000002583E7161A6346B2428041591A404213
:106B70000B1A98465C4632E61F2E00DDABE020275C
:106B8000BB1B9A4663465746BB40994613004F4687
:106B9000F3401F433B005746BA40571EBA411343C8
:106BA0006246F240891898E62027BB1B9A46634646
:106BB0005746BB40994613004F46F3401F433B00E6
:106BC0005746BA40571EBA4113436246F240891AEB
:106BD0009CE7834B9F425FD080252D04734229435D
:106BE00020E7002E0CD1002F00D1D0E05C4661469A
:106BF00091467B4DCDE67A4FBE421CD01E0065E625
:106C0000002F18D0C0084E0706438020C908000393
:106C1000014208D06346DC08044204D12100DA4670
:106C2000D2085E071643F300994601245346C90073
:106C3000720F11431C406A4DABE61D000022002775
:106C4000B4E6002D59D10B00034300D1D6E6731CE6
:106C500000D1B2E0624B9F421ED0F343382B6FDC71
:106C60001F2B00DD97E020250E00ED1AAE40B04648
:106C70000600AA46DE40454635432E005546A8404C
:106C8000D940451EA8418C440643B618964292410D
:106C9000514261443D0025E63D006146914678E65B
:106CA0000B000343002D00D055E6002BF5D06346C2
:106CB000134300D16DE6861886428041614440420C
:106CC000091800220B0200D4D0E6464B01351940CA
:106CD000B2E5B1465DE633006746203BDF403B004E
:106CE000202E05D04027BF1B6646BE40324390464B
:106CF0004646721E96413343EFE5394B9F42CBD057
:106D000080252D0473422943A8E70843411E88418A
:106D1000A2E6002F00D13CE66346861ACF1AB042A5
:106D20009B415B42FB1A98461B024ED5161A6346DE
:106D3000B2429241591A5242891A5C4600227BE5BE
:106D400001430E00711E8E419FE71D000E00203D85
:106D5000EE40B046202B04D04025EB1A9940084362
:106D6000814648464346411E8841184374E6002246
:106D7000002417E6161A6346B2429241591A52424B
:106D8000891A3D0025E561469146154D01E68022B0
:106D90000024120379E61D000E00203DEE40B046AF
:106DA000202B04D04025EB1A9940084381464E46DB
:106DB0004346711E8E411E4367E7861896429B41EB
:106DC00061445B42C9183D008CE547463743CED04D
:106DD00007224146324049E600273A00E6E5C04630
:106DE000FF070000FFFF7FFF70B50C4E0D031C0373
:106DF00049005B002D0B490D240B5B0DB14208D0FF
:106E0000064900208B4203D114432000441EA041B8
:106E100070BD05430120002DFAD1F1E7FF07000006
:106E200030B5144D0A034B00120B5B0DC90F002443
:106E3000AB4211DD104CA34210DC802464032243DA
:106E40000E4CE41A1F2C0CDD0D48C31ADA40130057
:106E50005C42002900D11C00200030BD094BCC1839
:106E6000FAE7094DE040AC4663449A4013000343FF
:106E7000EEE7C046FE0300001D04000033040000DE
:106E800013040000FFFFFF7FEDFBFFFF10B5041EA2
:106E900025D000F02DF8144B1B1A5B055B0D0A285A
:106EA00012DD0B38844000222403240B0021100043
:106EB00024030A0D240B120522430C4C1B0522400F
:106EC00013435B00590810BD0200210015329140A8
:106ED0000A000B21081AC4402403240BE6E7002310
:106EE00000240022E2E7C0461E040000FFFF0F80DE
:106EF0001C2101231B04984201D3000C10391B0AEA
:106F0000984201D3000A08391B09984201D30009AD
:106F1000043902A2105C40187047C0460403020204
:106F200001010101000000000000000010B5040094
:106F300004481300002804D00A000220210000E0C9
:106F400000BF10BD0000000070B500260C4D0D4CB8
:106F5000641BA410A64209D1002601F0CFFB0A4D04
:106F60000A4C641BA410A64205D170BDB300EB58B7
:106F700098470136EEE7B300EB5898470136F2E741
:106F80005C0200205C0200205C02002094020020D1
:106F9000EC30006870470000044B1B681B6A002B34
:106FA00000D1034BEC3318687047C0462400002022
:106FB0008800002010B5034B0100186800F002FBA8
:106FC00010BDC0462400002010B5034B0100186816
:106FD00000F0AEFA10BDC0462400002082B00029A7
:106FE00000D101A9101E06D0002B06D013780B602B
:106FF0001078431E984102B0704702204042FAE7E1
:10700000002310B59A4200D110BDCC5CC4540133AA
:10701000F8E703001218934200D17047197001334A
:10702000F9E70000F7B5016804003B290BD93C22C1
:10703000684600F037FE63680099019A5B18636048
:10704000002A51DB226061683B290BD93C2268464B
:1070500000F028FEA3680099019A5B18A360002A3B
:1070600047DB6260A16817290BD91822684600F037
:1070700019FEE3680099019A5B18E360002A3DDB82
:10708000A26021690B290BD90C22684600F00AFE88
:1070900063690099019A5B186361002A33DB2261FE
:1070A00065691C23AA070FD164212800FEF75AF94D
:1070B0001D23002908D13C4B9131E818FF31FEF720
:1070C00051F94B424B411C33E2681D27002A45DD34
:1070D00003261C272269E168012A43D0334D900022
:1070E0004059814241DC3CE03C32013B226063601C
:1070F000A9E73C32013B6260A360B3E71832013B71
:10710000A260E360BDE70C32013B22616361C7E727
:107110002269013A2261013217D10B2303226569EA
:107120002361681E6061113310420ED16421FEF7A5
:1071300019F93B00002908D11D4B9131E818FF31A6
:10714000FEF710F94B424B411C3321691A0001290B
:1071500002D0164A89008A58B618E660E668002E02
:10716000D6DDF7BD8B42FCDA1800091A0132E16066
:1071700022610C2AAED1002365692361681C60611D
:107180003B003042A6D16421FEF7ECF81D23002914
:10719000A0D1084B9131E818FF31FEF7E3F84B42DC
:1071A0004B411C3396E7C0466C070000348C00004E
:1071B0006B0700006D070000F0B58BB0040000F015
:1071C000CBFD07002000FFF72DFF3C236268A1687C
:1071D000534322689B18E12212014A439B180093F3
:1071E000E268DB1701932369501EB54A99008A585B
:1071F0008218049262690392012B14DD13009B072D
:1072000011D164211000FEF7ADF8002908D1039BCD
:10721000AC4A9131FF319818FEF7A4F8002902D149
:10722000049B01330493049BA749E361039BA74A92
:107230005B18934200D974E1039B462B00DC88E085
:10724000C8264625760003231D4200D07FE0642136
:107250002800FEF787F8B7235B00002908D1994B77
:107260003100E818FEF77EF84B424B416E33FF3396
:10727000049A0135D3180493039BAB42E3D1049ADB
:10728000934B53431800D917009A019B12184B4196
:107290000092019300F072FB00F072FB8D4B1D68B1
:1072A000002D4CD06369874A9818236A0593089388
:1072B000002B01DD012308937B68834200D089E025
:1072C000B86CF96C3B6D02000993099B0693DB17C0
:1072D0000793BB6A1D00DE179C460B00521BB3418F
:1072E0001E00019B15009E420EDC02D1009B9D42B8
:1072F0000AD8069A079B801A9941019B99426EDC35
:1073000002D1009B98426AD8069807993A6A7B6A2C
:10731000121A8B413968002963D001998B420ADC2B
:1073200002D100998A4206D8019B9E4260DC02D1BC
:10733000009B9D425CD8059B0025002B5CDABB6A54
:107340001E00DF17009A019BB6185F41A6E06E236E
:107350008DE7039B462B92D0C8264525760016E084
:10736000002B30D164212800FDF7FCFFB7235B0020
:10737000002908D1534B3100E818FDF7F3FF4B42C9
:107380004B416E33FF33049A013DD31A0493032318
:10739000039A2B40AA42E3DB002B16D16421100094
:1073A000FDF7E0FF002912D1039B464A913198185E
:1073B000FF31FDF7D7FF4B4259416E31FF31049B3E
:1073C0005B1A04935BE76E23DCE76E21F6E7B721D7
:1073D0004900F4E700F022FA002800D070E7089D89
:1073E00051E001998B429FDC02D100998A429BD8DF
:1073F000059B0125002B49DB089E6E40012E42D1E2
:107400006346099A9B1A002D00D15B42180022683E
:10741000D917D2182260009A019B12184B41009292
:107420000193E36820000593FFF7FCFDE368059AEC
:107430009B1A28D0012B20DC5A1C00DB1E00049B69
:10744000E2699B1904930323B61847D5039A501E8B
:10745000184215D16421FDF785FF00292DD11E4A60
:10746000039B9446913163441800FF31FDF77AFF86
:107470004B4259416D31FF3104E001267642DEE78F
:10748000B6214900E161012D00D058E73B6D01258F
:107490001E00DF17009A019BB6185F4100F06FFADB
:1074A0000498256204300721FDF75CFF002936DBD4
:1074B000A161300039000BB0F0BD6E21DBE7C046A2
:1074C000648C00006C07000010270000204E0000B4
:1074D00080510100AC0E00206B070000039A1A4295
:1074E00016D164211000FDF73DFF002912D10F4A8B
:1074F000039B9446913163441800FF31FDF732FF3E
:107500004B4259416E31FF318E4206DAE661BAE7ED
:107510006E21F8E7B7214900F6E7761AF6E707315A
:10752000C6E701267642F717C3E7C0466C0700009E
:1075300070B50500002910D00C1F2368002B00DA5D
:10754000E418280000F017FC1D4A1368002B05D131
:1075500063601460280000F00FFC70BDA34209D9DD
:10756000216860188342F3D118685B684118216074
:10757000EEE713005A68002A01D0A242F9D919682F
:107580005818A0420BD12068091858181960824277
:10759000E0D110685268411819605A60DAE7A042D9
:1075A00002D90C232B60D5E721686018824203D1F1
:1075B000106852684118216062605C60CAE7C0468A
:1075C000880E0020032370B5CD1C9D4308350600AE
:1075D0000C2D1ED20C25A9421DD8300000F0CBFB8B
:1075E000254A14682100002919D1244C2368002B56
:1075F00003D1300000F044F820602900300000F092
:107600003FF8431C2BD10C233000336000F0B4FB57
:1076100003E0002DDFDA0C233360002070BD0B681F
:107620005B1B19D40B2B03D90B60CC18256003E02E
:107630004B688C420DD11360300000F09DFB2000A0
:1076400007220B30231D9043C31AE7D05A42E25061
:10765000E4E763600C00EFE70C004968C3E703232D
:10766000C41C9C43A042E1D0211A300000F008F86D
:10767000431CDBD1C7E7C046880E00208C0E0020DB
:10768000002370B5064C05000800236001F028F8BF
:10769000431C03D12368002B00D02B6070BDC04673
:1076A000BC0E002002780B78002A03D00130013193
:1076B0009A42F7D0D01A704703000A7801311A7045
:1076C0000133002AF9D170470023C25C0133002A3C
:1076D000FBD1581E7047002330B59A420AD0013AB8
:1076E000C45CCD5CAC4204D1934202D00133002C87
:1076F000F6D1631B180030BDF0B51F000E0087B037
:107700000590019102920C983478FFF741FC082211
:1077100000194378751C134036D12D2C36D1B51C79
:1077200074780126002F62D0102F09D1302C07D198
:1077300020222B789343582B54D110276C78023594
:107740002D4B3900F31818000393FDF721FD049128
:1077500001210023494202008C46180021003039E3
:1077600009291AD80C00A74223DD591C09D0634609
:10777000824206D302D10499A14202DB012378435D
:1077800020182C780135E9E72E00BCE72B2C01D01E
:107790001E00C7E7B51C7478FAE7210041391929A2
:1077A00001D8373CDFE721006139192901D8573C5E
:1077B000D9E75A1C08D1059A23331360029B03981A
:1077C000002B09D107B0F0BD002E00D04042029A34
:1077D000002AF7D0002B01D06B1E0193029B019A67
:1077E0001A60EFE73024002FAAD10827A8E7302C31
:1077F0009ED00A27A4E7C046FFFFFF7F13B5054CC4
:107800002468246A002C00D1034C0094FFF774FF15
:1078100016BDC0462400002088000020F0B589B0C5
:10782000040000F099FA4E4B060000209C425FDDF8
:107830006E2564214B4BFF35E01845434A4B74607D
:10784000E0184A4B80102D184942E018FDF7A4FCBF
:10785000C821474B2D184900E018FDF79DFC642115
:107860002B1820000093FDF77DFD0191C821200019
:107870004900FDF777FD0A0053425A41330058335F
:107880000793032335001C400291049208350594A8
:107890002B78EF684A2B2DD1009BDC19059B002B20
:1078A00002D1019B002B03D10021029B8B4203D10B
:1078B00001213B2F00DC00216418013C2D492B697C
:1078C0004C43E4182B6AE418AC61079BE417EC61A5
:1078D0002835AB42DCD1F16C726A0123914205DCA0
:1078E00003D1B26C316A8A4200D800230120336090
:1078F00009B0F0BD442B02D1009BDC19DEE7059BEB
:10790000049A002B03D1019B002B00D001223023CD
:1079100053430693184B00219C466868009C069AC6
:1079200001318B009B186246043BD3580393884275
:1079300010DC201D0721FDF715FD791A00D5073150
:10794000AB685A1E072353435918039B994204DA24
:107950006418B3E7039BE418E1E70739F5E7C0468D
:10796000B10700004EF8FFFF4FF8FFFF93F8FFFF4D
:10797000BFF9FFFF80510100348E0000704770474F
:1079800010B5024B186800F003F810BD2400002069
:10799000F0B58DB0070000F0DFF9AF490600380000
:1079A00000F0D4F9AD4D041E0DD1AD4BAD4A1860B9
:1079B000AD4B1860AD4B28681A605A60FFF704FBA6
:1079C0002C600DB0F0BD2968002959D12868FFF757
:1079D000FBFA2000FFF778FE411C3800FFF7F2FDAC
:1079E0002860002851D12378A1493A3B5A4253419B
:1079F000E418A04A0AAB200000F0E6F90028E0DD18
:107A00000A9BE41823782D2B43D12E3B0134049399
:107A1000162702ABFF18002308AD3B802B800AAB72
:107A2000039302950193009707AA9349200000F061
:107A3000CBF90028C5DD3C233A88904F53432A8870
:107A40008A4D9B1802AA918AE12212014A439B188F
:107A5000049A87495A43874BB2622B600A9B3A00CB
:107A6000E41820000AAB00F0AFF9002818DC2B68FE
:107A7000B26A6B607A4B1A6000227B4B1A60A0E7F7
:107A8000FFF710FE00289CD0A0E72100FFF714FEAE
:107A9000A9E701222B3B04925A425341E418B7E76D
:107AA0000A9B6F60E41823782D2B00D08DE02E3BCD
:107AB000013404931627002302AABF1807AD1383CD
:107AC0002B803B8008AA0A930AAB0292039301938E
:107AD00000972A006849200000F076F9002800DDB0
