:1020000000800020792E0000612E0000612E00006B
:1020100000000000000000000000000000000000C0
:10202000000000000000000000000000612E000021
:102030000000000000000000612E0000CD2E000016
:10204000612E0000612E0000612E0000C12A0000F8
:10205000612E0000612E0000612E0000652E000040
:10206000612E0000612E0000612E0000912A000008
:10207000612E0000B12D0000A12D0000612E000096
:10208000612E0000612E0000612E0000612E000014
:1020900000000000612E0000612E0000612E000093
:1020A000612E0000612E0000612E0000612E0000F4
:1020B0000000000010B5064C2378002B07D1054B1B
:1020C000002B02D0044800E000BF0123237010BDA4
:1020D000B00200200000000088E00000044B10B5B2
:1020E000002B03D00349044800E000BF10BDC046E8
:1020F00000000000B402002088E00000030010B5DA
:102100001B790068002B01D00123594001F06CF9C4
:1021100010BD10B50400080021602271012101F0FA
:1021200017F920000021FFF7E9FF200010BDF8B5E6
:10213000040008201D000F1C161C03F00FFA0023DA
:102140002060A760E660256120006361A361636091
:10215000F8BD000070B50E0041680400012002299E
:102160000FD0084D0A22280001F07DFA616822682C
:102170008B0001319E50280061600A2201F073FA41
:10218000002070BDA80A0020F0B58DB00190089124
:102190001000190000F072FA00230A900AA80B93AD
:1021A00009F0E8FCC069013007F0F0FC019B041C59
:1021B000BE49986806F0E6FF089B0090002B00D10E
:1021C0004CE1011CBA4807F0E7FABA4906F0DAFF19
:1021D000211C06F03DFE09F0C1FAB74AB74B029048
:1021E000039108F043FCB64AB64B08F0B1FE09F083
:1021F00007FB09F0B3FAB44AB44B04000D0008F031
:1022000035FC03F035FCB04AB14B06000F0020004E
:10221000290008F02BFC03F02BFCAE4A049005913A
:10222000AD4B3000390008F021FC22002B0007F0F4
:10223000F7FCAA4A04000D0004980599A84B08F081
:1022400015FC02000B002000290007F0E9FCA54A5C
:10225000A54B07F0E5FC0022A44B03F007FD09F0B5
:10226000CFFA0021051C06F081FDA149002800D00D
:10227000F7E0281C06F08EFD002800D0F5E0281CB1
:1022800009F06CFA904A914B08F0F0FB06000F0041
:1022900003F036FC974A984B08F0E8FB03F06EF920
:1022A000964A974B08F0E2FB0022904B03F0DEFCCD
:1022B00009F0A6FA0021041C06F058FD8C490028FC
:1022C00000D0D7E0201C06F065FD002800D0D5E046
:1022D0008C49281C06F056FF03F07EFC8949051C3A
:1022E000201C06F04FFF03F077FC86490490281C61
:1022F00007F020F98349051C049807F01BF9011C1D
:10230000281C07F049FA211C06F0A2FD674906F0D7
:1023100039FF39000990300003F0AAFB7A4A7B4B61
:1023200008F0A4FB09F06CFA041C03F05DFD03F057
:1023300015FC019B051CD86809F010FA624A634B32
:1023400008F094FB06000F0003F092FB0490059147
:102350003000390003F0A6FA06900791201C09F01E
:10236000FDF9049A059B08F081FB02000B00684808
:10237000684908F0EDFD0600281C0F0009F0EEF991
:10238000069A079B08F072FB0B0002003900300030
:1023900007F062FF09F034FA089B002B00D172E0CD
:1023A00003F0D0FC09F0DAF9544A554B08F05EFB13
:1023B00002000B0000204D4908F0CAFD09F020FA88
:1023C0003A4906F0DFFE099906F042FD09F0C6F928
:1023D000514A04000D0002980399504B08F046FB47
:1023E00002000B002000290008F0B2FD4C4A4D4BC2
:1023F00008F0AEFD09F004FA009907F0CDF909F0F4
:10240000ADF90022484B03F031FC04000D00019BA4
:10241000186909F037F922002B0007F001FC09F0D8
:10242000EFF90021041C06F0A1FC2249002833D159
:10243000201C06F0AFFC002832D10A980B9906F058
:10244000D5FC3A49051C201C07F074F8011C281C17
:1024500006F0FEFC06F0B2FC0DB0F0BD0099344869
:10246000B1E6281C06F0F4FCFBE62149281C07F025
:1024700093F9F6E6201C06F0EBFC1BE71C49201C38
:1024800007F08AF916E703F05DFC09F067F91B4ACB
:102490001B4B08F0EBFA91E7201C06F0D9FCC0E7D3
:1024A0000449201C07F078F9BBE7C04600007041E2
:1024B0000000C0400000C041D200DE02098AEF3FA8
:1024C0001D5A643BDF4F0A40399D52A246DF913FBF
:1024D00046DFA13F0E2DB29DEFA7FE3F7B14AE4716
:1024E000E17A943FA01A2FDD24AA71400080764043
:1024F0000000B443CC0BB08F4E5DED3FF8C1631AC2
:10250000DCA54C400000B4424B766C04E275D93F28
:1025100090693140B1AA8DBF352905DD5ED2B03F4B
:10252000B0726891ED7C1A400000384000006145AF
:1025300000009041002370B50A000D00190004004E
:10254000FFF722FE0600854212D901232A00190056
:102550002000FFF719FE012320622A00002120003D
:10256000FFF712FE0600236AF61A6662A66170BDC6
:1025700000232A0001212000FFF706FE2062A84266
:10258000F1D8B542EFD22D1A6561ECE79621F8B586
:10259000234C8901200001F0CFFC200001F0CEFC8B
:1025A0000028FAD01F49200001F010F80121062070
:1025B00000F0CEFE0A2000F027FE082002F0CAFF3D
:1025C000040001220021FFF7A4FD174F08203C6002
:1025D00002F0C0FF040000220421FFF79AFD134E11
:1025E0002820346002F0B6FF052305005B42104A44
:1025F0001049FFF79CFD104C396828002560FFF753
:10260000A9FD31682068FFF7A5FD00F027F80B4809
:1026100000F02CF809492068FFF78CFFF8BDC04690
:10262000A80A002068D20000D4020020D8020020AE
:1026300044449841DE5DC4C2DC02002060B0CC5E40
:102640007047000007B50021034800910B000A0005
:1026500000F078FF07BDC046CC02002010B5002175
:10266000014800F0B9FA10BDE002002010B50100E9
:10267000014800F033FA10BDE002002070B50D00F3
:102680000A49040006F032FA641A002D01D0074B03
:10269000E418074D0749280000F098FF28000A2297
:1026A000210000F0EAFF200070BDC046805101000B
:1026B000A80A002074D2000010B5024800F0FCF90E
:1026C00010BDC046E002002007B50021034800917C
:1026D0000B000A0000F036FF07BDC046E4020020F0
:1026E000114A124B12491360002353711371114A9E
:1026F00011601149D3609180092191710639537499
:1027000013741375D37111720C4AD360537413741C
:1027100013750B4BD17113600A4B93801D2393717A
:102720001C3B13727047C0462403002000093D0083
:102730008C0A0020EC0200200A0800000803002098
:10274000980A00201B1A000007B5002104480B005E
:102750000A00009100F0F6FE024B034A1A6007BD22
:10276000300300202C03002050C3000000207047DD
:1027700007B50021034800910B000A0000F0E2FEBB
:1027800007BDC0463803002007B50021034800916B
:102790000B000A0000F0D6FE07BDC0464003002033
:1027A00007B50021034800910B000A0000F0CAFEA3
:1027B00007BDC0464803002007B50021034800912B
:1027C0000B000A0000F0BEFE07BDC046500300200B
:1027D00010B504007822002109F015FB200010BD7F
:1027E00010B50C244C4304192068002805D009F0CA
:1027F000E5FA002363602360A36010BD70B5050097
:102800000024210028000134FFF7EAFF0A2CF8D148
:10281000280070BD10B5054C2000FFF7D9FF044A11
:102820000449200002F0A2FE10BDC046580300205B
:1028300000000020FD27000007B50021034800919B
:102840000B000A0000F07EFE07BDC046D00300204A
:10285000F8B505000E0017000024BC4208D02B6814
:10286000315D1B6828009847002801D00134F4E747
:102870002000F8BD70470300FC33196ADA69914201
:1028800003D01B6AC018007E704701204042FBE75E
:102890000300FC33D8691B6AC01A01D50130FF3030
:1028A00070470000F7B50193FA2380260025040045
:1028B0009B008360124B760008330F0045602900AF
:1028C000009203603200183009F09DFA23002000C6
:1028D000FC332130DD6132001D622900FF3009F038
:1028E00092FA87239B00E3185D609D606B461B781E
:1028F000276123756B461B79A57520006375FEBDA6
:1029000080D20000020010B5FC3253689468013395
:10291000DBB29C4202D054680155536010BD0022C6
:1029200010B5837D93420DD087239B00C418636844
:10293000A4680133DBB2A34204D02130FF30FFF79B
:10294000E1FF0122100010BD0300FC3399685A68B2
:10295000914206D09A68805C9A680132D2B29A603D
:10296000704701204042FBE710B51830FFF7ECFF3D
:1029700010BD70B50400006901F028F8002814D0DB
:10298000206901F031F8002810D0206900F09CFF88
:102990000321206900F0A2FF8C239B00E558002D45
:1029A00039D10023FC34E361236270BD206901F05A
:1029B00025F8002809D0206901F01BF8002804D070
:1029C000206901F020F80028DFD0206901F016F816
:1029D000002826D1206901F002F80028E5D02069FE
:1029E00001F011F8002837D087239B00E2185368C4
:1029F00092689B1A01D50133FF33FF21002B05D0CC
:102A000020002130FF30FFF79FFFC1B2206900F0A6
:102A1000CFFFA075C9E7236820001B699847A84726
:102A2000BFE7206900F050FF2069032100F056FF46
:102A3000206900F0E8FF0028B7D0872300229B0020
:102A4000E3185A609A600123A3758B239B00E35817
:102A50009342AAD09847A8E72200FC32D369126AB1
:102A60000133DBB22069934206D100F024FF032139
:102A7000206900F033FF98E700F0CAFF0100200052
:102A80001830FFF73FFF206900F01EFFEFE700005E
:102A900010B50248FFF76DFF10BDC046D8030020F7
:102AA00010B50C230B2202490248FFF7FBFE10BDB4
:102AB000900A0020D8030020002303707047000014
:102AC000044B10B51B68002B00D098470122024B25
:102AD0001A7210BD0C06002000140040037813B5D4
:102AE000002B28D0144B994200D2190000236846CD
:102AF0000091019308F03AFF0F2102694369C4680D
:102B000001320A40643B103192050C409B0664047C
:102B1000134323433F248268114042680903224043
:102B200092010B431343026822401343034A13618B
:102B3000937ADB09FCD113BD80436D38001400404B
:102B4000094B0A4A9A605A7852B2002AFBDB084ABB
:102B50005A605A7852B2002AFBDB064A5A805A78E9
:102B6000D209FCD17047C046000C004002040000AE
:102B700002051100044200000221044B1A888A4316
:102B80001A809A7AD209FCD17047C04600140040DE
:102B90000222044B19880A431A809A7AD209FCD17E
:102BA0007047C046001400400122044B19880A43B4
:102BB0001A809A7AD209FCD17047C04600140040AE
:102BC0000121044B1A888A431A809A7AD209FCD1CF
:102BD0007047C046001400402023F7B500262A4A5B
:102BE0000F00916905000B439361284B284A294C3B
:102BF0009A82B7420BD1284B3E001A7870231A42B2
:102C000005D023881B0702D50126236901932800DC
:102C1000FFF796FF2800FFF7AFFF2800FFF7C4FF7C
:102C200063881E4A134063801D4B2380A37ADB090F
:102C3000FCD1C0211B4A08331360890053581B0282
:102C40001B0A53500123E27913430722E371237FC8
:102C500093432377A37ADB09FCD12800FFF798FF81
:102C60002800FFF7ADFF002F0BD1002E09D0019BEC
:102C7000002B06D02361A37ADB09FCD101332B7032
:102C8000F7BD8423DB03F5E70004004000080040A3
:102C9000CE0600000014004038040040FFBFFFFFD4
:102CA000080A000000E100E070B50121202000F0DA
:102CB0004FFB0021202000F097FB0A2000F04AF98A
:102CC0000021202000F044FB642000F043F9202084
:102CD00000F0D2FA962305009B002F4C984222D98F
:102CE0002E49200000F02EFF200000F0C5FD03213A
:102CF0000B2000F0A5FB03210C2000F0A1FB00221B
:102D00006B21200000F000FE0121200000F03EFEBB
:102D10001B21200000F03AFE2000032100F0DEFD20
:102D2000200000F0BEFD1D49200000F00BFF200038
:102D300000F0A2FD03210B2000F082FB03210C20F8
:102D400000F07EFB00226B21200000F0DDFD07215A
:102D5000200000F01BFE96232B219B009D4200D9F2
:102D60002039200000F012FE0321200000F0B6FD03
:102D7000200000F096FD01211E2000F0E9FA01215B
:102D80001E2000F031FB01211F2000F0E1FA01219B
:102D90001F2000F029FB70BD900A0020A0860100D2
:102DA00010B5024802F0CFFA10BDC0461006002050
:102DB00010B5024802F0C7FA10BDC0464C0800200A
:102DC0007FB51949194800F0C1FC1949194800F0AC
:102DD000BDFC1949194800F0B9FC1949194800F01F
:102DE000B5FC194C1949200000F0B0FC184E1949E7
:102DF000300000F0ABFC0125032331000195009366
:102E00000D220B33144802F033FA1D230393013BC8
:102E100002931A3B0193009518331B2221000F489F
:102E200002F0E2F97FBDC04600080042880A002097
:102E3000000C00428C0A002000100042900A002082
:102E400000140042940A0020980A00200018004252
:102E50009C0A0020001C0042100600204C080020A4
:102E6000FEE70000034B10B51B68002B00D098470D
:102E700010BDC046A00A002070B50F490F4CA142FA
:102E800004D100F08FF802F045FBFEE70C4D002363
:102E90008D42F6D0CA18E818A24205D3094B8242E7
:102EA000EFD00949002204E0006804331060F1E724
:102EB00004C38B42FCD3E4E700000020B0020020F2
:102EC00094E00000B00200200411002010B500F0D2
:102ED00066F8002801D100F057F810BD014B1860CA
:102EE0007047C046A00A0020014B18687047C046D2
:102EF000A40A0020F7B51348012284461249134C56
:102F00008E68636805689B0E13400192886862684A
:102F1000019F920E3A4067463F6893420ED1BD42F0
:102F20000CD186420AD35B19FA254868AD00861B8E
:102F300007486B437043000DC018FEBD3D001300F1
:102F40000600E3E7A40A002010E000E000ED00E046
:102F50005555000070B5041E10D0FFF7CBFF0500DB
:102F600000F01CF8FFF7C6FF054B401B9842F7D94D
:102F7000FA23013C9B00ED18002CF3D170BDC04634
:102F8000E70300007047000010B5034A13680133DF
:102F9000136000F09FFB10BDA40A002070470020C2
:102FA000704700001E2270B5464847494368934366
:102FB0001C3A1343436008238C6923438B61434CC1
:102FC000434B9C829C8A14439C82DC681442FCD054
:102FD0000124404A14701578254203D055786DB20B
:102FE000002DF8DB01249460547864B2002CFBDBE4
:102FF000394C5460547864B2002CFBDB8224E40129
:103000005480547864B2002CFBDB02249C840E3480
:10301000DD682542FCD0314CDC621024DD6825429D
:10302000FCD09D8C2E4C2C439C841024DD682542C2
:10303000FCD002249D8C80262C439C844024DD6897
:103040003542FCD0DD682542F9D01024DD682542E8
:10305000FCD000249460547864B2002CFBDB214C3B
:103060005460547864B2002CFBDB1C6A1E4D2C406B
:1030700080251C621C6AAC431C62032393601B4BBB
:10308000536053785BB2002BFBDB0023FF240B72F1
:10309000174A4B728B72CB72164B1A60164B174A3B
:1030A0001B6811689A065B01C90E2340520F120279
:1030B0000B431343124A1385802342681343436032
:1030C00070BDC04600400041000400400C060000F6
:1030D00000080040000C004001050100B905FF7D1B
:1030E000040A000000070300FFFCFFFF03060100C5
:1030F000006CDC020400002024608000206080005E
:1031000000400042FA21314B10B51868890005F0E3
:1031100067FC2F4B0138984256D82E492E4A4860FA
:10312000C020136A00061B021B0A0343136200241B
:1031300007238C600B608021136A09061B021B0A9F
:103140000B431362FC22254B196A0A431A62FC22C4
:10315000196A92010A431A62A022196AD2020A432A
:103160001A6220000021013400F0F2F80F2CF8D18F
:103170001B4B1C005A7852B2002AFBDB194A5A80BA
:10318000194B1A00597EC9090129FBD0E421C90055
:1031900099803F21D970537EDB09012BFBD0C023DE
:1031A00000205B011361907000F034F863785BB22B
:1031B000002BFBDB0D4B0E4A6380D379DB09012B1F
:1031C000FBD04123537010BDFEE7C0460400002031
:1031D000FFFFFF0010E000E000ED00E00004004011
:1031E000000C00401E400000004000422140000052
:1031F00000480042914202D002D98A1AD04070475A
:10320000521A9040FBE70000014B18607047C0461F
:1032100010000020164A00B51300517EC90901298B
:10322000FBD00138042816D81969124A0A400F2128
:103230001A615A788A4305F0C9FB0308060B03009C
:10324000110001220A435A7000BD11000322F9E760
:1032500011000222F6E7F02311691B050B430F2131
:10326000136153788B43190002230B435370EBE730
:1032700000400042FFFFFFF010B504000E2800D808
:103280000F340121200000F0DBF8182310216343E4
:103290002A4CE4186156002901D014290DD1284B7D
:1032A0001800DA79D209012AFBD002241A78A24345
:1032B0001A70C379DB09012BFBD022480300427E40
:1032C000D209012AFBD01F2402692140A2430A43EC
:1032D00002615A7ED209012AFBD0022219780A43E0
:1032E0001A705A7ED209012AFBD00222197B0A43A6
:1032F0001A731A7ED207FCD501221A765A7ED20999
:10330000012AFBD00222197B0A431A731A7ED207C4
:10331000FCD5588B80B25A7ED209012AFBD00221FB
:103320001A788A431A705A7ED209012AFBD0064BBA
:103330001A68064B1968FFF75DFF10BDA4D20000A4
:1033400000480042004000420C000020080000201D
:10335000182330B51D00040045430820204A5519A4
:103360002856013014D0032912D808006343D156DF
:10337000D31805F02BFB02280E1B5868CB01022145
:10338000184A9B181A1840321170012282405A6064
:1033900030BD5868CB010621124A9B181A184032DA
:1033A0001170012282405A609A61F1E75868CB019E
:1033B00006210C4A9B181A184032117001228240D3
:1033C0005A605A61E4E75868CB010221054A9B180C
:1033D0001A1840321170012282409A60D8E7C04624
:1033E000A4D20000004400411823F0B5082458433B
:1033F000114A13181C5701341BD0012635005F6891
:103400008356BD400D4ADB019A18906805420BD1E6
:103410000C00601E8441D2194032107834400336CB
:10342000A400B04320431070044A9B18002901D126
:103430005D61F0BD9D61FCE7A4D200000044004145
:1034400018224243F8B52C4E0300B218127A52B239
:10345000140001320ED0481C00240C280AD805F0B4
:10346000B5FA071F1F1F1F1F1F1F1F0B0B0B0B0082
:10347000012464422000F8BD092905D1002118006B
:10348000FFF766FF0024F5E70A2901D10839F6E7BE
:1034900000240B29EED10A391800FFF759FFE9E79C
:1034A00018225343F218556801202C00F356134A92
:1034B000DB016E089B18C9B204409E19002C0DD088
:1034C0000F2430363278090122401143C9B25B190A
:1034D000317040331A7810431870D3E732000F2749
:1034E000303216785B19BE433143117040331A787D
:1034F00010431870BEE7C046A4D20000004400414B
:10350000F7B5C31D0193002306000D00041D0093B1
:1035100021780A22280000F0C6F82E210700280092
:1035200000F047F8009B3F18DB190093019B013422
:103530009C42EDD1F17928000A2200F0B4F8009BFA
:103540001818FEBD30B503AC2578044CC57108349D
:10355000046001714271837130BDC04604D6000021
:10356000F7B506000D000C008B180193019B671B3B
:103570009C4207D0336821781B683000984701349B
:103580000028F3D13800FEBD70B5040008000D001E
:1035900008F00EFD2368020029005B6820009847B0
:1035A00070BD10B50B1E02D0FFF7EEFF0300180030
:1035B00010BD10B503681B68984710BD10B50249CF
:1035C000FFF7E2FF10BDC04610D6000070B5040042
:1035D000FFF7E7FF05002000FFF7F0FF401970BD7F
:1035E000F0B58BB06B461500002205330600DA7784
:1035F0000800012D00D80A2509AC290005F076FA4B
:10360000CAB2130037330700DBB2092902D813000E
:103610003033DBB2013C2370002FEED121003000AB
:10362000FFF7BFFF0BB0F0BDF8B506000C00151E8C
:1036300004D10368C9B21B689847F8BD0A2A0CD1A7
:1036400000290BDA2D21FFF7B4FF614207002A00A1
:103650003000FFF7C5FF3818EFE7D2B22100300085
:10366000FFF7BEFFE9E770B50400FFF7DDFF0500D7
:103670002000FFF7A3FF401970BD70B50500FFF7EC
:10368000D3FF04002800FFF799FF201870BD10B584
:10369000002A04D10368C9B21B68984710BDD2B292
:1036A000FFF79EFFFAE710B5FFF7F1FF10BD00002E
:1036B00010B50400FFF766FC014B1C6010BDC0464E
:1036C000140000200122024B52421A607047C0468B
:1036D00014000020164A10B51368591C26D0013B6F
:1036E0001360002B22D172B6124B134A043393425B
:1036F00013D9124A01211000147D0C42FCD0202164
:10370000148BFF319B085B0021431183D3610C4B69
:1037100013800123027D1A42FCD0BFF34F8F094B67
:10372000094ADA60BFF34F8FC046FDE710BDC046BF
:1037300014000020002000000302000000400041AF
:1037400002A5FFFF00ED00E00400FA0501607047EC
:103750009446F0B59E1E721E964162460568920719
:103760002F6836063A4332432A60072505AC247891
:103770000068A4012940214342680024022B00D0A4
:103780005C03114321434160F0BD30B5C02503689F
:10379000AD031C6812052A402243C0240904A40278
:1037A00021401143196003685A6814435C6030BDBE
:1037B0000123026811680B43136003681A68D2077B
:1037C000FCD4DA69D207F9D4704702230268116881
:1037D0000B4313600268D3699B07FCD470470368EE
:1037E0001A7ED20702D41A7E9207FCD570470022B7
:1037F00003685A8370470368187E4007C00F7047FC
:103800000368187EC0097047802302685B42117EFE
:103810000B43137670470368588B8007C00F7047BF
:1038200002230268518B0B43538370470368187E51
:10383000C007C00F70470368188DC0B27047036897
:103840001A7ED207FCD589B2012019857047012262
:1038500003689A757047012203681A75704701233F
:10386000026811680B43136003681A68D207FCD41E
:10387000DA69D207F9D470470223026811680B4352
:1038800013600368DA699207FCD430215A8B8A43AB
:10389000110010220A435A830268D3695B07FCD4E3
:1038A00070470221026813688B4313600268D36972
:1038B0009B07FCD4704780230268DB0211685168C3
:1038C0000B43536070470000036803491A685A6845
:1038D0000A405A607047C046FFFFFBFF032230B525
:1038E000036811401C68074D5A6809042A40E40621
:1038F0001143640F5960052C03D10268D3695B073B
:10390000FCD430BDFFFFFCFF70B5056804006B8B75
:103910009B069B0F022B0DD06B8B00209B069B0FF1
:10392000032B32D06B8B9B0704D56B8B9B069B0FB5
:10393000012B2AD16B6A49001143DB0AC9B2DB02B1
:103940000B436B622368002A13D11A7ED207FCD581
:103950005B8B9B069B0F022B04D0490800222000A2
:10396000FFF7D2FF2368588B4007C30F0120584050
:103970000BE0187E8007C00FF4D11A7ED207F8D56D
:10398000C022596892020A435A6070BD0368283306
:1039900019700368187EC007C00F03D15A8BD20775
:1039A000F8D57047588B4007C30F01205840F8E7FF
:1039B000036828331970036800201A7E520704D563
:1039C000588B01234007C00F5840704703681868A0
:1039D000C006400F043843425841C0B270470368E4
:1039E000187E4007C00F70470368187EC007C00FDD
:1039F00070470368588BC006C00F70470368187E75
:103A00008007C00F70470368588B0007C00F7047CE
:103A100003681A68D206520F052A05D11A7E92074A
:103A200002D41A7ED207F9D528331878C0B270476D
:103A30000368214A30B593422FD0204A93422FD0B9
:103A40001F4A93422FD01F4A93422FD01E4A9342BF
:103A50002FD01E4A93421FD10E2319220121032584
:103A600099401B48C024016099082B40AB40FC35AD
:103A70009D4089000918A4000859A843C0259D400D
:103A80002B0003430B518023DB011A43114B5A8057
:103A90005A7852B2002AFBDB30BD09231422DDE73D
:103AA0000A231522DAE70B231622D7E70C23172265
:103AB000D4E70D231822D1E700080042000C004291
:103AC000001000420014004200180042001C004296
:103AD00000E100E0000C0040F8B504000F00160003
:103AE0001D00FFF7A5FF2000FFF762FE1C21BB00B1
:103AF0000B4071072268090C0B4313608423226872
:103B00009375012F1AD11021012E00D008390C4BCA
:103B100069431868C00004F063FF0722216802406F
:103B20008B895203DB04DB0C13438B812268030473
:103B30009089DB0C400B400318439081F8BDC046D0
:103B400004000020F8B504000F00FFF771FF20000B
:103B5000FFF785FE1422236879001A600C4B256854
:103B60001E68300004F03CFF0A490400300004F0F5
:103B700037FF7D23FA215843C90004F031FFFF23AA
:103B8000241AE868053C1C4098430443EC60F8BDE7
:103B90000400002040420F000020704770B50F263F
:103BA000CB1D013902003240D5B22C00000930345F
:103BB000092A00DD07341C70013B8B42F2D170BD35
:103BC00010B50C000B4B1868FFF7E8FF21000A4BFB
:103BD00008311868FFF7E2FF2100084B1031186820
:103BE000FFF7DCFF2100064B18311868FFF7D6FFFE
:103BF000202010BD0CA0800040A0800044A08000C8
:103C000048A0800008B4024B9C46103808BC6047AE
:103C1000C13B000070473F20704713B56B460268F8
:103C2000D9710733546819000122A04716BD00005E
:103C300070B50A260B7892B06E44023305000B7003
:103C40003C220021300008F0DEF8394801AC069033
:103C5000384824210790062020776846364AA17408
:103C60002281364A364BA281FD3AFF3A8018C1774D
:103C7000684623390630C17768460730C17702A805
:103C8000C1770720F277032608316944C87703A972
:103C9000CE7710212B366E443170092621851F31D5
:103CA00069440E700CA9053E0E7033212380022357
:103CB00069440B7006360DA90E7022493536A1866F
:103CC0003B216E44307010A86274E27702703D327E
:103CD00069446A440B70137040210022E370237121
:103CE0006371A37341336B44218719705A702B7D24
:103CF000C039A370A37263770133DBB2A3776A7D07
:103D00000B200D0068441543C577312068440370CB
:103D10003A23501C6B441870412302320A436B440F
:103D20001A7021004222084800F064FF12B070BDF2
:103D30001001042402060524090400000102000009
:103D4000080B000007050000100B002008B4024B10
:103D50009C46103808BC6047313C000070B5027DBD
:103D60000B790C0000259A420BD10B784E78A12BD1
:103D700009D1212E05D107221F49204800F03AFF22
:103D80000135280070BD212BFBD1202E2BD107221D
:103D900019491A4800F070FE174B1A785978090231
:103DA00011439A7812041143DA7812060A439621D5
:103DB000C9008A421DD1DB79DB071AD4FA20FFF74C
:103DC00077FC00210D4801F021F80125232ED8D1E0
:103DD000E378A2781B021343094A002107481360C5
:103DE00001F014F8CDE7222EEFD18A78024BDA7178
:103DF000D2E7FFF767FCE4E71C000020100B00206F
:103E00001800002008B4024B9C46103808BC6047DC
:103E10005D3D000010B5417D006A013100F064FD98
:103E2000034B1B6801335A1E9341181810BDC0463E
:103E30002400002010B5417D006A023100F06AFDC7
:103E400010BD10B5417D006A023100F031FD10BD9A
:103E500070B50D00417D0400130002312A00006A94
:103E600000F01EFE002801D10123636070BD000038
:103E700010B5054C23685A1C04D103685B69984748
:103E800003002060180010BD24000020074A030032
:103E9000106810B5411C03D001235B42136010BDB4
:103EA000597D186A013100F0ABFDF8E724000020CD
:103EB0007047002070470000FA239B0010B5836014
:103EC0000F4B0022C3820300283383610D4B040093
:103ED0004260C2611800443323610830631D2162CF
:103EE0002060DA778323A362813BE362803323631C
:103EF00000F0C2F82100103100F092F8200010BD4F
:103F00000302000014D60000022110B5094B1A6804
:103F1000437D5B01D318FF339C7A21439972437D23
:103F20000133DBB25B01D3180122FF33997A0A43D4
:103F30009A7210BDC80F00207047000010B5FEF740
:103F4000D3FFF423FF330024984207D9044B0A20FF
:103F5000DC79631E9C41E4B2FEF7FCFF200010BD3B
:103F60001C00002010B502490248FFF7A5FF10BD54
:103F7000100B0020A80A002070B50E000025446830
:103F8000002C0BD0236831005B6820009847002884
:103F900002DB2D18E468F3E701256D42280070BDAF
:103FA00070B50D004468002C08D0236829009B6878
:103FB00020009847002802D1E468F4E7200070BD93
:103FC00070B50D0000264468002C09D02368290034
:103FD00020001B69984736182D18F6B2E468F3E7FD
:103FE00030002C7070BD70B50D004468002C08D0F6
:103FF000236829001B6820009847002802D1E46844
:10400000F4E7200070BD70B50D004468002C06D0A8
:1040100023682000DB6829009847E468F6E770BD54
:10402000F0B58C79457803002A190020072A1FDC97
:104030005A68824216D159601A78C8790A711218E2
:104040004D711A7000220B4DD0B284420FD98F6887
:1040500058789600F7598600013077510132587030
:10406000F2E70200D0680028FBD1D160E4E701202C
:10407000F0BDC046E80A00200121064A10B51368C9
:1040800005480B4004D18024640004804360116023
:1040900010BDC046DC0A0020E00A0020704710B5C1
:1040A000040001F05FFA200010BD0000F0B5822985
:1040B00019D1C3B2294D5A01AA189169284C80011F
:1040C0000C40C021890521439161264908334018DD
:1040D0007021506128685B011A5C8A43110030220C
:1040E0000A431A54F0BD0029FCD1C026C1B21B4CB2
:1040F0004B01E3189A681A4DB6052A4032439A607C
:10410000194A800182185A600A0007272468083279
:104110005201115DB9430F000121394311559F69C7
:1041200010493D4040182E439E6158617020115D3A
:104130008143080010210143115599680B48A218CA
:10414000084080214903014399609968890B8903DC
:104150009960402311790B431371C3E7C80F002006
:10416000FFFFFF8F3C0B0020FC0C0020FF3F00F006
:10417000EFF3108303600123436072B67047036856
:10418000002B02D162B6BFF36F8F7047F7B5060000
:10419000FC36B3690400002B18D1B2277F00C55D3F
:1041A0006846FFF7E5FF019BEDB2013B02D3E55DF9
:1041B000EDB2FAE768460193FFF7E1FF002D01D168
:1041C0000020FEBD706E336EC01AFAE76846FFF736
:1041D000CFFFD8220025019B5200013B02D3A55CF2
:1041E000EDB2FAE768460193FFF7C9FF002DE7D06B
:1041F000D6235B00E058043BE358E5E710B544687C
:10420000FC3043690B48DBB25A01A21891680833AD
:104210000840802149030143916091685B01890B4B
:10422000890391602268D318402219790A431A71D0
:1042300010BDC046FF3F00F0F7B50500FC356B69C7
:104240004268DBB2190004000831106849014118C6
:10425000C979C90711D55B01D21893689B049B0CDF
:104260000CD12000FFF7CAFF63681A686B69DBB2E4
:1042700008335B01D3187F22DA71F7BDE9690029A1
:1042800023D16B66230001266933FF33EE61684654
:104290005360B227FFF76CFF7F00B221019BFF3113
:1042A000013B5A1C38D0D822E6555200A25C581E59
:1042B000D2B26254625C8446002A04D12000019389
:1042C000FFF79CFFE9E76346EBE7D621490063501F
:1042D0000023EB6123001D33FF3353606846D8266B
:1042E000FFF746FF01277600B221019BFF31013B1A
:1042F0005A1C11D0B222A7555200A25C581ED2B24D
:104300006254625C8446002A04D120000193FFF7C6
:1043100075FFE9E76346EBE768460193FFF72FFF78
:10432000A2E7F7B5060068463400FFF721FF002733
:10433000FF22019BFC34013B0DD3E06821698842D8
:1043400004DBE7682069D71B3F18F4E72769E168B9
:104350007F1A013FEFE768460193FFF710FFA3695B
:104360006846002B52D1FFF703FFB221019B4900A1
:10437000013B5A1C0CD0755C5A1EEDB2002D05D1C4
:1043800068460193FFF7FBFE2800FEBD1300F0E72F
:10439000684601930025FFF7F2FEFF22236EBD421F
:1043A00014D0616E994211D9591CF3182166FF335C
:1043B000587FE36821690133C0B213408B4203D0B8
:1043C000E16871180872E3600135E7E7626E9A42AE
:1043D000DAD1002323660133A3616846B224FFF7D4
:1043E000C7FE6400B2220021019BFF32013B581C32
:1043F000C6D03155B05C5F1E002805D0B1543000E6
:104400000193FFF7FBFEEDE73B00F0E7FFF7B0FE9F
:10441000D821019B4900013B5A1C06D0755C5A1EED
:10442000EDB2002DACD01300F6E768460193FFF71C
:10443000A6FED623D4225B0000259C465200B3582A
:10444000BD4203D061467158994220D86246B258A5
:104450009A4299D1D42200235200B3506846A361F6
:10446000D824FFF785FE6400B2220021019BFF32B1
:10447000013B581C00D183E73155B05C5F1E00281A
:1044800019D0B15430000193FFF7B8FEECE7591C86
:10449000B150FF21F3186933FF331878E368C0B2D5
:1044A00001330B4021698B4203D0E1687118087217
:1044B000E3600135C3E73B00DBE710B50400FFF71D
:1044C00030FF2300FC331969DA68914203D01B697D
:1044D000E418207A10BD01204042FBE710B504002B
:1044E000FC34FFF71EFFE0682369C01A01D50130D4
:1044F000FF3010BDF0B585B0019200910500FFF7C7
:1045000010FF02A8FFF734FE01200024FF26039BC2
:1045100040425A1E531C1FD02B00FC3301998C4281
:1045200018D2D9681F69C91B01D50131FF31002993
:1045300010D01969DF688C460100BC4506D01969A6
:104540001F69691801373740097A1F61009F395583
:104550000134E3E7013ADDE702A80392FFF70FFE1B
:10456000200005B0F0BD37B56B46DC1D00230D0003
:104570002370FFF781FD2100FFF7FEFC2B68181860
:10458000286020783EBD00002023F7B5414A050091
:10459000D1690F200B43D36101223F490B781343AC
:1045A0000B703E4B19788143197006211C7821430A
:1045B00019703B490C7822430A701A7802401A702D
:1045C000602219780A431A70364B374A5A805F784E
:1045D000FF09FCD13548FEF781FC0123344C354EF0
:1045E0002268300011780B4313708022390052008A
:1045F00007F009FC22689378DB07FCD456621F267B
:104600002D4B1B68590B980C9B01314030405B0FC0
:10461000B14200D105211F2800D10238072B00D15B
:10462000043B31408901178D0191244930400F40EE
:10463000019939431185118D0700B14308003843B2
:104640001085118D18031E4B0B407F2103431385EA
:104650001378C1200B401370042322688000117866
:104660000B430C211370226813898B431549138166
:104670000B581B021B0A0B5080230B6011787E3BEA
:104680000B431370012300212B700F48FFF754FCDC
:10469000F7BDC04600040040584400413C4400417E
:1046A00059440041000C0040064000001D5000002D
:1046B000C80F0020CC0F0020246080003FF8FFFFCF
:1046C000FF8FFFFF00E100E0A80A0020007800282B
:1046D00010D00121084B1B681A898A431A810822CD
:1046E000198B0A431A830422198B0A431A83002266
:1046F000024B1A607047C046C80F0020C00F002050
:1047000010B50F4A93699B0B9B03936113680222B8
:10471000FF331A729879823A02439A711A7A920791
:10472000FCD57F24074A2140937A0800A34319004F
:10473000802301439172917A5B420B43937210BDC7
:10474000C80F00200050004110B50C00FFF794FC8A
:104750002100FFF748FC002804D1034A93699B0B12
:104760009B03936110BDC046C80F0020F7B50D0034
:10477000832A19D1CBB2404C5A01A21891693F4803
:10478000AD010840C0218905014391613C49206881
:104790006D187021083355615B011A5C8A43110062
:1047A00040220A431A54F7BD022A5FD1354B8A00D2
:1047B000D058002802D003685B699847DA2040008F
:1047C00000F0C8FE802204002B4E2F4B4660036091
:1047D00052000021083007F016FB2200B22100230E
:1047E000FC324900D3605561136113669361D36154
:1047F000536663544431635004316350043163544D
:10480000B221FF316354FF202B0003405901019373
:1048100071188F68194BAD003B40C027BF051F437F
:104820008F600727019B366808335B01995DB943A8
:104830000F000321394399552300516966680140EF
:104840001D334901FF3371184B60636852691B685F
:10485000024052019B1801221B18997A20000A433A
:104860009A72FFF7CBFC074BEC509CE71100280035
:10487000FFF71CFC97E7C046C80F0020FFFFFF8F23
:104880003C0B0020140B002074D6000070B505000E
:104890000124064BA200D258002A06D0210028008D
:1048A0000134FFF763FF0A2CF3D170BDE80A002042
:1048B0000B4BCAB20B488901C9185301C31859617F
:1048C00099690832890B89039961036852019A1822
:1048D0000223D3715179823B0B4353717047C04619
:1048E0003C0B0020C80F0020084B8A00D05810B5A0
:1048F000002803D003689B68984710BDC9B2044BD9
:104900004901591888688004800CF6E7140B0020D0
:10491000C80F002010B50C00FFF7E6FF00280CD0F0
:10492000064BE4B21B68083464011C1980236279C9
:104930005B42134363710223E37110BDC80F002073
:10494000F0B51C002A4B85B01B6807000D000292D1
:10495000002B4AD0274B8A00D058002808D0036883
:1049600022005B68029998470400200005B0F0BD62
:104970003800FFF7B9FF844204D929003800FFF757
:10498000B3FF04000121EBB21B4E03935B010193C3
:10499000F21893689B0B9B039360019A336802980B
:1049A0009B18FF335A7A0A435A72144BA901C9184B
:1049B000220007F01FFA002CD7D029003800FFF79B
:1049C00093FF0028D1D14021039B326808335B015B
:1049D000D3181879014319710121D971019BD3189A
:1049E000FF339A7A0A439A72BFE701246442BCE714
:1049F000C00F0020140B0020C80F0020FC0C00206A
:104A000013B56B46DC1D22000123FFF799FF012837
:104A100001D1207816BD01204042FBE770B5CBB232
:104A2000124A13485C018901891802195160916882
:104A3000104D08330D4080214903294340259160E2
:104A40009168890B8903916001685A018A18167967
:104A50003543157195796D06FCD55B01C918CB7985
:104A6000DB07FCD500198068C0B270BDFC0C0020CB
:104A7000C80F0020FF3F00F070B50D0000211400AA
:104A8000FFF7CCFFA04200D9200000230349A34236
:104A900003D0CA5CEA540133F9E770BDFC0C002076
:104AA000F0B51E003A4B85B01B680F000192002B39
:104AB00035D08023DB019E4231D80025354B8A0159
:104AC000D3180293002E2CD0334B1B680393FF2383
:104AD0003B401C0000930834039B64011C19A3791C
:104AE000DB0921D02D4B2E49186803F079FF2D4B9F
:104AF0001721584303F074FF2B4BE279920713D42C
:104B0000DA5D002A01D10138F7D20122DA55009B83
:104B10005A01214B9B189A69920B92039A610125C5
:104B20006D42280005B0F0BD00221F4B3400DA555D
:104B30003F2E09D9009B40245A01174B9B18802215
:104B4000996912060A439A6122000199029807F0B6
:104B500051F9009BA1045A010F4B890C9B18029A32
:104B60002D195A619A69361B920B92030A439A6176
:104B7000009B039A08335B01D3180222DA7159793A
:104B8000823A0A435A71019B1B1901939AE7C04666
:104B9000C00F00203C0B0020C80F002004000020A4
:104BA00040420F0070110100310B002070B50D0064
:104BB0001C000D4BAE01F61811003000220007F06A
:104BC00019F9EDB209496D014D196E61AB69084AD9
:104BD00020001340AB61AB69A2049B0B920C9B03BA
:104BE0001343AB6170BDC0463C0B0020C80F0020D2
:104BF000FF3F00F0F7B5104B01901B780F00150038
:104C0000002B0CD10D4B16001C78002C09D00C4E3B
:104C10000C4834882018641907F0ECF83480280018
:104C2000FEBD002EFBD03A19330000210198FFF79A
:104C3000BDFF2418361AF4E7BC0E0020BD0F00207B
:104C4000BE0F0020BD0E0020F8B50F001600002496
:104C5000012A26D9100007F0A7F80500380007F050
:104C6000A7F9032302220130400028706B7096429E
:104C70000DD9397800290AD0531CDBB20137A95469
:104C80009E4203D00232EC54D2B2F0E73200290047
:104C90000548FFF7AFFF441EA041C4B2280007F04B
:104CA0008DF82000F8BDC046100B0020F0B50024A0
:104CB000012685B0184B0F0069461E700500009450
:104CC000FFF751FC154B01A90B806A3BFF3BCB71F1
:104CD0005A330B72009B8C7109334B800E4B4E7113
:104CE00008711C703A00092F0FD00D4F09223E7039
:104CF0000C4E280000943480FFF77CFF69462800A2
:104D0000FFF731FC328808493C702800FFF772FF3A
:104D1000012005B0F0BDC046BC0E00200902000015
:104D2000BD0F0020BE0F0020BD0E002070B5CE7854
:104D300092B005000C00022E0BD18B79C9792E4858
:104D400009021943FFF7B2FF411E8841C0B212B0F9
:104D500070BDFFF791F92100FFF722F9002803D079
:104D6000C117081AC00FF2E7012E0ED1E279A3791C
:104D700012021A432149112A3CD8D2B2002A39D052
:104D80002800FFF737FF0120E1E7032EDFD1A378EA
:104D9000002B28D0022B08D1E279A37912021849FE
:104DA0001A432800FFF750FFD1E7012B05D1E27924
:104DB000A37912021A431349F3E7032BC7D1010069
:104DC000412201A807F01FF8FFF756F901A9FFF7E4
:104DD000F7F8002805D0E279A37912021A4301A955
:104DE000DFE70378FFDEE279A37912021A4306496E
:104DF000032AC2D90A78C3E7100B0020B6D60000F8
:104E000090D60000AAD60000A6D60000CBB2044976
:104E10005B01C9188B699B0B9B038B617047C04674
:104E2000C80F002037B5050048780C000B2810D8B3
:104E300003F0CCFD061B0F2B0F404561494C5A5D1A
:104E4000097801AA002906D1022311802800FFF762
:104E5000ADFE01203EBD00231380284B1B78012BA3
:104E600000D1137002230021F0E78A780023012A81
:104E700003D101AA1380224BF0E7204A1370214A84
:104E800093699B0B9B039361E3E78C78012C06D11C
:104E900000211B4B01AA1C7011702300D6E70120D2
:104EA000002CD7D1154B174A187093699B0B9B03A5
:104EB0009361CFE789782800FFF722FCC9E7280033
:104EC000FFF734FFC6E701230F4ACCE70B78002039
:104ED000DB06BFD12800FFF7D9FCA2780A4B0B48AC
:104EE0001A60FFF711F8CAE70123094ABBE78A787D
:104EF000074B1A60C3E70020ACE7C046300B002028
:104F0000380B0020C80F0020C00F0020A80A002086
:104F1000C40F00203B4BF7B51E780500002E5FD173
:104F2000394C23689A8B12070DD5082231009A83D9
:104F30003000FFF7BBF810222368FF33997A0A4349
:104F40009A72324B1E6023689A8B520701D5042255
:104F50009A83FF331A7A920603D52022597A0A439C
:104F60005A721A7AD20623D569460800284AC0CA5E
:104F7000C0C0A268920B9203A260402258790243FB
:104F80005A7160230A7828001A422AD1FFF74AFF93
:104F90002368FF33002827D08022997952420A43A0
:104FA0009A711A7A520603D54022597A0A435A72E4
:104FB0007F2601252368FF331E722F0023680837E0
:104FC0007F01DB19DB79002B07D0124BAA00D058E8
:104FD00000280DD003681B6898470135082DECD1D7
:104FE000F7BDFFF7B1FBD3E720210B4A9171D8E75A
:104FF000FFF742F82900FFF706F82368DF19FE7172
:10500000EBE7C046BD0F0020C80F0020C00F0020F6
:10501000FC0C0020140B0020FF50004110B502488A
:10502000FFF778FF10BDC046100B0020014B024A6D
:105030001A607047C80F00200050004101207047DF
:1050400010B50368014A1B6A984710BD130400009D
:105050000300FC33D9699A69914203D0DB69C01817
:10506000007D704701204042FBE710B50400006955
:10507000FEF79EFB22000023FC329361D36186225F
:105080009200A4186360A36010BDF0200140303985
:10509000484248417047F0231B01194080230620F5
:1050A0009B0099420AD00133FF330130994205D069
:1050B000802302385B00994200D0002070470F2007
:1050C00001400020012903D00239481E8141481CBB
:1050D000704700008923F0B5182685B002919B0027
:1050E0000400C05C330008214343324D1700EB1825
:1050F0005956FEF7A5F9304B0821E05C33004343D5
:10510000EB185956FEF79CF92C4BE25C0393022AEC
:1051100009D11133E05CFF2805D008214643AE19C0
:105120007156FEF78DF98A26B600A05DFF2819D0CA
:105130000121FEF70DF91822A35D21495A43AB5610
:10514000AD18DB0158188B21890060501D490122E0
:105150005B188C218900635069688A408D21890021
:1051600062501A600122029B11002069FEF7B4FC14
:1051700039002000FFF78FFF390005002000FFF7FE
:105180009EFF390006002000FFF77FFF33000090EC
:10519000290020690122FEF7DBFA0B4B2069E25C53
:1051A000039BE15CFEF7F1FA2069FEF70EFB05B008
:1051B000F0BDC046A4D20000250200002702000076
:1051C000184400411444004126020000802210B51A
:1051D00004005200002106F016FE23000022FC33DA
:1051E0005A6020009A6010BDF0B585B01D000AAB72
:1051F0001B78040000930BAB1B78160001930CABDB
:105200001B780F0002930DAB1B78039300234360C0
:10521000FA239B008360124B083303601430FFF7BE
:10522000D5FF20001D30FF30FFF7D0FF89236A46ED
:105230009B002761E6540B4B1278E5540A4B200083
:10524000E2546A46094B1279E2546A46127A0133F3
:10525000E2546A46127B1033E25405B0F0BDC046FA
:10526000C8D6000025020000260200002702000028
:10527000F7B51D0008AB1B780400009309AB1B7841
:105280001600019300234360FA239B008360114BB7
:105290000F00083303601430FFF798FF20001D3023
:1052A000FF30FFF793FF89236A469B002761E6548E
:1052B000094B1278E554094B2000E2546A46084B2A
:1052C0001279E2548A22293BFF3B9200A354103208
:1052D000A354FEBDC8D6000025020000260200002F
:1052E000270200000300FC3358689B68C01A01D5F0
:1052F0000130FF30704710B5040020001D30FF3032
:10530000FFF7F0FF0028F8D12069FEF768FA10BD1A
:1053100010B51430FFF7E6FF10BD0300FC335968E9
:105320009A68914204DB5A689868801AFF30704787
:1053300098685B68C01A0138F9E710B51D30FF3076
:10534000FFF7EBFF10BD10B504000069FEF763FA2C
:10535000002805D02069FEF76EFA2069FEF760FA92
:105360002069FEF748FA002820D02069FEF763FA8A
:105370002200FC329369D1690133DBB28B4203D046
:1053800091696118087593618A239B00E35CFF2B88
:105390000CD020001430FFF7C0FF092806DC8B2357
:1053A0008D229B009200E358A2581A602069FEF7F4
:1053B0003DFA00281AD020001D30FF30FFF792FF81
:1053C000002822D086239B00E31899685A689142EE
:1053D00018D08E219A684900A218515C9A6801324F
:1053E000D2B29A60C9B22069FEF729FA2069FEF7A5
:1053F00007FA002805D02069FEF706FA2069FEF7B3
:10540000F6F910BD01214942ECE72069FEF723FAC5
:10541000ECE7000070B5040000690D00FEF706FA25
:1054200000283ED1FF2686239B00E3185A6899681E
:10543000013232408A4223D1EFF31083DB0710D4CC
:105440001E4B5B68DB05DB0DEDD0103B5BB2002B28
:1054500010DA0F221340083B9B08194A9B009B1847
:105460001B682069FEF7E2F90028DCD02000FFF776
:105470006AFFD8E79B08C033124A9B009B58F0E7AD
:105480005A68013216409A68964205D08E215A68B1
:105490004900A21855545E602069FEF7D8F9012032
:1054A00070BD20001D30FF30FFF71CFF0028B9D170
:1054B00029002069FEF7C3F9F1E7C04600ED00E0DE
:1054C0001CED00E000E100E0030070B5FC33D96999
:1054D0009A69040091421AD0DA698218157DDA6956
:1054E0000132D2B2DA618A239B00E35CFF2B0CD03D
:1054F00020001430FFF711FF0A2806DD8C238D22CF
:105500009B009200E358A2581A60280070BD012544
:105510006D42E8E710B5FDF7F5FD06F007FBFDF776
:10552000C3FB0120FDF716FD084C2000FFF72CF807
:105530002000FFF7CBF8FDF729F8FDF781F8044BC1
:10554000002BFAD000E000BFF7E7C046100B0020A8
:105550000000000010B506F027FC10BD10B506F0E5
:1055600023FC10BD10B506F029FC10BD0B0010B5D2
:105570000100180006F0E6F910BD0000F8B54E462F
:1055800057464546DE46A04BE0B54E0080468A466B
:10559000894676089E420CDD9C4B9E4200DDA2E0CF
:1055A00000D19DE04B46002B00DCE0E0984B994A8F
:1055B000A1E0994B9E4200DDB3E0984B9E4200DC97
:1055C000A1E001235B429B4642465346404651467A
:1055D00005F04CFA02000B0006000F0005F046FA39
:1055E00004000D008E4A8F4B05F040FA8E4A8F4B17
:1055F00004F016FB22002B0005F038FA8C4A8D4B84
:1056000004F00EFB22002B0005F030FA8A4A8B4B87
:1056100004F006FB22002B0005F028FA884A894B8B
:1056200004F0FEFA22002B0005F020FA864A874B90
:1056300004F0F6FA32003B0005F018FA844A06003E
:105640000F00844B2000290005F010FA824A834B9A
:1056500005F07EFC22002B0005F008FA804A814B01
:1056600005F076FC22002B0005F000FA7E4A7F4B05
:1056700005F06EFC22002B0005F0F8F97C4A7D4B0A
:1056800005F066FC22002B0005F0F0F902000B008B
:105690003000390004F0C4FA5346424605F0E6F9FA
:1056A0005B46013366D05B46734A744CDB00E418FA
:1056B000D3181A685B6805F04BFC4246534605F068
:1056C00047FC02000B002068616805F041FC030004
:1056D00048460A0000280EDA802212068A180AE0DC
:1056E000002800D15EE7424653464046514604F04A
:1056F00097FA03000A00180011003CBC9046994636
:10570000A246AB46F8BD5E4A5E4B04F089FA002221
:105710005D4B03F005FB002800D152E7434652469B
:10572000E9E700F005F9594B04000D009E422ADC20
:10573000574B9E4250DC02000B0004F071FA00222D
:10574000514B05F005FC802306000F000022DB050D
:105750002000290004F064FA0B0002003900300038
:1057600004F07AFD002380468A469B462CE7284BAE
:10577000484AC0E702000B004046514605F0E8FBEE
:1057800003000A00B7E7444B9E421ADC0022434B59
:1057900005F0DEFB002206000F00404B2000290030
:1057A00005F064F90022384B04F03AFA0B000200CD
:1057B0003900300004F050FD022380468A469B46A3
:1057C00002E70B0002003649002004F045FD0323E8
:1057D00080468A469B46F7E600222B4B05F0B8FB35
:1057E000002206000F00284B2000290004F018FAC0
:1057F0000B0002003900300004F02EFD012380462A
:105800008A469B46E0E6C046FFFF0F440000F07F5B
:10581000182D4454FB21F93FFFFFDB3FFFFF1F3EE4
:1058200011DA22E33AAD903FEB0D76244B7BA93F92
:10583000513DD0A0660DB13F6E204CC5CD45B73F60
:10584000FF8300922449C23F0D5555555555D53F0C
:105850002F6C6A2C44B4A2BF9AFDDE522DDEAD3F00
:105860006D9A74AFF2B0B33F711623FEC671BC3FA0
:10587000C4EB98999999C93F20D7000000D7000040
:105880009C7500883CE4377E0000F03FFFFFF23F4C
:10589000FFFFE53FFB21F9BFFF7F03400000F83F1A
:1058A0000000F0BF30B5204A4B0087B05B08934240
:1058B0001CDD1E4A934205DD02000B0005F048FB8B
:1058C00007B030BD02AA00F03DFC03231840049A43
:1058D000059B01280FD002281CD0002815D0029863
:1058E00003990124009402F049F8E9E7002200231B
:1058F00001F0CAFAE4E700900298039902F03EF83A
:1059000080231B069C466144DAE70298039901F064
:10591000BBFAD5E70298039901F0B6FA80231B067B
:105920009C466144CCE7C046FB21E93FFFFFEF7F87
:1059300049004B0819007047474AF0B54F46914659
:105940004B005B0D99444646D6464A46C0B5050015
:105950000C000E0088460700132A27DC002A4BDBC8
:105960003E4B13419A460B0052461340034318D056
:105970003B4A3C4B2800210004F052F9002200234E
:1059800003F0CEF9002847D0002C04DA80234A46E1
:105990005B03134198444646534600279E43380014
:1059A00031001CBC90469946A246F0BD332A08DD62
:1059B0008023DB009945F4D102000B0004F030F99C
:1059C000EFE7294A9446012263445242DA40924664
:1059D0000242E6D0224A234B2800210004F020F99D
:1059E0000022002303F09CF9002815D0002C1EDBB8
:1059F000534646469F430FE0194A1A4B28002100A0
:105A000004F00EF90022002303F08AF9002803D0E5
:105A1000002C04DB0027002638003100C1E76400B9
:105A2000640825430027002DF6D0104EF4E74B46BE
:105A3000142B0BD03422D21A012393405D19BD429E
:105A400008D201239C462F00E044D1E7133B9C463B
:105A5000E044CDE72F00CBE701FCFFFFFFFF0F0085
:105A60009C7500883CE4377EEDFBFFFF0000F0BF33
:105A700030B5214A4B0087B05B0893421EDD1F4AB8
:105A8000934205DD02000B0005F062FA07B030BD5D
:105A900002AA00F057FB03231840049A059B012833
:105AA00013D002281DD0002814D00298039901F0C9
:105AB000EBF980231B069C466144E7E700230022A4
:105AC0000093002301F05AFFE0E70298039901F0E8
:105AD000DBF9DBE7012402980399009401F04EFF03
:105AE000D4E7012402980399009401F047FF802332
:105AF0001B069C466144C9E7FB21E93FFFFFEF7F9E
:105B000030B5144A4B0087B05B0893421ADD124A45
:105B1000934205DD02000B0005F01AFA07B030BD14
:105B200002AA00F00FFB049C059D430002201840D0
:105B30000123181A00902200029803992B0001F00B
:105B4000CFFFEBE7012300220093002301F0C8FF01
:105B5000E4E7C046FB21E93FFFFFEF7F00B51C4AA9
:105B6000430083B05B08934218DD1A4A934204DD78
:105B7000011C03F011FE03B000BD694600F0A6FF52
:105B800003230199184001280CD0022817D00028BF
:105B900011D00098012202F0B9FDECE7002102F0DB
:105BA0006BF9E8E70122009802F0B0FD80231B06A4
:105BB0009C466044DFE7009802F05EF9DBE700985E
:105BC00002F05AF980231B069C466044D3E7C04686
:105BD000D80F493FFFFF7F7FF0B5C64643005F08FF
:105BE0001B0E7F3B00B5051C06001C00162B1CDCA1
:105BF0008046002B21DB194F1F41074211D0184965
:105C000003F026F9002103F0C5F8002809D0002D83
:105C100004DA80231B0423419846A8444346BB432F
:105C20001E00301C04BC9046F0BD0E4B9F42F8D9BC
:105C3000011C03F00DF9061CF3E7094903F008F90C
:105C4000002103F0A7F80028EBD0002D01DB00268F
:105C5000E7E7002FE5D0044EE3E7C046FFFF7F00F3
:105C6000CAF24971FFFF7F7F000080BFF0B5474651
:105C7000CE4680B58DB01D0006000F00140000F068
:105C800005F92E4B009001911B785BB298460133C9
:105C90003CD022002B002000290005F0A1FC0028A8
:105CA00034D132003B003000390005F099FC8146C8
:105CB00000282BD1002200232000290003F016F831
:105CC000002823D0012302931D4B049605970393CC
:105CD0004B460A93434606940795002B1DD000239C
:105CE00000221900100004F0B7FA43460890099109
:105CF000022B14D105F034FE212303600A9B00938C
:105D0000002B15D1089B099C0093019400980199E0
:105D10000DB00CBC90469946F0BD0896099702A8B4
:105D200002F06EFD0028E5D00A9B0093002BE9D01D
:105D300005F016FE0A9B00930360E3E728000020AD
:105D400040D70000F0B58DB0041C00F00BFC002320
:105D5000224E051CF356013331D0211C201C03F0C8
:105D6000DFFE071E2BD1201C02F0BAFDFE218905A3
:105D700003F010F8002822D001230293184B201CB6
:105D800003930A9705F0EAFC0690079104900591A9
:105D9000144802F037FD0023F35608900991022BB6
:105DA00010D002A802F02CFD00280BD00A9B019312
:105DB000002B0CD10898099905F022FD051C281C20
:105DC0000DB0F0BD05F0CCFD21230360EEE705F03A
:105DD000C7FD0A9B01930360ECE7C0462800002042
:105DE00048D7000044D70000F0B58DB0041C00F087
:105DF0001BFD0023224E051CF356013331D0211C1C
:105E0000201C03F08DFE071E2BD1201C02F068FD24
:105E1000FE21890502F0BEFF002822D00123029353
:105E2000184B201C03930A9705F098FC06900791E5
:105E300004900591144802F0E5FC0023F356089005
:105E40000991022B10D002A802F0DAFC00280BD036
:105E50000A9B0193002B0CD10898099905F0D0FCFE
:105E6000051C281C0DB0F0BD05F07AFD2123036050
:105E7000EEE705F075FD0A9B01930360ECE7C04671
:105E80002800002050D7000044D70000F0B5574646
:105E90004546DE464E465C006408E0B5250083B00A
:105EA00092469446154322D09B4E4D006D08B54254
:105EB0001DDC56421643994FF60F2643BE4216D8B4
:105EC000CE0FF60783460700B146A54220DC060048
:105ED0008846A54213DB904211D319D14B46DA0F05
:105EE0008F4BD2009B181E685B68984607E004F051
:105EF000BDFD02000B0004F0AFF90600884630003B
:105F0000414603B03CBC90469946A246AB46F0BD24
:105F1000844EB54245DD2E15B346834EB0465E46EF
:105F2000464401967F4EB44200DDA5E0002C00D02F
:105F3000BDE05646002E00DCE7E07C4EB046012670
:105F40007642B34656467600D844B246002EF6DC7A
:105F5000774EB246019E564500DA7EE08025090361
:105F6000090B6D030D437249884568DB80241B03D0
:105F70001B0B64032343424601998E1A6246E91AB9
:105F8000B81A002E2DD0674592415242891A19D471
:105F90000A0002431CD04900C50F4D194700013EBD
:105FA000ECE7002D76D15E46002E00DCB0E05F4EBF
:105FB0000196019E013E01965E467600B346002E94
:105FC000F7DCAFE7FA0F6D00AD187F00013ED5E7B3
:105FD0004B46D90F524BC9005B181E685B68984648
:105FE0008DE767459B415B42C91A01D538002900FE
:105FF0000B000343ECD04B4B1A00994209DCC30F52
:106000004900C91801235B429C464000E04491428C
:10601000F5DD474B98455FDA42469B1A142B67DC47
:1060200002000C004348DA404044194184404B468A
:1060300020000B43994610430600C8465FE74346DD
:10604000C91A1F291EDC10003A4B8C404344D8402B
:106050008A400300944623438DE75146019E8F1BDF
:106060001F2F32DCB24606003249BD405144CE40BB
:10607000B8403543070076E72615B0462A4EB246AB
:10608000D04465E741462C4B5B1A9A40130000222E
:10609000944670E7EE02B046254E0196019E013E01
:1060A000019646467600B046002EF7DC3AE7E60257
:1060B000B2461F4EB04601267642B346564676009B
:1060C000D844B246002EF6DC42E7019D1A4900276B
:1060D000491B8840050046E7184B194C9C464B4627
:1060E00044446144240519430C430600A04606E7D6
:1060F0001F2B05DCD8400F4B4344994008439BE7D6
:106100000D4B9B1A1941080096E7084EB0461FE751
:10611000064E019606E7C046FFFFEF7F0000F07FC6
:1061200058D70000FFFF0F0001FCFFFFEDFBFFFF52
:1061300002FCFFFF1E040000E2FBFFFF0000F0FF77
:10614000FF030000F0B54E464546DE465746E0B533
:10615000E14B4C008FB09046894664089C4200DCBD
:1061600087E0DE4B9C4222DCDD4A002900DC92E025
:10617000DC4B04F0EDFEDB4B06000F009C4200D12F
:106180007EE1D94AD94B04F0E3FE02000B00414600
:1061900030000A604B60390004F0DAFED34BD24A7B
:1061A00004F0D6FE434601259860D9606BE0D04BE1
:1061B0009C4200DC8FE0CF4B9C4200DD55E1CE4A93
:1061C000231592469A4451460905631A19001D0089
:1061D000040005F021FA05F055FA02000B0020003A
:1061E00029000892099304F0B3FE0022C34B04F087
:1061F0003DFC0F00060005F00FFA05F043FA04001D
:106200000D0002000B00300039000A940B9504F0D9
:106210009FFE0022B94B04F029FC002200230C90C1
:106220000D9102F063FD002800D192E100230022CD
:106230002000290002F05AFD434243410133B04A95
:1062400041460192022208A80092524600F036FF11
:106250004B460500002B16DA802243461206944670
:1062600042465B68454263445360D3686344D360ED
:1062700009E00B00020041460A604B600022002347
:1062800000258A60CB6028000FB03CBC9046994640
:10629000A246AB46F0BD934B03F0C2FC914B060007
:1062A0000F009C4200D13DE18F4A904B03F0B8FCB7
:1062B00002000B00414630000A604B60390004F0D8
:1062C00047FE894A894B03F0ABFC012543466D42EA
:1062D0009860D960D7E7FFF72BFB8A4A8A4B060004
:1062E0000F0004F0C3FB0022884B03F099FC05F07B
:1062F00093F9050005F0C6F9794A7A4B04900591A7
:1063000004F0B4FB02000B003000390004F020FE62
:10631000754A06000F0004980599744B04F0A6FB1B
:10632000029003911F2D00DCC7E0029A039B30000E
:10633000390004F00DFE83468A4653465B0024155F
:106340005B0DE31A102B6CDD04980599D322674B83
:10635000520504F08BFB02000B0030003900029262
:10636000039304F0F5FD0A00010013000691079263
:1063700002003900300004F0EBFD029A039B04F0A8
:10638000E7FD06000F0004980599614A614B04F08F
:106390006DFB32003B0004F0DBFD069E079F0B0007
:1063A0000200390030000292039304F0D1FD4B004B
:1063B0005B0D83468A46E41A312C32DD0498059938
:1063C000B822544B920504F051FB03000C0002006C
:1063D000029303940B000698079904F0B9FD02009C
:1063E0000B0006000F000698079904F0B1FD029A11
:1063F000039B04F0ADFD484A02900391049805996F
:10640000464B04F033FB029A039B04F0A1FD02000B
:106410000B00300039000292039304F099FD83468B
:106420008A465A465346414630000A604B6039005E
:1064300004F08EFD029A039B04F08AFD44460B0093
:106440000200A260E3604B46002B00DB1BE75B46CB
:10645000236080231B065344636080231B069C46F5
:106460006144A060E1606D420DE70B00020004F0A2
:106470006FFD434600259860D9601860596002E7B7
:10648000D3221A4B520504F063FD214A214B0D0023
:10649000040004F05DFD02000B00414620000A608C
:1064A0004B60290004F054FD1A4B194A04F050FDCA
:1064B000434601259860D960E5E602000B003000F4
:1064C000390004F045FD6B1E154A9B009B5883461E
:1064D0008A46A342A5D130E7FB21E93F7BD90240A0
:1064E00000004054FB21F93F3163621A61B4D03D92
:1064F000FB213941FFFFEF7FEAFBFFFF0000704106
:10650000E8D7000083C8C96D305FE43F0000E03F7A
:106510007370032E8A19A33BC14920259A837B39C6
:1065200068D70000D3220C4B520503F079FB0B4ACD
:106530000B4B04000D0003F073FB02000B004146FF
:1065400020000A604B60290004F002FD034A044B5E
:10655000B9E6032373E6C04661B4D03D7370032EE1
:106560008A19A33BFE22F8B54300041C01005B0816
:106570009205934261D05ADC9B4A934262DC8C22A2
:106580009205934200DCCEE002F0D4FF9749051C4F
:1065900002F0D0FF964902F05BFC291C02F0CAFF12
:1065A000944903F0F9F8291C02F0C4FF924902F063
:1065B0004FFC291C02F0BEFF904903F0EDF8291CA6
:1065C00002F0B8FF8E4902F043FC291C02F0B2FF32
:1065D0008C49061C281C02F0ADFF8B4903F0DCF847
:1065E000291C02F0A7FF894902F032FC291C02F0A5
:1065F000A1FF874903F0D0F8291C02F09BFFFE2180
:10660000890502F025FC011C301C02F0BBFD211C99
:1066100002F090FF011C7F4803F0BEF8011C201C13
:1066200003F0BAF8011C7C4803F0B6F804E003F06C
:10663000B3F8011C02F0A6FDF8BD0020002CFBDC25
:106640007648F9E7002870DBFE20800503F0A4F807
:10665000FC21890502F06EFF041C00F0BBFB6349BE
:10666000061C050B201C02F065FF614902F0F0FBDF
:10667000211C02F05FFF5F4903F08EF8211C02F03D
:1066800059FF5D4902F0E4FB211C02F053FF5B4916
:1066900003F082F8211C02F04DFF594902F0D8FBAB
:1066A000211C02F047FF5749071C201C02F042FF43
:1066B000554903F071F8211C02F03CFF534902F0E8
:1066C000C7FB211C02F036FF514903F065F8211C7D
:1066D00002F030FFFE21890502F0BAFB011C381CD4
:1066E00002F050FD311C02F025FF2D03071C291C70
:1066F000281C02F01FFF011C201C03F04DF8291C70
:10670000041C301C02F0A4FB011C201C02F03AFD0A
:10671000011C381C02F09CFB291C02F099FB011C97
:1067200002F096FB88E73E4886E7FE21890502F0E5
:106730008FFBFC21890502F0FDFE2C49041C02F0B0
:10674000F9FE2B4902F084FB211C02F0F3FE2949DB
:1067500003F022F8211C02F0EDFE274902F078FB3D
:10676000211C02F0E7FE254903F016F8211C02F077
:10677000E1FE234902F06CFB211C02F0DBFE061C4B
:10678000201C00F027FB1F49051C201C02F0D2FE34
:106790001D4903F001F8211C02F0CCFE1B4902F058
:1067A00057FB211C02F0C6FE194902F0F5FF211C1F
:1067B00002F0C0FEFE21890502F04AFB011C301CDC
:1067C00002F0E0FC291C02F0B5FE124902F0E4FFE1
:1067D000291C02F03DFB011C02F03AFB011C114890
:1067E00002F0DAFF28E7C046FFFFFF3E08EF11384E
:1067F000047F4F3A4611243DA80A4E3E90B0A63E73
:10680000ABAA2A3E2EC69D3D6133303F2D57014035
:1068100039D119406821A233DA0FC93FDB0F494053
:10682000DB0FC93FDA0F4940F0B5FE234646D64696
:106830004F464400C0B5051C060064089B059C42F9
:1068400000D18AE07EDC8F4B9C420EDC8E4B9C425A
:1068500000DD8FE08D4902F0FBFAFE21890502F090
:1068600099FA0300281C002B72D1281C02F038F87A
:10687000011CFE20800502F08FFFFC21890502F03B
:1068800059FE8349051C02F055FE824902F0E0FAE8
:10689000291C02F04FFE804902F07EFF291C02F005
:1068A00049FE7E4902F0D4FA291C02F043FE7C49DD
:1068B00002F072FF291C02F03DFE7A4902F0C8FA8C
:1068C000291C02F037FE78498046281C02F032FE6F
:1068D000764902F061FF291C02F02CFE744902F097
:1068E000B7FA291C02F026FE724902F055FF291C56
:1068F00002F020FEFE21890502F0AAFA8146281C3A
:1069000000F068FA6C4B071C9C4200DC7DE04946B5
:10691000404602F037FC391C02F00CFE391C02F034
:1069200097FA011C02F094FA644902F091FA011CF2
:10693000634802F031FF002E0ADC80231B069C46D0
:10694000604405E0011C02F027FF011C02F01AFC64
:106950001CBC90469946A246F0BD594902F0EAFD9A
:106960005849041C281C02F0E5FD011C201C02F003
:106970006FFAEDE7011C02F0DDFD4549041C02F051
:10698000D9FD444902F064FA211C02F0D3FD4249CA
:1069900002F002FF211C02F0CDFD404902F058FA3E
:1069A000211C02F0C7FD3E4902F0F6FE211C02F058
:1069B000C1FD3C4902F04CFA211C02F0BBFD3A49F2
:1069C000061C201C02F0B6FD384902F0E5FE211C31
:1069D00002F0B0FD364902F03BFA211C02F0AAFD9C
:1069E000344902F0D9FE211C02F0A4FDFE218905E4
:1069F00002F02EFA011C301C02F0C4FB291C02F02C
:106A000099FD291C02F024FAA2E7011C040B02F0F4
:106A10001FFA49468246404602F0B4FB011C50462C
:106A200002F088FD24038046211C201C02F082FD18
:106A3000011C281C02F0B0FE391C051C201C02F0B1
:106A400007FA011C281C02F09DFB011C02F000FA51
:106A5000011C1C4802F0A0FE011C404602F09CFEF6
:106A6000211C051C201C02F0F3F9011C164802F041
:106A700093FE011C281C02F08FFE011C124802F03C
:106A80008BFE58E7FFFFFF3EFFFFFF31CAF249715F
:106A900008EF1138047F4F3A4611243DA80A4E3EB4
:106AA00090B0A63EABAA2A3E2EC69D3D6133303F34
:106AB0002D57014039D119409999793F2EBD3B336B
:106AC000DB0FC93F2EBD3BB3DB0F493FF0B5574647
:106AD0004E46DE464546E0B5B04B470089B00C0057
:106AE00006007F089F426EDDAD4B9F421ADC0F23EC
:106AF000AC499F43002800DC71E002F04DFEAA4B38
:106B0000061C9F4200D114E1A84902F045FE011C79
:106B10002060301C02F040FEA44902F03DFE012539
:106B2000606054E0A24B9F426FDDA24B9F4200DDAC
:106B3000F8E0862252429146FB1599444B46DD050A
:106B40007D1B281C03F002F803F020F8011C0590BF
:106B5000281C02F021FE8721C90502F0EBFC8046CB
:106B600002F0F4FF03F012F8011C0690051C4046E9
:106B700002F012FE8721C90502F0DCFC002107901B
:106B800002F0EEF8002800D105E10021281C02F0F7
:106B9000E7F8434243410133874A21000192022230
:106BA00005A800924A4601F031FA0500002E0EDADF
:106BB000802212069446236845426344236063683A
:106BC0006344636003E00023002508604B602800F5
:106BD00009B03CBC90469946A246AB46F0BD02F0D7
:106BE00037F9714B061C9F4200D1C1E06F4902F09A
:106BF0002FF9011C2060301C02F0CEFD6B4902F021
:106C000027F9012560606D42E1E701F069FE6B49FB
:106C1000804602F08FFCFC21890502F019F902F090
:106C200095FF050002F0B2FF5E49814602F082FC4A
:106C3000011C404602F0B0FD5C498046484602F027
:106C400079FC8246011C40461F2D00DC83E002F0E7
:106C5000A3FD83465B46FF22DB0DFF151340FB1AA5
:106C6000082B47DD5649484602F064FC8246011C69
:106C7000404602F091FD8346011C0390404602F01D
:106C80008BFD514602F088FD80464E49484602F091
:106C900051FC414602F080FD011C8246584602F03C
:106CA0007BFDFF22C30D1340D846FB1A8346192BE8
:106CB00020DD4549484602F03DFC039B071C011CB2
:106CC000181C9A4602F068FD011C8046504602F0EE
:106CD00063FD391C02F060FD3C49071C484602F088
:106CE00029FC391C02F058FD011C8246404602F086
:106CF00053FD83465B4659462360404602F04CFDF7
:106D0000514602F049FD6060002E00DB5FE7802302
:106D10001B065B44236080231B069C466044606026
:106D20006D4254E7011C02F037FD002560602060D1
:106D30004DE7234902F030FD2249051C02F02CFDED
:106D4000011C2060281C02F027FD1E4902F024FDD2
:106D5000012560603BE702F01FFDFF233A001C495C
:106D60009A436B1E9B005B5883469A42C2D171E7DF
:106D7000134902F06DF81349051C02F069F8011C73
:106D80002060281C02F008FD0E4902F061F8012580
:106D900060606D421BE70323FEE6C046D80F493F03
:106DA000E3CB1640800FC93FD00FC93F434435376E
:106DB000800F4943FFFF7F7F70D9000084F9223F95
:106DC0000044353708A3852E00A3852E32318D244B
:106DD000F0D800002A49430070B50200041C5B088B
:106DE0008B423BD8002B38D000283EDB2549C61506
:106DF0008B420BD88020000420423DD1002300E0CC
:106E00000B005200591C0242FAD0F61A802352029B
:106E10001B04520A1A437F3E5300F10700D593002A
:106E2000802270101921002600255204AC189C42C3
:106E300002DCA5181B1BB61801395B00520800299B
:106E4000F4D1002B02D0012301369E43FC239B0585
:106E50009C4676106644C005801970BD011C02F086
:106E600069FB211C01F0F4FFF7E7011C02F094FC20
:106E7000011C02F087F9F0E701235B42C5E7C04639
:106E8000FFFF7F7FFFFF7F00F0B54746CE4680B50E
:106E900087B000920193754B4F00814688467F086A
:106EA0009F4263DC04F0B8FB002800D1D4E04A46DE
:106EB00043464846414603F0D9FD04000D006C4AA4
:106EC0006C4B03F0D3FD6C4A6C4B02F0A9FE220020
:106ED0002B0003F0CBFD6A4A6A4B04F039F822001C
:106EE0002B0003F0C3FD684A684B02F099FE2200B4
:106EF0002B0003F0BBFD664A664B04F029F8220024
:106F00002B0003F0B3FD644A644B02F089FE2200BB
:106F10002B0003F0ABFD029003910022604B200098
:106F2000290003F0A3FD029A039B06000F00200036
:106F3000290003F09BFD009A019B04000D004846C8
:106F4000414603F093FD02000B002000290003F0EE
:106F5000FFFF02000B003000390003F0F9FF0200D0
:106F60000B0000204F4903F0F3FF70E002000B001C
:106F700003F07CFD04000D003D4A3E4B03F076FD1E
:106F80003D4A3E4B02F04CFE22002B0003F06EFD0A
:106F90003B4A3C4B03F0DCFF22002B0003F066FD74
:106FA000394A3A4B02F03CFE22002B0003F05EFD12
:106FB000374A384B03F0CCFF22002B0003F056FD7C
:106FC000354A364B02F02CFE2B00220003F04EFD1A
:106FD000354B029003919F429FDD344B00229F422C
:106FE0003DDC334900207B182E4916001F0003F0BA
:106FF000AFFF049005910022294B2000290003F0E7
:1070000035FD32003B0003F0A3FF029A039B06000C
:107010000F002000290003F029FD009A019B0400C5
:107020000D004846414603F021FD02000B00200000
:10703000290003F08DFF02000B003000390003F03F
:1070400087FF02000B000498059903F081FF07B049
:107050000CBC90469946F0BD00201249F7E7154B4D
:10706000002604920593144FC5E7C046FFFF3F3E3C
:10707000D43888BEE9FAA8BDC4B1B4BD9EEE213EA5
:10708000AD529C804F7E923E9015CB19A001FA3EE6
:107090007751C1166CC1563F4C5555555555A53FB6
:1070A0000000E03F0000F03F3233D33F0000E93FF3
:1070B0000000E0FF0000E73F0000D23FF0B5DE46F1
:1070C0004E4645465746E0B5DC4CA5440D911400AC
:1070D0001900A49A0993DA4B9200D6584D1E0390DA
:1070E0001821E01E0696029501F004FDC34301003D
:1070F000DB1719404B1C9A009B1ADB001B190B91E4
:1071000005934C1B771918D4A59BA5009C463F19E5
:1071100022AE6544013707E0286804F0B3FA013471
:1071200003C60435BC4208D0002CF5DA002000214B
:10713000013403C60435BC42F6D1069B002B01DAAC
:1071400000F0FDFB069B03990133DB009A46099B87
:10715000DA00944600920022914672AA0492B94A3B
:107160006144934688469AAB63449B44029B002B40
:1071700000DABCE15D4600260027039C4D442A68E6
:107180006B6803CC03F072FC02000B003000390086
:1071900002F046FD083D06000F004445EFD1049B78
:1071A0004B441E605F6008239C46E144D145DDD11D
:1071B0000EA804218446494261448C46069A9300F5
:1071C0009C44614684460A910399083B63448C467B
:1071D0000C93009B009263449B46009A0498D10054
:1071E00003008C46634408911E685F68002A33DD03
:1071F000954980468C466244D300984470AB9A46C9
:107200000EAB99460022914B3000390003F02EFC62
:1072100004F002FA04F036FA00228D4B04000D004F
:1072200003F024FC02000B003000390003F090FE54
:1072300004F0F2F94B4601C39946434620001A6810
:107240005B68290002F0ECFC08235B429C46E044AA
:1072500006000F00D045D5D1059B30001A0039003B
:10726000984601F0D5FAFF2300229B0504000D008B
:1072700003F0FCFBFEF760FB0022764B03F0F6FB0D
:1072800002000B002000290003F062FE0D00040044
:1072900004F0C2F9814604F0F5F902000B00200069
:1072A000290003F055FE060040460F00002800DCD0
:1072B000EEE0009B18215A1E92000EAB9B58091A53
:1072C0001D000D41A9448D405D1B0EAB9D50172341
:1072D0001B1A1D41002D2DDD01239C46009BE1441E
:1072E000002B00DC1CE20E9C0123002C00D0B5E03A
:1072F000009A012A09D099000EAA54580133002C93
:1073000000D0ACE0009A9A42F5D1059B002B0EDD2F
:10731000012B00D1A8E1022B09D1009B0EA95A1E16
:1073200092000EAB9B5807939B029B0A8B50022D39
:1073300000D1C1E0002300223000390001F0D6FC6A
:10734000009B002800D194E2069A591E8A4210DC64
:10735000414A0A9894460EAA6344944600229B0030
:1073600063441C68043B22438342FAD1002A00D0C4
:10737000C0E0069B0EAA013B9B00D358002B00D017
:10738000B3E001220C9B043B596801320029FAD07A
:10739000009B9C466244110007921A0001338B4205
:1073A00046DC0B9863468046A59C4344A046099C56
:1073B0009B00A1464A449844D30022AA9146049ACD
:1073C00099449446089BA59A634484466144944634
:1073D0009A468B00634400934346586804F052F980
:1073E0004B4618605960029B002B24DB4D46039CE2
:1073F0000026002701E0286869680CCC03F036FB02
:1074000002000B003000390002F00AFC083D0600C3
:107410000F005C45EFD153469E60DF6004239C461D
:107420000433E0449C46009BE144E2449845D3D1B8
:10743000079B0093D1E600260027ECE794FDFFFFB1
:10744000C8DC000018FEFFFFFFFFFF1F0000703EBA
:107450000000704100002040FFFFFF3F002180221C
:107460005204141B0EAA5450009999420EDD0EA826
:1074700084469B000EAA8900D25861446344CF48D9
:1074800000E01A68821A04C38B42FAD101243CE757
:10749000059B002B06D1009B0EAA013B9B00D558F3
:1074A000ED1517E70022C64B300001F043FC002821
:1074B00000D024E100253DE732003B000020C14917
:1074C00003F046FD06000F00002C00D132E7059ABC
:1074D0000020BC4901F09CF902000B00300039008B
:1074E00003F036FD06000F0024E7012250E70026D6
:1074F000002754E64B46059A079388468B000EA951
:10750000CB58183A08950592002B0DD18C46414670
:10751000AD4B43449B006344043B58680139183A1F
:107520000028F9D088460592059A0020A54901F067
:107530006FF9434604000D00002B00DA05E29E00BF
:107540000EAB9C464346DB0066449C46059370ABFD
:107550009946049F67440097306804F093F822002E
:107560002B0003F083FA002238607960974B2000EB
:10757000290003F07BFA083F04000D00043EB945E2
:10758000EAD14AAB03939B4600239A46069B4246A8
:10759000994643460132029204934B46002B00DA8F
:1075A000AAE080208A4B009D9846C00589490026A4
:1075B0000027002408E008239C460835E044544591
:1075C00011DC4346186859682A686B6803F04EFA64
:1075D00002000B003000390002F022FB01340600EB
:1075E0000F00A145E7DA5B46C0C39B4601239C46DA
:1075F000009BE244083B0093029B9A45CDD1049B3B
:107600009846A49B022B00DD8EE0002B37DC1FD1B7
:10761000059B00271D00039B00249C461E0065441B
:10762000083E2A686B683800210002F0F9FA083D2C
:1076300007000C00AE42F4D1089B002B03D080233E
:107640001B069C4664443A0023000D990A604B6077
:107650000720079B18409B239B009D443CBC904601
:107660009946A246AB46F0BD009B0EA95A1E920059
:107670000EAB9B5807935B025B0A8B5057E6434661
:10768000002B00DA70E100200021DB004AAAD618A6
:1076900048AF32687368083E02F0C2FAB742F8D1C8
:1076A000089B002B00D025E10B0002004A984B9963
:1076B0000D9C2260636003F04BFC434607000C0006
:1076C000002B13DD01254CAEB14638002E00210001
:1076D0004C4601360CCC02F0A3FAA146B045F7DACD
:1076E000089B07000C00002B00D015E13A00230096
:1076F0000D998A60CB60ABE70026002773E7012372
:107700009C46009BE1440225002B00DDEBE53200A6
:107710003B0000202B4903F01BFC06000F0009E68C
:107720000024F2E54AAB0393A49B032B00D08FE720
:107730004346002B00DC14E1039ADB009B46130058
:1077400091465B441E685F68234B43440293DB0011
:10775000994448AB9A464B465C681B681800210068
:1077600032003B000090019102F05AFA04000D0033
:1077700002000B000098019903F0EAFB3B00320085
:1077800002F04EFA4B469860D9601C605D60082399
:107790005B429C46E14426002F00CA45DBD14346AC
:1077A000012B00DCE3E0039A13005B441E685F6872
:1077B000029BDB0099464A44904610E0FFFFFF0021
:1077C0000000E03F0000F03FFFFFFF3F0000703E81
:1077D00088DC0000FB21F93FFFFFFF1F984643466E
:1077E0005C681B681800210032003B00009001918A
:1077F00002F016FA04000D0002000B000098019937
:1078000003F0A6FB32003B0002F00AFA4346039A5B
:107810009860D9601C605D60083B26002F009A428A
:10782000DCD14D4694460026002447460835654481
:107830002A686B683000210002F0F2F9083D06006A
:107840000C00AF42F4D1039B4A9F5D689968D868E9
:10785000089B002B65D08022120694460D9B654440
:10786000604464441F605D609960D8601E615C6123
:10787000EEE69A464B460793059B30005A42390084
:10788000089500F0C5FF00223A4B06000F0001F0FA
:1078900051FA002824D0384B00223000390003F080
:1078A000E5F803F0B9FE52460400950003F0EAFE45
:1078B0000022304B03F0DAF802000B0030003900F0
:1078C00003F046FB03F0A8FE0EAA50510122059BCF
:1078D000524418339046059393000EAAD45023E6E1
:1078E0005346300039009C0003F096FE0EAB185151
:1078F000D04619E680230D9A1B06CB181060536002
:107900000B0002004A984B9903F022FB4346070004
:107910000C00002B00DDD5E680231B069C4664444A
:10792000E4E62B003A000D9D2A606B600A0003001C
:10793000AA60EB60320023002A616B6188E6099B34
:10794000DB00009372AB049332E4A49B022B00DDB6
:10795000E8E6002B00DD92E600D079E6002700245F
:107960006AE6002600246EE70020002198E6002643
:10797000340068E7000070410000703EF0B5CE466C
:10798000474680B587B000920193474A4B00814635
:1079900088465B08934207DC4146484603F03CFEBC
:1079A0004146031E484666D04A464346484641463D
:1079B00003F05CF804000D0002000B00484641464D
:1079C00003F054F8394A3A4B06000F002000290012
:1079D00003F04CF8374A384B03F0BAFA22002B0078
:1079E00003F044F8354A364B02F01AF922002B0016
:1079F00003F03CF8334A344B03F0AAFA22002B0080
:107A000003F034F8314B324A02F00AF90E9B02902F
:107A10000391002B34D00098019900222D4B03F0E4
:107A200025F8029A039B049005913000390003F079
:107A30001DF802000B000498059903F089FA220052
:107A40002B0003F013F8009A019B03F081FA224AFD
:107A500004000D00214B3000390003F007F802004C
:107A60000B002000290002F0DBF802000B00484662
:107A7000414603F06DFA07B00CBC90469946F0BD44
:107A800002000B002000290002F0F0FF124A134B05
:107A900003F05EFA32003B0002F0E8FF4A4643463C
:107AA00002F0BEF8E7E7C046FFFF3F3E7CD5CF5A65
:107AB0003AD9E53DEB9C2B8AE6E55A3E7DFEB1576F
:107AC000E31DC73ED561C119A0012A3F1111813FB5
:107AD000A6F810110000E03F495555555555C53FD2
