:10200000008000204D3F0000353F0000353F0000BC
:1020100000000000000000000000000000000000C0
:10202000000000000000000000000000353F00003C
:102030000000000000000000353F0000A13F00004C
:10204000353F0000353F0000353F0000713900008A
:10205000353F0000353F0000353F0000393F0000AC
:10206000353F0000353F0000353F0000413900009A
:10207000353F0000853E0000753E0000353F000002
:10208000353F0000353F0000353F0000353F000080
:1020900000000000353F0000353F0000353F0000E4
:1020A000353F0000353F0000353F0000353F000060
:1020B0000000000010B5064C2378002B07D1054B1B
:1020C000002B02D0044800E000BF0123237010BDA4
:1020D000C00200200000000028FC0000044B10B5E6
:1020E000002B03D00349044800E000BF10BDC046E8
:1020F00000000000C402002028FC0000030010B50E
:102100001B790068002B01D00123594002F0C0FA6E
:1021100010BD10B50400080021602271012102F0F9
:102120006BFA20000021FFF7E9FF200010BD00003E
:10213000030010B51B790068002B01D0024B591A1F
:1021400002F070F910BDC046FF030000F8B50400AE
:1021500008201D000F1C161C04F048FC0023206002
:10216000A760E660256120006361A3616360E361AD
:10217000F8BD000070B50E0041680400012002297E
:102180000FD0084D0A22280002F0DDFB61682268AA
:102190008B0001319E50280061600A2202F0D3FBBF
:1021A000002070BDD80A0020F0B58DB001900891D4
:1021B0001000190000F036FC00230A900AA80B93C7
:1021C0000AF03EFFC069013008F046FF019B041C85
:1021D000BE49986808F03CFA089B0090002B00D19B
:1021E0004CE1011CBA4808F03DFDBA4908F030FA4C
:1021F000211C08F093F80AF017FDB74AB74B02907C
:10220000039109F099FEB64AB64B0AF007F90AF0B5
:102210005DFD0AF009FDB44AB44B04000D0009F05D
:102220008BFE04F06DFEB04AB14B06000F0020009B
:10223000290009F081FE04F063FEAE4A0490059186
:10224000AD4B3000390009F077FE22002B0008F07A
:102250004DFFAA4A04000D0004980599A84B09F007
:102260006BFE02000B002000290008F03FFFA54A8A
:10227000A54B08F03BFF0022A44B04F03FFF0AF0FF
:1022800025FD0021051C07F0B9FFA149002800D059
:10229000F7E0281C07F0C6FF002800D0F5E0281C56
:1022A0000AF0C2FC904A914B09F046FE06000F006E
:1022B00004F06EFE974A984B09F03EFE04F0A6FB30
:1022C000964A974B09F038FE0022904B04F016FF17
:1022D0000AF0FCFC0021041C07F090FF8C49002848
:1022E00000D0D7E0201C07F09DFF002800D0D5E0EB
:1022F0008C49281C08F0ACF904F0B6FE8949051C8D
:10230000201C08F0A5F904F0AFFE86490490281CB3
:1023100008F076FB8349051C049808F071FB011C4A
:10232000281C08F09FFC211C07F0F8FF674908F003
:102330008FF939000990300004F0E2FD7A4A7B4BB6
:1023400009F0FAFD0AF0C2FC041C04F095FF04F049
:102350004DFE019B051CD8680AF066FC624A634B7F
:1023600009F0EAFD06000F0004F0CAFD0490059193
:102370003000390004F0DEFC06900791201C0AF0C2
:1023800053FC049A059B09F0D7FD02000B00684836
:1023900068490AF043F80600281C0F000AF044FCC4
:1023A000069A079B09F0C8FD0B00020039003000B7
:1023B00009F0B8F90AF08AFC089B002B00D172E002
:1023C00004F008FF0AF030FC544A554B09F0B4FD04
:1023D00002000B0000204D490AF020F80AF076FCBC
:1023E0003A4908F035F9099907F098FF0AF01CFC02
:1023F000514A04000D0002980399504B09F09CFDCE
:1024000002000B00200029000AF008F84C4A4D4B4E
:102410000AF004F80AF05AFC009908F023FC0AF0CC
:1024200003FC0022484B04F069FE04000D00019BF0
:1024300018690AF08DFB22002B0008F057FE0AF005
:1024400045FC0021041C07F0D9FE2249002833D1A5
:10245000201C07F0E7FE002832D10A980B9907F0FC
:102460002BFF3A49051C201C08F0CAFA011C281C45
:1024700007F054FF07F0EAFE0DB0F0BD00993448B4
:10248000B1E6281C07F04AFFFBE62149281C08F0AA
:10249000E9FBF6E6201C07F041FF1BE71C49201C66
:1024A00008F0E0FB16E704F095FE0AF0BDFB1B4ABE
:1024B0001B4B09F041FD91E7201C07F02FFFC0E7FF
:1024C0000449201C08F0CEFBBBE7C0460000704169
:1024D0000000C0400000C041D200DE02098AEF3F88
:1024E0001D5A643BDF4F0A40399D52A246DF913F9F
:1024F00046DFA13F0E2DB29DEFA7FE3F7B14AE47F6
:10250000E17A943FA01A2FDD24AA71400080764022
:102510000000B443CC0BB08F4E5DED3FF8C1631AA1
:10252000DCA54C400000B4424B766C04E275D93F08
:1025300090693140B1AA8DBF352905DD5ED2B03F2B
:10254000B0726891ED7C1A4000003840000061458F
:1025500000009041F8B500230A000E0019000400A5
:10256000FFF722FE3A4D070086423ED9394928003E
:1025700002F09CF90123320019002000FFF714FE3D
:1025800001232062320000212000FFF70DFE07002A
:102590002800314902F079F939000A22280002F0B6
:1025A000F6F928002D4902F070F90A22216A280064
:1025B00002F0EDF928002A4902F067F9236A0A229D
:1025C000F91A280002F0E3F9236A0521F81A60627B
:1025D00007F04EFC2349A061280002F056F92800BC
:1025E0000A22A16902F0D3F9F8BD002332000121CB
:1025F0002000FFF7D9FD2062B04211D91A49280006
:1026000002F054F9236A0A22991B280002F0AFF95C
:102610001649280002F039F9206A00F0FBF9B7E703
:10262000BE42B5D21249280002F040F9236A0521C2
:10263000F01A07F01DFC05366061E6610D492800BF
:1026400002F023F90A226169280002F0A0F99FE74D
:10265000D80A002084EC0000B8EC0000C2EC0000B6
:10266000CDEC0000D9EC00008DEC000097EC0000F0
:10267000A7EC0000DDEC000073B5060008000AF0CE
:10268000A1FA164A164B09F057FC0400B0690D0078
:102690000AF098FA02000B002000290009F042F825
:1026A000104A114B08F022FD04F02AFC812300227D
:1026B000DB0509F041FC81230022DB0508F016FD53
:1026C00004F082FB0AF00EFA8022084BD20000933D
:1026D0000021642304F0F0F876BDC046182D445460
:1026E000FB211940D221337F7CD91240FF03000027
:1026F000C369F7B50400002B0CD000F06DF9E56953
:102700000190854206D86169A369994203D30023E9
:10271000E3616361F7BD019B0A221B485D1B02F068
:1027200036F9042D13DD60690AF04CFA06000F003B
:102730002800052107F026FC0AF00AFA02000B0027
:102740003000390008F0D2FC07F098FD6061616943
:102750002000FFF791FF0A22010005000A4802F05D
:1027600016F900266368B34207DD2268B30029002A
:102770009858FFF7DDFC0136F4E7019B0533E36170
:1027800063690133C5E7C046D80A002010B50400CC
:1027900000F022F90023E061636110BD10B5044927
:1027A000044802F083F8044B186804F023F910BDC4
:1027B000E4EC0000D80A0020F802002010B504491B
:1027C000044802F073F8044B1868FFF7DFFF10BDF0
:1027D000EFEC0000D80A0020F002002070B51500D0
:1027E0000C0001001A2000F041FF29001B2000F01E
:1027F0003DFF2100192000F039FF70BDF7B5002220
:10280000FF201100FFF7EAFF9621344C89012000D8
:1028100002F078FD324801F007FC0022A521FF20DC
:10282000FFF7DCFF2F49200002F040F801210620CD
:1028300001F0E2FE0A2001F051FD082004F0D2F878
:10284000040001220021FFF764FC274F08203C60B0
:1028500004F0C8F8040000220421FFF75AFC234EBC
:102860002820346004F0BEF8052305005B42204AAE
:102870002049FFF76BFC204C396828002560FFF7E2
:1028800079FC1E4D31682068FFF774FC00F09CF85D
:102890001B4800F0B1F8280000F0A6F829002068D5
:1028A000FFF758FE402004F09DF80D4B0400019303
:1028B000FA239B00134A00931349002300F0D8F831
:1028C000124D200012492C6000F07FF92868114950
:1028D00000F07DF9104B114A1A60F7BDD80A0020AC
:1028E00010270000F7EC0000E8020020EC020020B6
:1028F00044449841DE5DC4C2F002002086429C5EE2
:10290000BD27000003ED000013ED0000F4020020DD
:10291000992900009D270000E402002018FCFFFF19
:1029200070B501F04BFB134E01000500306800F05C
:1029300015F90400306800F047F90F4B1868FFF7ED
:10294000D7FEFA210D4A890013685B18AB420CDAF6
:102950001560221E0AD0032C02D08022082C05D13B
:102960000022FF211000FFF739FF70BD0021FF207A
:10297000F9E7C046F4020020F0020020E402002043
:1029800007B50021034800910B000A0001F046FF43
:1029900007BDC046DC02002010B50849084801F018
:1029A00085FF102004F01EF80400502100F0A4FA66
:1029B000044B20001C6000F07CFA10BDE7EC000026
:1029C000D80A0020F802002010B50021014801F0CB
:1029D0006BF910BDFC02002010B5024801F00EF9A1
:1029E00010BDC046FC02002010B50100014801F0F6
:1029F000A9F810BDFC02002010B5054C0100200014
:102A000000F0D8FF0621200000F0C0FF10BDC04636
:102A1000FC02002010B50100014801F06BF810BD68
:102A2000FC02002070B50D000A49040007F0A6FA68
:102A3000641A002D01D0074BE418074D0749280000
:102A400001F034FF28000A22210001F086FF200057
:102A500070BDC04680510100D80A00201EED000064
:102A600010B5024800F080FF10BDC046FC020020F7
:102A7000F0B50400070026001E4D85B00C3701910B
:102A80003800290018360292039303F061FF2900F1
:102A9000300003F05DFF184800F0CFF91749FF2818
:102AA00005D000F07BF9164B984208D2154916481C
:102AB00001F0FCFE00232370200005B0F0BD0123CF
:102AC00023706B4600251B7B0199237265603800DB
:102AD00003F05DFF0299300003F059FF0A9BE562A5
:102AE00023630B9B6562A36223003433A563E56314
:102AF0001D70E1E756F10000480300202DED0000B5
:102B000027ED000054ED0000D80A0020037810B52E
:102B10000400002B08D0037A012B07D18269C16819
:102B2000064800F085F96060606810BD002BFBD19D
:102B30008269C168014800F035F9F4E748030020D4
:102B4000027A4368012A05D10020073B9A4240419E
:102B5000C0B27047033B58425841F9E7F8B50378D3
:102B600004000D00002B29D0C36A8B4214D21548F3
:102B700000F063F9236B27005B196060E3622000BB
:102B8000FFF7DEFF34373B780600834204D000288D
:102B900012D0A36B98473E70636AAB420AD2200002
:102BA000FFF7CEFF002805D12000FFF7AFFFA36A93
:102BB0005D1965626068F8BDE36BEBE70120404298
:102BC000F9E7C04648030020704781637047C1633E
:102BD0007047000007B50021034800910B000A0070
:102BE00001F01CFE07BDC04600030020037D002B42
:102BF00004D14375837583610133037570477FB5D5
:102C0000C36802AD04000E0002916A608B4203D1DA
:102C1000028AAB889A4218D02000062229000C3084
:102C20000AF04EFB206801F0C4FF6B79227AE1794B
:102C300000932068002302F045F9206829793200CA
:102C400001F088FF206801F0AAFF7FBD70B518264B
:102C50000400FFF7CBFF3300082120790D4D4343DB
:102C6000EB18595601F058FD33000821A079434371
:102C7000EB18595601F050FD082160794643AD1913
:102C8000695601F049FD044B200006CBFFF7B7FF62
:102C900070BDC046D8ED00004003002007B5437D5D
:102CA00000910192002B07D09A070AD5EFF3108309
:102CB0005A425341837572B60099019AFFF79FFFFC
:102CC00007BDDB07F8D58369014A9BB29360F3E740
:102CD00000180040437D002B05D09A0704D5837D62
:102CE000002B00D062B67047DB07FCD58369024A2F
:102CF0009BB2D360F7E7C0460018004010B50068EB
:102D000001F060FF10BD0000114A124B1249136020
:102D1000002353711371114A11601149D3609180DE
:102D2000092191710639537413741375D37111729B
:102D30000C4AD3605374137413750B4BD171136029
:102D40000A4B93801D2393711C3B13727047C0463E
:102D50004003002000093D00B40A002008030020C1
:102D60000A08000024030020C00A00201B1A0000EB
:102D700070B5060001F022F90024050001F01EF9EB
:102D80003368401B984207D2642001F04DF900F0EF
:102D9000D5FB04000228F1D9200070BD10B500F069
:102DA000F5FB10BDF8B5060008000D0017000AF08D
:102DB000F5FD040038000AF0F1FDE1B2C3B23A00BB
:102DC000280000F079FB0424431C11D001F0F6F830
:102DD0000024050001F0F2F83368401B984207D246
:102DE000642001F021F900F0A9FB04000228F1D9C8
:102DF0002000F8BDF0B5070085B0080016000D00F2
:102E000003930AF0CBFD040030000AF0C7FD039ADB
:102E1000C3B20092E1B23200280000F0DFFB0300F1
:102E20000920013302D03800FFF7A2FF05B0F0BD42
:102E300010B50123FFF7DEFF10BD10B500F07EFBDB
:102E400010BD000007B5002104480B000A000091E6
:102E500001F0E4FC024B034A1A6007BD4C0300205A
:102E60004803002050C300000020704707B5002130
:102E7000034800910B000A0001F0D0FC07BDC046DA
:102E80005403002007B50021034800910B000A00FD
:102E900001F0C4FC07BDC0465C030020704713B5B9
:102EA0006B460268D9710733546819000122A047A4
:102EB00016BD10B5040000F03DF901002072FF2896
:102EC00003D06089002200F06FF810BD70B50500D6
:102ED000002A04D1012300246B60200070BD92B24F
:102EE000007A00F09DF8041EF4D0287A00F0D8F89B
:102EF0000028EFD0F1E70000044B41810833036064
:102F000000234360013B03817047C04698ED0000F9
:102F100007B50021034800910B000A0001F07EFC78
:102F200007BDC0466403002007B500210348009197
:102F30000B000A0001F072FC07BDC0466C030020C4
:102F400010B50400782200210AF0C3F9200010BD5A
:102F500010B50C244C4304192068002805D00AF051
:102F600093F9002363602360A36010BD70B5050072
:102F70000024210028000134FFF7EAFF0A2CF8D1D1
:102F8000280070BD10B5054C2000FFF7D9FF044A9A
:102F90000449200003F032FD10BDC0467403002038
:102FA000000000206D2F00007FB56B46DD1D9C1DCD
:102FB0001A4B06001B7829702270002B01D100F0FB
:102FC000E1F800F077F900F035F90321282000F04E
:102FD0005FFA3000002100F049FA280000220121A8
:102FE00000F0A4F901222000110000F09FF900F088
:102FF0007DF900F045F900F05DF900F01BF90E22B3
:103000000F2300216A446B4411701970282001318C
:1030100000F0B4F900F034F97FBDC046ED030020A4
:103020007FB56B46DD1D1D4B0E001B78140028700C
:10303000002B01D100F0A6F800F03CF900F0FAF8FE
:103040000221442000F024FA00220121280000F08F
:10305000F8F930000122210000F0F3F903262500E1
:10306000093535400134002D02D000F03FF9F6E774
:103070000E2400F005F900F01DF900F0DBF80D2238
:103080006C446A44210044201570258000F0AAF9A0
:1030900000F0F6F8208804B070BDC046ED030020B3
:1030A000F0B50E2585B06B46002401262A276D4415
:1030B000D8712C70DC731E4B1B78002B01D100F0F3
:1030C00061F800F0F7F800F0B5F83100380000F0D2
:1030D000DFF96B4632003100D81D00F027F900F00F
:1030E00005F900F003F900F0CBF800F0E3F800F088
:1030F000A1F80F232A006B443100380000F03EF99C
:1031000000F0BEF82B78002B0FD101346420A4B25C
:1031100000F08AFF2B78002B01D1182CCBD9193C59
:10312000601E8441E0B205B0F0BD0024F2E7C04665
:10313000ED030020124B13B51B78002B01D100F0DA
:1031400021F800F0B7F800F075F800213F2000F0FA
:103150009FF900F095F800F0ADF800F06BF86B46C1
:103160009C1DFF2323706B46002207331A70012138
:1031700022003F2000F002F900F082F8207816BD0E
:10318000ED030020F8B51C23234E244F3370244C4C
:1031900007333B70BD33237000F0EEFD214DDF2877
:1031A00004D801232B702378DB4323701E48FFF7DC
:1031B0004DFD3078012101F01FFA3878002101F02F
:1031C0001BFA2078012101F017FA01211E2001F0DD
:1031D00013FA01211E2001F05BFA3078012101F081
:1031E00057FA2978207801F053FA0A2000F01CFFE2
:1031F000297801252078694001F04AFA0B4800F04F
:1032000013FF00211E2001F043FA00211E2001F0CF
:10321000F3F9074B1D70F8BD0600002004000020E4
:1032200005000020EC03002024030020EE02000033
:10323000ED03002013B500246B465C711C71019AEC
:103240000B490C48FFF72AFD0B4B2100187801F0C1
:103250001FFA00F0B3FE0400084B187801F044FA9E
:10326000012804D000F0AAFE001B0428F4D913BDE5
:1032700000127A0024030020060000200400002031
:1032800010B5044B0121187801F002FA0248FFF74B
:1032900021FD10BD060000202403002007B56B4669
:1032A000D871D9790248C9B2FFF728FD0EBDC046D2
:1032B0002403002010B5034B187801F015FA0028FC
:1032C000F9D110BD0400002010B50400FF20FFF765
:1032D000E5FF207010BD70B50C0005000800FFF779
:1032E000F3FF2078401B4342584170BD13B56B4635
:1032F000DC1D002320002370FFF7E6FF207816BDB9
:1033000070B50500084CFFF7F1FFEF2808D0013C2D
:10331000002C01D0A842F6D1401B4342584170BD59
:1033200001204042FBE7C046E9030000F8B5050074
:1033300008000E0017002C00FFF7B0FF631B9E4231
:1033400004DD2078FFF7AAFF0134F7E7012F02D14F
:10335000EE20FFF7A3FFF8BD10B50400000AFFF749
:103360009DFFE0B2FFF79AFF10BD10B50400FF20EB
:10337000FFF794FF002C00D0207010BDF0B585B091
:103380001F0002ABDC1D00230500E02001911600A8
:103390002370FFF7B5FF002802D1002005B0F0BD73
:1033A0002000FFF791FF802223781543AB42F4D130
:1033B0002000FFF789FF2378019A9342EDD138006E
:1033C000FFF7D3FF35003A78AB1B9A4204DD2800A3
:1033D000FFF77AFF0135F6E72100EE20FFF77BFFCC
:1033E0000120DBE7F7B56B46DC1D00230500E0207C
:1033F0000E0017002370FFF783FF002801D1002083
:10340000FEBD2000FFF760FF802223781543AB420A
:10341000F5D1FFF76BFF00280DD03800FFF7A5FFAF
:1034200035003A78AB1B9A4205DDFF20FFF736FFE7
:1034300028700135F5E72100EE20FFF74CFF012051
:10344000DEE770B504000D0008001600FFF784FFEA
:103450006519AC4204D02078FFF720FF0134F8E76B
:10346000012E02D1EE20FFF719FF70BD70B50400E8
:1034700002200D00FFF712FF200AFFF70FFFE0B256
:10348000FFF70CFF012D02D1EE20FFF707FF70BD03
:1034900070B50400E0200D00FFF700FF7F20204002
:1034A000FFF7FCFE2800FFF7F9FE002D02D1EE2009
:1034B000FFF7F4FE70BD0000F7B51D001E4B0700BE
:1034C0001B780C001600002B01D1FFF75BFEFFF705
:1034D000F1FEFFF7AFFE02211120FFF7D9FF210017
:1034E00000223800FFF722FF300001222900FFF7F9
:1034F0001DFF0326063464192500354003D0FFF76D
:10350000F5FE0134F8E7FFF7BBFEFFF7D3FEFFF748
:1035100091FE6B469C1D220007330121112025706E
:103520001D70FFF72BFF002801D1FF232370FFF749
:10353000A7FE00202056FEBDED030020124B13B560
:103540001B78002B01D1FFF71DFEFFF7B3FEFFF73D
:1035500071FE00212020FFF79BFFFFF791FEFFF790
:10356000A9FEFFF767FE6B469C1DFF2323706B4689
:10357000002207331A70012122002020FFF7FEFEEF
:10358000FFF77EFE207816BDED030020114B13B52A
:103590001B78002B01D1FFF7F5FDFFF78BFEFFF73E
:1035A00049FE00213720FFF773FFFFF769FEFFF7A1
:1035B00081FEFFF73FFE6B460022074C07331A706F
:1035C000012122003720FFF7D9FEFFF759FE200026
:1035D00016BDC046ED030020F8030020F7B51E001D
:1035E000214B07001B780D001400002B01D1FFF7C1
:1035F000C9FDFFF75FFEFFF71DFE03211920FFF74E
:1036000047FF002229003800FFF790FE310020001C
:103610000022FFF78BFE012208A811002C1DA4191F
:10362000FFF784FE03262500354003D0FFF75EFE3A
:103630000134F8E7FFF724FEFFF73CFEFFF7FAFD41
:103640006B469C1D220007330121192025701D7037
:10365000FFF794FE002801D1FF232370FFF710FE2F
:1036600000202056FEBDC046ED03002030B585B0D9
:103670006B46DD1D9C1D1B4B28701B782170002B99
:1036800001D1FFF77FFDFFF715FEFFF7D3FD022104
:103690005220FFF7FDFE002201212800FFF746FE21
:1036A000012220001100FFF741FE0E24FFF71EFE4D
:1036B000FFF7E6FDFFF7FEFDFFF7BCFD0F2300223D
:1036C0006C446B4422701A70012122005220FFF7D3
:1036D00055FE002801D1FF232370FFF7D1FD05B06F
:1036E00030BDC046ED03002007B50021034800911E
:1036F0000B000A0001F092F807BDC046F00300205D
:10370000F8B505000E0017000024BC4208D02B6855
:10371000315D1B6828009847002801D00134F4E788
:103720002000F8BD70470300FC33196ADA69914242
:1037300003D01B6AC018007E704701204042FBE79F
:103740000300FC33D8691B6AC01A01D50130FF3071
:1037500070470000F7B50193FA2380260025040086
:103760009B008360124B760008330F0045602900F0
:10377000009203603200183009F0ABFD23002000F6
:10378000FC332130DD6132001D622900FF3009F079
:10379000A0FD87239B00E3185D609D606B461B784E
:1037A000276123756B461B79A57520006375FEBDE7
:1037B000B4ED0000020010B5FC3253689468013388
:1037C000DBB29C4202D054680155536010BD002208
:1037D00010B5837D93420DD087239B00C418636886
:1037E000A4680133DBB2A34204D02130FF30FFF7DD
:1037F000E1FF0122100010BD0300FC3399685A68F4
:10380000914206D09A68805C9A680132D2B29A607E
:10381000704701204042FBE710B51830FFF7ECFF7E
:1038200010BD70B50400006901F090FA002814D0B2
:10383000206901F099FA002810D0206901F004FAFB
:103840000321206901F00AFA8C239B00E558002D22
:1038500039D10023FC34E361236270BD206901F09B
:103860008DFA002809D0206901F083FA002804D0DD
:10387000206901F088FA0028DFD0206901F07EFA83
:10388000002826D1206901F06AFA0028E5D02069D5
:1038900001F079FA002837D087239B00E21853689B
:1038A00092689B1A01D50133FF33FF21002B05D00D
:1038B00020002130FF30FFF79FFFC1B2206901F0E7
:1038C00037FAA075C9E7236820001B699847A84705
:1038D000BFE7206901F0B8F92069032101F0BEF9C2
:1038E000206901F050FA0028B7D0872300229B00FE
:1038F000E3185A609A600123A3758B239B00E35859
:103900009342AAD09847A8E72200FC32D369126AF2
:103910000133DBB22069934206D101F08CF9032117
:10392000206901F09BF998E701F032FA01002000CC
:103930001830FFF73FFF206901F086F9EFE700003C
:1039400010B50248FFF76DFF10BDC046000400200F
:1039500010B50C230B2202490248FFF7FBFE10BDF5
:10396000B80A002000040020002303707047000004
:10397000044B10B51B68002B00D098470122024B66
:103980001A7210BD3406002000140040037810B5F0
:10399000002B0BD00724064B21401A7F0800A243BE
:1039A0001100014319779A7AD209FCD110BDC046A3
:1039B00000140040014B19607047C04634060020D7
:1039C000037810B5002B0BD03F24064B21409A6999
:1039D0000800A2431100014399619A7AD209FCD1EF
:1039E00010BDC046001400400378002B0BD03F20D0
:1039F000054B08409A6905498001114001439961CE
:103A00009A7AD209FCD17047001400403FF0FFFFC2
:103A10000378002B0BD01F20054B08409A690549FD
:103A200000031140014399619A7AD209FCD1704791
:103A300000140040FF0FFEFF70B51600027804006E
:103A40000D00002A0AD01900FFF7BAFF310020004C
:103A5000FFF7CAFF29002000FFF7DAFF70BD000062
:103A60000378002B0BD01F20054B08409A690549AD
:103A700040041140014399619A7AD209FCD1704700
:103A800000140040FFFFC1FF0378002B0BD00F2074
:103A9000054B08409A690549800511400143996129
:103AA0009A7AD209FCD1704700140040FFFF3FFC16
:103AB0000378002B09D0054A880693699901890982
:103AC00001439161937ADB09FCD1704700140040F7
:103AD00070B51D00037804001600002B09D0FFF715
:103AE000BFFF31002000FFF7CFFF29002000FFF7C4
:103AF000DFFF70BD037837B50500002B1ED0104BDB
:103B0000994200D21900002368460091019309F000
:103B100093F9040043690269C168643B0132DBB276
:103B2000D2B2C9B22800FFF7D3FF23686268A16848
:103B3000DBB2D2B2C9B22800FFF77EFF37BDC04664
:103B400080436D38037813B5002B28D0144B99426D
:103B500000D21900002368460091019309F06CF926
:103B60000F2102694369C46801320A40643B103185
:103B700092050C409B066404134323433F24826850
:103B8000114042680903224092010B43134302682B
:103B900022401343034A1361937ADB09FCD113BD1E
:103BA00080436D3800140040094B0A4A9A605A78E5
:103BB00052B2002AFBDB084A5A605A7852B2002AF5
:103BC000FBDB064A5A805A78D209FCD17047C046BE
:103BD000000C004002040000020511000442000035
:103BE0000378002B05D0034B034A5A809A7AD209F6
:103BF000FCD17047001400400080FFFF00B58BB07F
:103C0000FFF7EEFF01220F4B52421B69099200227F
:103C1000089207929A0E643206929A01120F013AA4
:103C200005929A02D20E0492DA03D20E03921A057A
:103C30009B06920E9B0E01A80292019309F01CFCB8
:103C40000BB000BD001400400221044B1A888A43C7
:103C50001A809A7AD209FCD17047C04600140040FD
:103C60000222044B19880A431A809A7AD209FCD19D
:103C70007047C046001400400122044B19880A43D3
:103C80001A809A7AD209FCD17047C04600140040CD
:103C90000121044B1A888A431A809A7AD209FCD1EE
:103CA0007047C046001400402023F7B500262A4A7A
:103CB0000F00916905000B439361284B284A294C5A
:103CC0009A82B7420BD1284B3E001A7870231A42D1
:103CD00005D023881B0702D50126236901932800FC
:103CE000FFF762FF2800FFF7AFFF2800FFF7C4FFD0
:103CF00063881E4A134063801D4B2380A37ADB092F
:103D0000FCD1C0211B4A08331360890053581B02A1
:103D10001B0A53500123E27913430722E371237FE7
:103D200093432377A37ADB09FCD12800FFF798FFA0
:103D30002800FFF7ADFF002F0BD1002E09D0019B0B
:103D4000002B06D02361A37ADB09FCD101332B7051
:103D5000F7BD8423DB03F5E70004004000080040C2
:103D6000CE0600000014004038040040FFBFFFFFF3
:103D7000080A000000E100E02420704770B501212E
:103D8000202000F039FC0021202000F081FC0A20D6
:103D900000F04AF90021202000F02EFC642000F001
:103DA00043F9202000F0D2FA962305009B002F4C07
:103DB000984222D92E49200001F0AAF8200000F0F4
:103DC0001BFF03210B2000F0A7FC03210C2000F0B7
:103DD000A3FC00226B21200000F056FF01212000EF
:103DE00000F094FF1B21200000F090FF2000032131
:103DF00000F034FF200000F014FF1D49200001F006
:103E000087F8200000F0F8FE03210B2000F084FC6E
:103E100003210C2000F080FC00226B21200000F028
:103E200033FF0721200000F071FF96232B219B0018
:103E30009D4200D92039200000F068FF03212000B6
:103E400000F00CFF200000F0ECFE01211E2000F02D
:103E5000D3FB01211E2000F01BFC01211F2000F0DC
:103E6000CBFB01211F2000F013FC70BDB80A00201D
:103E7000A086010010B5024802F037FC10BDC04614
:103E80003806002010B5024802F02FFC10BDC046D5
:103E9000740800207FB51949194800F0D1FD19496F
:103EA000194800F0CDFD1949194800F0C9FD19491C
:103EB000194800F0C5FD194C1949200000F0C0FD5B
:103EC000184E1949300000F0BBFD012503233100D5
:103ED000019500930D220B33144802F09BFB1D2328
:103EE0000393013B02931A3B0193009518331B2265
:103EF00021000F4802F04AFB7FBDC0460008004287
:103F0000B00A0020000C0042B40A00200010004259
:103F1000B80A002000140042BC0A0020C00A002099
:103F200000180042C40A0020001C0042380600208D
:103F300074080020FEE70000034B10B51B68002B3F
:103F400000D0984710BDC046C80A002070B50F4980
:103F50000F4CA14204D100F08FF802F023FDFEE7E0
:103F60000C4D00238D42F6D0CA18E818A24205D3A2
:103F7000094B8242EFD00949002204E00068043373
:103F80001060F1E704C38B42FCD3E4E7000000209B
:103F9000C002002034FC0000C002002034110020C8
:103FA00010B500F066F8002801D100F057F810BDF8
:103FB000014B18607047C046C80A0020014B1868C2
:103FC0007047C046CC0A0020F7B51348012284464A
:103FD0001249134C8E68636805689B0E134001926A
:103FE00088686268019F920E3A4067463F68934234
:103FF0000ED1BD420CD186420AD35B19FA2548681E
:10400000AD00861B07486B437043000DC018FEBD12
:104010003D0013000600E3E7CC0A002010E000E0BA
:1040200000ED00E05555000070B5041E10D0FFF7FC
:10403000CBFF050000F01CF8FFF7C6FF054B401B47
:104040009842F7D9FA23013C9B00ED18002CF3D1DC
:1040500070BDC046E70300007047000010B5034A7A
:1040600013680133136000F0AFFC10BDCC0A0020D0
:1040700070470020704700001E2270B5464847492F
:10408000436893431C3A1343436008238C692343DA
:104090008B61434C434B9C829C8A14439C82DC681A
:1040A0001442FCD00124404A14701578254203D0F4
:1040B00055786DB2002DF8DB01249460547864B219
:1040C000002CFBDB394C5460547864B2002CFBDBD1
:1040D0008224E4015480547864B2002CFBDB022477
:1040E0009C840E34DD682542FCD0314CDC62102407
:1040F000DD682542FCD09D8C2E4C2C439C841024E2
:10410000DD682542FCD002249D8C80262C439C84B3
:104110004024DD683542FCD0DD682542F9D010240A
:10412000DD682542FCD000249460547864B2002CF1
:10413000FBDB214C5460547864B2002CFBDB1C6A1E
:104140001E4D2C4080251C621C6AAC431C6203235C
:1041500093601B4B536053785BB2002BFBDB002357
:10416000FF240B72174A4B728B72CB72164B1A607C
:10417000164B174A1B6811689A065B01C90E23404B
:10418000520F12020B431343124A138580234268D5
:104190001343436070BDC04600400041000400402E
:1041A0000C06000000080040000C00400105010062
:1041B000B905FF7D040A000000070300FFFCFFFFB4
:1041C00003060100006CDC02200000202460800057
:1041D0002060800000400042FA21314B10B5186881
:1041E000890005F045FE2F4B0138984256D82E49DC
:1041F0002E4A4860C020136A00061B021B0A0343B4
:104200001362002407238C600B608021136A090667
:104210001B021B0A0B431362FC22254B196A0A433B
:104220001A62FC22196A92010A431A62A022196AD0
:10423000D2020A431A6220000021013400F0DCF9A6
:104240000F2CF8D11B4B1C005A7852B2002AFBDB12
:10425000194A5A80194B1A00597EC9090129FBD005
:10426000E421C90099803F21D970537EDB09012BDD
:10427000FBD0C02300205B011361907000F034F884
:1042800063785BB2002BFBDB0D4B0E4A6380D37966
:10429000DB09012BFBD04123537010BDFEE7C04664
:1042A00020000020FFFFFF0010E000E000ED00E034
:1042B00000040040000C00401E400000004000428E
:1042C0002140000000480042914202D002D98A1ADF
:1042D000D0407047521A9040FBE70000014B186035
:1042E0007047C0462C000020164A00B51300517ECE
:1042F000C9090129FBD00138042816D81969124AC6
:104300000A400F211A615A788A4305F0A7FD030875
:10431000060B0300110001220A435A7000BD110070
:104320000322F9E711000222F6E7F02311691B05C9
:104330000B430F21136153788B43190002230B4366
:104340005370EBE700400042FFFFFFF010B50400A0
:104350000E2800D80F340121200000F0DDF91823C9
:10436000102163432A4CE4186156002901D0142916
:104370000DD1284B1800DA79D209012AFBD002248A
:104380001A78A2431A70C379DB09012BFBD02248AB
:104390000300427ED209012AFBD01F24026921407A
:1043A000A2430A4302615A7ED209012AFBD00222AB
:1043B00019780A431A705A7ED209012AFBD00222C8
:1043C000197B0A431A731A7ED207FCD501221A768A
:1043D0005A7ED209012AFBD00222197B0A431A73A2
:1043E0001A7ED207FCD5588B80B25A7ED209012A98
:1043F000FBD002211A788A431A705A7ED209012A08
:10440000FBD0064B1A68064B1968FFF75DFF10BD1D
:10441000D8ED000000480042004000422800002083
:104420002400002018234343F0B56A4A87B09B1844
:10443000DA6806000C000092920722D51B7C5BB262
:10444000002B01D0142B1AD1634B0A2219682000CB
:10445000FFF73AFF614A1300D179C9090129FBD05E
:104460008005800D1081DA79D209012AFBD0022261
:1044700019780A431A70DA79D209012AFBD007B0F9
:10448000F0BD0827009A544D3A40019200D191E0C6
:1044900012229B5E2968200010220193FFF714FF6F
:1044A000019B05001F126B461C79009B0421DB0653
:1044B00000D40521300000F02FF9494BBA00D6583E
:1044C000484BDA5D002A54D10132DA5546490F32A1
:1044D00002A808F0F5FE02AA7B009B5A8022D201B6
:1044E0001A43424B5A805A78D209012AFBD0022241
:1044F00097421BD9338893433380F37BDB09FCD18C
:104500003288403313433380F37BDB09FCD10C3416
:10451000ADB26400A553F37BDB09FCD132880233D2
:1045200013433380F37BDB09FCD1A8E73368934363
:104530002F4A33601300B1681142FCD10222F16BA3
:104540000A43F263B2681A42FCD11034A400341951
:104550006560B2681A42FCD1264A3264B2681A42D7
:10456000FCD1022231680A433260B2681A42FCD19F
:1045700085E7022F07D90C34ADB26400A553F37B55
:10458000DB09FCD17BE70223727913437371184B6B
:104590001A00B1681942FCD11C34A400A551B368BB
:1045A0001342FCD1022331790B433371B3681342B8
:1045B000FCD164E7012100F01FF829683A002000CF
:1045C000FFF782FE01997F2800D90121300000F019
:1045D0005FF854E7D8ED00002C00002000480042AE
:1045E00008000020D00A002038F10000000C004034
:1045F000FF0F7F00FFFF0000182330B51D000400EF
:1046000045430820204A55192856013014D0032963
:1046100012D808006343D156D31805F01FFC0228B6
:104620000E1B5868CB010221184A9B181A184032F9
:104630001170012282405A6030BD5868CB010621BA
:10464000124A9B181A1840321170012282405A6097
:104650009A61F1E75868CB0106210C4A9B181A1899
:1046600040321170012282405A605A61E4E7586872
:10467000CB010221054A9B181A1840321170012201
:1046800082409A60D8E7C046D8ED0000004400415F
:104690001823F0B508245843114A13181C57013445
:1046A0001BD0012635005F688356BD400D4ADB01F3
:1046B0009A18906805420BD10C00601E8441D219F3
:1046C0004032107834400336A400B04320431070C9
:1046D000044A9B18002901D15D61F0BD9D61FCE792
:1046E000D8ED000000440041182310B508244343CE
:1046F00007490020CA181457013408D05B560549F1
:10470000DB015B18186A5368D8400123184010BDBC
:10471000D8ED00000044004118224243F8B52C4E69
:104720000300B218127A52B2140001320ED0481CA3
:1047300000240C280AD805F091FB071F1F1F1F1F1C
:104740001F1F1F0B0B0B0B00012464422000F8BD40
:10475000092905D100211800FFF74EFF0024F5E7D5
:104760000A2901D10839F6E700240B29EED10A39CC
:104770001800FFF741FFE9E718225343F218556884
:1047800001202C00F356134ADB016E089B18C9B2B6
:1047900004409E19002C0DD00F24303632780901C8
:1047A00022401143C9B25B19317040331A7810436B
:1047B0001870D3E732000F27303216785B19BE43EA
:1047C0003143117040331A7810431870BEE7C04669
:1047D000D8ED000000440041F7B5C31D019300234C
:1047E00006000D00041D009321780A22280000F025
:1047F000CAF82E210700280000F04BF8009B3F1854
:10480000DB190093019B01349C42EDD1F179280022
:104810000A2200F0B8F8009B1818FEBD30B503ACB2
:104820002578044CC57108340460017142718371AC
:1048300030BDC04648F10000F7B506000D000C0081
:104840008B180193019B671B9C4207D0336821782A
:104850001B683000984701340028F3D13800FEBDB2
:1048600070B5040008000D0009F098F823680200F4
:1048700029005B682000984770BD10B50B1E02D060
:10488000FFF7EEFF0300180010BD10B5FFF7F5FFAE
:1048900010BD10B503681B68984710BD10B50249DC
:1048A000FFF7DEFF10BDC04654F1000070B50400F4
:1048B000FFF7E3FF05002000FFF7F0FF401970BD90
:1048C000F0B58BB06B461500002205330600DA7791
:1048D0000800012D00D80A2509AC290005F04EFB7F
:1048E000CAB2130037330700DBB2092902D813001C
:1048F0003033DBB2013C2370002FEED121003000B9
:10490000FFF7BBFF0BB0F0BDF8B506000C00151E9D
:1049100004D10368C9B21B689847F8BD0A2A0CD1B4
:1049200000290BDA2D21FFF7B4FF614207002A00AE
:104930003000FFF7C5FF3818EFE7D2B22100300092
:10494000FFF7BEFFE9E770B50400FFF7DDFF0500E4
:104950002000FFF7A3FF401970BD70B50500FFF7F9
:10496000D3FF04002800FFF799FF201870BD10B591
:10497000002A04D10368C9B21B68984710BDD2B29F
:10498000FFF79EFFFAE710B5FFF7F1FF10BD70B516
:104990000500FFF7ECFF04002800FFF77FFF201859
:1049A00070BD000010B50400FFF756FB014B1C6002
:1049B00010BDC046300000200122024B52421A6056
:1049C0007047C04630000020164A10B51368591CC5
:1049D00026D0013B1360002B22D172B6124B134A32
:1049E0000433934213D9124A01211000147D0C4262
:1049F000FCD02021148BFF319B085B0021431183E5
:104A0000D3610C4B13800123027D1A42FCD0BFF30B
:104A10004F8F094B094ADA60BFF34F8FC046FDE75D
:104A200010BDC0463000002000200000030200003E
:104A30000040004102A5FFFF00ED00E00400FA0580
:104A4000016070479446F0B59E1E721E9641624604
:104A5000056892072F6836063A4332432A600725D5
:104A600005AC24780068A401294021434268002451
:104A7000022B00D05C03114321434160F0BD30B5EF
:104A8000C0250368AD031C6812052A402243C024D8
:104A90000904A40221401143196003685A681443B1
:104AA0005C6030BD0123026811680B43136003682A
:104AB0001A68D207FCD4DA69D207F9D47047022306
:104AC000026811680B4313600268D3699B07FCD42A
:104AD000704703681A7ED20702D41A7E9207FCD56B
:104AE0007047002203685A8370470368187E4007A6
:104AF000C00F70470368187EC009704780230268A2
:104B00005B42117E0B43137670470368588B800716
:104B1000C00F704702230268518B0B4353837047C9
:104B20000368187EC007C00F70470368188DC0B2B5
:104B3000704703681A7ED207FCD589B20120198517
:104B40007047012203689A757047012203681A753D
:104B50007047000070B5012604684B0833403140AF
:104B6000256809075B070B432B432360046851004A
:104B7000034805F07DF90138C0B2207370BDC0460E
:104B8000006CDC020123026811680B4313600368A8
:104B90001A68D207FCD4DA69D207F9D47047022325
:104BA000026811680B4313600268D3699B07FCD449
:104BB00070470368DA699207FCD402211A688A43B5
:104BC0001A6070470268936A5B0A5B02194391623C
:104BD00003681A7E5207FCD5986AC0B27047012359
:104BE000026811680B43136003681A68D207FCD48B
:104BF000DA69D207F9D470470223026811680B43BF
:104C000013600368DA699207FCD430215A8B8A4317
:104C1000110010220A435A830268D3695B07FCD44F
:104C200070470221026813688B4313600268D369DE
:104C30009B07FCD4704780230268DB02116851682F
:104C40000B43536070470000036803491A685A68B1
:104C50000A405A607047C046FFFFFBFF032230B591
:104C6000036811401C68074D5A6809042A40E4068D
:104C70001143640F5960052C03D10268D3695B07A7
:104C8000FCD430BDFFFFFCFF70B5056804006B8BE2
:104C90009B069B0F022B0DD06B8B00209B069B0F5E
:104CA000032B32D06B8B9B0704D56B8B9B069B0F22
:104CB000012B2AD16B6A49001143DB0AC9B2DB021E
:104CC0000B436B622368002A13D11A7ED207FCD5EE
:104CD0005B8B9B069B0F022B04D04908002220000F
:104CE000FFF7D2FF2368588B4007C30F01205840BD
:104CF0000BE0187E8007C00FF4D11A7ED207F8D5DA
:104D0000C022596892020A435A6070BD0368283372
:104D100019700368187EC007C00F03D15A8BD207E1
:104D2000F8D57047588B4007C30F01205840F8E76B
:104D3000036828331970036800201A7E520704D5CF
:104D4000588B01234007C00F58407047036818680C
:104D5000C006400F043843425841C0B27047036850
:104D6000187E4007C00F70470368187EC007C00F49
:104D700070470368588BC006C00F70470368187EE1
:104D80008007C00F70470368588B0007C00F70473B
:104D900003681A68D206520F052A05D11A7E9207B7
:104DA00002D41A7ED207F9D528331878C0B27047DA
:104DB0000368214A30B593422FD0204A93422FD026
:104DC0001F4A93422FD01F4A93422FD01E4A93422C
:104DD0002FD01E4A93421FD10E23192201210325F1
:104DE00099401B48C024016099082B40AB40FC351A
:104DF0009D4089000918A4000859A843C0259D407A
:104E00002B0003430B518023DB011A43114B5A80C3
:104E10005A7852B2002AFBDB30BD09231422DDE7A9
:104E20000A231522DAE70B231622D7E70C231722D1
:104E3000D4E70D231822D1E700080042000C0042FD
:104E4000001000420014004200180042001C004202
:104E500000E100E0000C0040F8B504000F0016006F
:104E60001D00FFF7A5FF2000FFF71CFE1C21BB0063
:104E70000B4071072268090C0B43136084232268DE
:104E80009375012F1AD11021012E00D008390C4B37
:104E900069431868C00004F0EBFF07222168024054
:104EA0008B895203DB04DB0C13438B8122680304E0
:104EB0009089DB0C400B400318439081F8BDC0463D
:104EC00020000020F7B50600019308AB1F780D0005
:104ED0001400FFF757FE3000FFF76AFFC0222405D9
:104EE00092031440BA070C2717433C43C0270722FC
:104EF000BF022D0433683D4025431D60019B31688E
:104F000013401A0080239B0213434B60F7BD00003F
:104F1000F8B504000F00FFF74BFF2000FFF75FFE1E
:104F20001422236879001A600C4B25681E68300033
:104F300004F09EFF0A490400300004F099FF7D232D
:104F4000FA215843C90004F093FFFF23241AE868AC
:104F5000053C1C4098430443EC60F8BD2000002051
:104F600040420F000020704770B50F26CB1D01395D
:104F700002003240D5B22C0000093034092A00DD8D
:104F800007341C70013B8B42F2D170BD10B50C0090
:104F90000B4B1868FFF7E8FF21000A4B083118682F
:104FA000FFF7E2FF2100084B10311868FFF7DCFF24
:104FB0002100064B18311868FFF7D6FF202010BDDE
:104FC0000CA0800040A0800044A0800048A0800089
:104FD00008B4024B9C46103808BC60478D4F000057
:104FE00070473F20704713B56B460268D97107338D
:104FF000546819000122A04716BD000070B50A26AA
:105000000B7892B06E44023305000B703C220021F5
:10501000300008F05EF9394801AC06903848242188
:105020000790062020776846364AA1742281364AC6
:10503000364BA281FD3AFF3A8018C1776846233982
:105040000630C17768460730C17702A8C1770720CC
:10505000F277032608316944C87703A9CE77102177
:105060002B366E443170092621851F3169440E703C
:105070000CA9053E0E7033212380022369440B7076
:1050800006360DA90E7022493536A1863B216E44A5
:10509000307010A86274E27702703D3269446A444D
:1050A0000B70137040210022E37023716371A373AE
:1050B00041336B44218719705A702B7DC039A3701E
:1050C000A37263770133DBB2A3776A7D0B200D00F7
:1050D00068441543C5773120684403703A23501C57
:1050E0006B441870412302320A436B441A7021004A
:1050F0004222084800F050FF12B070BD1001042495
:10510000020605240904000001020000080B00004B
:1051100007050000400B002008B4024B9C461038E5
:1051200008BC6047FD4F000070B5027D0B790C0094
:1051300000259A420BD10B784E78A12B09D1212E54
:1051400005D107221F49204800F026FF013528001D
:1051500070BD212BFBD1202E2BD1072219491A48D3
:1051600000F05CFE174B1A785978090211439A78BF
:1051700012041143DA7812060A439621C9008A42C2
:105180001DD1DB79DB071AD4FA20FFF70BFC0021D5
:105190000D4801F00DF80125232ED8D1E378A2782F
:1051A0001B021343094A00210748136001F000F86D
:1051B000CDE7222EEFD18A78024BDA71D2E7FFF7E2
:1051C000FBFBE4E738000020400B00203400002007
:1051D00008B4024B9C46103808BC604729510000B7
:1051E00010B5417D006A013100F050FD034B1B6892
:1051F00001335A1E9341181810BDC04640000020CC
:1052000010B5417D006A023100F056FD10BD10B5A9
:10521000417D006A023100F01DFD10BD70B50D002A
:10522000417D0400130002312A00006A00F00AFEEA
:10523000002801D10123636070BD000010B5054C4A
:1052400023685A1C04D103685B69984703002060F7
:10525000180010BD40000020074A0300106810B578
:10526000411C03D001235B42136010BD597D186AB5
:10527000013100F097FDF8E7400000207047002062
:1052800070470000FA239B0010B583600F4B00228B
:10529000C3820300283383610D4B04004260C26166
:1052A0001800443323610830631D21622060DA77DF
:1052B0008323A362813BE3628033236300F0AEF873
:1052C0002100103100F07EF8200010BD0302000024
:1052D00058F10000022110B5094B1A68437D5B01AB
:1052E000D318FF339C7A21439972437D0133DBB29B
:1052F0005B01D3180122FF33997A0A439A7210BDD9
:10530000F80F00207047000010B502490248FFF76F
:10531000B9FF10BD400B0020D80A002070B50E0068
:1053200000254468002C0BD0236831005B68200006
:105330009847002802DB2D18E468F3E701256D4249
:10534000280070BD70B50D004468002C08D023689B
:1053500029009B6820009847002802D1E468F4E700
:10536000200070BD70B50D0000264468002C09D0E7
:105370002368290020001B69984736182D18F6B2BB
:10538000E468F3E730002C7070BD70B50D00446820
:10539000002C08D0236829001B68200098470028AB
:1053A00002D1E468F4E7200070BD70B50D004468D8
:1053B000002C06D023682000DB6829009847E468A9
:1053C000F6E770BDF0B58C79457803002A19002006
:1053D000072A1FDC5A68824216D159601A78C879A8
:1053E0000A7112184D711A7000220B4DD0B284420E
:1053F0000FD98F6858789600F75986000130775199
:1054000001325870F2E70200D0680028FBD1D16069
:10541000E4E70120F0BDC046180B00200121064A38
:1054200010B5136805480B4004D180246400048043
:105430004360116010BDC0460C0B0020100B002013
:10544000704710B5040001F0D5FA200010BD00002F
:10545000F0B5822919D1C3B2294D5A01AA18916910
:10546000284C80010C40C0218905214391612649C7
:10547000083340187021506128685B011A5C8A4328
:10548000110030220A431A54F0BD0029FCD1C02675
:10549000C1B21B4C4B01E3189A681A4DB6052A405D
:1054A00032439A60194A800182185A600A0007271D
:1054B000246808325201115DB9430F0001213943BC
:1054C00011559F6910493D4040182E439E61586117
:1054D0007020115D81430800102101431155996826
:1054E0000B48A2180840802149030143996099683C
:1054F000890B89039960402311790B431371C3E72A
:10550000F80F0020FFFFFF8F6C0B00202C0D0020F8
:10551000FF3F00F0EFF3108303600123436072B696
:1055200070470368002B02D162B6BFF36F8F7047DC
:10553000F7B50600FC36B3690400002B18D1B2277A
:105540007F00C55D6846FFF7E5FF019BEDB2013BBB
:1055500002D3E55DEDB2FAE768460193FFF7E1FF9C
:10556000002D01D10020FEBD706E336EC01AFAE727
:105570006846FFF7CFFFD8220025019B5200013B70
:1055800002D3A55CEDB2FAE768460193FFF7C9FFC5
:10559000002DE7D0D6235B00E058043BE358E5E755
:1055A00010B54468FC3043690B48DBB25A01A218BD
:1055B0009168083308408021490301439160916854
:1055C0005B01890B890391602268D3184022197905
:1055D0000A431A7110BDC046FF3F00F0F7B5050041
:1055E000FC356B694268DBB21900040008311068B1
:1055F00049014118C979C90711D55B01D2189368CF
:105600009B049B0C0CD12000FFF7CAFF63681A684B
:105610006B69DBB208335B01D3187F22DA71F7BD07
:10562000E969002923D16B66230001266933FF3322
:10563000EE6168465360B227FFF76CFF7F00B2212E
:10564000019BFF31013B5A1C38D0D822E65552004D
:10565000A25C581ED2B26254625C8446002A04D115
:1056600020000193FFF79CFFE9E76346EBE7D621B3
:10567000490063500023EB6123001D33FF33536067
:105680006846D826FFF746FF01277600B221019B26
:10569000FF31013B5A1C11D0B222A7555200A25C27
:1056A000581ED2B26254625C8446002A04D12000A3
:1056B0000193FFF775FFE9E76346EBE7684601935F
:1056C000FFF72FFFA2E7F7B5060068463400FFF7A3
:1056D00021FF0027FF22019BFC34013B0DD3E06832
:1056E0002169884204DBE7682069D71B3F18F4E78B
:1056F0002769E1687F1A013FEFE768460193FFF7EA
:1057000010FFA3696846002B52D1FFF703FFB221B7
:10571000019B4900013B5A1C0CD0755C5A1EEDB22E
:10572000002D05D168460193FFF7FBFE2800FEBD62
:105730001300F0E7684601930025FFF7F2FEFF2211
:10574000236EBD4214D0616E994211D9591CF318D1
:105750002166FF33587FE36821690133C0B21340EB
:105760008B4203D0E16871180872E3600135E7E706
:10577000626E9A42DAD1002323660133A361684640
:10578000B224FFF7C7FE6400B2220021019BFF3262
:10579000013B581CC6D03155B05C5F1E002805D0B7
:1057A000B15430000193FFF7FBFEEDE73B00F0E75B
:1057B000FFF7B0FED821019B4900013B5A1C06D0DF
:1057C000755C5A1EEDB2002DACD01300F6E76846AA
:1057D0000193FFF7A6FED623D4225B0000259C464A
:1057E0005200B358BD4203D061467158994220D847
:1057F0006246B2589A4299D1D42200235200B35043
:105800006846A361D824FFF785FE6400B222002118
:10581000019BFF32013B581C00D183E73155B05C3E
:105820005F1E002819D0B15430000193FFF7B8FE75
:10583000ECE7591CB150FF21F3186933FF33187896
:10584000E368C0B201330B4021698B4203D0E168A9
:1058500071180872E3600135C3E73B00DBE710B560
:105860000400FFF730FF2300FC331969DA68914226
:1058700003D01B69E418207A10BD01204042FBE7E9
:1058800010B50400FC34FFF71EFFE0682369C01A5E
:1058900001D50130FF3010BDF0B585B00192009107
:1058A0000500FFF710FF02A8FFF734FE01200024D7
:1058B000FF26039B40425A1E531C1FD02B00FC3373
:1058C00001998C4218D2D9681F69C91B01D50131D1
:1058D000FF31002910D01969DF688C460100BC45F2
:1058E00006D019691F69691801373740097A1F61A5
:1058F000009F39550134E3E7013ADDE702A803923E
:10590000FFF70FFE200005B0F0BD37B56B46DC1D7C
:1059100000230D002370FFF781FD2100FFF7FEFC3F
:105920002B681818286020783EBD00002023F7B5AA
:10593000414A0500D1690F200B43D36101223F4941
:105940000B7813430B703E4B197881431970062175
:105950001C78214319703B490C7822430A701A784D
:1059600002401A70602219780A431A70364B374A7F
:105970005A805F78FF09FCD13548FEF719FB0123F7
:10598000344C354E2268300011780B43137080225E
:105990003900520007F09DFC22689378DB07FCD4A5
:1059A00056621F262D4B1B68590B980C9B013140EA
:1059B00030405B0FB14200D105211F2800D10238D1
:1059C000072B00D1043B31408901178D01912449F7
:1059D00030400F40019939431185118D0700B143C3
:1059E000080038431085118D18031E4B0B407F2192
:1059F000034313851378C1200B40137004232268DE
:105A0000800011780B430C211370226813898B439B
:105A1000154913810B581B021B0A0B5080230B6086
:105A200011787E3B0B431370012300212B700F482C
:105A3000FFF768FCF7BDC046000400405844004131
:105A40003C44004159440041000C00400640000025
:105A5000C1630000F80F0020FC0F002024608000CC
:105A60003FF8FFFFFF8FFFFF00E100E0D80A0020B2
:105A70000078002810D00121084B1B681A898A433E
:105A80001A810822198B0A431A830422198B0A43AC
:105A90001A830022024B1A607047C046F80F00209C
:105AA000F00F002010B50F4A93699B0B9B03936185
:105AB00013680222FF331A729879823A02439A716C
:105AC0001A7A9207FCD57F24074A2140937A08006E
:105AD000A3431900802301439172917A5B420B43E7
:105AE000937210BDF80F00200050004110B50C005B
:105AF000FFF794FC2100FFF748FC002804D1034A7B
:105B000093699B0B9B03936110BDC046F80F002067
:105B1000F7B50D00832A19D1CBB2404C5A01A21817
:105B200091693F48AD010840C02189050143916159
:105B30003C4920686D187021083355615B011A5C7F
:105B40008A43110040220A431A54F7BD022A5FD14A
:105B5000354B8A00D058002802D003685B6998470B
:105B6000DA20400000F03EFF802204002B4E2F4B35
:105B70004660036052000021083007F0AAFB2200B3
:105B8000B2210023FC324900D360556113611366D2
:105B90009361D3615366635444316350043163505D
:105BA00004316354B221FF316354FF202B000340C2
:105BB0005901019371188F68194BAD003B40C02704
:105BC000BF051F438F600727019B366808335B01C1
:105BD000995DB9430F000321394399552300516959
:105BE000666801401D334901FF3371184B606368DB
:105BF00052691B68024052019B1801221B18997AB6
:105C000020000A439A72FFF7CBFC074BEC509CE74D
:105C100011002800FFF71CFC97E7C046F80F002092
:105C2000FFFFFF8F6C0B0020440B0020B8F1000039
:105C300070B505000124064BA200D258002A06D0F8
:105C4000210028000134FFF763FF0A2CF3D170BD57
:105C5000180B00200B4BCAB20B488901C91853011D
:105C6000C318596199690832890B890399610368DE
:105C700052019A180223D3715179823B0B4353711D
:105C80007047C0466C0B0020F80F0020084B8A00BC
:105C9000D05810B5002803D003689B68984710BD02
:105CA000C9B2044B4901591888688004800CF6E792
:105CB000440B0020F80F002010B50C00FFF7E6FFA2
:105CC00000280CD0064BE4B21B68083464011C1990
:105CD000802362795B42134363710223E37110BD39
:105CE000F80F0020F0B51C002A4B85B01B68070098
:105CF0000D000292002B4AD0274B8A00D058002872
:105D000008D0036822005B680299984704002000CD
:105D100005B0F0BD3800FFF7B9FF844204D929006F
:105D20003800FFF7B3FF04000121EBB21B4E0393D1
:105D30005B010193F21893689B0B9B039360019A9C
:105D4000336802989B18FF335A7A0A435A72144BED
:105D5000A901C918220007F0B3FA002CD7D02900F6
:105D60003800FFF793FF0028D1D14021039B326810
:105D700008335B01D3181879014319710121D971D6
:105D8000019BD318FF339A7A0A439A72BFE7012422
:105D90006442BCE7F00F0020440B0020F80F002005
:105DA0002C0D002013B56B46DC1D22000123FFF7EC
:105DB00099FF012801D1207816BD01204042FBE760
:105DC00070B5CBB2124A13485C01890189180219D7
:105DD00051609168104D08330D40802149032943DB
:105DE000402591609168890B8903916001685A018F
:105DF0008A1816793543157195796D06FCD55B01C6
:105E0000C918CB79DB07FCD500198068C0B270BD1A
:105E10002C0D0020F80F0020FF3F00F070B50D00A2
:105E200000211400FFF7CCFFA04200D9200000237E
:105E30000349A34203D0CA5CEA540133F9E770BDB9
:105E40002C0D0020F0B51E003A4B85B01B680F00EA
:105E50000192002B35D08023DB019E4231D80025F2
:105E6000354B8A01D3180293002E2CD0334B1B687C
:105E70000393FF233B401C0000930834039B640101
:105E80001C19A379DB0921D02D4B2E49186803F08A
:105E9000EFFF2D4B1721584303F0EAFF2B4BE2791C
:105EA000920713D4DA5D002A01D10138F7D201221A
:105EB000DA55009B5A01214B9B189A69920B920369
:105EC0009A6101256D42280005B0F0BD00221F4BEC
:105ED0003400DA553F2E09D9009B40245A01174B54
:105EE0009B188022996912060A439A61220001993F
:105EF000029807F0E5F9009BA1045A010F4B890CA9
:105F00009B18029A2D195A619A69361B920B9203BB
:105F10000A439A61009B039A08335B01D31802225B
:105F2000DA715979823A0A435A71019B1B1901931C
:105F30009AE7C046F00F00206C0B0020F80F0020FD
:105F40002000002040420F0070110100610B002072
:105F500070B50D001C000D4BAE01F618110030009D
:105F6000220007F0ADF9EDB209496D014D196E61DE
:105F7000AB69084A20001340AB61AB69A2049B0BDC
:105F8000920C9B031343AB6170BDC0466C0B0020A9
:105F9000F80F0020FF3F00F0F7B5104B01901B7881
:105FA0000F001500002B0CD10D4B16001C78002C97
:105FB00009D00C4E0C4834882018641907F080F979
:105FC00034802800FEBD002EFBD03A19330000219A
:105FD0000198FFF7BDFF2418361AF4E7EC0E0020F5
:105FE000ED0F0020EE0F0020ED0E0020F8B50F00A1
:105FF00016000024012A26D9100007F03BF90500FD
:10600000380007F0CBFC0323022201304000287047
:106010006B7096420DD9397800290AD0531CDBB237
:106020000137A9549E4203D00232EC54D2B2F0E7B9
:10603000320029000548FFF7AFFF441EA041C4B25B
:10604000280007F021F92000F8BDC046400B0020D1
:10605000F0B50024012685B0184B0F0069461E706C
:1060600005000094FFF751FC154B01A90B806A3B1A
:10607000FF3BCB715A330B72009B8C7109334B8001
:106080000E4B4E7108711C703A00092F0FD00D4F46
:1060900009223E700C4E280000943480FFF77CFFEC
:1060A00069462800FFF731FC328808493C70280017
:1060B000FFF772FF012005B0F0BDC046EC0E0020D6
:1060C00009020000ED0F0020EE0F0020ED0E002071
:1060D00070B5CE7892B005000C00022E0BD18B79F2
:1060E000C9792E4809021943FFF7B2FF411E8841C2
:1060F000C0B212B070BDFFF791F92100FFF722F98D
:10610000002803D0C117081AC00FF2E7012E0ED1E4
:10611000E279A37912021A432149112A3CD8D2B25A
:10612000002A39D02800FFF737FF0120E1E7032ECE
:10613000DFD1A378002B28D0022B08D1E279A379F4
:10614000120218491A432800FFF750FFD1E7012B2C
:1061500005D1E279A37912021A431349F3E7032B1D
:10616000C7D10100412201A807F0B3F8FFF756F9A3
:1061700001A9FFF7F7F8002805D0E279A379120208
:106180001A4301A9DFE70378FFDEE279A37912025F
:106190001A430649032AC2D90A78C3E7400B0020F4
:1061A000FAF10000D4F10000EEF10000EAF1000085
:1061B000CBB204495B01C9188B699B0B9B038B61B4
:1061C0007047C046F80F002037B5050048780C002E
:1061D0000B2810D803F042FE061B0F2B0F40456121
:1061E000494C5A5D097801AA002906D10223118081
:1061F0002800FFF7ADFE01203EBD00231380284B91
:106200001B78012B00D1137002230021F0E78A785C
:106210000023012A03D101AA1380224BF0E7204A70
:106220001370214A93699B0B9B039361E3E78C787E
:10623000012C06D100211B4B01AA1C7011702300F8
:10624000D6E70120002CD7D1154B174A1870936957
:106250009B0B9B039361CFE789782800FFF722FC13
:10626000C9E72800FFF734FFC6E701230F4ACCE750
:106270000B780020DB06BFD12800FFF7D9FCA278FD
:106280000A4B0B481A60FFF725F8CAE70123094AB1
:10629000BBE78A78074B1A60C3E70020ACE7C0462B
:1062A000600B0020680B0020F80F0020F00F00208A
:1062B000D80A0020F40F00203B4BF7B51E780500EC
:1062C000002E5FD1394C23689A8B12070DD5082216
:1062D00031009A833000FFF7BBF810222368FF33A8
:1062E000997A0A439A72324B1E6023689A8B52073E
:1062F00001D504229A83FF331A7A920603D520220D
:10630000597A0A435A721A7AD20623D56946080086
:10631000284AC0CAC0C0A268920B9203A260402261
:10632000587902435A7160230A7828001A422AD108
:10633000FFF74AFF2368FF33002827D0802299798E
:1063400052420A439A711A7A520603D54022597A68
:106350000A435A727F2601252368FF331E722F00DD
:10636000236808377F01DB19DB79002B07D0124B3C
:10637000AA00D05800280DD003681B689847013543
:10638000082DECD1F7BDFFF7B1FBD3E720210B4A75
:106390009171D8E7FFF742F82900FFF706F8236864
:1063A000DF19FE71EBE7C046ED0F0020F80F00206B
:1063B000F00F00202C0D0020440B0020FF50004166
:1063C00010B50248FFF778FF10BDC046400B002013
:1063D000014B024A1A607047F80F0020005000413C
:1063E0000120704710B50368014A1B6A984710BD29
:1063F000130400000300FC33D9699A69914203D069
:10640000DB69C018007D704701204042FBE710B5F2
:1064100004000069FEF746FB22000023FC32936172
:10642000D36186229200A4186360A36010BDF0209F
:1064300001403039484248417047F0231B01194060
:10644000802306209B0099420AD00133FF3301309C
:10645000994205D0802302385B00994200D0002089
:1064600070470F2001400020012903D00239481E47
:106470008141481C704700008923F0B5182685B07B
:1064800002919B000400C05C330008214343324D5D
:106490001700EB185956FEF73FF9304B0821E05C26
:1064A00033004343EB185956FEF736F92C4BE25CA8
:1064B0000393022A09D11133E05CFF2805D008219B
:1064C0004643AE197156FEF727F98A26B600A05D3D
:1064D000FF2819D00121FEF78FF81822A35D21496A
:1064E0005A43AB56AD18DB0158188B218900605018
:1064F0001D4901225B188C218900635069688A401C
:106500008D21890062501A600122029B11002069CE
:10651000FEF7A2FC39002000FFF78FFF39000500CD
:106520002000FFF79EFF390006002000FFF77FFFE5
:1065300033000090290020690122FEF783FA0B4BFB
:106540002069E25C039BE15CFEF799FA2069FEF7A3
:10655000B6FA05B0F0BDC046D8ED00002502000037
:1065600027020000184400411444004126020000A4
:10657000802210B504005200002106F0AAFE23007C
:106580000022FC335A6020009A6010BDF0B585B03F
:106590001D000AAB1B78040000930BAB1B781600A0
:1065A00001930CAB1B780F0002930DAB1B78039388
:1065B00000234360FA239B008360124B083303607F
:1065C0001430FFF7D5FF20001D30FF30FFF7D0FF5C
:1065D00089236A469B002761E6540B4B1278E554E9
:1065E0000A4B2000E2546A46094B1279E2546A468B
:1065F000127A0133E2546A46127B1033E25405B03A
:10660000F0BDC0460CF2000025020000260200008A
:1066100027020000F7B51D0008AB1B7804000093AB
:1066200009AB1B781600019300234360FA239B00FB
:106630008360114B0F00083303601430FFF798FF9D
:1066400020001D30FF30FFF793FF89236A469B002F
:106650002761E654094B1278E554094B2000E254B7
:106660006A46084B1279E2548A22293BFF3B92008A
:10667000A3541032A354FEBD0CF20000250200000A
:1066800026020000270200000300FC3358689B68C4
:10669000C01A01D50130FF30704710B5040020004A
:1066A0001D30FF30FFF7F0FF0028F8D12069FEF71A
:1066B00010FA10BD10B51430FFF7E6FF10BD03004F
:1066C000FC3359689A68914204DB5A689868801ACA
:1066D000FF30704798685B68C01A0138F9E710B559
:1066E0001D30FF30FFF7EBFF10BD10B5040000694F
:1066F000FEF70BFA002805D02069FEF716FA20698C
:10670000FEF708FA2069FEF7F0F9002820D020698A
:10671000FEF70BFA2200FC329369D1690133DBB238
:106720008B4203D091696118087593618A239B009D
:10673000E35CFF2B0CD020001430FFF7C0FF0928CA
:1067400006DC8B238D229B009200E358A2581A602E
:106750002069FEF7E5F900281AD020001D30FF302F
:10676000FFF792FF002822D086239B00E318996848
:106770005A68914218D08E219A684900A218515C3B
:106780009A680132D2B29A60C9B22069FEF7D1F993
:106790002069FEF7AFF9002805D02069FEF7AEF9B1
:1067A0002069FEF79EF910BD01214942ECE72069FE
:1067B000FEF7CBF9ECE7000070B5040000690D00AE
:1067C000FEF7AEF900283ED1FF2686239B00E31892
:1067D0005A689968013232408A4223D1EFF310831C
:1067E000DB0710D41E4B5B68DB05DB0DEDD0103BE7
:1067F0005BB2002B10DA0F221340083B9B08194AAA
:106800009B009B181B682069FEF78AF90028DCD0E2
:106810002000FFF76AFFD8E79B08C033124A9B00AD
:106820009B58F0E75A68013216409A68964205D0A4
:106830008E215A684900A21855545E602069FEF7FF
:1068400080F9012070BD20001D30FF30FFF71CFFD4
:106850000028B9D129002069FEF76BF9F1E7C0469D
:1068600000ED00E01CED00E000E100E0030070B589
:10687000FC33D9699A69040091421AD0DA69821806
:10688000157DDA690132D2B2DA618A239B00E35CBA
:10689000FF2B0CD020001430FFF711FF0A2806DD73
:1068A0008C238D229B009200E358A2581A60280086
:1068B00070BD01256D42E8E710B51C00431A02982F
:1068C000511A001B584303F05DFB001910BD10B5B1
:1068D00004000068002801D006F0D6FC00232360E5
:1068E000A360636010BD70B504000D000068013145
:1068F00007F026F8031E01D0012028C470BD0368EC
:1069000010B50400002B04D043688B4201D3012052
:1069100010BD2000FFF7E7FF0028F9D0A368002B87
:10692000F5D122681370F2E770B50E001100040073
:106930001500FFF7E4FF002804D12000FFF7C7FF90
:10694000200070BDA5603100206807F01FF8F7E750
:10695000002370B504000D0003604360836099421A
:1069600007D0080007F01AF8290002002000FFF7FE
:10697000DBFF200070BD70B5050008000C0007F0BB
:106980000DF8210002002800FFF7CEFF70BD10B502
:106990000400002903D0FFF7EEFF200010BDFFF731
:1069A00096FFFAE710B5FDF717FC06F025FBFDF79B
:1069B000E5F90120FDF738FB084C2000FEF7B6FF93
:1069C0002000FFF755F8FBF719FFFBF7A9FF044B71
:1069D000002BFAD000E000BFF7E7C046400B0020D4
:1069E0000000000010B506F045FC10BD10B506F023
:1069F00041FC10BD10B506F047FC10BD0B0010B5F2
:106A00000100180006F004FA10BD0000F8B54E466B
:106A100057464546DE46A04BE0B54E0080468A46C6
:106A2000894676089E420CDD9C4B9E4200DDA2E02A
:106A300000D19DE04B46002B00DCE0E0984B994AEA
:106A4000A1E0994B9E4200DDB3E0984B9E4200DCF2
:106A5000A1E001235B429B464246534640465146D5
:106A600005F06AFA02000B0006000F0005F064FA58
:106A700004000D008E4A8F4B05F05EFA8E4A8F4B54
:106A800004F034FB22002B0005F056FA8C4A8D4BA3
:106A900004F02CFB22002B0005F04EFA8A4A8B4BA7
:106AA00004F024FB22002B0005F046FA884A894BAB
:106AB00004F01CFB22002B0005F03EFA864A874BAF
:106AC00004F014FB32003B0005F036FA844A06005D
:106AD0000F00844B2000290005F02EFA824A834BD8
:106AE00005F09CFC22002B0005F026FA804A814B21
:106AF00005F094FC22002B0005F01EFA7E4A7F4B25
:106B000005F08CFC22002B0005F016FA7C4A7D4B28
:106B100005F084FC22002B0005F00EFA02000B00A9
:106B20003000390004F0E2FA5346424605F004FA18
:106B30005B46013366D05B46734A744CDB00E41855
:106B4000D3181A685B6805F069FC4246534605F0A5
:106B500065FC02000B002068616805F05FFC030023
:106B600048460A0000280EDA802212068A180AE037
:106B7000002800D15EE7424653464046514604F0A5
:106B8000B5FA03000A00180011003CBC9046994673
:106B9000A246AB46F8BD5E4A5E4B04F0A7FA00225F
:106BA0005D4B03F005FB002800D152E743465246F7
:106BB000E9E700F005F9594B04000D009E422ADC7C
:106BC000574B9E4250DC02000B0004F08FFA00226B
:106BD000514B05F023FC802306000F000022DB054B
:106BE0002000290004F082FA0B0002003900300076
:106BF00004F098FD002380468A469B462CE7284BEC
:106C0000484AC0E702000B004046514605F006FC2A
:106C100003000A00B7E7444B9E421ADC0022434BB4
:106C200005F0FCFB002206000F00404B200029006D
:106C300005F082F90022384B04F058FA0B000200EC
:106C40003900300004F06EFD022380468A469B46E0
:106C500002E70B0002003649002004F063FD032325
:106C600080468A469B46F7E600222B4B05F0D6FB72
:106C7000002206000F00284B2000290004F036FAFD
:106C80000B0002003900300004F04CFD0123804667
:106C90008A469B46E0E6C046FFFF0F440000F07FB7
:106CA000182D4454FB21F93FFFFFDB3FFFFF1F3E40
:106CB00011DA22E33AAD903FEB0D76244B7BA93FEE
:106CC000513DD0A0660DB13F6E204CC5CD45B73FBC
:106CD000FF8300922449C23F0D5555555555D53F68
:106CE0002F6C6A2C44B4A2BF9AFDDE522DDEAD3F5C
:106CF0006D9A74AFF2B0B33F711623FEC671BC3FFC
:106D0000C4EB98999999C93F60F2000040F20000E5
:106D10009C7500883CE4377E0000F03FFFFFF23FA7
:106D2000FFFFE53FFB21F9BFFF7F03400000F83F75
:106D30000000F0BF30B5204A4B0087B05B0893429B
:106D40001CDD1E4A934205DD02000B0005F066FBC8
:106D500007B030BD02AA00F03DFC03231840049A9E
:106D6000059B01280FD002281CD0002815D00298BE
:106D700003990124009402F049F8E9E70022002376
:106D800001F0CAFAE4E700900298039902F03EF895
:106D900080231B069C466144DAE70298039901F0C0
:106DA000BBFAD5E70298039901F0B6FA80231B06D7
:106DB0009C466144CCE7C046FB21E93FFFFFEF7FE3
:106DC00049004B0819007047474AF0B54F469146B5
:106DD0004B005B0D99444646D6464A46C0B5050071
:106DE0000C000E0088460700132A27DC002A4BDB24
:106DF0003E4B13419A460B0052461340034318D0B2
:106E00003B4A3C4B2800210004F070F9002200238B
:106E100003F0CEF9002847D0002C04DA80234A463C
:106E20005B03134198444646534600279E4338006F
:106E300031001CBC90469946A246F0BD332A08DDBD
:106E40008023DB009945F4D102000B0004F04EF9D9
:106E5000EFE7294A9446012263445242DA409246BF
:106E60000242E6D0224A234B2800210004F03EF9DA
:106E70000022002303F09CF9002815D0002C1EDB13
:106E8000534646469F430FE0194A1A4B28002100FB
:106E900004F02CF90022002303F08AF9002803D023
:106EA000002C04DB0027002638003100C1E7640015
:106EB000640825430027002DF6D0104EF4E74B461A
:106EC000142B0BD03422D21A012393405D19BD42FA
:106ED00008D201239C462F00E044D1E7133B9C4697
:106EE000E044CDE72F00CBE701FCFFFFFFFF0F00E1
:106EF0009C7500883CE4377EEDFBFFFF0000F0BF8F
:106F000030B5214A4B0087B05B0893421EDD1F4A13
:106F1000934205DD02000B0005F080FA07B030BD9A
:106F200002AA00F057FB03231840049A059B01288E
:106F300013D002281DD0002814D00298039901F024
:106F4000EBF980231B069C466144E7E700230022FF
:106F50000093002301F05AFFE0E70298039901F043
:106F6000DBF9DBE7012402980399009401F04EFF5E
:106F7000D4E7012402980399009401F047FF80238D
:106F80001B069C466144C9E7FB21E93FFFFFEF7FF9
:106F900030B5144A4B0087B05B0893421ADD124AA1
:106FA000934205DD02000B0005F038FA07B030BD52
:106FB00002AA00F00FFB049C059D4300022018402C
:106FC0000123181A00902200029803992B0001F067
:106FD000CFFFEBE7012300220093002301F0C8FF5D
:106FE000E4E7C046FB21E93FFFFFEF7F00B51C4A05
:106FF000430083B05B08934218DD1A4A934204DDD4
:10700000011C03F02FFE03B000BD694600F0A6FF8F
:1070100003230199184001280CD0022817D000281A
:1070200011D00098012202F0B9FDECE7002102F036
:107030006BF9E8E70122009802F0B0FD80231B06FF
:107040009C466044DFE7009802F05EF9DBE70098B9
:1070500002F05AF980231B069C466044D3E7C046E1
:10706000D80F493FFFFF7F7FF0B5C64643005F085A
:107070001B0E7F3B00B5051C06001C00162B1CDCFC
:107080008046002B21DB194F1F41074211D01849C0
:1070900003F044F9002103F0C5F8002809D0002DC1
:1070A00004DA80231B0423419846A8444346BB438B
:1070B0001E00301C04BC9046F0BD0E4B9F42F8D918
:1070C000011C03F02BF9061CF3E7094903F026F92C
:1070D000002103F0A7F80028EBD0002D01DB0026EB
:1070E000E7E7002FE5D0044EE3E7C046FFFF7F004F
:1070F000CAF24971FFFF7F7F000080BFF0B54746AD
:10710000CE4680B58DB01D0006000F00140000F0C3
:1071100005F92E4B009001911B785BB29846013324
:107120003CD022002B002000290005F0BFFC0028E5
:1071300034D132003B003000390005F0B7FC814605
:1071400000282BD1002200232000290003F016F88C
:10715000002823D0012302931D4B04960597039327
:107160004B460A93434606940795002B1DD00023F7
:1071700000221900100004F0D5FA43460890099146
:10718000022B14D105F052FE212303600A9B0093C9
:10719000002B15D1089B099C00930194009801993C
:1071A0000DB00CBC90469946F0BD0896099702A810
:1071B00002F06EFD0028E5D00A9B0093002BE9D079
:1071C00005F034FE0A9B00930360E3E744000020CF
:1071D00080F20000F0B58DB0041C00F00BFC002321
:1071E000224E051CF356013331D0211C201C03F024
:1071F000FDFE071E2BD1201C02F0BAFDFE218905E1
:1072000003F010F8002822D001230293184B201C11
:1072100003930A9705F008FD0690079104900591E5
:10722000144802F037FD0023F35608900991022B11
:1072300010D002A802F02CFD00280BD00A9B01936D
:10724000002B0CD10898099905F040FD051C281C5D
:107250000DB0F0BD05F0EAFD21230360EEE705F077
:10726000E5FD0A9B01930360ECE7C0464400002063
:1072700088F2000084F20000F0B58DB0041C00F02C
:107280001BFD0023224E051CF356013331D0211C77
:10729000201C03F0ABFE071E2BD1201C02F068FD62
:1072A000FE21890502F0BEFF002822D001230293AF
:1072B000184B201C03930A9705F0B6FC0690079123
:1072C00004900591144802F0E5FC0023F356089061
:1072D0000991022B10D002A802F0DAFC00280BD092
:1072E0000A9B0193002B0CD10898099905F0EEFC3C
:1072F000051C281C0DB0F0BD05F098FD212303608E
:10730000EEE705F093FD0A9B01930360ECE7C046AE
:107310004400002090F2000084F20000F0B55746CF
:107320004546DE464E465C006408E0B5250083B065
:1073300092469446154322D09B4E4D006D08B542AF
:107340001DDC56421643994FF60F2643BE4216D80F
:10735000CE0FF60783460700B146A54220DC0600A3
:107360008846A54213DB904211D319D14B46DA0F60
:107370008F4BD2009B181E685B68984607E004F0AC
:10738000DBFD02000B0004F0CDF90600884630005A
:10739000414603B03CBC90469946A246AB46F0BD80
:1073A000844EB54245DD2E15B346834EB0465E464B
:1073B000464401967F4EB44200DDA5E0002C00D08B
:1073C000BDE05646002E00DCE7E07C4EB0460126CC
:1073D0007642B34656467600D844B246002EF6DCD6
:1073E000774EB246019E564500DA7EE080250903BD
:1073F000090B6D030D437249884568DB80241B032C
:107400001B0B64032343424601998E1A6246E91A14
:10741000B81A002E2DD0674592415242891A19D4CC
:107420000A0002431CD04900C50F4D194700013E18
:10743000ECE7002D76D15E46002E00DCB0E05F4E1A
:107440000196019E013E01965E467600B346002EEF
:10745000F7DCAFE7FA0F6D00AD187F00013ED5E70E
:107460004B46D90F524BC9005B181E685B689846A3
:107470008DE767459B415B42C91A01D53800290059
:107480000B000343ECD04B4B1A00994209DCC30FAD
:107490004900C91801235B429C464000E0449142E8
:1074A000F5DD474B98455FDA42469B1A142B67DCA3
:1074B00002000C004348DA404044194184404B46E6
:1074C00020000B43994610430600C8465FE7434639
:1074D000C91A1F291EDC10003A4B8C404344D84087
:1074E0008A400300944623438DE75146019E8F1B3B
:1074F0001F2F32DCB24606003249BD405144CE4017
:10750000B8403543070076E72615B0462A4EB24606
:10751000D04465E741462C4B5B1A9A401300002289
:10752000944670E7EE02B046254E0196019E013E5C
:10753000019646467600B046002EF7DC3AE7E602B2
:10754000B2461F4EB04601267642B34656467600F6
:10755000D844B246002EF6DC42E7019D1A490027C6
:10756000491B8840050046E7184B194C9C464B4682
:1075700044446144240519430C430600A04606E731
:107580001F2B05DCD8400F4B4344994008439BE731
:107590000D4B9B1A1941080096E7084EB0461FE7AD
:1075A000064E019606E7C046FFFFEF7F0000F07F22
:1075B00098F20000FFFF0F0001FCFFFFEDFBFFFF53
:1075C00002FCFFFF1E040000E2FBFFFF0000F0FFD3
:1075D000FF030000F0B54E464546DE465746E0B58F
:1075E000E14B4C008FB09046894664089C4200DC19
:1075F00087E0DE4B9C4222DCDD4A002900DC92E081
:10760000DC4B04F00BFFDB4B06000F009C4200D16B
:107610007EE1D94AD94B04F001FF02000B0041463C
:1076200030000A604B60390004F0F8FED34BD24AB8
:1076300004F0F4FE434601259860D9606BE0D04B1E
:107640009C4200DC8FE0CF4B9C4200DD55E1CE4AEE
:10765000231592469A4451460905631A19001D00E4
:10766000040005F03FFA05F073FA02000B00200059
:1076700029000892099304F0D1FE0022C34B04F0C4
:107680005BFC0F00060005F02DFA05F061FA04001E
:107690000D0002000B00300039000A940B9504F035
:1076A000BDFE0022B94B04F047FC002200230C90E1
:1076B0000D9102F063FD002800D192E10023002229
:1076C0002000290002F05AFD434243410133B04AF1
:1076D00041460192022208A80092524600F036FF6D
:1076E0004B460500002B16DA8022434612069446CC
:1076F00042465B68454263445360D3686344D36049
:1077000009E00B00020041460A604B6000220023A2
:1077100000258A60CB6028000FB03CBC904699469B
:10772000A246AB46F0BD934B03F0E0FC914B060044
:107730000F009C4200D13DE18F4A904B03F0D6FCF4
:1077400002000B00414630000A604B60390004F033
:1077500065FE894A894B03F0C9FC012543466D4209
:107760009860D960D7E7FFF72BFB8A4A8A4B06005F
:107770000F0004F0E1FB0022884B03F0B7FC05F09A
:10778000B1F9050005F0E4F9794A7A4B04900591C6
:1077900004F0D2FB02000B003000390004F03EFE82
:1077A000754A06000F0004980599744B04F0C4FB59
:1077B000029003911F2D00DCC7E0029A039B30006A
:1077C000390004F02BFE83468A4653465B0024159D
:1077D0005B0DE31A102B6CDD04980599D322674BDF
:1077E000520504F0A9FB02000B00300039000292A0
:1077F000039304F013FE0A000100130006910792A0
:1078000002003900300004F009FE029A039B04F0E4
:1078100005FE06000F0004980599614A614B04F0CB
:107820008BFB32003B0004F0F9FD069E079F0B0026
:107830000200390030000292039304F0EFFD4B0088
:107840005B0D83468A46E41A312C32DD0498059993
:10785000B822544B920504F06FFB03000C000200A9
:10786000029303940B000698079904F0D7FD0200D9
:107870000B0006000F000698079904F0CFFD029A4E
:10788000039B04F0CBFD484A0290039104980599AC
:10789000464B04F051FB029A039B04F0BFFD02002B
:1078A0000B00300039000292039304F0B7FD8346C9
:1078B0008A465A465346414630000A604B603900BA
:1078C00004F0ACFD029A039B04F0A8FD44460B00B3
:1078D0000200A260E3604B46002B00DB1BE75B4627
:1078E000236080231B065344636080231B069C4651
:1078F0006144A060E1606D420DE70B00020004F0FE
:107900008DFD434600259860D9601860596002E7F4
:10791000D3221A4B520504F081FD214A214B0D0060
:10792000040004F07BFD02000B00414620000A60C9
:107930004B60290004F072FD1A4B194A04F06EFDE9
:10794000434601259860D960E5E602000B0030004F
:10795000390004F063FD6B1E154A9B009B5883465B
:107960008A46A342A5D130E7FB21E93F7BD90240FB
:1079700000004054FB21F93F3163621A61B4D03DED
:10798000FB213941FFFFEF7FEAFBFFFF0000704161
:1079900028F3000083C8C96D305FE43F0000E03F7A
:1079A0007370032E8A19A33BC14920259A837B3922
:1079B000A8F20000D3220C4B520503F097FB0B4AB0
:1079C0000B4B04000D0003F091FB02000B0041463D
:1079D00020000A604B60290004F020FD034A044B9C
:1079E000B9E6032373E6C04661B4D03D7370032E3D
:1079F0008A19A33BFE22F8B54300041C01005B0872
:107A00009205934261D05ADC9B4A934262DC8C22FD
:107A10009205934200DCCEE002F0F2FF9749051C8C
:107A200002F0EEFF964902F079FC291C02F0E8FF13
:107A3000944903F017F9291C02F0E2FF924902F081
:107A40006DFC291C02F0DCFF904903F00BF9291CA6
:107A500002F0D6FF8E4902F061FC291C02F0D0FF33
:107A60008C49061C281C02F0CBFF8B4903F0FAF866
:107A7000291C02F0C5FF894902F050FC291C02F0C4
:107A8000BFFF874903F0EEF8291C02F0B9FFFE2181
:107A9000890502F043FC011C301C02F0D9FD211CB9
:107AA00002F0AEFF011C7F4803F0DCF8011C201C33
:107AB00003F0D8F8011C7C4803F0D4F804E003F08C
:107AC000D1F8011C02F0C4FDF8BD0020002CFBDC45
:107AD0007648F9E7002870DBFE20800503F0C2F845
